{
  "address": "0x02CF0aabEC796bDCd5959633F76c09aCdfdB526f",
  "abi": [
    {
      "anonymous": false,
      "inputs": [
        {
          "indexed": false,
          "internalType": "address",
          "name": "previousAdmin",
          "type": "address"
        },
        {
          "indexed": false,
          "internalType": "address",
          "name": "newAdmin",
          "type": "address"
        }
      ],
      "name": "AdminChanged",
      "type": "event"
    },
    {
      "anonymous": false,
      "inputs": [
        {
          "indexed": true,
          "internalType": "address",
          "name": "beacon",
          "type": "address"
        }
      ],
      "name": "BeaconUpgraded",
      "type": "event"
    },
    {
      "anonymous": false,
      "inputs": [
        {
          "indexed": false,
          "internalType": "uint8",
          "name": "version",
          "type": "uint8"
        }
      ],
      "name": "Initialized",
      "type": "event"
    },
    {
      "anonymous": false,
      "inputs": [
        {
          "indexed": true,
          "internalType": "address",
          "name": "implementation",
          "type": "address"
        }
      ],
      "name": "Upgraded",
      "type": "event"
    },
    {
      "inputs": [
        {
          "internalType": "address",
          "name": "_item",
          "type": "address"
        }
      ],
      "name": "addItem",
      "outputs": [],
      "stateMutability": "nonpayable",
      "type": "function"
    },
    {
      "inputs": [
        {
          "internalType": "address",
          "name": "_stakingStrategy",
          "type": "address"
        }
      ],
      "name": "addStakingStrategy",
      "outputs": [],
      "stateMutability": "nonpayable",
      "type": "function"
    },
    {
      "inputs": [
        {
          "internalType": "address",
          "name": "_item",
          "type": "address"
        }
      ],
      "name": "deleteItem",
      "outputs": [],
      "stateMutability": "nonpayable",
      "type": "function"
    },
    {
      "inputs": [
        {
          "internalType": "address",
          "name": "_stakingStrategy",
          "type": "address"
        }
      ],
      "name": "deleteStakingStrategy",
      "outputs": [],
      "stateMutability": "nonpayable",
      "type": "function"
    },
    {
      "inputs": [
        {
          "internalType": "address",
          "name": "_contract",
          "type": "address"
        }
      ],
      "name": "enforceIsItemContract",
      "outputs": [],
      "stateMutability": "view",
      "type": "function"
    },
    {
      "inputs": [
        {
          "internalType": "address",
          "name": "_account",
          "type": "address"
        }
      ],
      "name": "enforceIsProductOwner",
      "outputs": [],
      "stateMutability": "view",
      "type": "function"
    },
    {
      "inputs": [
        {
          "internalType": "address",
          "name": "_contract",
          "type": "address"
        }
      ],
      "name": "enforceIsStakingStrategyContract",
      "outputs": [],
      "stateMutability": "view",
      "type": "function"
    },
    {
      "inputs": [
        {
          "internalType": "address",
          "name": "_prodcutOwner",
          "type": "address"
        }
      ],
      "name": "initialize",
      "outputs": [],
      "stateMutability": "nonpayable",
      "type": "function"
    },
    {
      "inputs": [
        {
          "internalType": "address",
          "name": "",
          "type": "address"
        }
      ],
      "name": "items",
      "outputs": [
        {
          "internalType": "bool",
          "name": "",
          "type": "bool"
        }
      ],
      "stateMutability": "view",
      "type": "function"
    },
    {
      "inputs": [],
      "name": "productOwner",
      "outputs": [
        {
          "internalType": "address",
          "name": "",
          "type": "address"
        }
      ],
      "stateMutability": "view",
      "type": "function"
    },
    {
      "inputs": [],
      "name": "proxiableUUID",
      "outputs": [
        {
          "internalType": "bytes32",
          "name": "",
          "type": "bytes32"
        }
      ],
      "stateMutability": "view",
      "type": "function"
    },
    {
      "inputs": [
        {
          "internalType": "address",
          "name": "_newProductOwner",
          "type": "address"
        }
      ],
      "name": "setProductOwner",
      "outputs": [],
      "stateMutability": "nonpayable",
      "type": "function"
    },
    {
      "inputs": [
        {
          "internalType": "address",
          "name": "_treasury",
          "type": "address"
        }
      ],
      "name": "setTreasury",
      "outputs": [],
      "stateMutability": "nonpayable",
      "type": "function"
    },
    {
      "inputs": [
        {
          "internalType": "address",
          "name": "",
          "type": "address"
        }
      ],
      "name": "stakingStrategies",
      "outputs": [
        {
          "internalType": "bool",
          "name": "",
          "type": "bool"
        }
      ],
      "stateMutability": "view",
      "type": "function"
    },
    {
      "inputs": [],
      "name": "treasury",
      "outputs": [
        {
          "internalType": "address",
          "name": "",
          "type": "address"
        }
      ],
      "stateMutability": "view",
      "type": "function"
    },
    {
      "inputs": [
        {
          "internalType": "address",
          "name": "newImplementation",
          "type": "address"
        }
      ],
      "name": "upgradeTo",
      "outputs": [],
      "stateMutability": "nonpayable",
      "type": "function"
    },
    {
      "inputs": [
        {
          "internalType": "address",
          "name": "newImplementation",
          "type": "address"
        },
        {
          "internalType": "bytes",
          "name": "data",
          "type": "bytes"
        }
      ],
      "name": "upgradeToAndCall",
      "outputs": [],
      "stateMutability": "payable",
      "type": "function"
    }
  ],
  "transactionHash": "0x1aeb34ed29eb21d99bd52107a68df0fe7641b4dc3ff571b78324d320b3d2eb67",
  "args": [],
  "numDeployments": 1,
  "solcInputHash": "c7174b674bdb63c659ed4790164853df",
  "bytecode": "0x60a080604052346100315730608052610ede908161003782396080518181816105020152818161062b015261091d0152f35b600080fdfe608060408181526004908136101561001657600080fd5b600092833560e01c90816315bfd3f014610b0e5750806333acee6c14610aec5780633659cfe6146108f757806339289536146108b65780634f1ef286146105b257806352d1902d146104ed5780635ee0531d146104af57806361d027b314610486578063758db588146104455780637cf90fcc14610401578063800c06a2146103975780639209bb881461036e578063c4d66de81461023a578063d321411c146101fc578063d92946b4146101bb578063e39c7c56146101735763f0f44260146100df57600080fd5b3461016f57602036600319011261016f576100f8610b85565b61010133610e36565b606654926001600160a01b039283851661012c57505016906001600160601b0360a01b161760665580f35b906020606492519162461bcd60e51b8352820152601860248201527f747265617375727920616c7265616479207365747465642100000000000000006044820152fd5b8280fd5b8382346101b75760203660031901126101b75761018e610b85565b61019733610e36565b6001600160a01b0316825260686020528120805460ff1916600117905580f35b5080fd5b8382346101b75760203660031901126101b7576101d6610b85565b6101df33610e36565b6001600160a01b0316825260686020528120805460ff1916905580f35b8382346101b75760203660031901126101b75760209160ff9082906001600160a01b03610227610b85565b1681526067855220541690519015158152f35b50903461016f57602036600319011261016f57610255610b85565b835460ff8160081c161592838094610361575b801561034a575b156102f0575060ff1981166001178555826102df575b5060018060a01b03166001600160601b0360a01b60655416176065556102a9575080f35b60207f7f26b83ff96e1f2b6a682f133852f6798a09c465da95921460cefb38474024989161ff001984541684555160018152a180f35b61ffff191661010117845538610285565b608490602086519162461bcd60e51b8352820152602e60248201527f496e697469616c697a61626c653a20636f6e747261637420697320616c72656160448201526d191e481a5b9a5d1a585b1a5e995960921b6064820152fd5b50303b15801561026f5750600160ff83161461026f565b50600160ff831610610268565b8382346101b757816003193601126101b75760655490516001600160a01b039091168152602090f35b503461016f57602036600319011261016f576001600160a01b036103b9610b85565b168352606760205260ff8184205416156103d1578280f35b906020606492519162461bcd60e51b8352820152600a6024820152696f6e6c79206974656d2160b01b6044820152fd5b8382346101b75760203660031901126101b75761041c610b85565b61042533610e36565b6001600160a01b0316825260676020528120805460ff1916600117905580f35b8382346101b75760203660031901126101b757610460610b85565b61046933610e36565b6001600160a01b0316825260676020528120805460ff1916905580f35b8382346101b757816003193601126101b75760665490516001600160a01b039091168152602090f35b8382346101b75760203660031901126101b75760209160ff9082906001600160a01b036104da610b85565b1681526068855220541690519015158152f35b5091346105af57806003193601126105af57507f00000000000000000000000000000000000000000000000000000000000000006001600160a01b031630036105475760208251600080516020610e898339815191528152f35b6020608492519162461bcd60e51b8352820152603860248201527f555550535570677261646561626c653a206d757374206e6f742062652063616c60448201527f6c6564207468726f7567682064656c656761746563616c6c00000000000000006064820152fd5b80fd5b508060031936011261016f576105c6610b85565b906024359067ffffffffffffffff82116108b257366023830112156108b257818401356105f281610bf4565b6105fe83519182610bd2565b8181528660209485830193366024828401011161016f578060248893018637830101526001600160a01b037f000000000000000000000000000000000000000000000000000000000000000081169061065930831415610c10565b610676600080516020610e89833981519152928284541614610c71565b61067f33610e36565b7f4910fdfa16fed3260ed0e7147f7cc6da11a60208b5b9406d12a635614ffd91435460ff16156106bc575050505050506106b99150610cd2565b80f35b869293949596169085516352d1902d60e01b815287818a81865afa8a918161087f575b5061073e57865162461bcd60e51b8152808a01899052602e60248201527f45524331393637557067726164653a206e657720696d706c656d656e7461746960448201526d6f6e206973206e6f74205555505360901b6064820152608490fd5b97919293969594970361082a575061075582610cd2565b7fbc7cd75a20ee27fd9adebab32041f755214dbc6bffa90cc0225b39da2e5c2d3b8780a285845115801590610822575b610793575b50505050505080f35b8061080c968451966107a488610ba0565b602788527f416464726573733a206c6f772d6c6576656c2064656c65676174652063616c6c87890152660819985a5b195960ca1b868901525190845af4913d15610818573d6107fe6107f582610bf4565b92519283610bd2565b81528681943d92013e610d62565b5038808080808561078a565b5060609250610d62565b506001610785565b835162461bcd60e51b8152908101859052602960248201527f45524331393637557067726164653a20756e737570706f727465642070726f786044820152681a58589b195555525160ba1b6064820152608490fd5b9091508881813d83116108ab575b6108978183610bd2565b810103126108a7575190386106df565b8a80fd5b503d61088d565b8480fd5b83346105af5760203660031901126105af576108d0610b85565b6108d933610e36565b60018060a01b03166001600160601b0360a01b606554161760655580f35b503461016f57602080600319360112610ae857610912610b85565b916001600160a01b037f0000000000000000000000000000000000000000000000000000000000000000811661094a30821415610c10565b610967600080516020610e89833981519152918383541614610c71565b61097033610e36565b8251908482019282841067ffffffffffffffff851117610ad5578385528883527f4910fdfa16fed3260ed0e7147f7cc6da11a60208b5b9406d12a635614ffd91435460ff16156109ca575050505050506106b99150610cd2565b869293949596169085516352d1902d60e01b815287818a81865afa8a9181610aa6575b50610a4c57865162461bcd60e51b8152808a01899052602e60248201527f45524331393637557067726164653a206e657720696d706c656d656e7461746960448201526d6f6e206973206e6f74205555505360901b6064820152608490fd5b97919293969594970361082a5750610a6382610cd2565b7fbc7cd75a20ee27fd9adebab32041f755214dbc6bffa90cc0225b39da2e5c2d3b8780a285845115801590610a9f576107935750505050505080f35b5080610785565b9091508881813d8311610ace575b610abe8183610bd2565b810103126108a7575190386109ed565b503d610ab4565b634e487b7160e01b895260418852602489fd5b8380fd5b83346105af5760203660031901126105af576106b9610b09610b85565b610e36565b9291905034610ae8576020366003190112610ae85760ff906001600160a01b03610b36610b85565b16855260686020528420541615610b4b578280f35b62461bcd60e51b825260209082015260166024820152756f6e6c79207374616b696e672073747261746567792160501b6044820152606490fd5b600435906001600160a01b0382168203610b9b57565b600080fd5b6060810190811067ffffffffffffffff821117610bbc57604052565b634e487b7160e01b600052604160045260246000fd5b90601f8019910116810190811067ffffffffffffffff821117610bbc57604052565b67ffffffffffffffff8111610bbc57601f01601f191660200190565b15610c1757565b60405162461bcd60e51b815260206004820152602c60248201527f46756e6374696f6e206d7573742062652063616c6c6564207468726f7567682060448201526b19195b1959d85d1958d85b1b60a21b6064820152608490fd5b15610c7857565b60405162461bcd60e51b815260206004820152602c60248201527f46756e6374696f6e206d7573742062652063616c6c6564207468726f7567682060448201526b6163746976652070726f787960a01b6064820152608490fd5b803b15610d0757600080516020610e8983398151915280546001600160a01b0319166001600160a01b03909216919091179055565b60405162461bcd60e51b815260206004820152602d60248201527f455243313936373a206e657720696d706c656d656e746174696f6e206973206e60448201526c1bdd08184818dbdb9d1c9858dd609a1b6064820152608490fd5b91929015610dc45750815115610d76575090565b3b15610d7f5790565b60405162461bcd60e51b815260206004820152601d60248201527f416464726573733a2063616c6c20746f206e6f6e2d636f6e74726163740000006044820152606490fd5b825190915015610dd75750805190602001fd5b6040519062461bcd60e51b82528160208060048301528251908160248401526000935b828510610e1d575050604492506000838284010152601f80199101168101030190fd5b8481018201518686016044015293810193859350610dfa565b6065546001600160a01b03908116911603610e4d57565b60405162461bcd60e51b81526020600482015260136024820152726f6e6c792070726f64756374206f776e65722160681b6044820152606490fdfe360894a13ba1a3210667c828492db98dca3e2076cc3735a920a3ca505d382bbca264697066735822122085554db6dfae65dc15affddc7e5a2cae9a049c70bc6d419e6ea5d8ff0040132264736f6c63430008120033",
  "devdoc": {
    "events": {
      "AdminChanged(address,address)": {
        "details": "Emitted when the admin account has changed."
      },
      "BeaconUpgraded(address)": {
        "details": "Emitted when the beacon is changed."
      },
      "Initialized(uint8)": {
        "details": "Triggered when the contract has been initialized or reinitialized."
      },
      "Upgraded(address)": {
        "details": "Emitted when the implementation is upgraded."
      }
    },
    "kind": "dev",
    "methods": {
      "proxiableUUID()": {
        "details": "Implementation of the ERC1822 {proxiableUUID} function. This returns the storage slot used by the implementation. It is used to validate the implementation's compatibility when performing an upgrade. IMPORTANT: A proxy pointing at a proxiable contract should not be considered proxiable itself, because this risks bricking a proxy that upgrades to it, by delegating to itself until out of gas. Thus it is critical that this function revert if invoked through a proxy. This is guaranteed by the `notDelegated` modifier."
      },
      "upgradeTo(address)": {
        "custom:oz-upgrades-unsafe-allow-reachable": "delegatecall",
        "details": "Upgrade the implementation of the proxy to `newImplementation`. Calls {_authorizeUpgrade}. Emits an {Upgraded} event."
      },
      "upgradeToAndCall(address,bytes)": {
        "custom:oz-upgrades-unsafe-allow-reachable": "delegatecall",
        "details": "Upgrade the implementation of the proxy to `newImplementation`, and subsequently execute the function call encoded in `data`. Calls {_authorizeUpgrade}. Emits an {Upgraded} event."
      }
    },
    "version": 1
  },
  "userdoc": {
    "kind": "user",
    "methods": {},
    "version": 1
  },
  "storageLayout": {
    "storage": [
      {
        "astId": 371,
        "contract": "contracts/core/AddessBook.sol:AddressBook",
        "label": "_initialized",
        "offset": 0,
        "slot": "0",
        "type": "t_uint8"
      },
      {
        "astId": 374,
        "contract": "contracts/core/AddessBook.sol:AddressBook",
        "label": "_initializing",
        "offset": 1,
        "slot": "0",
        "type": "t_bool"
      },
      {
        "astId": 353,
        "contract": "contracts/core/AddessBook.sol:AddressBook",
        "label": "__gap",
        "offset": 0,
        "slot": "1",
        "type": "t_array(t_uint256)50_storage"
      },
      {
        "astId": 668,
        "contract": "contracts/core/AddessBook.sol:AddressBook",
        "label": "__gap",
        "offset": 0,
        "slot": "51",
        "type": "t_array(t_uint256)50_storage"
      },
      {
        "astId": 4717,
        "contract": "contracts/core/AddessBook.sol:AddressBook",
        "label": "productOwner",
        "offset": 0,
        "slot": "101",
        "type": "t_address"
      },
      {
        "astId": 4719,
        "contract": "contracts/core/AddessBook.sol:AddressBook",
        "label": "treasury",
        "offset": 0,
        "slot": "102",
        "type": "t_address"
      },
      {
        "astId": 4723,
        "contract": "contracts/core/AddessBook.sol:AddressBook",
        "label": "items",
        "offset": 0,
        "slot": "103",
        "type": "t_mapping(t_address,t_bool)"
      },
      {
        "astId": 4727,
        "contract": "contracts/core/AddessBook.sol:AddressBook",
        "label": "stakingStrategies",
        "offset": 0,
        "slot": "104",
        "type": "t_mapping(t_address,t_bool)"
      }
    ],
    "types": {
      "t_address": {
        "encoding": "inplace",
        "label": "address",
        "numberOfBytes": "20"
      },
      "t_array(t_uint256)50_storage": {
        "base": "t_uint256",
        "encoding": "inplace",
        "label": "uint256[50]",
        "numberOfBytes": "1600"
      },
      "t_bool": {
        "encoding": "inplace",
        "label": "bool",
        "numberOfBytes": "1"
      },
      "t_mapping(t_address,t_bool)": {
        "encoding": "mapping",
        "key": "t_address",
        "label": "mapping(address => bool)",
        "numberOfBytes": "32",
        "value": "t_bool"
      },
      "t_uint256": {
        "encoding": "inplace",
        "label": "uint256",
        "numberOfBytes": "32"
      },
      "t_uint8": {
        "encoding": "inplace",
        "label": "uint8",
        "numberOfBytes": "1"
      }
    }
  }
}