{
  "address": "0x74155fDf94465f3592aF35dB48a29dDE1672722B",
  "abi": [
    {
      "anonymous": false,
      "inputs": [
        {
          "indexed": false,
          "internalType": "address",
          "name": "previousAdmin",
          "type": "address"
        },
        {
          "indexed": false,
          "internalType": "address",
          "name": "newAdmin",
          "type": "address"
        }
      ],
      "name": "AdminChanged",
      "type": "event"
    },
    {
      "anonymous": false,
      "inputs": [
        {
          "indexed": true,
          "internalType": "address",
          "name": "beacon",
          "type": "address"
        }
      ],
      "name": "BeaconUpgraded",
      "type": "event"
    },
    {
      "anonymous": false,
      "inputs": [
        {
          "indexed": false,
          "internalType": "address",
          "name": "itemAddress",
          "type": "address"
        },
        {
          "indexed": false,
          "internalType": "uint256",
          "name": "itemId",
          "type": "uint256"
        },
        {
          "indexed": false,
          "internalType": "address",
          "name": "itemOwner",
          "type": "address"
        },
        {
          "indexed": false,
          "internalType": "uint256",
          "name": "rewards",
          "type": "uint256"
        },
        {
          "indexed": false,
          "internalType": "uint256",
          "name": "claimedPeriods",
          "type": "uint256"
        },
        {
          "indexed": false,
          "internalType": "address",
          "name": "withdrawToken",
          "type": "address"
        },
        {
          "indexed": false,
          "internalType": "uint256",
          "name": "withdrawTokenAmount",
          "type": "uint256"
        }
      ],
      "name": "Claim",
      "type": "event"
    },
    {
      "anonymous": false,
      "inputs": [
        {
          "indexed": false,
          "internalType": "uint8",
          "name": "version",
          "type": "uint8"
        }
      ],
      "name": "Initialized",
      "type": "event"
    },
    {
      "anonymous": false,
      "inputs": [
        {
          "indexed": false,
          "internalType": "address",
          "name": "itemAddress",
          "type": "address"
        },
        {
          "indexed": false,
          "internalType": "uint256",
          "name": "itemId",
          "type": "uint256"
        },
        {
          "indexed": false,
          "internalType": "address",
          "name": "itemOwner",
          "type": "address"
        },
        {
          "indexed": false,
          "internalType": "uint256",
          "name": "sellPrice",
          "type": "uint256"
        },
        {
          "indexed": false,
          "internalType": "address",
          "name": "withdrawToken",
          "type": "address"
        },
        {
          "indexed": false,
          "internalType": "uint256",
          "name": "withdrawTokenAmount",
          "type": "uint256"
        }
      ],
      "name": "Sell",
      "type": "event"
    },
    {
      "anonymous": false,
      "inputs": [
        {
          "indexed": false,
          "internalType": "address",
          "name": "itemAddress",
          "type": "address"
        },
        {
          "indexed": false,
          "internalType": "uint256",
          "name": "itemId",
          "type": "uint256"
        },
        {
          "indexed": false,
          "internalType": "address",
          "name": "itemOwner",
          "type": "address"
        },
        {
          "indexed": false,
          "internalType": "uint256",
          "name": "itemsPrice",
          "type": "uint256"
        },
        {
          "indexed": false,
          "internalType": "uint256",
          "name": "initialTimestamp",
          "type": "uint256"
        },
        {
          "indexed": false,
          "internalType": "uint256",
          "name": "finalTimestamp",
          "type": "uint256"
        }
      ],
      "name": "Stake",
      "type": "event"
    },
    {
      "anonymous": false,
      "inputs": [
        {
          "indexed": true,
          "internalType": "address",
          "name": "implementation",
          "type": "address"
        }
      ],
      "name": "Upgraded",
      "type": "event"
    },
    {
      "inputs": [],
      "name": "REWARDS_PERIOD",
      "outputs": [
        {
          "internalType": "uint256",
          "name": "",
          "type": "uint256"
        }
      ],
      "stateMutability": "view",
      "type": "function"
    },
    {
      "inputs": [],
      "name": "__addedDays",
      "outputs": [
        {
          "internalType": "uint256",
          "name": "",
          "type": "uint256"
        }
      ],
      "stateMutability": "view",
      "type": "function"
    },
    {
      "inputs": [
        {
          "internalType": "uint256",
          "name": "_daysCount",
          "type": "uint256"
        }
      ],
      "name": "addDays",
      "outputs": [],
      "stateMutability": "nonpayable",
      "type": "function"
    },
    {
      "inputs": [],
      "name": "addressBook",
      "outputs": [
        {
          "internalType": "address",
          "name": "",
          "type": "address"
        }
      ],
      "stateMutability": "view",
      "type": "function"
    },
    {
      "inputs": [
        {
          "internalType": "address",
          "name": "_itemAddress",
          "type": "address"
        },
        {
          "internalType": "uint256",
          "name": "_itemId",
          "type": "uint256"
        }
      ],
      "name": "canSell",
      "outputs": [
        {
          "internalType": "bool",
          "name": "",
          "type": "bool"
        }
      ],
      "stateMutability": "view",
      "type": "function"
    },
    {
      "inputs": [
        {
          "internalType": "address",
          "name": "_itemAddress",
          "type": "address"
        },
        {
          "internalType": "uint256",
          "name": "_itemId",
          "type": "uint256"
        },
        {
          "internalType": "address",
          "name": "_withdrawToken",
          "type": "address"
        }
      ],
      "name": "claim",
      "outputs": [],
      "stateMutability": "nonpayable",
      "type": "function"
    },
    {
      "inputs": [
        {
          "internalType": "address",
          "name": "_itemAddress",
          "type": "address"
        },
        {
          "internalType": "uint256",
          "name": "_itemId",
          "type": "uint256"
        },
        {
          "internalType": "uint256",
          "name": "_monthsCount",
          "type": "uint256"
        }
      ],
      "name": "claimTimestamp",
      "outputs": [
        {
          "internalType": "uint256",
          "name": "",
          "type": "uint256"
        }
      ],
      "stateMutability": "view",
      "type": "function"
    },
    {
      "inputs": [
        {
          "internalType": "address",
          "name": "item",
          "type": "address"
        },
        {
          "internalType": "uint256",
          "name": "tokenId",
          "type": "uint256"
        }
      ],
      "name": "claimedPeriodsCount",
      "outputs": [
        {
          "internalType": "uint256",
          "name": "",
          "type": "uint256"
        }
      ],
      "stateMutability": "view",
      "type": "function"
    },
    {
      "inputs": [
        {
          "internalType": "address",
          "name": "_itemAddress",
          "type": "address"
        },
        {
          "internalType": "uint256",
          "name": "_itemId",
          "type": "uint256"
        }
      ],
      "name": "estimateRewards",
      "outputs": [
        {
          "internalType": "uint256",
          "name": "rewards_",
          "type": "uint256"
        },
        {
          "internalType": "uint256",
          "name": "claimedPeriods_",
          "type": "uint256"
        }
      ],
      "stateMutability": "view",
      "type": "function"
    },
    {
      "inputs": [
        {
          "internalType": "address",
          "name": "_itemAddress",
          "type": "address"
        },
        {
          "internalType": "uint256",
          "name": "_itemId",
          "type": "uint256"
        }
      ],
      "name": "estimateSell",
      "outputs": [
        {
          "internalType": "uint256",
          "name": "",
          "type": "uint256"
        }
      ],
      "stateMutability": "view",
      "type": "function"
    },
    {
      "inputs": [
        {
          "internalType": "address",
          "name": "item",
          "type": "address"
        },
        {
          "internalType": "uint256",
          "name": "tokenId",
          "type": "uint256"
        }
      ],
      "name": "finalTimestamp",
      "outputs": [
        {
          "internalType": "uint256",
          "name": "",
          "type": "uint256"
        }
      ],
      "stateMutability": "view",
      "type": "function"
    },
    {
      "inputs": [
        {
          "internalType": "address",
          "name": "item",
          "type": "address"
        },
        {
          "internalType": "uint256",
          "name": "tokenId",
          "type": "uint256"
        }
      ],
      "name": "initialTimestamp",
      "outputs": [
        {
          "internalType": "uint256",
          "name": "",
          "type": "uint256"
        }
      ],
      "stateMutability": "view",
      "type": "function"
    },
    {
      "inputs": [
        {
          "internalType": "address",
          "name": "_addressBook",
          "type": "address"
        },
        {
          "internalType": "uint256",
          "name": "_rewardsRate",
          "type": "uint256"
        },
        {
          "internalType": "uint256",
          "name": "_lockYears",
          "type": "uint256"
        },
        {
          "internalType": "uint256",
          "name": "_yearDeprecationRate",
          "type": "uint256"
        }
      ],
      "name": "initialize",
      "outputs": [],
      "stateMutability": "nonpayable",
      "type": "function"
    },
    {
      "inputs": [
        {
          "internalType": "address",
          "name": "item",
          "type": "address"
        },
        {
          "internalType": "uint256",
          "name": "tokenId",
          "type": "uint256"
        }
      ],
      "name": "isStakedToken",
      "outputs": [
        {
          "internalType": "bool",
          "name": "",
          "type": "bool"
        }
      ],
      "stateMutability": "view",
      "type": "function"
    },
    {
      "inputs": [
        {
          "internalType": "address",
          "name": "item",
          "type": "address"
        },
        {
          "internalType": "uint256",
          "name": "tokenId",
          "type": "uint256"
        }
      ],
      "name": "itemsPrice",
      "outputs": [
        {
          "internalType": "uint256",
          "name": "",
          "type": "uint256"
        }
      ],
      "stateMutability": "view",
      "type": "function"
    },
    {
      "inputs": [],
      "name": "lockYears",
      "outputs": [
        {
          "internalType": "uint256",
          "name": "",
          "type": "uint256"
        }
      ],
      "stateMutability": "view",
      "type": "function"
    },
    {
      "inputs": [],
      "name": "maxPeriodsCount",
      "outputs": [
        {
          "internalType": "uint256",
          "name": "",
          "type": "uint256"
        }
      ],
      "stateMutability": "view",
      "type": "function"
    },
    {
      "inputs": [],
      "name": "proxiableUUID",
      "outputs": [
        {
          "internalType": "bytes32",
          "name": "",
          "type": "bytes32"
        }
      ],
      "stateMutability": "view",
      "type": "function"
    },
    {
      "inputs": [],
      "name": "rewardsRate",
      "outputs": [
        {
          "internalType": "uint256",
          "name": "",
          "type": "uint256"
        }
      ],
      "stateMutability": "view",
      "type": "function"
    },
    {
      "inputs": [
        {
          "internalType": "address",
          "name": "_itemAddress",
          "type": "address"
        },
        {
          "internalType": "uint256",
          "name": "_itemId",
          "type": "uint256"
        },
        {
          "internalType": "address",
          "name": "_withdrawToken",
          "type": "address"
        }
      ],
      "name": "sell",
      "outputs": [],
      "stateMutability": "nonpayable",
      "type": "function"
    },
    {
      "inputs": [
        {
          "internalType": "address",
          "name": "_itemAddress",
          "type": "address"
        },
        {
          "internalType": "uint256",
          "name": "_itemId",
          "type": "uint256"
        },
        {
          "internalType": "bytes",
          "name": "",
          "type": "bytes"
        }
      ],
      "name": "stake",
      "outputs": [],
      "stateMutability": "nonpayable",
      "type": "function"
    },
    {
      "inputs": [],
      "name": "stakingType",
      "outputs": [
        {
          "internalType": "string",
          "name": "",
          "type": "string"
        }
      ],
      "stateMutability": "pure",
      "type": "function"
    },
    {
      "inputs": [
        {
          "internalType": "address",
          "name": "newImplementation",
          "type": "address"
        }
      ],
      "name": "upgradeTo",
      "outputs": [],
      "stateMutability": "nonpayable",
      "type": "function"
    },
    {
      "inputs": [
        {
          "internalType": "address",
          "name": "newImplementation",
          "type": "address"
        },
        {
          "internalType": "bytes",
          "name": "data",
          "type": "bytes"
        }
      ],
      "name": "upgradeToAndCall",
      "outputs": [],
      "stateMutability": "payable",
      "type": "function"
    },
    {
      "inputs": [
        {
          "internalType": "address",
          "name": "item",
          "type": "address"
        },
        {
          "internalType": "uint256",
          "name": "tokenId",
          "type": "uint256"
        }
      ],
      "name": "withdrawnRewards",
      "outputs": [
        {
          "internalType": "uint256",
          "name": "",
          "type": "uint256"
        }
      ],
      "stateMutability": "view",
      "type": "function"
    },
    {
      "inputs": [],
      "name": "yearDeprecationRate",
      "outputs": [
        {
          "internalType": "uint256",
          "name": "",
          "type": "uint256"
        }
      ],
      "stateMutability": "view",
      "type": "function"
    }
  ],
  "transactionHash": "0x8ac7cc5a6314cf9056860fa3e45ba4991839a4cb8a9de57eeb848fa554feb546",
  "args": [],
  "numDeployments": 1,
  "solcInputHash": "484aaa5084cf8712325300fcc6dac02e",
  "bytecode": "0x60a080604052346100315730608052611cad908161003782396080518181816107910152818161089d0152610fd90152f35b600080fdfe608060408181526004918236101561001657600080fd5b600092833560e01c91826328eac12314611615575081632e6155c7146115e55781633540c919146112b15781633659cfe614610fb15781633e12170f14610d545781634d6f382414610cee5781634ec81af114610b765781634f1ef2861461085d578163523bc7d51461083e57816352d1902d1461077b5781635c0a1bf81461075d5781635da12a6d1461071c5781637cff250d146106fd5781637fcbd9ca146106de578163819f8f11146106a85781639a05d060146106675781639e96a26014610394578163a26c161314610375578163a3ad309a14610334578163b1b0db13146102f3578163b99c5a14146102b2578163c76659a114610280578163dabd5d651461025a578163de6c7fd214610213578163f1dfa8671461016e575063f5887cdd1461014357600080fd5b3461016a578160031936011261016a5760975490516001600160a01b039091168152602090f35b5080fd5b83833461016a57606036600319011261016a57610189611631565b6001600160a01b0316808352609f602090815282842060243580865290825283852054928552609d8252838520908552905281832054909262278d00604435818102939291811591850414171561020057602085856101e8868661199f565b918083116101f8575b5051908152f35b9150836101f1565b634e487b7160e01b815260118652602490fd5b50503461016a578060031936011261016a5760209160ff9082906001600160a01b0361023d611631565b168152609c85528181206024358252855220541690519015158152f35b83903461016a57602036600319011261016a5761027a903560a25461199f565b60a25580f35b50503461016a578060031936011261016a576020906102a96102a0611631565b60243590611b1b565b90519015158152f35b50503461016a578060031936011261016a5760209181906001600160a01b036102d9611631565b16815260a184528181206024358252845220549051908152f35b50503461016a578060031936011261016a5760209181906001600160a01b0361031a611631565b168152609d84528181206024358252845220549051908152f35b50503461016a578060031936011261016a5760209181906001600160a01b0361035b611631565b168152609f84528181206024358252845220549051908152f35b50503461016a578160031936011261016a57602090609b549051908152f35b919050346105a0576103a536611647565b6103b29492939194611a0a565b81516331a9108f60e11b81528381018690526001600160a01b03858116959093916020919082816024818b5afa90811561065d5786610411928b928d91610640575b5016926104028433146119cb565b61040c8282611bd0565b611a6d565b939092831561061357888b52609e8152818b208a8c528152818b2061043786825461199f565b9055888b5260a08152818b208a8c528152818b2061045685825461199f565b90558a888289609754168551928380926361d027b360e01b82525afa9081156105965790899183916105e6575b508451636676fbc560e11b8152808c018881526001600160a01b038b166020820152909b929091169084908c9081906040010381845afa9a8b156105dc57839b6105a4575b50803b156105a0578451631a4ca37b60e21b81526001600160a01b038a16928101928352602083018c9052336040840152918391839182908490829060600103925af180156105965761056c575b50989592828b60e09996937f547e9b3e3fc8b51c03d30648b377a2b951e562fabd27fb3e91925c87859e192a9b989551998a52890152870152606086015260808501521660a083015260c0820152a16001805580f35b61057f909a99989796959493929a61167b565b6105925790919293949596978a38610516565b8a80fd5b84513d84823e3d90fd5b8280fd5b8480929c508194503d83116105d5575b6105be81836116c1565b810103126105d0578c915199386104c8565b600080fd5b503d6105b4565b85513d85823e3d90fd5b6106069150843d861161060c575b6105fe81836116c1565b8101906119ac565b38610483565b503d6105f4565b8790606492519162461bcd60e51b83528201526008602482015267726577617264732160c01b6044820152fd5b6106579150863d881161060c576105fe81836116c1565b386103f4565b84513d8c823e3d90fd5b50503461016a578060031936011261016a5760209181906001600160a01b0361068e611631565b168152609e84528181206024358252845220549051908152f35b8284346106db57816003193601126106db57506106cf6106c6611631565b60243590611a6d565b82519182526020820152f35b80fd5b50503461016a578160031936011261016a5760209060a2549051908152f35b50503461016a578160031936011261016a576020906099549051908152f35b50503461016a578060031936011261016a5760209181906001600160a01b03610743611631565b16815260a084528181206024358252845220549051908152f35b50503461016a578160031936011261016a576020905162278d008152f35b905082346106db57806003193601126106db57507f00000000000000000000000000000000000000000000000000000000000000006001600160a01b031630036107d65760208251600080516020611c588339815191528152f35b6020608492519162461bcd60e51b8352820152603860248201527f555550535570677261646561626c653a206d757374206e6f742062652063616c60448201527f6c6564207468726f7567682064656c656761746563616c6c00000000000000006064820152fd5b50503461016a578160031936011261016a576020906098549051908152f35b918091506003193601126105a057610873611631565b9060243567ffffffffffffffff8111610b725761089390369085016116ff565b6001600160a01b037f000000000000000000000000000000000000000000000000000000000000000081169291906108cd3085141561178f565b6108ea600080516020611c588339815191529482865416146117f0565b868160975416803b1561016a5781602491865192838092630ceb3b9b60e21b8252338d8301525afa8015610b6857610b50575b50507f4910fdfa16fed3260ed0e7147f7cc6da11a60208b5b9406d12a635614ffd91435460ff161561095a57505050506109579150611851565b80f35b82516352d1902d60e01b81526020959394918416919086818981865afa60009181610b21575b506109df57855162461bcd60e51b8152808901889052602e60248201527f45524331393637557067726164653a206e657720696d706c656d656e7461746960448201526d6f6e206973206e6f74205555505360901b6064820152608490fd5b9691929594939603610acc57506109f585611851565b7fbc7cd75a20ee27fd9adebab32041f755214dbc6bffa90cc0225b39da2e5c2d3b600080a2825115801590610ac4575b610a31575b5050505080f35b610ab093600080835195610a44876116a5565b602787527f416464726573733a206c6f772d6c6576656c2064656c65676174652063616c6c86880152660819985a5b195960ca1b858801528581519101845af4913d15610aba573d610aa1610a98826116e3565b925192836116c1565b8152600081943d92013e6118e1565b5038808080610a2a565b50606092506118e1565b506001610a25565b825162461bcd60e51b8152908101849052602960248201527f45524331393637557067726164653a20756e737570706f727465642070726f786044820152681a58589b195555525160ba1b6064820152608490fd5b90918882813d8311610b49575b610b3881836116c1565b810103126106db5750519038610980565b503d610b2e565b610b599061167b565b610b6457863861091d565b8680fd5b85513d84823e3d90fd5b8480fd5b9050346105a05760803660031901126105a057610b91611631565b906044359084549260ff8460081c161593848095610ce1575b8015610cca575b15610c705760ff198116600117875584610c5f575b5060018060a01b03166bffffffffffffffffffffffff60a01b609754161760975560243560985581609955606435609a55600c820291808304600c1490151715610c4c5750609b55610c16575080f35b60207f7f26b83ff96e1f2b6a682f133852f6798a09c465da95921460cefb38474024989161ff001984541684555160018152a180f35b634e487b7160e01b855260119052602484fd5b61ffff191661010117865538610bc6565b855162461bcd60e51b8152602081850152602e60248201527f496e697469616c697a61626c653a20636f6e747261637420697320616c72656160448201526d191e481a5b9a5d1a585b1a5e995960921b6064820152608490fd5b50303b158015610bb15750600160ff821614610bb1565b50600160ff821610610baa565b8284346106db57806003193601126106db575080519080820182811067ffffffffffffffff821117610d3f57610d3b9350815260038252620ccd2f60eb1b60208301525191829182611746565b0390f35b604184634e487b7160e01b6000525260246000fd5b9050346105a05760603660031901126105a057610d6f611631565b906024359060443567ffffffffffffffff8111610fa157610d9390369083016116ff565b506097546001600160a01b03939084169086823b156106db5780602493885194858092634006035160e11b825233898301525afa928315610fa5578693610f88575b50501692838652602090609c82528587208488528252858720600160ff19825416179055610e01611c35565b92858852609d83528688208589528352838789205560995462278d00908082029182048103610f75576301da9c000290808204600c1490151715610f6257610e49908561199f565b94868952609f8452878920818a52845285888a205587519363501ad8ff60e11b8552808584818b5afa948515610f29578a95610f33575b50878a5260a18152888a20828b52815284898b2055818951936331a9108f60e11b855284015280836024818b5afa928315610f2957917f99c2e66699da715af329bef2570b67ac1cc40e8c412acc8dfab52ec0cff9581e99939160c09998979695938c93610f0a575b50845198895288015216908501526060840152608083015260a0820152a180f35b81610f229294503d851161060c576105fe81836116c1565b9138610ee9565b89513d8c823e3d90fd5b9080955081813d8311610f5b575b610f4b81836116c1565b810103126105d057519338610e80565b503d610f41565b634e487b7160e01b895260118252602489fd5b634e487b7160e01b8a526011835260248afd5b610f949192935061167b565b610fa15783908638610dd5565b8580fd5b508651903d90823e3d90fd5b919050346105a0576020806003193601126112ad57610fce611631565b916001600160a01b037f000000000000000000000000000000000000000000000000000000000000000081166110063082141561178f565b611023600080516020611c588339815191529183835416146117f0565b868260975416803b1561016a5781602491865192838092630ceb3b9b60e21b8252338d8301525afa8015610b6857611299575b50508251908482019282841067ffffffffffffffff851117611284578385528883527f4910fdfa16fed3260ed0e7147f7cc6da11a60208b5b9406d12a635614ffd91435460ff16156110b2575050505050506109579150611851565b869293949596169085516352d1902d60e01b815287818a81865afa60009181611255575b5061113557865162461bcd60e51b8152808a01899052602e60248201527f45524331393637557067726164653a206e657720696d706c656d656e7461746960448201526d6f6e206973206e6f74205555505360901b6064820152608490fd5b979192939695949703611200575061114c82611851565b7fbc7cd75a20ee27fd9adebab32041f755214dbc6bffa90cc0225b39da2e5c2d3b600080a28351158015906111f8575b611189575b505050505080f35b6000806111ed9684519661119c886116a5565b602788527f416464726573733a206c6f772d6c6576656c2064656c65676174652063616c6c87890152660819985a5b195960ca1b868901525190845af4913d15610aba573d610aa1610a98826116e3565b503880808080611181565b50600061117c565b835162461bcd60e51b8152908101859052602960248201527f45524331393637557067726164653a20756e737570706f727465642070726f786044820152681a58589b195555525160ba1b6064820152608490fd5b90918982813d831161127d575b61126c81836116c1565b810103126106db57505190386110d6565b503d611262565b604188634e487b7160e01b6000525260246000fd5b6112a29061167b565b610b64578638611056565b8380fd5b919050346105a0576112c236611647565b6112ce94929194611a0a565b83516331a9108f60e11b81528381018690526001600160a01b038381169590939160209081816024818b5afa9081156115db579086918b916115be575b5016926113198433146119cb565b6113238982611bd0565b61132d8982611b1b565b1561158d5790869392918187609754168451968780926361d027b360e01b82525afa9485156115835787918b918d9761155e575b509061136c91611b78565b8351636676fbc560e11b8152808a018281526001600160a01b03891660208201529099919691929091169083908a9081906040010381845afa988915611554578c99611521575b5088156114f057898c5260a08352838c208b8d528352838c206113d787825461199f565b90558b8a3b156106db578451630852cd8d60e31b81528381018d90529081602481838f5af180156114e6576114d1575b5090818c923b156105a0578451631a4ca37b60e21b81526001600160a01b038916928101928352602083018b9052336040840152918391839182908490829060600103925af18015610596576114a9575b5050907f5d431a60d05c2d376ada5a88a66968da29820db1acf8a7ce7b3086c7cc3191cf9860c0989796959493928251988952880152860152606085015216608083015260a0820152a16001805580f35b6114bb9099989796959493929961167b565b6114cd57909192939495968938611458565b8980fd5b6114de909c91929c61167b565b9a9038611407565b85513d8f823e3d90fd5b50915162461bcd60e51b815291820152600c60248201526b7a65726f20616d6f756e742160a01b6044820152606490fd5b9098508281813d831161154d575b61153981836116c1565b81010312611549575197386113b3565b8b80fd5b503d61152f565b84513d8e823e3d90fd5b61136c9291975061157b90853d871161060c576105fe81836116c1565b969091611361565b83513d8d823e3d90fd5b825162461bcd60e51b8152808801839052600b60248201526a63616e27742073656c6c2160a81b6044820152606490fd5b6115d59150833d851161060c576105fe81836116c1565b3861130b565b83513d8c823e3d90fd5b50503461016a578060031936011261016a5760209061160e611605611631565b60243590611b78565b9051908152f35b84903461016a578160031936011261016a57602090609a548152f35b600435906001600160a01b03821682036105d057565b60609060031901126105d0576001600160a01b0360043581811681036105d057916024359160443590811681036105d05790565b67ffffffffffffffff811161168f57604052565b634e487b7160e01b600052604160045260246000fd5b6060810190811067ffffffffffffffff82111761168f57604052565b90601f8019910116810190811067ffffffffffffffff82111761168f57604052565b67ffffffffffffffff811161168f57601f01601f191660200190565b81601f820112156105d057803590611716826116e3565b9261172460405194856116c1565b828452602083830101116105d057816000926020809301838601378301015290565b6020808252825181830181905290939260005b82811061177b57505060409293506000838284010152601f8019910116010190565b818101860151848201604001528501611759565b1561179657565b60405162461bcd60e51b815260206004820152602c60248201527f46756e6374696f6e206d7573742062652063616c6c6564207468726f7567682060448201526b19195b1959d85d1958d85b1b60a21b6064820152608490fd5b156117f757565b60405162461bcd60e51b815260206004820152602c60248201527f46756e6374696f6e206d7573742062652063616c6c6564207468726f7567682060448201526b6163746976652070726f787960a01b6064820152608490fd5b803b1561188657600080516020611c5883398151915280546001600160a01b0319166001600160a01b03909216919091179055565b60405162461bcd60e51b815260206004820152602d60248201527f455243313936373a206e657720696d706c656d656e746174696f6e206973206e60448201526c1bdd08184818dbdb9d1c9858dd609a1b6064820152608490fd5b9192901561194357508151156118f5575090565b3b156118fe5790565b60405162461bcd60e51b815260206004820152601d60248201527f416464726573733a2063616c6c20746f206e6f6e2d636f6e74726163740000006044820152606490fd5b8251909150156119565750805190602001fd5b60405162461bcd60e51b81529081906119729060048301611746565b0390fd5b8181029291811591840414171561198957565b634e487b7160e01b600052601160045260246000fd5b9190820180921161198957565b908160209103126105d057516001600160a01b03811681036105d05790565b156119d257565b60405162461bcd60e51b815260206004820152601060248201526f6f6e6c79206974656d206f776e65722160801b6044820152606490fd5b600260015414611a1b576002600155565b60405162461bcd60e51b815260206004820152601f60248201527f5265656e7472616e637947756172643a207265656e7472616e742063616c6c006044820152606490fd5b9190820391821161198957565b600c611b0e611b05611afe6127109460018060a01b031695600090878252602091609d8352604091828220818352845282822054938a8352609e8152838320828452815262278d00611ae785852054968d8652609f8452868620858752845286862054611ad8611c35565b90808211611b13575b50611a60565b049a835260a1815283832091835252205496611a60565b9485611976565b60985490611976565b040491565b905038611ae1565b611b23611c35565b9060018060a01b031691600091838352609f60205260408320828452602052604083205411159283611b56575b50505090565b604093508252609e6020528282209082526020522054609b5414388080611b50565b60018060a01b031660005260a1602052604060002090600052602052604060002054612710611bb5611bac60995484611976565b609a5490611976565b04818111611bc957611bc691611a60565b90565b5050600090565b60018060a01b0316600052609c60205260406000209060005260205260ff6040600020541615611bfc57565b60405162461bcd60e51b815260206004820152601160248201527037b7363c9039ba30b5b2b2103a37b5b2b760791b6044820152606490fd5b60a254620151809081810291818304149015171561198957611bc6904261199f56fe360894a13ba1a3210667c828492db98dca3e2076cc3735a920a3ca505d382bbca26469706673582212206b18a0acf05cb314612197ab2de9cf18a4054801a6d7d5bd8978765f7882f09f64736f6c63430008120033",
  "devdoc": {
    "events": {
      "AdminChanged(address,address)": {
        "details": "Emitted when the admin account has changed."
      },
      "BeaconUpgraded(address)": {
        "details": "Emitted when the beacon is changed."
      },
      "Initialized(uint8)": {
        "details": "Triggered when the contract has been initialized or reinitialized."
      },
      "Upgraded(address)": {
        "details": "Emitted when the implementation is upgraded."
      }
    },
    "kind": "dev",
    "methods": {
      "proxiableUUID()": {
        "details": "Implementation of the ERC1822 {proxiableUUID} function. This returns the storage slot used by the implementation. It is used to validate the implementation's compatibility when performing an upgrade. IMPORTANT: A proxy pointing at a proxiable contract should not be considered proxiable itself, because this risks bricking a proxy that upgrades to it, by delegating to itself until out of gas. Thus it is critical that this function revert if invoked through a proxy. This is guaranteed by the `notDelegated` modifier."
      },
      "upgradeTo(address)": {
        "custom:oz-upgrades-unsafe-allow-reachable": "delegatecall",
        "details": "Upgrade the implementation of the proxy to `newImplementation`. Calls {_authorizeUpgrade}. Emits an {Upgraded} event."
      },
      "upgradeToAndCall(address,bytes)": {
        "custom:oz-upgrades-unsafe-allow-reachable": "delegatecall",
        "details": "Upgrade the implementation of the proxy to `newImplementation`, and subsequently execute the function call encoded in `data`. Calls {_authorizeUpgrade}. Emits an {Upgraded} event."
      }
    },
    "version": 1
  },
  "userdoc": {
    "kind": "user",
    "methods": {},
    "version": 1
  },
  "storageLayout": {
    "storage": [
      {
        "astId": 371,
        "contract": "contracts/core/stakings/FixStakingStrategy.sol:FixStakingStrategy",
        "label": "_initialized",
        "offset": 0,
        "slot": "0",
        "type": "t_uint8"
      },
      {
        "astId": 374,
        "contract": "contracts/core/stakings/FixStakingStrategy.sol:FixStakingStrategy",
        "label": "_initializing",
        "offset": 1,
        "slot": "0",
        "type": "t_bool"
      },
      {
        "astId": 683,
        "contract": "contracts/core/stakings/FixStakingStrategy.sol:FixStakingStrategy",
        "label": "_status",
        "offset": 0,
        "slot": "1",
        "type": "t_uint256"
      },
      {
        "astId": 752,
        "contract": "contracts/core/stakings/FixStakingStrategy.sol:FixStakingStrategy",
        "label": "__gap",
        "offset": 0,
        "slot": "2",
        "type": "t_array(t_uint256)49_storage"
      },
      {
        "astId": 353,
        "contract": "contracts/core/stakings/FixStakingStrategy.sol:FixStakingStrategy",
        "label": "__gap",
        "offset": 0,
        "slot": "51",
        "type": "t_array(t_uint256)50_storage"
      },
      {
        "astId": 668,
        "contract": "contracts/core/stakings/FixStakingStrategy.sol:FixStakingStrategy",
        "label": "__gap",
        "offset": 0,
        "slot": "101",
        "type": "t_array(t_uint256)50_storage"
      },
      {
        "astId": 6524,
        "contract": "contracts/core/stakings/FixStakingStrategy.sol:FixStakingStrategy",
        "label": "addressBook",
        "offset": 0,
        "slot": "151",
        "type": "t_address"
      },
      {
        "astId": 6526,
        "contract": "contracts/core/stakings/FixStakingStrategy.sol:FixStakingStrategy",
        "label": "rewardsRate",
        "offset": 0,
        "slot": "152",
        "type": "t_uint256"
      },
      {
        "astId": 6528,
        "contract": "contracts/core/stakings/FixStakingStrategy.sol:FixStakingStrategy",
        "label": "lockYears",
        "offset": 0,
        "slot": "153",
        "type": "t_uint256"
      },
      {
        "astId": 6530,
        "contract": "contracts/core/stakings/FixStakingStrategy.sol:FixStakingStrategy",
        "label": "yearDeprecationRate",
        "offset": 0,
        "slot": "154",
        "type": "t_uint256"
      },
      {
        "astId": 6532,
        "contract": "contracts/core/stakings/FixStakingStrategy.sol:FixStakingStrategy",
        "label": "maxPeriodsCount",
        "offset": 0,
        "slot": "155",
        "type": "t_uint256"
      },
      {
        "astId": 6538,
        "contract": "contracts/core/stakings/FixStakingStrategy.sol:FixStakingStrategy",
        "label": "isStakedToken",
        "offset": 0,
        "slot": "156",
        "type": "t_mapping(t_address,t_mapping(t_uint256,t_bool))"
      },
      {
        "astId": 6544,
        "contract": "contracts/core/stakings/FixStakingStrategy.sol:FixStakingStrategy",
        "label": "initialTimestamp",
        "offset": 0,
        "slot": "157",
        "type": "t_mapping(t_address,t_mapping(t_uint256,t_uint256))"
      },
      {
        "astId": 6550,
        "contract": "contracts/core/stakings/FixStakingStrategy.sol:FixStakingStrategy",
        "label": "claimedPeriodsCount",
        "offset": 0,
        "slot": "158",
        "type": "t_mapping(t_address,t_mapping(t_uint256,t_uint256))"
      },
      {
        "astId": 6556,
        "contract": "contracts/core/stakings/FixStakingStrategy.sol:FixStakingStrategy",
        "label": "finalTimestamp",
        "offset": 0,
        "slot": "159",
        "type": "t_mapping(t_address,t_mapping(t_uint256,t_uint256))"
      },
      {
        "astId": 6562,
        "contract": "contracts/core/stakings/FixStakingStrategy.sol:FixStakingStrategy",
        "label": "withdrawnRewards",
        "offset": 0,
        "slot": "160",
        "type": "t_mapping(t_address,t_mapping(t_uint256,t_uint256))"
      },
      {
        "astId": 6568,
        "contract": "contracts/core/stakings/FixStakingStrategy.sol:FixStakingStrategy",
        "label": "itemsPrice",
        "offset": 0,
        "slot": "161",
        "type": "t_mapping(t_address,t_mapping(t_uint256,t_uint256))"
      },
      {
        "astId": 7190,
        "contract": "contracts/core/stakings/FixStakingStrategy.sol:FixStakingStrategy",
        "label": "__addedDays",
        "offset": 0,
        "slot": "162",
        "type": "t_uint256"
      }
    ],
    "types": {
      "t_address": {
        "encoding": "inplace",
        "label": "address",
        "numberOfBytes": "20"
      },
      "t_array(t_uint256)49_storage": {
        "base": "t_uint256",
        "encoding": "inplace",
        "label": "uint256[49]",
        "numberOfBytes": "1568"
      },
      "t_array(t_uint256)50_storage": {
        "base": "t_uint256",
        "encoding": "inplace",
        "label": "uint256[50]",
        "numberOfBytes": "1600"
      },
      "t_bool": {
        "encoding": "inplace",
        "label": "bool",
        "numberOfBytes": "1"
      },
      "t_mapping(t_address,t_mapping(t_uint256,t_bool))": {
        "encoding": "mapping",
        "key": "t_address",
        "label": "mapping(address => mapping(uint256 => bool))",
        "numberOfBytes": "32",
        "value": "t_mapping(t_uint256,t_bool)"
      },
      "t_mapping(t_address,t_mapping(t_uint256,t_uint256))": {
        "encoding": "mapping",
        "key": "t_address",
        "label": "mapping(address => mapping(uint256 => uint256))",
        "numberOfBytes": "32",
        "value": "t_mapping(t_uint256,t_uint256)"
      },
      "t_mapping(t_uint256,t_bool)": {
        "encoding": "mapping",
        "key": "t_uint256",
        "label": "mapping(uint256 => bool)",
        "numberOfBytes": "32",
        "value": "t_bool"
      },
      "t_mapping(t_uint256,t_uint256)": {
        "encoding": "mapping",
        "key": "t_uint256",
        "label": "mapping(uint256 => uint256)",
        "numberOfBytes": "32",
        "value": "t_uint256"
      },
      "t_uint256": {
        "encoding": "inplace",
        "label": "uint256",
        "numberOfBytes": "32"
      },
      "t_uint8": {
        "encoding": "inplace",
        "label": "uint8",
        "numberOfBytes": "1"
      }
    }
  }
}