{
  "address": "0x8419F9e3A9Fff6Bf757812F70C7437aC4E5e2b54",
  "abi": [
    {
      "anonymous": false,
      "inputs": [
        {
          "indexed": false,
          "internalType": "address",
          "name": "previousAdmin",
          "type": "address"
        },
        {
          "indexed": false,
          "internalType": "address",
          "name": "newAdmin",
          "type": "address"
        }
      ],
      "name": "AdminChanged",
      "type": "event"
    },
    {
      "anonymous": false,
      "inputs": [
        {
          "indexed": true,
          "internalType": "address",
          "name": "beacon",
          "type": "address"
        }
      ],
      "name": "BeaconUpgraded",
      "type": "event"
    },
    {
      "anonymous": false,
      "inputs": [
        {
          "indexed": false,
          "internalType": "address",
          "name": "itemAddress",
          "type": "address"
        },
        {
          "indexed": false,
          "internalType": "uint256",
          "name": "itemId",
          "type": "uint256"
        },
        {
          "indexed": false,
          "internalType": "address",
          "name": "itemOwner",
          "type": "address"
        },
        {
          "indexed": false,
          "internalType": "uint256",
          "name": "rewards",
          "type": "uint256"
        },
        {
          "indexed": false,
          "internalType": "uint256",
          "name": "claimedPeriods",
          "type": "uint256"
        },
        {
          "indexed": false,
          "internalType": "address",
          "name": "withdrawToken",
          "type": "address"
        },
        {
          "indexed": false,
          "internalType": "uint256",
          "name": "withdrawTokenAmount",
          "type": "uint256"
        }
      ],
      "name": "Claim",
      "type": "event"
    },
    {
      "anonymous": false,
      "inputs": [
        {
          "indexed": false,
          "internalType": "uint8",
          "name": "version",
          "type": "uint8"
        }
      ],
      "name": "Initialized",
      "type": "event"
    },
    {
      "anonymous": false,
      "inputs": [
        {
          "indexed": false,
          "internalType": "address",
          "name": "itemAddress",
          "type": "address"
        },
        {
          "indexed": false,
          "internalType": "uint256",
          "name": "itemId",
          "type": "uint256"
        },
        {
          "indexed": false,
          "internalType": "address",
          "name": "itemOwner",
          "type": "address"
        },
        {
          "indexed": false,
          "internalType": "uint256",
          "name": "sellPrice",
          "type": "uint256"
        },
        {
          "indexed": false,
          "internalType": "address",
          "name": "withdrawToken",
          "type": "address"
        },
        {
          "indexed": false,
          "internalType": "uint256",
          "name": "withdrawTokenAmount",
          "type": "uint256"
        }
      ],
      "name": "Sell",
      "type": "event"
    },
    {
      "anonymous": false,
      "inputs": [
        {
          "indexed": false,
          "internalType": "uint256",
          "name": "year",
          "type": "uint256"
        },
        {
          "indexed": false,
          "internalType": "uint256",
          "name": "month",
          "type": "uint256"
        },
        {
          "indexed": false,
          "internalType": "uint256",
          "name": "earnings",
          "type": "uint256"
        }
      ],
      "name": "SetEarnings",
      "type": "event"
    },
    {
      "anonymous": false,
      "inputs": [
        {
          "indexed": false,
          "internalType": "address",
          "name": "itemAddress",
          "type": "address"
        },
        {
          "indexed": false,
          "internalType": "uint256",
          "name": "itemId",
          "type": "uint256"
        },
        {
          "indexed": false,
          "internalType": "address",
          "name": "itemOwner",
          "type": "address"
        },
        {
          "indexed": false,
          "internalType": "uint256",
          "name": "itemsPrice",
          "type": "uint256"
        },
        {
          "indexed": false,
          "internalType": "uint256",
          "name": "initialTimestamp",
          "type": "uint256"
        },
        {
          "indexed": false,
          "internalType": "uint256",
          "name": "startStakingTimetsmap",
          "type": "uint256"
        },
        {
          "indexed": false,
          "internalType": "uint256",
          "name": "finalTimestamp",
          "type": "uint256"
        },
        {
          "indexed": false,
          "internalType": "uint256",
          "name": "remainder",
          "type": "uint256"
        }
      ],
      "name": "Stake",
      "type": "event"
    },
    {
      "anonymous": false,
      "inputs": [
        {
          "indexed": false,
          "internalType": "uint256",
          "name": "year",
          "type": "uint256"
        },
        {
          "indexed": false,
          "internalType": "uint256",
          "name": "month",
          "type": "uint256"
        },
        {
          "indexed": false,
          "internalType": "uint256",
          "name": "deposits",
          "type": "uint256"
        }
      ],
      "name": "UpdateDeposits",
      "type": "event"
    },
    {
      "anonymous": false,
      "inputs": [
        {
          "indexed": true,
          "internalType": "address",
          "name": "implementation",
          "type": "address"
        }
      ],
      "name": "Upgraded",
      "type": "event"
    },
    {
      "inputs": [],
      "name": "__addedDays",
      "outputs": [
        {
          "internalType": "uint256",
          "name": "",
          "type": "uint256"
        }
      ],
      "stateMutability": "view",
      "type": "function"
    },
    {
      "inputs": [
        {
          "internalType": "uint256",
          "name": "_daysCount",
          "type": "uint256"
        }
      ],
      "name": "addDays",
      "outputs": [],
      "stateMutability": "nonpayable",
      "type": "function"
    },
    {
      "inputs": [],
      "name": "addressBook",
      "outputs": [
        {
          "internalType": "address",
          "name": "",
          "type": "address"
        }
      ],
      "stateMutability": "view",
      "type": "function"
    },
    {
      "inputs": [
        {
          "internalType": "address",
          "name": "_itemAddress",
          "type": "address"
        },
        {
          "internalType": "uint256",
          "name": "_itemId",
          "type": "uint256"
        }
      ],
      "name": "canSell",
      "outputs": [
        {
          "internalType": "bool",
          "name": "",
          "type": "bool"
        }
      ],
      "stateMutability": "view",
      "type": "function"
    },
    {
      "inputs": [
        {
          "internalType": "address",
          "name": "_itemAddress",
          "type": "address"
        },
        {
          "internalType": "uint256",
          "name": "_itemId",
          "type": "uint256"
        },
        {
          "internalType": "address",
          "name": "_withdrawToken",
          "type": "address"
        }
      ],
      "name": "claim",
      "outputs": [],
      "stateMutability": "nonpayable",
      "type": "function"
    },
    {
      "inputs": [
        {
          "internalType": "address",
          "name": "_itemAddress",
          "type": "address"
        },
        {
          "internalType": "uint256",
          "name": "_itemId",
          "type": "uint256"
        },
        {
          "internalType": "uint256",
          "name": "_monthsCount",
          "type": "uint256"
        }
      ],
      "name": "claimTimestamp",
      "outputs": [
        {
          "internalType": "uint256",
          "name": "",
          "type": "uint256"
        }
      ],
      "stateMutability": "view",
      "type": "function"
    },
    {
      "inputs": [
        {
          "internalType": "address",
          "name": "item",
          "type": "address"
        },
        {
          "internalType": "uint256",
          "name": "tokenId",
          "type": "uint256"
        }
      ],
      "name": "claimedPeriodsCount",
      "outputs": [
        {
          "internalType": "uint256",
          "name": "",
          "type": "uint256"
        }
      ],
      "stateMutability": "view",
      "type": "function"
    },
    {
      "inputs": [],
      "name": "currentPeriod",
      "outputs": [
        {
          "internalType": "uint256",
          "name": "year_",
          "type": "uint256"
        },
        {
          "internalType": "uint256",
          "name": "month_",
          "type": "uint256"
        },
        {
          "internalType": "uint256",
          "name": "day_",
          "type": "uint256"
        }
      ],
      "stateMutability": "view",
      "type": "function"
    },
    {
      "inputs": [
        {
          "internalType": "uint256",
          "name": "year",
          "type": "uint256"
        },
        {
          "internalType": "uint256",
          "name": "month",
          "type": "uint256"
        }
      ],
      "name": "deposits",
      "outputs": [
        {
          "internalType": "uint256",
          "name": "deposit",
          "type": "uint256"
        }
      ],
      "stateMutability": "view",
      "type": "function"
    },
    {
      "inputs": [
        {
          "internalType": "uint256",
          "name": "year",
          "type": "uint256"
        },
        {
          "internalType": "uint256",
          "name": "month",
          "type": "uint256"
        }
      ],
      "name": "depositsToRemove",
      "outputs": [
        {
          "internalType": "uint256",
          "name": "depositToRemove",
          "type": "uint256"
        }
      ],
      "stateMutability": "view",
      "type": "function"
    },
    {
      "inputs": [
        {
          "internalType": "address",
          "name": "item",
          "type": "address"
        },
        {
          "internalType": "uint256",
          "name": "tokenId",
          "type": "uint256"
        }
      ],
      "name": "depostitsDate",
      "outputs": [
        {
          "internalType": "uint256",
          "name": "finalYear",
          "type": "uint256"
        },
        {
          "internalType": "uint256",
          "name": "finalMonth",
          "type": "uint256"
        },
        {
          "internalType": "uint256",
          "name": "prevFinalYear",
          "type": "uint256"
        },
        {
          "internalType": "uint256",
          "name": "prevFinalMonth",
          "type": "uint256"
        }
      ],
      "stateMutability": "view",
      "type": "function"
    },
    {
      "inputs": [
        {
          "internalType": "uint256",
          "name": "year",
          "type": "uint256"
        },
        {
          "internalType": "uint256",
          "name": "month",
          "type": "uint256"
        }
      ],
      "name": "earnings",
      "outputs": [
        {
          "internalType": "uint256",
          "name": "",
          "type": "uint256"
        }
      ],
      "stateMutability": "view",
      "type": "function"
    },
    {
      "inputs": [
        {
          "internalType": "address",
          "name": "_itemAddress",
          "type": "address"
        },
        {
          "internalType": "uint256",
          "name": "_itemId",
          "type": "uint256"
        }
      ],
      "name": "estimateRewards",
      "outputs": [
        {
          "internalType": "uint256",
          "name": "rewards_",
          "type": "uint256"
        },
        {
          "internalType": "uint256",
          "name": "claimedPeriods_",
          "type": "uint256"
        }
      ],
      "stateMutability": "view",
      "type": "function"
    },
    {
      "inputs": [
        {
          "internalType": "address",
          "name": "_itemAddress",
          "type": "address"
        },
        {
          "internalType": "uint256",
          "name": "_itemId",
          "type": "uint256"
        }
      ],
      "name": "estimateSell",
      "outputs": [
        {
          "internalType": "uint256",
          "name": "",
          "type": "uint256"
        }
      ],
      "stateMutability": "view",
      "type": "function"
    },
    {
      "inputs": [
        {
          "internalType": "address",
          "name": "item",
          "type": "address"
        },
        {
          "internalType": "uint256",
          "name": "tokenId",
          "type": "uint256"
        }
      ],
      "name": "finalTimestamp",
      "outputs": [
        {
          "internalType": "uint256",
          "name": "",
          "type": "uint256"
        }
      ],
      "stateMutability": "view",
      "type": "function"
    },
    {
      "inputs": [
        {
          "internalType": "address",
          "name": "_itemAddress",
          "type": "address"
        },
        {
          "internalType": "uint256",
          "name": "_itemId",
          "type": "uint256"
        }
      ],
      "name": "getAllExpiredMoths",
      "outputs": [
        {
          "internalType": "uint256",
          "name": "",
          "type": "uint256"
        }
      ],
      "stateMutability": "view",
      "type": "function"
    },
    {
      "inputs": [],
      "name": "initialMonths",
      "outputs": [
        {
          "internalType": "uint256",
          "name": "",
          "type": "uint256"
        }
      ],
      "stateMutability": "view",
      "type": "function"
    },
    {
      "inputs": [],
      "name": "initialRewardsRate",
      "outputs": [
        {
          "internalType": "uint256",
          "name": "",
          "type": "uint256"
        }
      ],
      "stateMutability": "view",
      "type": "function"
    },
    {
      "inputs": [
        {
          "internalType": "address",
          "name": "item",
          "type": "address"
        },
        {
          "internalType": "uint256",
          "name": "tokenId",
          "type": "uint256"
        }
      ],
      "name": "initialTimestamp",
      "outputs": [
        {
          "internalType": "uint256",
          "name": "",
          "type": "uint256"
        }
      ],
      "stateMutability": "view",
      "type": "function"
    },
    {
      "inputs": [
        {
          "internalType": "address",
          "name": "_addressBook",
          "type": "address"
        },
        {
          "internalType": "uint256",
          "name": "_minLockYears",
          "type": "uint256"
        },
        {
          "internalType": "uint256",
          "name": "_maxLockYears",
          "type": "uint256"
        },
        {
          "internalType": "uint256",
          "name": "_initialMonths",
          "type": "uint256"
        },
        {
          "internalType": "uint256",
          "name": "_initialRewardsRate",
          "type": "uint256"
        },
        {
          "internalType": "uint256",
          "name": "_yearDeprecationRate",
          "type": "uint256"
        }
      ],
      "name": "initialize",
      "outputs": [],
      "stateMutability": "nonpayable",
      "type": "function"
    },
    {
      "inputs": [
        {
          "internalType": "address",
          "name": "item",
          "type": "address"
        },
        {
          "internalType": "uint256",
          "name": "tokenId",
          "type": "uint256"
        }
      ],
      "name": "isStakedToken",
      "outputs": [
        {
          "internalType": "bool",
          "name": "",
          "type": "bool"
        }
      ],
      "stateMutability": "view",
      "type": "function"
    },
    {
      "inputs": [
        {
          "internalType": "address",
          "name": "item",
          "type": "address"
        },
        {
          "internalType": "uint256",
          "name": "tokenId",
          "type": "uint256"
        }
      ],
      "name": "itemsPrice",
      "outputs": [
        {
          "internalType": "uint256",
          "name": "",
          "type": "uint256"
        }
      ],
      "stateMutability": "view",
      "type": "function"
    },
    {
      "inputs": [],
      "name": "lastUpdatedEarningsMonth",
      "outputs": [
        {
          "internalType": "uint256",
          "name": "",
          "type": "uint256"
        }
      ],
      "stateMutability": "view",
      "type": "function"
    },
    {
      "inputs": [],
      "name": "lastUpdatedEarningsPeriod",
      "outputs": [
        {
          "internalType": "uint256",
          "name": "year_",
          "type": "uint256"
        },
        {
          "internalType": "uint256",
          "name": "month_",
          "type": "uint256"
        }
      ],
      "stateMutability": "view",
      "type": "function"
    },
    {
      "inputs": [],
      "name": "lastUpdatedEarningsYear",
      "outputs": [
        {
          "internalType": "uint256",
          "name": "",
          "type": "uint256"
        }
      ],
      "stateMutability": "view",
      "type": "function"
    },
    {
      "inputs": [],
      "name": "lastUpdatedTimestamp",
      "outputs": [
        {
          "internalType": "uint256",
          "name": "",
          "type": "uint256"
        }
      ],
      "stateMutability": "view",
      "type": "function"
    },
    {
      "inputs": [],
      "name": "maxLockYears",
      "outputs": [
        {
          "internalType": "uint256",
          "name": "",
          "type": "uint256"
        }
      ],
      "stateMutability": "view",
      "type": "function"
    },
    {
      "inputs": [],
      "name": "maxMonthsCount",
      "outputs": [
        {
          "internalType": "uint256",
          "name": "",
          "type": "uint256"
        }
      ],
      "stateMutability": "view",
      "type": "function"
    },
    {
      "inputs": [],
      "name": "minLockYears",
      "outputs": [
        {
          "internalType": "uint256",
          "name": "",
          "type": "uint256"
        }
      ],
      "stateMutability": "view",
      "type": "function"
    },
    {
      "inputs": [],
      "name": "minMonthsCount",
      "outputs": [
        {
          "internalType": "uint256",
          "name": "",
          "type": "uint256"
        }
      ],
      "stateMutability": "view",
      "type": "function"
    },
    {
      "inputs": [],
      "name": "proxiableUUID",
      "outputs": [
        {
          "internalType": "bytes32",
          "name": "",
          "type": "bytes32"
        }
      ],
      "stateMutability": "view",
      "type": "function"
    },
    {
      "inputs": [
        {
          "internalType": "address",
          "name": "item",
          "type": "address"
        },
        {
          "internalType": "uint256",
          "name": "tokenId",
          "type": "uint256"
        }
      ],
      "name": "remainder",
      "outputs": [
        {
          "internalType": "uint256",
          "name": "",
          "type": "uint256"
        }
      ],
      "stateMutability": "view",
      "type": "function"
    },
    {
      "inputs": [
        {
          "internalType": "address",
          "name": "_itemAddress",
          "type": "address"
        },
        {
          "internalType": "uint256",
          "name": "_itemId",
          "type": "uint256"
        },
        {
          "internalType": "address",
          "name": "_withdrawToken",
          "type": "address"
        }
      ],
      "name": "sell",
      "outputs": [],
      "stateMutability": "nonpayable",
      "type": "function"
    },
    {
      "inputs": [
        {
          "internalType": "uint256",
          "name": "_year",
          "type": "uint256"
        },
        {
          "internalType": "uint256",
          "name": "_month",
          "type": "uint256"
        },
        {
          "internalType": "uint256",
          "name": "_formatedEarning",
          "type": "uint256"
        }
      ],
      "name": "setEarnings",
      "outputs": [],
      "stateMutability": "nonpayable",
      "type": "function"
    },
    {
      "inputs": [
        {
          "internalType": "address",
          "name": "_itemAddress",
          "type": "address"
        },
        {
          "internalType": "uint256",
          "name": "_itemId",
          "type": "uint256"
        },
        {
          "internalType": "bytes",
          "name": "",
          "type": "bytes"
        }
      ],
      "name": "stake",
      "outputs": [],
      "stateMutability": "nonpayable",
      "type": "function"
    },
    {
      "inputs": [],
      "name": "stakingType",
      "outputs": [
        {
          "internalType": "string",
          "name": "",
          "type": "string"
        }
      ],
      "stateMutability": "pure",
      "type": "function"
    },
    {
      "inputs": [
        {
          "internalType": "address",
          "name": "item",
          "type": "address"
        },
        {
          "internalType": "uint256",
          "name": "tokenId",
          "type": "uint256"
        }
      ],
      "name": "startStakingTimestamp",
      "outputs": [
        {
          "internalType": "uint256",
          "name": "",
          "type": "uint256"
        }
      ],
      "stateMutability": "view",
      "type": "function"
    },
    {
      "inputs": [
        {
          "internalType": "uint256",
          "name": "_timestamp",
          "type": "uint256"
        }
      ],
      "name": "timestampPeriod",
      "outputs": [
        {
          "internalType": "uint256",
          "name": "year_",
          "type": "uint256"
        },
        {
          "internalType": "uint256",
          "name": "month_",
          "type": "uint256"
        },
        {
          "internalType": "uint256",
          "name": "day_",
          "type": "uint256"
        }
      ],
      "stateMutability": "pure",
      "type": "function"
    },
    {
      "inputs": [],
      "name": "updateDeposits",
      "outputs": [],
      "stateMutability": "nonpayable",
      "type": "function"
    },
    {
      "inputs": [
        {
          "internalType": "address",
          "name": "newImplementation",
          "type": "address"
        }
      ],
      "name": "upgradeTo",
      "outputs": [],
      "stateMutability": "nonpayable",
      "type": "function"
    },
    {
      "inputs": [
        {
          "internalType": "address",
          "name": "newImplementation",
          "type": "address"
        },
        {
          "internalType": "bytes",
          "name": "data",
          "type": "bytes"
        }
      ],
      "name": "upgradeToAndCall",
      "outputs": [],
      "stateMutability": "payable",
      "type": "function"
    },
    {
      "inputs": [
        {
          "internalType": "address",
          "name": "item",
          "type": "address"
        },
        {
          "internalType": "uint256",
          "name": "tokenId",
          "type": "uint256"
        }
      ],
      "name": "withdrawnRewards",
      "outputs": [
        {
          "internalType": "uint256",
          "name": "",
          "type": "uint256"
        }
      ],
      "stateMutability": "view",
      "type": "function"
    },
    {
      "inputs": [],
      "name": "yearDeprecationRate",
      "outputs": [
        {
          "internalType": "uint256",
          "name": "",
          "type": "uint256"
        }
      ],
      "stateMutability": "view",
      "type": "function"
    }
  ],
  "transactionHash": "0x44901a9a9e87ba6a4ea2f0e0bc62b4955e48ae91e2128bd450019ba78455031f",
  "args": [],
  "numDeployments": 1,
  "solcInputHash": "484aaa5084cf8712325300fcc6dac02e",
  "bytecode": "0x60a08060405234610031573060805261300790816100378239608051818181610bda01528181610cc901526116720152f35b600080fdfe608060405260048036101561001357600080fd5b600090813560e01c9081630604061814611ecc5781631421857414611eae578163254d8a1214611e9057816328d5708e14611e7257816328eac12314611e545781632bd4978014611e275781632e6155c714611dff5781633540c919146119485781633659cfe61461164b5781633e12170f146112415781633f315ab7146111fe57816345ff4c801461101b5781634d29565e14610ff65781634d6f382414610f925781634f1ef28614610c8a57816352d1902d14610bc65781635d34893b146109fd5781635da12a6d146109ba5781636924ac951461098d5781636e675dbf14610926578163731121591461090857816377c830ee146108db5781637fcbd9ca146108bd578163819f8f11146108895781638a9e55761461086b5781639a05d060146108285781639af6bdb31461080a5781639e96a26014610539578163a3ad309a146104f6578163b1b0db13146104b3578163b99c5a1414610470578163c175b3d114610454578163c76659a114610422578163d7dad7c314610404578163dabd5d65146103da578163de6c7fd214610391578163e544b2e21461034c57508063ec78c4c31461032e578063f1dfa867146102b6578063f23d30df14610273578063f5887cdd1461024a578063f5c62a6e1461021a5763fbaf894c146101fa57600080fd5b34610217578060031936011261021757602060a254604051908152f35b80fd5b5034610217576040366003190112610217576020610242610239611f05565b602435906124c7565b604051908152f35b50346102175780600319360112610217576097546040516001600160a01b039091168152602090f35b5034610217576040366003190112610217576020906040906001600160a01b0361029b611f05565b16815260a98352818120602435825283522054604051908152f35b5034610217576060366003190112610217576020906103146102d6611f05565b6001600160a01b031680835260a8845260408084206024358086529086528185205492855260a5865281852090855285529092205460443590612e87565b90808211610326575b50604051908152f35b90503861031d565b50346102175780600319360112610217576020609b54604051908152f35b82346102175760203660031901126102175761038d61037062015180843504612b5f565b604080519384526020840192909252908201529081906060820190565b0390f35b82346102175760403660031901126102175760209060ff906040906001600160a01b036103bc611f05565b16815260a38452818120602435825284522054166040519015158152f35b905034610400576020366003190112610400576103fa903560ae5461228f565b60ae5580f35b5080fd5b8234610217578060031936011261021757602060ad54604051908152f35b823461021757604036600319011261021757602061044a610441611f05565b602435906126fc565b6040519015158152f35b823461021757806003193601126102175761046d6122b8565b80f35b8234610217576040366003190112610217576020906040906001600160a01b03610498611f05565b16815260a68352818120602435825283522054604051908152f35b8234610217576040366003190112610217576020906040906001600160a01b036104db611f05565b16815260a48352818120602435825283522054604051908152f35b8234610217576040366003190112610217576020906040906001600160a01b0361051e611f05565b16815260a88352818120602435825283522054604051908152f35b9050346104005761054936611f1b565b6040516331a9108f60e11b815280850183905291936001600160a01b038481169491939092919060209081816024818a5afa80156107ff578589916105ac938c916107e2575b50169361059d853314612488565b6105a782826127c8565b61250f565b92909182156107b457878a5260aa815260408a20898b52815260408a206105d484825461228f565b9055878a5260a7815260408a20898b52815260408a206105f585825461228f565b90558987828860975416604051928380926361d027b360e01b82525afa80156107355788918391610787575b5060408051636676fbc560e11b8152808c018881526001600160a01b038b166020820152909b939092169185918c918291010381845afa998a1561077c57839a610744575b50803b156107405760408051631a4ca37b60e21b81526001600160a01b038a16938101938452602084018c90523391840191909152918391839182908490829060600103925af180156107355761070d575b5050907f547e9b3e3fc8b51c03d30648b377a2b951e562fabd27fb3e91925c87859e192a9860e0989796959493926040519889528801526040870152606086015260808501521660a083015260c0820152a180f35b61071f90999897969594939299611f81565b610731579091929394959689386106b8565b8980fd5b6040513d84823e3d90fd5b8280fd5b8480929b508194503d8311610775575b61075e8183611fb1565b81010312610770578b91519838610666565b600080fd5b503d610754565b6040513d85823e3d90fd5b6107a79150843d86116107ad575b61079f8183611fb1565b810190612469565b38610621565b503d610795565b866064916040519162461bcd60e51b83528201526008602482015267726577617264732160c01b6044820152fd5b6107f99150853d87116107ad5761079f8183611fb1565b3861058f565b6040513d8b823e3d90fd5b8234610217578060031936011261021757602060ac54604051908152f35b8234610217576040366003190112610217576020906040906001600160a01b03610850611f05565b16815260a78352818120602435825283522054604051908152f35b82346102175780600319360112610217576020609954604051908152f35b82346102175760403660031901126102175760406108b16108a8611f05565b6024359061250f565b82519182526020820152f35b8234610217578060031936011261021757602060ae54604051908152f35b82346102175760406020916108ef36611eef565b90825260a0845282822090825283522054604051908152f35b82346102175780600319360112610217576020609e54604051908152f35b8234610217576040366003190112610217576080906040906001600160a01b0361094e611f05565b16815260ab6020528181206024358252602052208054906001810154906003600282015491015491604051938452602084015260408301526060820152f35b82346102175760406020916109a136611eef565b908252609f845282822090825283522054604051908152f35b8234610217576040366003190112610217576020906040906001600160a01b036109e2611f05565b16815260aa8352818120602435825283522054604051908152f35b82346102175760603660031901126102175760975460243590833590604435906001600160a01b0316803b15610bc2578460249160405192838092630ceb3b9b60e21b8252338b8301525afa8015610bb757908591610b9f575b50508015610b5b57610a69838361284f565b60a25410610b0257670de0b6b3a764000080820291820403610aef5790610ae97fe3bbfa79647df19774fdc8af2dbe30c95db0f1d2bb02678af401cc570495b14a9392828652609f602052604086208487526020528060408720558260ac558360ad55604051938493846040919493926060820195825260208201520152565b0390a180f35b634e487b7160e01b845260118552602484fd5b60405162461bcd60e51b8152602081870152602c60248201527f63616e6e6f7420736574206561726e696e677320666f7220616e20756e65787060448201526b6972656420706572696f642160a01b6064820152608490fd5b60405162461bcd60e51b8152602081870152601860248201527f6561726e696e67732063616e6e6f74206265207a65726f2100000000000000006044820152606490fd5b610ba890611f81565b610bb3578386610a57565b8380fd5b6040513d87823e3d90fd5b8480fd5b8234610217578060031936011261021757507f00000000000000000000000000000000000000000000000000000000000000006001600160a01b03163003610c20576020604051600080516020612fb28339815191528152f35b60849060206040519162461bcd60e51b8352820152603860248201527f555550535570677261646561626c653a206d757374206e6f742062652063616c60448201527f6c6564207468726f7567682064656c656761746563616c6c00000000000000006064820152fd5b9050604036600319011261040057610ca0611f05565b60243567ffffffffffffffff8111610bb357610cbf9036908401611fef565b6001600160a01b037f000000000000000000000000000000000000000000000000000000000000000081169190610cf83084141561207f565b610d15600080516020612fb28339815191529382855416146120e0565b858160975416803b15610400578160249160405192838092630ceb3b9b60e21b8252338c8301525afa801561073557610f7a575b50507f4910fdfa16fed3260ed0e7147f7cc6da11a60208b5b9406d12a635614ffd91435460ff1615610d825750505061046d9150612141565b6040516352d1902d60e01b815260209493918416919085818881865afa60009181610f4b575b50610e085760405162461bcd60e51b8152808801879052602e60248201527f45524331393637557067726164653a206e657720696d706c656d656e7461746960448201526d6f6e206973206e6f74205555505360901b6064820152608490fd5b95919294939503610ef55750610e1d84612141565b7fbc7cd75a20ee27fd9adebab32041f755214dbc6bffa90cc0225b39da2e5c2d3b600080a2815115801590610eed575b610e58575b50505080f35b610edb9260008060405194610e6c86611f95565b602786527f416464726573733a206c6f772d6c6576656c2064656c65676174652063616c6c85870152660819985a5b195960ca1b60408701528481519101845af4903d15610ee4573d610ebe81611fd3565b90610ecc6040519283611fb1565b8152600081943d92013e6121d1565b50388080610e52565b606092506121d1565b506001610e4d565b60405162461bcd60e51b8152908101839052602960248201527f45524331393637557067726164653a20756e737570706f727465642070726f786044820152681a58589b195555525160ba1b6064820152608490fd5b90918782813d8311610f73575b610f628183611fb1565b810103126102175750519038610da8565b503d610f58565b610f8390611f81565b610f8e578538610d49565b8580fd5b8234610217578060031936011261021757506040516040810181811067ffffffffffffffff821117610fe1579161038d926040528152630ccd8caf60e31b602082015260405191829182612036565b604183634e487b7160e01b6000525260246000fd5b8234610217578060031936011261021757604060ac5460ad5482519182526020820152f35b9050346104005760c036600319011261040057611036611f05565b90602480359160443585549460ff8660081c1615958680976111f1575b80156111da575b156111805760ff19811660011788558661116f575b5060018060a01b03166bffffffffffffffffffffffff60a01b60975416176097558360985580609955606435609a55608435609b5560a435609c556110d16110ca620151806110c46110bf61282d565b612ec2565b04612b5f565b509061284f565b60a25580600c0290600c82040361115d576001810180911161115d57609e5582600c0292600c84040361114c576001830180931161114c575050609d556111155780f35b61ff001981541681557f7f26b83ff96e1f2b6a682f133852f6798a09c465da95921460cefb3847402498602060405160018152a180f35b634e487b7160e01b85526011905283fd5b50634e487b7160e01b85526011905283fd5b61ffff19166101011787553861106f565b60405162461bcd60e51b8152602081860152602e818701527f496e697469616c697a61626c653a20636f6e747261637420697320616c72656160448201526d191e481a5b9a5d1a585b1a5e995960921b6064820152608490fd5b50303b15801561105a5750600160ff82161461105a565b50600160ff821610611053565b8234610217576040366003190112610217576020906040906001600160a01b03611226611f05565b16815260a58352818120602435825283522054604051908152f35b82346102175760603660031901126102175761125b611f05565b916024359060443567ffffffffffffffff8111610bb35761127f9036908301611fef565b506097546001600160a01b0392908316803b15610bc2578460249160405192838092634006035160e11b825233888301525afa8015610bb757611637575b508261131c95169081855260209360a3855260408620828752855260408620600160ff198254161790556112ef61282d565b83875260a486526040872083885286528060408820556201518092611315848304612b5f565b9a9161284f565b9285895260a5885260408920828a5288528360408a20556040519163501ad8ff60e11b8352888389818a5afa92831561162c578a936115fd575b50868a5260a6895260408a20818b5289528260408b205561138261137b878704612b5f565b5090612d41565b670de0b6b3a76400009b808d02908d8204036115ea57600182018092116115ea57938c6113b5829594938e999897612449565b6113bf9083612266565b049789885260a98c52604088208389528c528860408920558b89609e546113e6908a612e87565b998a928d825260a88152604082208783528152836040832055609a5461140c908c612e87565b85611418818304612b5f565b5091909261142590612e02565b0461142f90612b5f565b509290918861143d89612ec2565b0461144790612b5f565b509990980461145590612b5f565b5097611461919b61229c565b91865260a1855260408620908652845260408520908154906114829161228f565b9055835260a18252604083209083528152604082208d8154906114a49161228f565b90556114b08d8a61229c565b84835260a0825260408320868452825260408320908154906114d19161228f565b905585825260a08152604082208383528152604082208d8154906114f49161228f565b90556040519561150387611f4f565b865280860192835260408601938452606086019485528d825260ab8152604082209087835252604090209351845551600184015551600283015551906003015580604051996331a9108f60e11b8b528a0152898989815a91602492fa9081156115df577f4f3aeb95ef90e269e25a364ec94a5a917cebe0799f3ebb164c9d8a40db32511a9a6101009a8d936115c0575b50604051998a528901521660408701526060860152608085015260a084015260c083015260e0820152a180f35b816115d89294503d85116107ad5761079f8183611fb1565b918d611593565b6040513d8d823e3d90fd5b634e487b7160e01b8c5260118a5260248cfd5b9092508881813d8311611625575b6116158183611fb1565b810103126107705751918b611356565b503d61160b565b6040513d8c823e3d90fd5b6116418591611f81565b610bb357856112bd565b9050346104005760208060031936011261074057611667611f05565b906001600160a01b037f0000000000000000000000000000000000000000000000000000000000000000811661169f3082141561207f565b6116bc600080516020612fb28339815191529183835416146120e0565b858260975416803b15610400578160249160405192838092630ceb3b9b60e21b8252338c8301525afa801561073557611934575b5050604051908382019282841067ffffffffffffffff85111761191f578360405287835260ff7f4910fdfa16fed3260ed0e7147f7cc6da11a60208b5b9406d12a635614ffd9143541660001461174f57505050505061046d9150612141565b859293949516906040516352d1902d60e01b815286818981865afa600091816118f0575b506117d35760405162461bcd60e51b8152808901889052602e60248201527f45524331393637557067726164653a206e657720696d706c656d656e7461746960448201526d6f6e206973206e6f74205555505360901b6064820152608490fd5b969192939594960361189a57506117e982612141565b7fbc7cd75a20ee27fd9adebab32041f755214dbc6bffa90cc0225b39da2e5c2d3b600080a2825115801590611892575b611825575b5050505080f35b600080611888956040519561183987611f95565b602787527f416464726573733a206c6f772d6c6576656c2064656c65676174652063616c6c86880152660819985a5b195960ca1b60408801525190845af4903d15610ee4573d610ebe81611fd3565b503880808061181e565b506000611819565b60405162461bcd60e51b8152908101849052602960248201527f45524331393637557067726164653a20756e737570706f727465642070726f786044820152681a58589b195555525160ba1b6064820152608490fd5b90918882813d8311611918575b6119078183611fb1565b810103126102175750519038611773565b503d6118fd565b604187634e487b7160e01b6000525260246000fd5b61193d90611f81565b610f8e5785386116f0565b9050346104005761195836611f1b565b6040516331a9108f60e11b815280850183905292936001600160a01b03808616949193909291602081602481895afa8015611df45784918991611dd5575b5016956119a4873314612488565b6119ae82826127c8565b6119b882826126fc565b15611da35781611b1c9187611a628b611aed6040611acb876119d861282d565b62015180906119e8828204612b5f565b508a899492945260a8602052868920858a52602052611a0a878a205493612ec2565b91838311611d9b575b611a21611a2a918404612b5f565b50949093612f51565b938b8a5260a9602052878a20868b52602052878a20549b8c96818c5260ab602052898c20908c526020526003898c208a519d8e611f4f565b8d815490528d602060018301549101528d8b6002830154910152015460608d01528a5260a66020528d888b20908b52602052878a2054948015600014611d4b57505050875260a0602052848720908752602052838620611ac383825461228f565b90555b61229c565b9281850151815260a0602052818120606086015182526020522091825461229c565b905580518c5260a0602052602060408d209101518c52602052611b1560408c2091825461229c565b9055612748565b9085885260aa6020526040882081895260205260408820611b3e83825461228f565b90558460208560975416604051928380926361d027b360e01b82525afa80156107ff5785918a91611d2c575b5060408051636676fbc560e11b81528089018681526001600160a01b03881660208281019190915291999490931692909189918291010381845afa96871561162c578a97611cf8575b508615611cc557873b1561073157604051630852cd8d60e31b81528281018490528a81602481838d5af180156115df57611cb0575b5090818a923b156107405760408051631a4ca37b60e21b81526001600160a01b038816938101938452602084018a90523391840191909152918391839182908490829060600103925af1801561073557611c8c575b5095927f5d431a60d05c2d376ada5a88a66968da29820db1acf8a7ce7b3086c7cc3191cf95928860c0969360405196875260208701526040860152606085015216608083015260a0820152a180f35b611c9c9097969594939297611f81565b611cac5790919293948738611c3d565b8780fd5b611cbd909a91929a611f81565b989038611be8565b60405162461bcd60e51b8152602081840152600c60248201526b7a65726f20616d6f756e742160a01b6044820152606490fd5b9096506020813d602011611d24575b81611d1460209383611fb1565b8101031261073157519538611bb3565b3d9150611d07565b611d45915060203d6020116107ad5761079f8183611fb1565b38611b6a565b9193509150600103611d7d5750508651865260a060205283862060208801518752602052838620611ac382825461228f565b875260a0602052848720908752602052838620611ac382825461228f565b839250611a13565b60405162461bcd60e51b8152602081870152600b60248201526a63616e27742073656c6c2160a81b6044820152606490fd5b611dee915060203d6020116107ad5761079f8183611fb1565b38611996565b6040513d8a823e3d90fd5b8234610217576040366003190112610217576020610242611e1e611f05565b60243590612748565b8234610217576040602091611e3b36611eef565b90825260a1845282822090825283522054604051908152f35b82346102175780600319360112610217576020609c54604051908152f35b82346102175780600319360112610217576020609a54604051908152f35b82346102175780600319360112610217576020609854604051908152f35b82346102175780600319360112610217576020609d54604051908152f35b823461021757806003193601126102175761038d610370620151806110c461282d565b6040906003190112610770576004359060243590565b600435906001600160a01b038216820361077057565b6060906003190112610770576001600160a01b03600435818116810361077057916024359160443590811681036107705790565b6080810190811067ffffffffffffffff821117611f6b57604052565b634e487b7160e01b600052604160045260246000fd5b67ffffffffffffffff8111611f6b57604052565b6060810190811067ffffffffffffffff821117611f6b57604052565b90601f8019910116810190811067ffffffffffffffff821117611f6b57604052565b67ffffffffffffffff8111611f6b57601f01601f191660200190565b81601f820112156107705780359061200682611fd3565b926120146040519485611fb1565b8284526020838301011161077057816000926020809301838601378301015290565b6020808252825181830181905290939260005b82811061206b57505060409293506000838284010152601f8019910116010190565b818101860151848201604001528501612049565b1561208657565b60405162461bcd60e51b815260206004820152602c60248201527f46756e6374696f6e206d7573742062652063616c6c6564207468726f7567682060448201526b19195b1959d85d1958d85b1b60a21b6064820152608490fd5b156120e757565b60405162461bcd60e51b815260206004820152602c60248201527f46756e6374696f6e206d7573742062652063616c6c6564207468726f7567682060448201526b6163746976652070726f787960a01b6064820152608490fd5b803b1561217657600080516020612fb283398151915280546001600160a01b0319166001600160a01b03909216919091179055565b60405162461bcd60e51b815260206004820152602d60248201527f455243313936373a206e657720696d706c656d656e746174696f6e206973206e60448201526c1bdd08184818dbdb9d1c9858dd609a1b6064820152608490fd5b9192901561223357508151156121e5575090565b3b156121ee5790565b60405162461bcd60e51b815260206004820152601d60248201527f416464726573733a2063616c6c20746f206e6f6e2d636f6e74726163740000006044820152606490fd5b8251909150156122465750805190602001fd5b60405162461bcd60e51b81529081906122629060048301612036565b0390fd5b8181029291811591840414171561227957565b634e487b7160e01b600052601160045260246000fd5b9190820180921161227957565b9190820391821161227957565b60001981146122795760010190565b6097546001600160a01b03166000813b1561021757602481604093845192838092630ceb3b9b60e21b82523360048301525afa801561243f57612430575b5060a2549161230c61230661282d565b84612f51565b91821561241657600019830192831161241c57821561241657805b838110612337575050505060a255565b612411907fb2f0ca0b2a366734800f5e4bf2608f0b4677deb5fbed86b6d191b22c57196bfb6123c161237d97612409612386886123da61238e620151809d8e8704612b5f565b50949096612e02565b9d8e04612b5f565b50818c5260a16020818152948d20828e5285528d8d2054978d528085528d8d20958d529484528c8c20549097919661228f565b858b5260a083528b8b20878c5283528b8b20549061229c565b91848a52815289892090858a525280898920558851938493846040919493926060820195825260208201520152565b0390a16122a9565b612327565b50505050565b634e487b7160e01b81526011600452602490fd5b61243990611f81565b386122f6565b83513d84823e3d90fd5b8115612453570490565b634e487b7160e01b600052601260045260246000fd5b9081602091031261077057516001600160a01b03811681036107705790565b1561248f57565b60405162461bcd60e51b815260206004820152601060248201526f6f6e6c79206974656d206f776e65722160801b6044820152606490fd5b60018060a01b031660005260a56020526040600020906000526020526040600020546124fe609e54916124f861282d565b90612f51565b9080821161250a575090565b905090565b9160009260009260018060a01b038216908160005260a56020526040600020816000526020526040600020548260005260a66020526040600020826000526020526040600020548360005260a76020526040600020836000526020526040600020549360005260a960205260406000208360005260205260406000205490609e54926125a1609a5495609b54986124c7565b95965b8688106125b6575b5050505050505050565b909192939495969899868a11156126a7575b6125d9620151806110c48c86612e87565b5081600093929352609f602052604060002081600052602052604060002054801561269d57868a8e0361266857509161264a61265c9461265093612629612656966126248d8d61229c565b612266565b9160005260a160205260406000209060005260205260406000205490612449565b9061228f565b9b6122a9565b996122a9565b969594939291906125a4565b89600094929394198101116122795761265c94612656948f6126509561264a94612629928f600019010361226657508c612266565b50509a99506125ac565b6126cb9082858c6126e057506126c461271091612624898961229c565b049061228f565b868a10156125c8579961265661265c916122a9565b898d146126f5575b612710916126c491612266565b50866126e8565b9060018060a01b03821660005260a760205260406000208160005260205260406000205490609d548210159283612734575b50505090565b61273f9293506124c7565b1438808061272e565b9061275381836124c7565b91609d5483106127c05782156122795760018060a01b031660005260a6602052604060002090600052602052612710600c6127a461279b604060002054946000190185612266565b609c5490612266565b04048181116127b9576127b69161229c565b90565b5050600090565b505050600090565b60018060a01b031660005260a360205260406000209060005260205260ff60406000205416156127f457565b60405162461bcd60e51b815260206004820152601160248201527037b7363c9039ba30b5b2b2103a37b5b2b760791b6044820152606490fd5b60ae546201518090818102918183041490151715612279576127b6904261228f565b906107b28210610770576112c090818301918212926000928382129283159580158516908716176129e0576004958661289d612898600c9586612891876129f4565b0590612a1f565b612a3b565b0580617d491901908112156001166129cd5760011983018381136001166129a757846128c8856129f4565b0590858202918083058714901517156129ba57906128e591612a06565b61016f90808202918205036129a7579084612901920590612a1f565b94611324809501948512908115169116176129945791612926916128916064946129f4565b0580600302906003820503612981579083612942920590612a06565b9162253d8b19830192831360011661296e57620151809283810293818504149015171561296e57505090565b634e487b7160e01b825260119052602490fd5b634e487b7160e01b835260118452602483fd5b634e487b7160e01b855260118652602485fd5b634e487b7160e01b885260118952602488fd5b634e487b7160e01b895260118a52602489fd5b634e487b7160e01b875260118852602487fd5b634e487b7160e01b85526011600452602485fd5b90600d19820191821360011661227957565b8181039291600013801582851316918412161761227957565b9190916000838201938412911290801582169115161761227957565b906105b5918083029283050361227957565b6107b2811061077057617d4a198301928313600116612279576112c09081810191821291600093848312938415908015861690821617612b4b57612aa160049788612891612898600c9788612891896129f4565b60011983018381136001166129a75784612aba856129f4565b0590858202918083058714901517156129ba5790612ad791612a06565b61016f90808202918205036129a7579084612af3920590612a1f565b94611324809501948512908115169116176129945791612b18916128916064946129f4565b0580600302906003820503612981579083612b34920590612a06565b9162253d8b19830192831360011661296e57505090565b634e487b7160e01b86526011600452602486fd5b62010bd99182820192831291600092838212908015821691151617612d2d576226496501928262253d8c85129112908015821691151617612d19578260021b6004938482058103610aef5762023ab180920591828102908105830361299457600381019085600383129112908015821691151617612994579085612be4920590612a06565b600181016001811285831290801582169115161761299457610fa090808202918205036129945762164b09612c2691059186612c1f84612a3b565b0590612a06565b91601f83019285601f85129112908015821691151617612994578260500292605084058103612d065761098f8094059384810290810585036129cd57906050612c70920590612a06565b94600b840593600281019082600283129112908015821691151617612cf35784600c0290600c82058603612ce05790612ca891612a06565b96603019830192831360011661296e578260640292606484050361296e575050612cdb9291612cd691612a1f565b612a1f565b929190565b634e487b7160e01b835260118952602483fd5b634e487b7160e01b825260118852602482fd5b634e487b7160e01b865260118752602486fd5b634e487b7160e01b82526011600452602482fd5b634e487b7160e01b83526011600452602483fd5b90600181148015612df8575b8015612dee575b8015612de4575b8015612dda575b8015612dd0575b8015612dc6575b15612d7c575050601f90565b600214612d895750601e90565b60038116159081612db9575b8115612dac575b5015612da757601d90565b601c90565b6101909150061538612d9c565b6064810615159150612d95565b50600c8114612d70565b50600a8114612d69565b5060088114612d62565b5060078114612d5b565b5060058114612d54565b5060038114612d4d565b9062015180612e12818404612b5f565b9190829160018201821161227957612e2f600c918284049061228f565b9106906001820180921161227957612e5993612e4b8383612d41565b809111612e7f575b50612a4d565b8181029080820483149015171561227957612e769184069061228f565b91821061077057565b925038612e53565b9190612ea66201518091612e9c838604612b5f565b939092849361228f565b60001981019190821161227957612e2f600c918284049061228f565b9062015180612ed2818404612b5f565b91908291600c810290808204600c1490151715612279576000199180830190811161227957612f009161228f565b90810190811161227957600c8082049106906001820180921161227957612f2b93612e4b8383612d41565b8181029080820483149015171561227957612f489184069061228f565b91821161077057565b81811161077057612f74612f6a62015180809304612b5f565b5092909304612b5f565b50600c820291808304600c149015171561227957612f919161228f565b600c830292808404600c1490151715612279576127b692611ac69161229c56fe360894a13ba1a3210667c828492db98dca3e2076cc3735a920a3ca505d382bbca2646970667358221220d1a4944eaaee7b7d3ea44a4b19c2a773e6b941712c03a4cc3c6f36a2a36759b364736f6c63430008120033",
  "devdoc": {
    "events": {
      "AdminChanged(address,address)": {
        "details": "Emitted when the admin account has changed."
      },
      "BeaconUpgraded(address)": {
        "details": "Emitted when the beacon is changed."
      },
      "Initialized(uint8)": {
        "details": "Triggered when the contract has been initialized or reinitialized."
      },
      "Upgraded(address)": {
        "details": "Emitted when the implementation is upgraded."
      }
    },
    "kind": "dev",
    "methods": {
      "proxiableUUID()": {
        "details": "Implementation of the ERC1822 {proxiableUUID} function. This returns the storage slot used by the implementation. It is used to validate the implementation's compatibility when performing an upgrade. IMPORTANT: A proxy pointing at a proxiable contract should not be considered proxiable itself, because this risks bricking a proxy that upgrades to it, by delegating to itself until out of gas. Thus it is critical that this function revert if invoked through a proxy. This is guaranteed by the `notDelegated` modifier."
      },
      "upgradeTo(address)": {
        "custom:oz-upgrades-unsafe-allow-reachable": "delegatecall",
        "details": "Upgrade the implementation of the proxy to `newImplementation`. Calls {_authorizeUpgrade}. Emits an {Upgraded} event."
      },
      "upgradeToAndCall(address,bytes)": {
        "custom:oz-upgrades-unsafe-allow-reachable": "delegatecall",
        "details": "Upgrade the implementation of the proxy to `newImplementation`, and subsequently execute the function call encoded in `data`. Calls {_authorizeUpgrade}. Emits an {Upgraded} event."
      }
    },
    "version": 1
  },
  "userdoc": {
    "kind": "user",
    "methods": {},
    "version": 1
  },
  "storageLayout": {
    "storage": [
      {
        "astId": 371,
        "contract": "contracts/core/stakings/FlexStakingStrategy.sol:FlexStakingStrategy",
        "label": "_initialized",
        "offset": 0,
        "slot": "0",
        "type": "t_uint8"
      },
      {
        "astId": 374,
        "contract": "contracts/core/stakings/FlexStakingStrategy.sol:FlexStakingStrategy",
        "label": "_initializing",
        "offset": 1,
        "slot": "0",
        "type": "t_bool"
      },
      {
        "astId": 683,
        "contract": "contracts/core/stakings/FlexStakingStrategy.sol:FlexStakingStrategy",
        "label": "_status",
        "offset": 0,
        "slot": "1",
        "type": "t_uint256"
      },
      {
        "astId": 752,
        "contract": "contracts/core/stakings/FlexStakingStrategy.sol:FlexStakingStrategy",
        "label": "__gap",
        "offset": 0,
        "slot": "2",
        "type": "t_array(t_uint256)49_storage"
      },
      {
        "astId": 353,
        "contract": "contracts/core/stakings/FlexStakingStrategy.sol:FlexStakingStrategy",
        "label": "__gap",
        "offset": 0,
        "slot": "51",
        "type": "t_array(t_uint256)50_storage"
      },
      {
        "astId": 668,
        "contract": "contracts/core/stakings/FlexStakingStrategy.sol:FlexStakingStrategy",
        "label": "__gap",
        "offset": 0,
        "slot": "101",
        "type": "t_array(t_uint256)50_storage"
      },
      {
        "astId": 7240,
        "contract": "contracts/core/stakings/FlexStakingStrategy.sol:FlexStakingStrategy",
        "label": "addressBook",
        "offset": 0,
        "slot": "151",
        "type": "t_address"
      },
      {
        "astId": 7242,
        "contract": "contracts/core/stakings/FlexStakingStrategy.sol:FlexStakingStrategy",
        "label": "minLockYears",
        "offset": 0,
        "slot": "152",
        "type": "t_uint256"
      },
      {
        "astId": 7244,
        "contract": "contracts/core/stakings/FlexStakingStrategy.sol:FlexStakingStrategy",
        "label": "maxLockYears",
        "offset": 0,
        "slot": "153",
        "type": "t_uint256"
      },
      {
        "astId": 7246,
        "contract": "contracts/core/stakings/FlexStakingStrategy.sol:FlexStakingStrategy",
        "label": "initialMonths",
        "offset": 0,
        "slot": "154",
        "type": "t_uint256"
      },
      {
        "astId": 7248,
        "contract": "contracts/core/stakings/FlexStakingStrategy.sol:FlexStakingStrategy",
        "label": "initialRewardsRate",
        "offset": 0,
        "slot": "155",
        "type": "t_uint256"
      },
      {
        "astId": 7250,
        "contract": "contracts/core/stakings/FlexStakingStrategy.sol:FlexStakingStrategy",
        "label": "yearDeprecationRate",
        "offset": 0,
        "slot": "156",
        "type": "t_uint256"
      },
      {
        "astId": 7252,
        "contract": "contracts/core/stakings/FlexStakingStrategy.sol:FlexStakingStrategy",
        "label": "minMonthsCount",
        "offset": 0,
        "slot": "157",
        "type": "t_uint256"
      },
      {
        "astId": 7254,
        "contract": "contracts/core/stakings/FlexStakingStrategy.sol:FlexStakingStrategy",
        "label": "maxMonthsCount",
        "offset": 0,
        "slot": "158",
        "type": "t_uint256"
      },
      {
        "astId": 7260,
        "contract": "contracts/core/stakings/FlexStakingStrategy.sol:FlexStakingStrategy",
        "label": "earnings",
        "offset": 0,
        "slot": "159",
        "type": "t_mapping(t_uint256,t_mapping(t_uint256,t_uint256))"
      },
      {
        "astId": 7266,
        "contract": "contracts/core/stakings/FlexStakingStrategy.sol:FlexStakingStrategy",
        "label": "depositsToRemove",
        "offset": 0,
        "slot": "160",
        "type": "t_mapping(t_uint256,t_mapping(t_uint256,t_uint256))"
      },
      {
        "astId": 7272,
        "contract": "contracts/core/stakings/FlexStakingStrategy.sol:FlexStakingStrategy",
        "label": "deposits",
        "offset": 0,
        "slot": "161",
        "type": "t_mapping(t_uint256,t_mapping(t_uint256,t_uint256))"
      },
      {
        "astId": 7274,
        "contract": "contracts/core/stakings/FlexStakingStrategy.sol:FlexStakingStrategy",
        "label": "lastUpdatedTimestamp",
        "offset": 0,
        "slot": "162",
        "type": "t_uint256"
      },
      {
        "astId": 7280,
        "contract": "contracts/core/stakings/FlexStakingStrategy.sol:FlexStakingStrategy",
        "label": "isStakedToken",
        "offset": 0,
        "slot": "163",
        "type": "t_mapping(t_address,t_mapping(t_uint256,t_bool))"
      },
      {
        "astId": 7286,
        "contract": "contracts/core/stakings/FlexStakingStrategy.sol:FlexStakingStrategy",
        "label": "initialTimestamp",
        "offset": 0,
        "slot": "164",
        "type": "t_mapping(t_address,t_mapping(t_uint256,t_uint256))"
      },
      {
        "astId": 7292,
        "contract": "contracts/core/stakings/FlexStakingStrategy.sol:FlexStakingStrategy",
        "label": "startStakingTimestamp",
        "offset": 0,
        "slot": "165",
        "type": "t_mapping(t_address,t_mapping(t_uint256,t_uint256))"
      },
      {
        "astId": 7298,
        "contract": "contracts/core/stakings/FlexStakingStrategy.sol:FlexStakingStrategy",
        "label": "itemsPrice",
        "offset": 0,
        "slot": "166",
        "type": "t_mapping(t_address,t_mapping(t_uint256,t_uint256))"
      },
      {
        "astId": 7304,
        "contract": "contracts/core/stakings/FlexStakingStrategy.sol:FlexStakingStrategy",
        "label": "claimedPeriodsCount",
        "offset": 0,
        "slot": "167",
        "type": "t_mapping(t_address,t_mapping(t_uint256,t_uint256))"
      },
      {
        "astId": 7310,
        "contract": "contracts/core/stakings/FlexStakingStrategy.sol:FlexStakingStrategy",
        "label": "finalTimestamp",
        "offset": 0,
        "slot": "168",
        "type": "t_mapping(t_address,t_mapping(t_uint256,t_uint256))"
      },
      {
        "astId": 7316,
        "contract": "contracts/core/stakings/FlexStakingStrategy.sol:FlexStakingStrategy",
        "label": "remainder",
        "offset": 0,
        "slot": "169",
        "type": "t_mapping(t_address,t_mapping(t_uint256,t_uint256))"
      },
      {
        "astId": 7322,
        "contract": "contracts/core/stakings/FlexStakingStrategy.sol:FlexStakingStrategy",
        "label": "withdrawnRewards",
        "offset": 0,
        "slot": "170",
        "type": "t_mapping(t_address,t_mapping(t_uint256,t_uint256))"
      },
      {
        "astId": 7338,
        "contract": "contracts/core/stakings/FlexStakingStrategy.sol:FlexStakingStrategy",
        "label": "depostitsDate",
        "offset": 0,
        "slot": "171",
        "type": "t_mapping(t_address,t_mapping(t_uint256,t_struct(DepositsDate)7331_storage))"
      },
      {
        "astId": 7340,
        "contract": "contracts/core/stakings/FlexStakingStrategy.sol:FlexStakingStrategy",
        "label": "lastUpdatedEarningsYear",
        "offset": 0,
        "slot": "172",
        "type": "t_uint256"
      },
      {
        "astId": 7342,
        "contract": "contracts/core/stakings/FlexStakingStrategy.sol:FlexStakingStrategy",
        "label": "lastUpdatedEarningsMonth",
        "offset": 0,
        "slot": "173",
        "type": "t_uint256"
      },
      {
        "astId": 8733,
        "contract": "contracts/core/stakings/FlexStakingStrategy.sol:FlexStakingStrategy",
        "label": "__addedDays",
        "offset": 0,
        "slot": "174",
        "type": "t_uint256"
      }
    ],
    "types": {
      "t_address": {
        "encoding": "inplace",
        "label": "address",
        "numberOfBytes": "20"
      },
      "t_array(t_uint256)49_storage": {
        "base": "t_uint256",
        "encoding": "inplace",
        "label": "uint256[49]",
        "numberOfBytes": "1568"
      },
      "t_array(t_uint256)50_storage": {
        "base": "t_uint256",
        "encoding": "inplace",
        "label": "uint256[50]",
        "numberOfBytes": "1600"
      },
      "t_bool": {
        "encoding": "inplace",
        "label": "bool",
        "numberOfBytes": "1"
      },
      "t_mapping(t_address,t_mapping(t_uint256,t_bool))": {
        "encoding": "mapping",
        "key": "t_address",
        "label": "mapping(address => mapping(uint256 => bool))",
        "numberOfBytes": "32",
        "value": "t_mapping(t_uint256,t_bool)"
      },
      "t_mapping(t_address,t_mapping(t_uint256,t_struct(DepositsDate)7331_storage))": {
        "encoding": "mapping",
        "key": "t_address",
        "label": "mapping(address => mapping(uint256 => struct FlexStakingStrategy.DepositsDate))",
        "numberOfBytes": "32",
        "value": "t_mapping(t_uint256,t_struct(DepositsDate)7331_storage)"
      },
      "t_mapping(t_address,t_mapping(t_uint256,t_uint256))": {
        "encoding": "mapping",
        "key": "t_address",
        "label": "mapping(address => mapping(uint256 => uint256))",
        "numberOfBytes": "32",
        "value": "t_mapping(t_uint256,t_uint256)"
      },
      "t_mapping(t_uint256,t_bool)": {
        "encoding": "mapping",
        "key": "t_uint256",
        "label": "mapping(uint256 => bool)",
        "numberOfBytes": "32",
        "value": "t_bool"
      },
      "t_mapping(t_uint256,t_mapping(t_uint256,t_uint256))": {
        "encoding": "mapping",
        "key": "t_uint256",
        "label": "mapping(uint256 => mapping(uint256 => uint256))",
        "numberOfBytes": "32",
        "value": "t_mapping(t_uint256,t_uint256)"
      },
      "t_mapping(t_uint256,t_struct(DepositsDate)7331_storage)": {
        "encoding": "mapping",
        "key": "t_uint256",
        "label": "mapping(uint256 => struct FlexStakingStrategy.DepositsDate)",
        "numberOfBytes": "32",
        "value": "t_struct(DepositsDate)7331_storage"
      },
      "t_mapping(t_uint256,t_uint256)": {
        "encoding": "mapping",
        "key": "t_uint256",
        "label": "mapping(uint256 => uint256)",
        "numberOfBytes": "32",
        "value": "t_uint256"
      },
      "t_struct(DepositsDate)7331_storage": {
        "encoding": "inplace",
        "label": "struct FlexStakingStrategy.DepositsDate",
        "members": [
          {
            "astId": 7324,
            "contract": "contracts/core/stakings/FlexStakingStrategy.sol:FlexStakingStrategy",
            "label": "finalYear",
            "offset": 0,
            "slot": "0",
            "type": "t_uint256"
          },
          {
            "astId": 7326,
            "contract": "contracts/core/stakings/FlexStakingStrategy.sol:FlexStakingStrategy",
            "label": "finalMonth",
            "offset": 0,
            "slot": "1",
            "type": "t_uint256"
          },
          {
            "astId": 7328,
            "contract": "contracts/core/stakings/FlexStakingStrategy.sol:FlexStakingStrategy",
            "label": "prevFinalYear",
            "offset": 0,
            "slot": "2",
            "type": "t_uint256"
          },
          {
            "astId": 7330,
            "contract": "contracts/core/stakings/FlexStakingStrategy.sol:FlexStakingStrategy",
            "label": "prevFinalMonth",
            "offset": 0,
            "slot": "3",
            "type": "t_uint256"
          }
        ],
        "numberOfBytes": "128"
      },
      "t_uint256": {
        "encoding": "inplace",
        "label": "uint256",
        "numberOfBytes": "32"
      },
      "t_uint8": {
        "encoding": "inplace",
        "label": "uint8",
        "numberOfBytes": "1"
      }
    }
  }
}