{
  "address": "0xB194Ba522462241e50e9d1DFc399F27b44ac54F9",
  "abi": [
    {
      "anonymous": false,
      "inputs": [
        {
          "indexed": false,
          "internalType": "address",
          "name": "previousAdmin",
          "type": "address"
        },
        {
          "indexed": false,
          "internalType": "address",
          "name": "newAdmin",
          "type": "address"
        }
      ],
      "name": "AdminChanged",
      "type": "event"
    },
    {
      "anonymous": false,
      "inputs": [
        {
          "indexed": true,
          "internalType": "address",
          "name": "beacon",
          "type": "address"
        }
      ],
      "name": "BeaconUpgraded",
      "type": "event"
    },
    {
      "anonymous": false,
      "inputs": [
        {
          "indexed": false,
          "internalType": "uint8",
          "name": "version",
          "type": "uint8"
        }
      ],
      "name": "Initialized",
      "type": "event"
    },
    {
      "anonymous": false,
      "inputs": [
        {
          "indexed": true,
          "internalType": "address",
          "name": "implementation",
          "type": "address"
        }
      ],
      "name": "Upgraded",
      "type": "event"
    },
    {
      "inputs": [],
      "name": "addressBook",
      "outputs": [
        {
          "internalType": "address",
          "name": "",
          "type": "address"
        }
      ],
      "stateMutability": "view",
      "type": "function"
    },
    {
      "inputs": [
        {
          "internalType": "address",
          "name": "_addressBook",
          "type": "address"
        }
      ],
      "name": "initialize",
      "outputs": [],
      "stateMutability": "nonpayable",
      "type": "function"
    },
    {
      "inputs": [
        {
          "internalType": "bytes[]",
          "name": "data",
          "type": "bytes[]"
        }
      ],
      "name": "multicall",
      "outputs": [
        {
          "internalType": "bytes[]",
          "name": "results",
          "type": "bytes[]"
        }
      ],
      "stateMutability": "nonpayable",
      "type": "function"
    },
    {
      "inputs": [],
      "name": "proxiableUUID",
      "outputs": [
        {
          "internalType": "bytes32",
          "name": "",
          "type": "bytes32"
        }
      ],
      "stateMutability": "view",
      "type": "function"
    },
    {
      "inputs": [
        {
          "internalType": "address",
          "name": "newImplementation",
          "type": "address"
        }
      ],
      "name": "upgradeTo",
      "outputs": [],
      "stateMutability": "nonpayable",
      "type": "function"
    },
    {
      "inputs": [
        {
          "internalType": "address",
          "name": "newImplementation",
          "type": "address"
        },
        {
          "internalType": "bytes",
          "name": "data",
          "type": "bytes"
        }
      ],
      "name": "upgradeToAndCall",
      "outputs": [],
      "stateMutability": "payable",
      "type": "function"
    }
  ],
  "transactionHash": "0xc82ee8a778c5e1631905877b38dc11fa19da5d5a71a549024ff5059dcbd0aa4d",
  "args": [],
  "numDeployments": 1,
  "solcInputHash": "a05f4de1a4917cec955af5c449330ccf",
  "bytecode": "0x60a080604052346100315730608052610d449081610037823960805181818161038a0152818161048a015261070b0152f35b600080fdfe6040608081526004908136101561001557600080fd5b600091823560e01c9081633659cfe6146106e35781634f1ef2861461043a57816352d1902d14610374578163ac9650d8146101cd578163c4d66de814610090575063f5887cdd1461006557600080fd5b3461008c578160031936011261008c5760975490516001600160a01b039091168152602090f35b5080fd5b9050346101c95760203660031901126101c9576100ab610923565b835460ff8160081c1615928380946101bc575b80156101a5575b1561014b575060ff19811660011785558261013a575b5060018060a01b03166bffffffffffffffffffffffff60a01b6097541617609755610104575080f35b60207f7f26b83ff96e1f2b6a682f133852f6798a09c465da95921460cefb38474024989161ff001984541684555160018152a180f35b61ffff1916610101178455386100db565b608490602086519162461bcd60e51b8352820152602e60248201527f496e697469616c697a61626c653a20636f6e747261637420697320616c72656160448201526d191e481a5b9a5d1a585b1a5e995960921b6064820152fd5b50303b1580156100c55750600160ff8316146100c5565b50600160ff8316106100be565b8280fd5b83833461008c57602090816003193601126101c95783359167ffffffffffffffff94858411610370573660238501121561037057838101359386851161036c576024916005973684888b1b850101116103685761022f87939798969598610cac565b9661023c86519889610968565b838852601f1961024b85610cac565b01875b818110610359575050368190036042190190875b8581106102c757505050505050508051938080860192818752855180945283818801981b870101940192955b82871061029b5785850386f35b9091929382806102b7600193603f198a820301865288516109dd565b960192019601959291909261028e565b86818d9c999a9c1b830101358381121561035557820187810135908582116103515760440190803603821361035157610314916103059136916109a6565b61030d610b6f565b9030610bc9565b61031e828c610cc4565b52610329818b610cc4565b50600019811461033f5760010199979699610262565b634e487b7160e01b8b5260118552868bfd5b8c80fd5b8b80fd5b60608a82018c01528a0161024e565b8780fd5b8580fd5b8480fd5b90508234610437578060031936011261043757507f00000000000000000000000000000000000000000000000000000000000000006001600160a01b031630036103cf5760208251600080516020610cef8339815191528152f35b6020608492519162461bcd60e51b8352820152603860248201527f555550535570677261646561626c653a206d757374206e6f742062652063616c60448201527f6c6564207468726f7567682064656c656761746563616c6c00000000000000006064820152fd5b80fd5b9050816003193601126101c95761044f610923565b9160243567ffffffffffffffff811161037057366023820112156103705761048090369060248186013591016109a6565b6001600160a01b037f000000000000000000000000000000000000000000000000000000000000000081169291906104ba30851415610a1d565b6104d7600080516020610cef833981519152948286541614610a7e565b868160975416803b1561008c5781602491865192838092630ceb3b9b60e21b8252338c8301525afa80156106d9576106c1575b50507f4910fdfa16fed3260ed0e7147f7cc6da11a60208b5b9406d12a635614ffd91435460ff161561054757505050505061054490610adf565b80f35b82516352d1902d60e01b815290861696949560209593949091868189818c5afa60009181610692575b506105cf57855162461bcd60e51b8152808901889052602e60248201527f45524331393637557067726164653a206e657720696d706c656d656e7461746960448201526d6f6e206973206e6f74205555505360901b6064820152608490fd5b97949195929693970361063f575050506105e882610adf565b7fbc7cd75a20ee27fd9adebab32041f755214dbc6bffa90cc0225b39da2e5c2d3b600080a2815115801590610637575b61062157505080f35b6106339161062d610b6f565b91610bc9565b5080f35b506001610618565b5162461bcd60e51b815291820152602960248201527f45524331393637557067726164653a20756e737570706f727465642070726f786044820152681a58589b195555525160ba1b606482015260849150fd5b90918882813d83116106ba575b6106a98183610968565b810103126104375750519038610570565b503d61069f565b6106ca9061093e565b6106d557863861050a565b8680fd5b85513d84823e3d90fd5b8391503461008c57602090816003193601126101c957610701610923565b6001600160a01b037f00000000000000000000000000000000000000000000000000000000000000008116959193919061073d30881415610a1d565b61075a600080516020610cef833981519152978289541614610a7e565b8060975416803b156106d55786602491845192838092630ceb3b9b60e21b8252338a8301525afa801561091957610906575b5081519083820182811067ffffffffffffffff8211176108f15783528682527f4910fdfa16fed3260ed0e7147f7cc6da11a60208b5b9406d12a635614ffd91435460ff16156107e5575050505050610544919250610adf565b85919294969395169684516352d1902d60e01b8152868189818c5afa600091816108c2575b5061086957855162461bcd60e51b8152808901889052602e60248201527f45524331393637557067726164653a206e657720696d706c656d656e7461746960448201526d6f6e206973206e6f74205555505360901b6064820152608490fd5b97949195929693970361063f5750505061088282610adf565b7fbc7cd75a20ee27fd9adebab32041f755214dbc6bffa90cc0225b39da2e5c2d3b600080a28151158015906108ba5761062157505080f35b506000610618565b90918882813d83116108ea575b6108d98183610968565b81010312610437575051908a61080a565b503d6108cf565b604186634e487b7160e01b6000525260246000fd5b6109129096919661093e565b948761078c565b83513d89823e3d90fd5b600435906001600160a01b038216820361093957565b600080fd5b67ffffffffffffffff811161095257604052565b634e487b7160e01b600052604160045260246000fd5b90601f8019910116810190811067ffffffffffffffff82111761095257604052565b67ffffffffffffffff811161095257601f01601f191660200190565b9291926109b28261098a565b916109c06040519384610968565b829481845281830111610939578281602093846000960137010152565b919082519283825260005b848110610a09575050826000602080949584010152601f8019910116010190565b6020818301810151848301820152016109e8565b15610a2457565b60405162461bcd60e51b815260206004820152602c60248201527f46756e6374696f6e206d7573742062652063616c6c6564207468726f7567682060448201526b19195b1959d85d1958d85b1b60a21b6064820152608490fd5b15610a8557565b60405162461bcd60e51b815260206004820152602c60248201527f46756e6374696f6e206d7573742062652063616c6c6564207468726f7567682060448201526b6163746976652070726f787960a01b6064820152608490fd5b803b15610b1457600080516020610cef83398151915280546001600160a01b0319166001600160a01b03909216919091179055565b60405162461bcd60e51b815260206004820152602d60248201527f455243313936373a206e657720696d706c656d656e746174696f6e206973206e60448201526c1bdd08184818dbdb9d1c9858dd609a1b6064820152608490fd5b604051906060820182811067ffffffffffffffff8211176109525760405260278252660819985a5b195960ca1b6040837f416464726573733a206c6f772d6c6576656c2064656c65676174652063616c6c60208201520152565b600080610c089493602081519101845af43d15610c0b573d91610beb8361098a565b92610bf96040519485610968565b83523d6000602085013e610c0f565b90565b6060915b91929015610c715750815115610c23575090565b3b15610c2c5790565b60405162461bcd60e51b815260206004820152601d60248201527f416464726573733a2063616c6c20746f206e6f6e2d636f6e74726163740000006044820152606490fd5b825190915015610c845750805190602001fd5b60405162461bcd60e51b815260206004820152908190610ca89060248301906109dd565b0390fd5b67ffffffffffffffff81116109525760051b60200190565b8051821015610cd85760209160051b010190565b634e487b7160e01b600052603260045260246000fdfe360894a13ba1a3210667c828492db98dca3e2076cc3735a920a3ca505d382bbca264697066735822122004cc9d63b81a573b66702632649601b472cc4ca6360f7c89b6636fb1c79f83a164736f6c63430008120033",
  "devdoc": {
    "events": {
      "AdminChanged(address,address)": {
        "details": "Emitted when the admin account has changed."
      },
      "BeaconUpgraded(address)": {
        "details": "Emitted when the beacon is changed."
      },
      "Initialized(uint8)": {
        "details": "Triggered when the contract has been initialized or reinitialized."
      },
      "Upgraded(address)": {
        "details": "Emitted when the implementation is upgraded."
      }
    },
    "kind": "dev",
    "methods": {
      "multicall(bytes[])": {
        "custom:oz-upgrades-unsafe-allow-reachable": "delegatecall",
        "details": "Receives and executes a batch of function calls on this contract."
      },
      "proxiableUUID()": {
        "details": "Implementation of the ERC1822 {proxiableUUID} function. This returns the storage slot used by the implementation. It is used to validate the implementation's compatibility when performing an upgrade. IMPORTANT: A proxy pointing at a proxiable contract should not be considered proxiable itself, because this risks bricking a proxy that upgrades to it, by delegating to itself until out of gas. Thus it is critical that this function revert if invoked through a proxy. This is guaranteed by the `notDelegated` modifier."
      },
      "upgradeTo(address)": {
        "custom:oz-upgrades-unsafe-allow-reachable": "delegatecall",
        "details": "Upgrade the implementation of the proxy to `newImplementation`. Calls {_authorizeUpgrade}. Emits an {Upgraded} event."
      },
      "upgradeToAndCall(address,bytes)": {
        "custom:oz-upgrades-unsafe-allow-reachable": "delegatecall",
        "details": "Upgrade the implementation of the proxy to `newImplementation`, and subsequently execute the function call encoded in `data`. Calls {_authorizeUpgrade}. Emits an {Upgraded} event."
      }
    },
    "version": 1
  },
  "userdoc": {
    "kind": "user",
    "methods": {},
    "version": 1
  },
  "storageLayout": {
    "storage": [
      {
        "astId": 371,
        "contract": "contracts/core/frontend/Multicall.sol:Multicall",
        "label": "_initialized",
        "offset": 0,
        "slot": "0",
        "type": "t_uint8"
      },
      {
        "astId": 374,
        "contract": "contracts/core/frontend/Multicall.sol:Multicall",
        "label": "_initializing",
        "offset": 1,
        "slot": "0",
        "type": "t_bool"
      },
      {
        "astId": 353,
        "contract": "contracts/core/frontend/Multicall.sol:Multicall",
        "label": "__gap",
        "offset": 0,
        "slot": "1",
        "type": "t_array(t_uint256)50_storage"
      },
      {
        "astId": 668,
        "contract": "contracts/core/frontend/Multicall.sol:Multicall",
        "label": "__gap",
        "offset": 0,
        "slot": "51",
        "type": "t_array(t_uint256)50_storage"
      },
      {
        "astId": 2312,
        "contract": "contracts/core/frontend/Multicall.sol:Multicall",
        "label": "__gap",
        "offset": 0,
        "slot": "101",
        "type": "t_array(t_uint256)50_storage"
      },
      {
        "astId": 4955,
        "contract": "contracts/core/frontend/Multicall.sol:Multicall",
        "label": "addressBook",
        "offset": 0,
        "slot": "151",
        "type": "t_address"
      }
    ],
    "types": {
      "t_address": {
        "encoding": "inplace",
        "label": "address",
        "numberOfBytes": "20"
      },
      "t_array(t_uint256)50_storage": {
        "base": "t_uint256",
        "encoding": "inplace",
        "label": "uint256[50]",
        "numberOfBytes": "1600"
      },
      "t_bool": {
        "encoding": "inplace",
        "label": "bool",
        "numberOfBytes": "1"
      },
      "t_uint256": {
        "encoding": "inplace",
        "label": "uint256",
        "numberOfBytes": "32"
      },
      "t_uint8": {
        "encoding": "inplace",
        "label": "uint8",
        "numberOfBytes": "1"
      }
    }
  }
}