{
  "address": "0x6d632196b9D33A9Acb7F3F2A04381594E0e428B6",
  "abi": [
    {
      "anonymous": false,
      "inputs": [
        {
          "indexed": false,
          "internalType": "address",
          "name": "previousAdmin",
          "type": "address"
        },
        {
          "indexed": false,
          "internalType": "address",
          "name": "newAdmin",
          "type": "address"
        }
      ],
      "name": "AdminChanged",
      "type": "event"
    },
    {
      "anonymous": false,
      "inputs": [
        {
          "indexed": true,
          "internalType": "address",
          "name": "beacon",
          "type": "address"
        }
      ],
      "name": "BeaconUpgraded",
      "type": "event"
    },
    {
      "anonymous": false,
      "inputs": [
        {
          "indexed": false,
          "internalType": "uint8",
          "name": "version",
          "type": "uint8"
        }
      ],
      "name": "Initialized",
      "type": "event"
    },
    {
      "anonymous": false,
      "inputs": [
        {
          "indexed": true,
          "internalType": "address",
          "name": "implementation",
          "type": "address"
        }
      ],
      "name": "Upgraded",
      "type": "event"
    },
    {
      "anonymous": false,
      "inputs": [
        {
          "indexed": true,
          "internalType": "address",
          "name": "from",
          "type": "address"
        },
        {
          "indexed": true,
          "internalType": "address",
          "name": "to",
          "type": "address"
        },
        {
          "indexed": true,
          "internalType": "address",
          "name": "token",
          "type": "address"
        },
        {
          "indexed": false,
          "internalType": "uint256",
          "name": "amount",
          "type": "uint256"
        }
      ],
      "name": "Withdraw",
      "type": "event"
    },
    {
      "inputs": [],
      "name": "PRICERS_DECIMALS",
      "outputs": [
        {
          "internalType": "uint256",
          "name": "",
          "type": "uint256"
        }
      ],
      "stateMutability": "view",
      "type": "function"
    },
    {
      "inputs": [],
      "name": "USD_DECIMALS",
      "outputs": [
        {
          "internalType": "uint256",
          "name": "",
          "type": "uint256"
        }
      ],
      "stateMutability": "view",
      "type": "function"
    },
    {
      "inputs": [
        {
          "internalType": "address",
          "name": "_token",
          "type": "address"
        },
        {
          "internalType": "address",
          "name": "_pricer",
          "type": "address"
        }
      ],
      "name": "addToken",
      "outputs": [],
      "stateMutability": "nonpayable",
      "type": "function"
    },
    {
      "inputs": [],
      "name": "addressBook",
      "outputs": [
        {
          "internalType": "address",
          "name": "",
          "type": "address"
        }
      ],
      "stateMutability": "view",
      "type": "function"
    },
    {
      "inputs": [
        {
          "internalType": "address",
          "name": "_token",
          "type": "address"
        }
      ],
      "name": "deleteToken",
      "outputs": [],
      "stateMutability": "nonpayable",
      "type": "function"
    },
    {
      "inputs": [
        {
          "internalType": "address",
          "name": "_token",
          "type": "address"
        }
      ],
      "name": "enforceIsSupportedToken",
      "outputs": [],
      "stateMutability": "view",
      "type": "function"
    },
    {
      "inputs": [
        {
          "internalType": "address",
          "name": "_addressBook",
          "type": "address"
        }
      ],
      "name": "initialize",
      "outputs": [],
      "stateMutability": "nonpayable",
      "type": "function"
    },
    {
      "inputs": [],
      "name": "onlyGovernanceWithdrawn",
      "outputs": [
        {
          "internalType": "bool",
          "name": "",
          "type": "bool"
        }
      ],
      "stateMutability": "view",
      "type": "function"
    },
    {
      "inputs": [
        {
          "internalType": "address",
          "name": "",
          "type": "address"
        }
      ],
      "name": "pricers",
      "outputs": [
        {
          "internalType": "address",
          "name": "",
          "type": "address"
        }
      ],
      "stateMutability": "view",
      "type": "function"
    },
    {
      "inputs": [],
      "name": "proxiableUUID",
      "outputs": [
        {
          "internalType": "bytes32",
          "name": "",
          "type": "bytes32"
        }
      ],
      "stateMutability": "view",
      "type": "function"
    },
    {
      "inputs": [
        {
          "internalType": "bool",
          "name": "_value",
          "type": "bool"
        }
      ],
      "name": "setOnlyProductOwnerWithdrawn",
      "outputs": [],
      "stateMutability": "nonpayable",
      "type": "function"
    },
    {
      "inputs": [
        {
          "internalType": "address",
          "name": "_token",
          "type": "address"
        },
        {
          "internalType": "address",
          "name": "_pricer",
          "type": "address"
        }
      ],
      "name": "updateTokenPricer",
      "outputs": [],
      "stateMutability": "nonpayable",
      "type": "function"
    },
    {
      "inputs": [
        {
          "internalType": "address",
          "name": "newImplementation",
          "type": "address"
        }
      ],
      "name": "upgradeTo",
      "outputs": [],
      "stateMutability": "nonpayable",
      "type": "function"
    },
    {
      "inputs": [
        {
          "internalType": "address",
          "name": "newImplementation",
          "type": "address"
        },
        {
          "internalType": "bytes",
          "name": "data",
          "type": "bytes"
        }
      ],
      "name": "upgradeToAndCall",
      "outputs": [],
      "stateMutability": "payable",
      "type": "function"
    },
    {
      "inputs": [
        {
          "internalType": "uint256",
          "name": "_usdAmount",
          "type": "uint256"
        },
        {
          "internalType": "address",
          "name": "_token",
          "type": "address"
        }
      ],
      "name": "usdAmountToToken",
      "outputs": [
        {
          "internalType": "uint256",
          "name": "",
          "type": "uint256"
        }
      ],
      "stateMutability": "view",
      "type": "function"
    },
    {
      "inputs": [
        {
          "internalType": "address",
          "name": "_token",
          "type": "address"
        },
        {
          "internalType": "uint256",
          "name": "_amount",
          "type": "uint256"
        },
        {
          "internalType": "address",
          "name": "_recipient",
          "type": "address"
        }
      ],
      "name": "withdraw",
      "outputs": [],
      "stateMutability": "nonpayable",
      "type": "function"
    }
  ],
  "transactionHash": "0xb04900015a7efb0e8d49b34974b4928b24ba2121b286975224d00e419263dbc6",
  "args": [],
  "numDeployments": 1,
  "solcInputHash": "484aaa5084cf8712325300fcc6dac02e",
  "bytecode": "0x60a08060405234610031573060805261169290816100378239608051818181610ad601528181610c010152610fa80152f35b600080fdfe608060408181526004918236101561001657600080fd5b600092833560e01c91826324682c031461122f575081632f6ee695146112135781633659cfe614610f80578382634051064714610ef4575081634cf4ae8214610ed05781634f1ef28614610b8657816352d1902d14610ac05781635476bd721461096957816369328dec146106bf578163ad878d2e14610591578163c4d66de814610458578163c906fea0146103da578163ccedf78a146101fa578163f069f7121461013c57508063f5887cdd146101145763ff0d54b4146100d757600080fd5b34610110576020366003190112610110576020916001600160a01b03908290826100ff61124a565b168152606685522054169051908152f35b5080fd5b503461011057816003193601126101105760655490516001600160a01b039091168152602090f35b9050346101f65760203660031901126101f65761015761124a565b6065546001600160a01b0392908316908590823b156101105781906024875180958193630ceb3b9b60e21b835233908301525afa9182156101ea5784926101cf575b50506101b59116918285526066602052838520541615156115c9565b82526066602052812080546001600160a01b031916905580f35b6101da919250611276565b6101e657818438610199565b8380fd5b508451903d90823e3d90fd5b8280fd5b9050346101f657816003193601126101f6576001600160a01b03928135929084610222611260565b1680825260209560668752838320541680156103a0579060a0859392855196878092633fabe5a360e21b82525afa94851561034457908791839661034e575b50845163313ce56760e01b815291908290859082905afa908115610344579060ff918391610317575b501690604d82116103045750600a0a938481029481860414901517156102ef576305f5e100938481029481860414901517156102ef5782156102da575090670de0b6b3a764000091519204048152f35b601290634e487b7160e01b6000525260246000fd5b601190634e487b7160e01b6000525260246000fd5b634e487b7160e01b815260118352602490fd5b6103379150883d8a1161033d575b61032f81836112bc565b810190611564565b3861028a565b503d610325565b84513d84823e3d90fd5b9150945060a0813d8211610398575b8161036a60a093836112bc565b8101031261011057868161037e8593611625565b5061038f6080838301519201611625565b50959091610261565b3d915061035d565b835162461bcd60e51b815280860188905260146024820152736e6f7420737570706f7274656420746f6b656e2160601b6044820152606490fd5b919050346101f65760203660031901126101f6576001600160a01b03806103ff61124a565b1684526066602052818420541615610415578280f35b906020606492519162461bcd60e51b8352820152601860248201527f54726561737572793a20756e6b6e6f776e20746f6b656e2100000000000000006044820152fd5b9050346101f65760203660031901126101f65761047361124a565b835460ff8160081c161592838094610584575b801561056d575b15610513575060ff198116600117855582610502575b5060018060a01b03166bffffffffffffffffffffffff60a01b60655416176065556104cc575080f35b60207f7f26b83ff96e1f2b6a682f133852f6798a09c465da95921460cefb38474024989161ff001984541684555160018152a180f35b61ffff1916610101178455386104a3565b608490602086519162461bcd60e51b8352820152602e60248201527f496e697469616c697a61626c653a20636f6e747261637420697320616c72656160448201526d191e481a5b9a5d1a585b1a5e995960921b6064820152fd5b50303b15801561048d5750600160ff83161461048d565b50600160ff831610610486565b919050346101f657806003193601126101f6576105ac61124a565b6105b4611260565b60655490916001600160a01b039186908316803b156101105781602491875192838092630ceb3b9b60e21b8252338c8301525afa80156106b5579084939291610698575b50501691828652606660205261061482858820541615156115c9565b16926106208415611520565b60208351809263313ce56760e01b825281875afa90811561068e5760ff610653926008928891610670575b50161461157d565b83526066602052822080546001600160a01b031916909117905580f35b610688915060203d811161033d5761032f81836112bc565b3861064b565b83513d87823e3d90fd5b6106a491929350611276565b6106b157819086386105f8565b8580fd5b86513d84823e3d90fd5b9050346101f65760603660031901126101f6576106da61124a565b6024926001600160a01b036044358181169486359493929091869003610964578415610916576065548351635ee0531d60e01b8152338482015260209591831686828b81845afa91821561090c57859188918d946108ed575b50836108df575b831561086a575b5050501561081d571695825163a9059cbb60e01b81528683820152858282015284816044818c8c5af19081156108135789916107e6575b50156107ad575050907f3115d1449a7b732c986cba18244e897a450f61e1bb8d589cd2e69e6c8924f9f791519283523392a480f35b60649360169293519362461bcd60e51b8552840152820152754552433230207472616e73666572206661696c65642160501b6044820152fd5b6108069150853d871161080c575b6107fe81836112bc565b81019061160d565b38610778565b503d6107f4565b84513d8b823e3d90fd5b835162461bcd60e51b81528084018690526022818a01527f54726561737572793a207769746864726177206e6f7420617574686f72697a65604482015261642160f01b6064820152608490fd5b8751631241377160e31b815293509091839182905afa9081156108d5578a9161089b575b5082163314838638610741565b90508581813d83116108ce575b6108b281836112bc565b810103126108ca575182811681036108ca573861088e565b8980fd5b503d6108a8565b85513d8c823e3d90fd5b60675460ff1615935061073a565b610905919450823d841161080c576107fe81836112bc565b9238610733565b86513d8d823e3d90fd5b506023866020608494519362461bcd60e51b85528401528201527f54726561737572793a2077697468647261776e20616d6f756e74206973207a65604482015262726f2160e81b6064820152fd5b600080fd5b919050346101f657806003193601126101f65761098461124a565b61098c611260565b60655490916001600160a01b039186908316803b156101105781602491875192838092630ceb3b9b60e21b8252338c8301525afa80156106b5579084939291610aa7575b5050169081865260209260668452818588205416610a645716936109f5851515611520565b828451809263313ce56760e01b825281885afa908115610a5a57600860ff6066959493610a2a938a91610a435750161461157d565b855252822080546001600160a01b031916909117905580f35b6106889150863d881161033d5761032f81836112bc565b84513d88823e3d90fd5b845162461bcd60e51b8152808701859052601960248201527f54726561737572793a20616c72656164792065786973747321000000000000006044820152606490fd5b610ab391929350611276565b6106b157819086386109d0565b90508234610b835780600319360112610b8357507f00000000000000000000000000000000000000000000000000000000000000006001600160a01b03163003610b1b576020825160008051602061163d8339815191528152f35b6020608492519162461bcd60e51b8352820152603860248201527f555550535570677261646561626c653a206d757374206e6f742062652063616c60448201527f6c6564207468726f7567682064656c656761746563616c6c00000000000000006064820152fd5b80fd5b918091506003193601126101f657610b9c61124a565b9060249081359067ffffffffffffffff82116106b157366023830112156106b15781850135610bca816112de565b610bd6835191826112bc565b8181528760209485830193368882840101116101f65780888893018637830101526001600160a01b037f0000000000000000000000000000000000000000000000000000000000000000811690610c2f308314156112fa565b610c4c60008051602061163d83398151915292828454161461135b565b898160655416803b1561011057818b8a895180948193630ceb3b9b60e21b835233908301525afa8015610ec657610eb2575b50507f4910fdfa16fed3260ed0e7147f7cc6da11a60208b5b9406d12a635614ffd91435460ff1615610cbe5750505050505050610cbb91506113bc565b80f35b87929394959697169085516352d1902d60e01b815287818b81865afa60009181610e83575b50610d4157865162461bcd60e51b8152808b01899052602e818b01527f45524331393637557067726164653a206e657720696d706c656d656e7461746960448201526d6f6e206973206e6f74205555505360901b6064820152608490fd5b989294989791939703610e2f575050610d59826113bc565b7fbc7cd75a20ee27fd9adebab32041f755214dbc6bffa90cc0225b39da2e5c2d3b600080a2835115801590610e27575b610d96575b505050505080f35b600080610e1296845196610da9886112a0565b602788527f416464726573733a206c6f772d6c6576656c2064656c65676174652063616c6c87890152660819985a5b195960ca1b868901525190845af4913d15610e1d573d610e03610dfa826112de565b925192836112bc565b8152600081943d92013e61144c565b503880808080610d8e565b506060925061144c565b506001610d89565b845162461bcd60e51b81529182018690526029908201527f45524331393637557067726164653a20756e737570706f727465642070726f786044820152681a58589b195555525160ba1b6064820152608490fd5b90918982813d8311610eab575b610e9a81836112bc565b81010312610b835750519038610ce3565b503d610e90565b610ebb90611276565b6108ca578938610c7e565b87513d84823e3d90fd5b50503461011057816003193601126101105760209060ff6067541690519015158152f35b915034610110576020366003190112610110578035928315158094036101f6576065546001600160a01b031691823b156101e65783906024835180958193630ceb3b9b60e21b835233908301525afa908115610f775750610f63575b505060ff80196067541691161760675580f35b610f6c90611276565b610110578138610f50565b513d84823e3d90fd5b919050346101f6576020806003193601126101e657610f9d61124a565b916001600160a01b037f00000000000000000000000000000000000000000000000000000000000000008116610fd5308214156112fa565b610ff260008051602061163d83398151915291838354161461135b565b816065541687813b15610b83578451630ceb3b9b60e21b8152338982015291829060249082905afa8015611209576111f6575b508251908482019282841067ffffffffffffffff8511176111e1578385528883527f4910fdfa16fed3260ed0e7147f7cc6da11a60208b5b9406d12a635614ffd91435460ff161561108057505050505050610cbb91506113bc565b869293949596169085516352d1902d60e01b815287818a81865afa600091816111b2575b5061110357865162461bcd60e51b8152808a01899052602e60248201527f45524331393637557067726164653a206e657720696d706c656d656e7461746960448201526d6f6e206973206e6f74205555505360901b6064820152608490fd5b97919293969594970361115d575061111a826113bc565b7fbc7cd75a20ee27fd9adebab32041f755214dbc6bffa90cc0225b39da2e5c2d3b600080a283511580159061115557610d9657505050505080f35b506000610d89565b835162461bcd60e51b8152908101859052602960248201527f45524331393637557067726164653a20756e737570706f727465642070726f786044820152681a58589b195555525160ba1b6064820152608490fd5b90918982813d83116111da575b6111c981836112bc565b81010312610b8357505190386110a4565b503d6111bf565b604188634e487b7160e01b6000525260246000fd5b61120290979197611276565b9538611025565b84513d8a823e3d90fd5b5050346101105781600319360112610110576020905160128152f35b84903461011057816003193601126101105780600860209252f35b600435906001600160a01b038216820361096457565b602435906001600160a01b038216820361096457565b67ffffffffffffffff811161128a57604052565b634e487b7160e01b600052604160045260246000fd5b6060810190811067ffffffffffffffff82111761128a57604052565b90601f8019910116810190811067ffffffffffffffff82111761128a57604052565b67ffffffffffffffff811161128a57601f01601f191660200190565b1561130157565b60405162461bcd60e51b815260206004820152602c60248201527f46756e6374696f6e206d7573742062652063616c6c6564207468726f7567682060448201526b19195b1959d85d1958d85b1b60a21b6064820152608490fd5b1561136257565b60405162461bcd60e51b815260206004820152602c60248201527f46756e6374696f6e206d7573742062652063616c6c6564207468726f7567682060448201526b6163746976652070726f787960a01b6064820152608490fd5b803b156113f15760008051602061163d83398151915280546001600160a01b0319166001600160a01b03909216919091179055565b60405162461bcd60e51b815260206004820152602d60248201527f455243313936373a206e657720696d706c656d656e746174696f6e206973206e60448201526c1bdd08184818dbdb9d1c9858dd609a1b6064820152608490fd5b919290156114ae5750815115611460575090565b3b156114695790565b60405162461bcd60e51b815260206004820152601d60248201527f416464726573733a2063616c6c20746f206e6f6e2d636f6e74726163740000006044820152606490fd5b8251909150156114c15750805190602001fd5b6040519062461bcd60e51b82528160208060048301528251908160248401526000935b828510611507575050604492506000838284010152601f80199101168101030190fd5b84810182015186860160440152938101938593506114e4565b1561152757565b60405162461bcd60e51b8152602060048201526015602482015274054726561737572793a20707269636572203d3d203605c1b6044820152606490fd5b90816020910312610964575160ff811681036109645790565b1561158457565b60405162461bcd60e51b815260206004820152601e60248201527f54726561737572793a2070726963657220646563696d616c7320213d203800006044820152606490fd5b156115d057565b60405162461bcd60e51b815260206004820152601560248201527454726561737572793a206e6f74206578697374732160581b6044820152606490fd5b90816020910312610964575180151581036109645790565b519069ffffffffffffffffffff821682036109645756fe360894a13ba1a3210667c828492db98dca3e2076cc3735a920a3ca505d382bbca264697066735822122088b6145abfae96d340b142ea0223e55431e7c7a68f7f28f4d91cfe3b72609aa464736f6c63430008120033",
  "devdoc": {
    "events": {
      "AdminChanged(address,address)": {
        "details": "Emitted when the admin account has changed."
      },
      "BeaconUpgraded(address)": {
        "details": "Emitted when the beacon is changed."
      },
      "Initialized(uint8)": {
        "details": "Triggered when the contract has been initialized or reinitialized."
      },
      "Upgraded(address)": {
        "details": "Emitted when the implementation is upgraded."
      }
    },
    "kind": "dev",
    "methods": {
      "proxiableUUID()": {
        "details": "Implementation of the ERC1822 {proxiableUUID} function. This returns the storage slot used by the implementation. It is used to validate the implementation's compatibility when performing an upgrade. IMPORTANT: A proxy pointing at a proxiable contract should not be considered proxiable itself, because this risks bricking a proxy that upgrades to it, by delegating to itself until out of gas. Thus it is critical that this function revert if invoked through a proxy. This is guaranteed by the `notDelegated` modifier."
      },
      "upgradeTo(address)": {
        "custom:oz-upgrades-unsafe-allow-reachable": "delegatecall",
        "details": "Upgrade the implementation of the proxy to `newImplementation`. Calls {_authorizeUpgrade}. Emits an {Upgraded} event."
      },
      "upgradeToAndCall(address,bytes)": {
        "custom:oz-upgrades-unsafe-allow-reachable": "delegatecall",
        "details": "Upgrade the implementation of the proxy to `newImplementation`, and subsequently execute the function call encoded in `data`. Calls {_authorizeUpgrade}. Emits an {Upgraded} event."
      }
    },
    "version": 1
  },
  "userdoc": {
    "kind": "user",
    "methods": {},
    "version": 1
  },
  "storageLayout": {
    "storage": [
      {
        "astId": 371,
        "contract": "contracts/core/Treasury.sol:Treasury",
        "label": "_initialized",
        "offset": 0,
        "slot": "0",
        "type": "t_uint8"
      },
      {
        "astId": 374,
        "contract": "contracts/core/Treasury.sol:Treasury",
        "label": "_initializing",
        "offset": 1,
        "slot": "0",
        "type": "t_bool"
      },
      {
        "astId": 353,
        "contract": "contracts/core/Treasury.sol:Treasury",
        "label": "__gap",
        "offset": 0,
        "slot": "1",
        "type": "t_array(t_uint256)50_storage"
      },
      {
        "astId": 668,
        "contract": "contracts/core/Treasury.sol:Treasury",
        "label": "__gap",
        "offset": 0,
        "slot": "51",
        "type": "t_array(t_uint256)50_storage"
      },
      {
        "astId": 6102,
        "contract": "contracts/core/Treasury.sol:Treasury",
        "label": "addressBook",
        "offset": 0,
        "slot": "101",
        "type": "t_address"
      },
      {
        "astId": 6106,
        "contract": "contracts/core/Treasury.sol:Treasury",
        "label": "pricers",
        "offset": 0,
        "slot": "102",
        "type": "t_mapping(t_address,t_address)"
      },
      {
        "astId": 6108,
        "contract": "contracts/core/Treasury.sol:Treasury",
        "label": "onlyGovernanceWithdrawn",
        "offset": 0,
        "slot": "103",
        "type": "t_bool"
      }
    ],
    "types": {
      "t_address": {
        "encoding": "inplace",
        "label": "address",
        "numberOfBytes": "20"
      },
      "t_array(t_uint256)50_storage": {
        "base": "t_uint256",
        "encoding": "inplace",
        "label": "uint256[50]",
        "numberOfBytes": "1600"
      },
      "t_bool": {
        "encoding": "inplace",
        "label": "bool",
        "numberOfBytes": "1"
      },
      "t_mapping(t_address,t_address)": {
        "encoding": "mapping",
        "key": "t_address",
        "label": "mapping(address => address)",
        "numberOfBytes": "32",
        "value": "t_address"
      },
      "t_uint256": {
        "encoding": "inplace",
        "label": "uint256",
        "numberOfBytes": "32"
      },
      "t_uint8": {
        "encoding": "inplace",
        "label": "uint8",
        "numberOfBytes": "1"
      }
    }
  }
}