{
  "address": "0x6B318C3d9fB2F132585e8666D29A55961B9cc4D9",
  "abi": [
    {
      "inputs": [],
      "stateMutability": "nonpayable",
      "type": "constructor"
    },
    {
      "anonymous": false,
      "inputs": [
        {
          "indexed": false,
          "internalType": "address",
          "name": "previousAdmin",
          "type": "address"
        },
        {
          "indexed": false,
          "internalType": "address",
          "name": "newAdmin",
          "type": "address"
        }
      ],
      "name": "AdminChanged",
      "type": "event"
    },
    {
      "anonymous": false,
      "inputs": [
        {
          "indexed": true,
          "internalType": "address",
          "name": "beacon",
          "type": "address"
        }
      ],
      "name": "BeaconUpgraded",
      "type": "event"
    },
    {
      "anonymous": false,
      "inputs": [
        {
          "indexed": false,
          "internalType": "uint8",
          "name": "version",
          "type": "uint8"
        }
      ],
      "name": "Initialized",
      "type": "event"
    },
    {
      "anonymous": false,
      "inputs": [
        {
          "indexed": true,
          "internalType": "address",
          "name": "implementation",
          "type": "address"
        }
      ],
      "name": "Upgraded",
      "type": "event"
    },
    {
      "inputs": [
        {
          "internalType": "address",
          "name": "_item",
          "type": "address"
        }
      ],
      "name": "addItem",
      "outputs": [],
      "stateMutability": "nonpayable",
      "type": "function"
    },
    {
      "inputs": [
        {
          "internalType": "address",
          "name": "_stakingStrategy",
          "type": "address"
        }
      ],
      "name": "addStakingStrategy",
      "outputs": [],
      "stateMutability": "nonpayable",
      "type": "function"
    },
    {
      "inputs": [
        {
          "internalType": "address",
          "name": "_item",
          "type": "address"
        }
      ],
      "name": "deleteItem",
      "outputs": [],
      "stateMutability": "nonpayable",
      "type": "function"
    },
    {
      "inputs": [
        {
          "internalType": "address",
          "name": "_stakingStrategy",
          "type": "address"
        }
      ],
      "name": "deleteStakingStrategy",
      "outputs": [],
      "stateMutability": "nonpayable",
      "type": "function"
    },
    {
      "inputs": [
        {
          "internalType": "address",
          "name": "_contract",
          "type": "address"
        }
      ],
      "name": "enforceIsItemContract",
      "outputs": [],
      "stateMutability": "view",
      "type": "function"
    },
    {
      "inputs": [
        {
          "internalType": "address",
          "name": "_account",
          "type": "address"
        }
      ],
      "name": "enforceIsProductOwner",
      "outputs": [],
      "stateMutability": "view",
      "type": "function"
    },
    {
      "inputs": [
        {
          "internalType": "address",
          "name": "_contract",
          "type": "address"
        }
      ],
      "name": "enforceIsStakingStrategyContract",
      "outputs": [],
      "stateMutability": "view",
      "type": "function"
    },
    {
      "inputs": [
        {
          "internalType": "address",
          "name": "_prodcutOwner",
          "type": "address"
        }
      ],
      "name": "initialize",
      "outputs": [],
      "stateMutability": "nonpayable",
      "type": "function"
    },
    {
      "inputs": [
        {
          "internalType": "address",
          "name": "",
          "type": "address"
        }
      ],
      "name": "items",
      "outputs": [
        {
          "internalType": "bool",
          "name": "",
          "type": "bool"
        }
      ],
      "stateMutability": "view",
      "type": "function"
    },
    {
      "inputs": [
        {
          "internalType": "bytes[]",
          "name": "data",
          "type": "bytes[]"
        }
      ],
      "name": "multicall",
      "outputs": [
        {
          "internalType": "bytes[]",
          "name": "results",
          "type": "bytes[]"
        }
      ],
      "stateMutability": "nonpayable",
      "type": "function"
    },
    {
      "inputs": [],
      "name": "productOwner",
      "outputs": [
        {
          "internalType": "address",
          "name": "",
          "type": "address"
        }
      ],
      "stateMutability": "view",
      "type": "function"
    },
    {
      "inputs": [],
      "name": "proxiableUUID",
      "outputs": [
        {
          "internalType": "bytes32",
          "name": "",
          "type": "bytes32"
        }
      ],
      "stateMutability": "view",
      "type": "function"
    },
    {
      "inputs": [
        {
          "internalType": "address",
          "name": "_newProductOwner",
          "type": "address"
        }
      ],
      "name": "setProductOwner",
      "outputs": [],
      "stateMutability": "nonpayable",
      "type": "function"
    },
    {
      "inputs": [
        {
          "internalType": "address",
          "name": "_treasury",
          "type": "address"
        }
      ],
      "name": "setTreasury",
      "outputs": [],
      "stateMutability": "nonpayable",
      "type": "function"
    },
    {
      "inputs": [
        {
          "internalType": "address",
          "name": "",
          "type": "address"
        }
      ],
      "name": "stakingStrategies",
      "outputs": [
        {
          "internalType": "bool",
          "name": "",
          "type": "bool"
        }
      ],
      "stateMutability": "view",
      "type": "function"
    },
    {
      "inputs": [],
      "name": "treasury",
      "outputs": [
        {
          "internalType": "address",
          "name": "",
          "type": "address"
        }
      ],
      "stateMutability": "view",
      "type": "function"
    },
    {
      "inputs": [
        {
          "internalType": "address",
          "name": "newImplementation",
          "type": "address"
        }
      ],
      "name": "upgradeTo",
      "outputs": [],
      "stateMutability": "nonpayable",
      "type": "function"
    },
    {
      "inputs": [
        {
          "internalType": "address",
          "name": "newImplementation",
          "type": "address"
        },
        {
          "internalType": "bytes",
          "name": "data",
          "type": "bytes"
        }
      ],
      "name": "upgradeToAndCall",
      "outputs": [],
      "stateMutability": "payable",
      "type": "function"
    }
  ],
  "transactionHash": "0x4ea6bc354ebab8b99bafdd8442178e9e2344f6ae34baaea0c909c97d61f3274b",
  "args": [],
  "numDeployments": 1,
  "solcInputHash": "651dbab8f727aed77f00dddc4300e6b7",
  "bytecode": "0x60a080604052346100dc57306080526000549060ff8260081c1661008a575060ff8082160361004f575b60405161121b90816100e2823960805181818161079d0152818161089c0152610b540152f35b60ff90811916176000557f7f26b83ff96e1f2b6a682f133852f6798a09c465da95921460cefb3847402498602060405160ff8152a138610029565b62461bcd60e51b815260206004820152602760248201527f496e697469616c697a61626c653a20636f6e747261637420697320696e697469604482015266616c697a696e6760c81b6064820152608490fd5b600080fdfe6080604081815260048036101561001557600080fd5b600092833560e01c90816315bfd3f014610d425750806333acee6c14610d205780633659cfe614610b2c5780633928953614610aa55780634f1ef2861461084d57806352d1902d146107885780635ee0531d1461074a57806361d027b314610721578063758db588146106e05780637cf90fcc14610669578063800c06a2146105fe5780639209bb88146105d5578063ac9650d81461042d578063c4d66de8146102b7578063d321411c14610279578063d92946b414610234578063e39c7c56146101b25763f0f44260146100e957600080fd5b346101ae5760203660031901126101ae57610102610dbc565b9061010c33611173565b609854916001600160a01b039081841661016b571692831561013b5750506001600160a01b0319161760985580f35b906020606492519162461bcd60e51b8352820152600a6024820152695f74726561737572792160b01b6044820152fd5b845162461bcd60e51b8152602081850152601860248201527f747265617375727920616c7265616479207365747465642100000000000000006044820152606490fd5b8280fd5b50346101ae5760203660031901126101ae576101cc610dbc565b6101d533611173565b6001600160a01b03169081156101fd57508252609a6020528120805460ff1916600117905580f35b606490602084519162461bcd60e51b835282015260116024820152705f7374616b696e6753747261746567792160781b6044820152fd5b5050346102755760203660031901126102755761024f610dbc565b61025833611173565b6001600160a01b03168252609a6020528120805460ff1916905580f35b5080fd5b5050346102755760203660031901126102755760209160ff9082906001600160a01b036102a4610dbc565b1681526099855220541690519015158152f35b50346101ae5760203660031901126101ae576102d1610dbc565b9083549160ff8360081c161592838094610420575b8015610409575b156103af5760ff19811660011786558361039e575b506001600160a01b031690811561036a57506bffffffffffffffffffffffff60a01b6097541617609755610334575080f35b60207f7f26b83ff96e1f2b6a682f133852f6798a09c465da95921460cefb38474024989161ff001984541684555160018152a180f35b606490602085519162461bcd60e51b8352820152600e60248201526d5f70726f646375744f776e65722160901b6044820152fd5b61ffff191661010117855538610302565b845162461bcd60e51b8152602081850152602e60248201527f496e697469616c697a61626c653a20636f6e747261637420697320616c72656160448201526d191e481a5b9a5d1a585b1a5e995960921b6064820152608490fd5b50303b1580156102ed5750600160ff8216146102ed565b50600160ff8216106102e6565b5091903461027557602090816003193601126101ae5783359167ffffffffffffffff948584116105d157366023850112156105d15783810135938685116105cd576024916005973684888b1b850101116105c95761049087939798969598611131565b9661049d86519889610dd7565b838852601f196104ac85611131565b01875b8181106105ba575050368190036042190190875b85811061052857505050505050508051938080860192818752855180945283818801981b870101940192955b8287106104fc5785850386f35b909192938280610518600193603f198a82030186528851610e62565b96019201960195929190926104ef565b86818d9c999a9c1b83010135838112156105b657820187810135908582116105b2576044019080360382136105b25761057591610566913691610e2b565b61056e610ff4565b903061104e565b61057f828c611149565b5261058a818b611149565b5060001981146105a057600101999796996104c3565b634e487b7160e01b8b5260118552868bfd5b8c80fd5b8b80fd5b60608a82018c01528a016104af565b8780fd5b8580fd5b8480fd5b50503461027557816003193601126102755760975490516001600160a01b039091168152602090f35b5090346101ae5760203660031901126101ae576001600160a01b03610621610dbc565b168352609960205260ff818420541615610639578280f35b906020606492519162461bcd60e51b8352820152600a6024820152696f6e6c79206974656d2160b01b6044820152fd5b50346101ae5760203660031901126101ae57610683610dbc565b61068c33611173565b6001600160a01b03169081156106b45750825260996020528120805460ff1916600117905580f35b606490602084519162461bcd60e51b835282015260066024820152655f6974656d2160d01b6044820152fd5b505034610275576020366003190112610275576106fb610dbc565b61070433611173565b6001600160a01b0316825260996020528120805460ff1916905580f35b50503461027557816003193601126102755760985490516001600160a01b039091168152602090f35b5050346102755760203660031901126102755760209160ff9082906001600160a01b03610775610dbc565b168152609a855220541690519015158152f35b50823461084a578060031936011261084a57507f00000000000000000000000000000000000000000000000000000000000000006001600160a01b031630036107e257602082516000805160206111c68339815191528152f35b6020608492519162461bcd60e51b8352820152603860248201527f555550535570677261646561626c653a206d757374206e6f742062652063616c60448201527f6c6564207468726f7567682064656c656761746563616c6c00000000000000006064820152fd5b80fd5b50816003193601126101ae57610861610dbc565b9160243567ffffffffffffffff81116105d157366023820112156105d1576108929036906024818601359101610e2b565b6001600160a01b037f000000000000000000000000000000000000000000000000000000000000000081169291906108cc30851415610ea2565b6108e96000805160206111c6833981519152948286541614610f03565b6108f233611173565b7f4910fdfa16fed3260ed0e7147f7cc6da11a60208b5b9406d12a635614ffd91435460ff161561092d57505050505061092a90610f64565b80f35b82516352d1902d60e01b815290861696949560209593949091868189818c5afa859181610a76575b506109b457855162461bcd60e51b8152808901889052602e60248201527f45524331393637557067726164653a206e657720696d706c656d656e7461746960448201526d6f6e206973206e6f74205555505360901b6064820152608490fd5b979491959296939703610a23575050506109cd82610f64565b7fbc7cd75a20ee27fd9adebab32041f755214dbc6bffa90cc0225b39da2e5c2d3b8480a2815115801590610a1b575b610a0557505080f35b610a1791610a11610ff4565b9161104e565b5080f35b5060016109fc565b5162461bcd60e51b815291820152602960248201527f45524331393637557067726164653a20756e737570706f727465642070726f786044820152681a58589b195555525160ba1b606482015260849150fd5b9091508781813d8311610a9e575b610a8e8183610dd7565b810103126105cd57519038610955565b503d610a84565b50346101ae5760203660031901126101ae57610abf610dbc565b610ac833611173565b6001600160a01b0316918215610af55750506bffffffffffffffffffffffff60a01b609754161760975580f35b906020606492519162461bcd60e51b835282015260116024820152705f6e657750726f647563744f776e65722160781b6044820152fd5b5082903461027557602090816003193601126101ae57610b4a610dbc565b6001600160a01b037f000000000000000000000000000000000000000000000000000000000000000081169591939190610b8630881415610ea2565b610ba36000805160206111c6833981519152978289541614610f03565b610bac33611173565b81519083820182811067ffffffffffffffff821117610d0d5783528682527f4910fdfa16fed3260ed0e7147f7cc6da11a60208b5b9406d12a635614ffd91435460ff1615610c0457505050505061092a919250610f64565b85919294969395169684516352d1902d60e01b8152868189818c5afa859181610cde575b50610c8757855162461bcd60e51b8152808901889052602e60248201527f45524331393637557067726164653a206e657720696d706c656d656e7461746960448201526d6f6e206973206e6f74205555505360901b6064820152608490fd5b979491959296939703610a2357505050610ca082610f64565b7fbc7cd75a20ee27fd9adebab32041f755214dbc6bffa90cc0225b39da2e5c2d3b8480a2815115801590610cd757610a0557505080f35b50826109fc565b9091508781813d8311610d06575b610cf68183610dd7565b810103126105cd5751908a610c28565b503d610cec565b634e487b7160e01b885260418652602488fd5b833461084a57602036600319011261084a5761092a610d3d610dbc565b611173565b92905034610db8576020366003190112610db85760ff906001600160a01b03610d69610dbc565b168552609a6020528420541615610d7e578280f35b62461bcd60e51b825260209082015260166024820152756f6e6c79207374616b696e672073747261746567792160501b6044820152606490fd5b8380fd5b600435906001600160a01b0382168203610dd257565b600080fd5b90601f8019910116810190811067ffffffffffffffff821117610df957604052565b634e487b7160e01b600052604160045260246000fd5b67ffffffffffffffff8111610df957601f01601f191660200190565b929192610e3782610e0f565b91610e456040519384610dd7565b829481845281830111610dd2578281602093846000960137010152565b919082519283825260005b848110610e8e575050826000602080949584010152601f8019910116010190565b602081830181015184830182015201610e6d565b15610ea957565b60405162461bcd60e51b815260206004820152602c60248201527f46756e6374696f6e206d7573742062652063616c6c6564207468726f7567682060448201526b19195b1959d85d1958d85b1b60a21b6064820152608490fd5b15610f0a57565b60405162461bcd60e51b815260206004820152602c60248201527f46756e6374696f6e206d7573742062652063616c6c6564207468726f7567682060448201526b6163746976652070726f787960a01b6064820152608490fd5b803b15610f99576000805160206111c683398151915280546001600160a01b0319166001600160a01b03909216919091179055565b60405162461bcd60e51b815260206004820152602d60248201527f455243313936373a206e657720696d706c656d656e746174696f6e206973206e60448201526c1bdd08184818dbdb9d1c9858dd609a1b6064820152608490fd5b604051906060820182811067ffffffffffffffff821117610df95760405260278252660819985a5b195960ca1b6040837f416464726573733a206c6f772d6c6576656c2064656c65676174652063616c6c60208201520152565b60008061108d9493602081519101845af43d15611090573d9161107083610e0f565b9261107e6040519485610dd7565b83523d6000602085013e611094565b90565b6060915b919290156110f657508151156110a8575090565b3b156110b15790565b60405162461bcd60e51b815260206004820152601d60248201527f416464726573733a2063616c6c20746f206e6f6e2d636f6e74726163740000006044820152606490fd5b8251909150156111095750805190602001fd5b60405162461bcd60e51b81526020600482015290819061112d906024830190610e62565b0390fd5b67ffffffffffffffff8111610df95760051b60200190565b805182101561115d5760209160051b010190565b634e487b7160e01b600052603260045260246000fd5b6097546001600160a01b0390811691160361118a57565b60405162461bcd60e51b81526020600482015260136024820152726f6e6c792070726f64756374206f776e65722160681b6044820152606490fdfe360894a13ba1a3210667c828492db98dca3e2076cc3735a920a3ca505d382bbca2646970667358221220613f55ca9fcba569b9b1a5d302ba211e16db33b89bd26261973b03c89fdbbaac64736f6c63430008120033",
  "devdoc": {
    "details": "This contract is managed by the protocol owner Does not emit any events since they are not required for the protocol to work",
    "events": {
      "AdminChanged(address,address)": {
        "details": "Emitted when the admin account has changed."
      },
      "BeaconUpgraded(address)": {
        "details": "Emitted when the beacon is changed."
      },
      "Initialized(uint8)": {
        "details": "Triggered when the contract has been initialized or reinitialized."
      },
      "Upgraded(address)": {
        "details": "Emitted when the implementation is upgraded."
      }
    },
    "kind": "dev",
    "methods": {
      "enforceIsProductOwner(address)": {
        "details": "Such functions are used instead of modifiers because:  they can be reused between contracts, they take up less space in the bytecode"
      },
      "initialize(address)": {
        "details": "All contracts use a naming convention for function arguments starting with _."
      },
      "multicall(bytes[])": {
        "custom:oz-upgrades-unsafe-allow-reachable": "delegatecall",
        "details": "Receives and executes a batch of function calls on this contract."
      },
      "proxiableUUID()": {
        "details": "Implementation of the ERC1822 {proxiableUUID} function. This returns the storage slot used by the implementation. It is used to validate the implementation's compatibility when performing an upgrade. IMPORTANT: A proxy pointing at a proxiable contract should not be considered proxiable itself, because this risks bricking a proxy that upgrades to it, by delegating to itself until out of gas. Thus it is critical that this function revert if invoked through a proxy. This is guaranteed by the `notDelegated` modifier."
      },
      "setProductOwner(address)": {
        "details": "Updates variable productOwner. There is no need to check if the values are identical,  since the EVM handles this situation itself and does not waste extra gas with the same values"
      },
      "upgradeTo(address)": {
        "custom:oz-upgrades-unsafe-allow-reachable": "delegatecall",
        "details": "Upgrade the implementation of the proxy to `newImplementation`. Calls {_authorizeUpgrade}. Emits an {Upgraded} event."
      },
      "upgradeToAndCall(address,bytes)": {
        "custom:oz-upgrades-unsafe-allow-reachable": "delegatecall",
        "details": "Upgrade the implementation of the proxy to `newImplementation`, and subsequently execute the function call encoded in `data`. Calls {_authorizeUpgrade}. Emits an {Upgraded} event."
      }
    },
    "version": 1
  },
  "userdoc": {
    "kind": "user",
    "methods": {},
    "version": 1
  },
  "storageLayout": {
    "storage": [
      {
        "astId": 371,
        "contract": "contracts/core/AddessBook.sol:AddressBook",
        "label": "_initialized",
        "offset": 0,
        "slot": "0",
        "type": "t_uint8"
      },
      {
        "astId": 374,
        "contract": "contracts/core/AddessBook.sol:AddressBook",
        "label": "_initializing",
        "offset": 1,
        "slot": "0",
        "type": "t_bool"
      },
      {
        "astId": 353,
        "contract": "contracts/core/AddessBook.sol:AddressBook",
        "label": "__gap",
        "offset": 0,
        "slot": "1",
        "type": "t_array(t_uint256)50_storage"
      },
      {
        "astId": 668,
        "contract": "contracts/core/AddessBook.sol:AddressBook",
        "label": "__gap",
        "offset": 0,
        "slot": "51",
        "type": "t_array(t_uint256)50_storage"
      },
      {
        "astId": 2717,
        "contract": "contracts/core/AddessBook.sol:AddressBook",
        "label": "__gap",
        "offset": 0,
        "slot": "101",
        "type": "t_array(t_uint256)50_storage"
      },
      {
        "astId": 5070,
        "contract": "contracts/core/AddessBook.sol:AddressBook",
        "label": "productOwner",
        "offset": 0,
        "slot": "151",
        "type": "t_address"
      },
      {
        "astId": 5072,
        "contract": "contracts/core/AddessBook.sol:AddressBook",
        "label": "treasury",
        "offset": 0,
        "slot": "152",
        "type": "t_address"
      },
      {
        "astId": 5076,
        "contract": "contracts/core/AddessBook.sol:AddressBook",
        "label": "items",
        "offset": 0,
        "slot": "153",
        "type": "t_mapping(t_address,t_bool)"
      },
      {
        "astId": 5080,
        "contract": "contracts/core/AddessBook.sol:AddressBook",
        "label": "stakingStrategies",
        "offset": 0,
        "slot": "154",
        "type": "t_mapping(t_address,t_bool)"
      }
    ],
    "types": {
      "t_address": {
        "encoding": "inplace",
        "label": "address",
        "numberOfBytes": "20"
      },
      "t_array(t_uint256)50_storage": {
        "base": "t_uint256",
        "encoding": "inplace",
        "label": "uint256[50]",
        "numberOfBytes": "1600"
      },
      "t_bool": {
        "encoding": "inplace",
        "label": "bool",
        "numberOfBytes": "1"
      },
      "t_mapping(t_address,t_bool)": {
        "encoding": "mapping",
        "key": "t_address",
        "label": "mapping(address => bool)",
        "numberOfBytes": "32",
        "value": "t_bool"
      },
      "t_uint256": {
        "encoding": "inplace",
        "label": "uint256",
        "numberOfBytes": "32"
      },
      "t_uint8": {
        "encoding": "inplace",
        "label": "uint8",
        "numberOfBytes": "1"
      }
    }
  }
}