{
  "address": "0x6547155631A6C9d5554cDC4BaC160D0e3A4A989F",
  "abi": [
    {
      "anonymous": false,
      "inputs": [
        {
          "indexed": false,
          "internalType": "address",
          "name": "previousAdmin",
          "type": "address"
        },
        {
          "indexed": false,
          "internalType": "address",
          "name": "newAdmin",
          "type": "address"
        }
      ],
      "name": "AdminChanged",
      "type": "event"
    },
    {
      "anonymous": false,
      "inputs": [
        {
          "indexed": true,
          "internalType": "address",
          "name": "owner",
          "type": "address"
        },
        {
          "indexed": true,
          "internalType": "address",
          "name": "spender",
          "type": "address"
        },
        {
          "indexed": false,
          "internalType": "uint256",
          "name": "value",
          "type": "uint256"
        }
      ],
      "name": "Approval",
      "type": "event"
    },
    {
      "anonymous": false,
      "inputs": [
        {
          "indexed": true,
          "internalType": "address",
          "name": "beacon",
          "type": "address"
        }
      ],
      "name": "BeaconUpgraded",
      "type": "event"
    },
    {
      "anonymous": false,
      "inputs": [
        {
          "indexed": false,
          "internalType": "uint8",
          "name": "version",
          "type": "uint8"
        }
      ],
      "name": "Initialized",
      "type": "event"
    },
    {
      "anonymous": false,
      "inputs": [
        {
          "indexed": true,
          "internalType": "address",
          "name": "from",
          "type": "address"
        },
        {
          "indexed": true,
          "internalType": "address",
          "name": "to",
          "type": "address"
        },
        {
          "indexed": false,
          "internalType": "uint256",
          "name": "value",
          "type": "uint256"
        }
      ],
      "name": "Transfer",
      "type": "event"
    },
    {
      "anonymous": false,
      "inputs": [
        {
          "indexed": true,
          "internalType": "address",
          "name": "implementation",
          "type": "address"
        }
      ],
      "name": "Upgraded",
      "type": "event"
    },
    {
      "inputs": [],
      "name": "addressBook",
      "outputs": [
        {
          "internalType": "address",
          "name": "",
          "type": "address"
        }
      ],
      "stateMutability": "view",
      "type": "function"
    },
    {
      "inputs": [
        {
          "internalType": "address",
          "name": "owner",
          "type": "address"
        },
        {
          "internalType": "address",
          "name": "spender",
          "type": "address"
        }
      ],
      "name": "allowance",
      "outputs": [
        {
          "internalType": "uint256",
          "name": "",
          "type": "uint256"
        }
      ],
      "stateMutability": "view",
      "type": "function"
    },
    {
      "inputs": [
        {
          "internalType": "address",
          "name": "spender",
          "type": "address"
        },
        {
          "internalType": "uint256",
          "name": "amount",
          "type": "uint256"
        }
      ],
      "name": "approve",
      "outputs": [
        {
          "internalType": "bool",
          "name": "",
          "type": "bool"
        }
      ],
      "stateMutability": "nonpayable",
      "type": "function"
    },
    {
      "inputs": [
        {
          "internalType": "address",
          "name": "account",
          "type": "address"
        }
      ],
      "name": "balanceOf",
      "outputs": [
        {
          "internalType": "uint256",
          "name": "",
          "type": "uint256"
        }
      ],
      "stateMutability": "view",
      "type": "function"
    },
    {
      "inputs": [],
      "name": "decimals",
      "outputs": [
        {
          "internalType": "uint8",
          "name": "",
          "type": "uint8"
        }
      ],
      "stateMutability": "view",
      "type": "function"
    },
    {
      "inputs": [
        {
          "internalType": "address",
          "name": "spender",
          "type": "address"
        },
        {
          "internalType": "uint256",
          "name": "subtractedValue",
          "type": "uint256"
        }
      ],
      "name": "decreaseAllowance",
      "outputs": [
        {
          "internalType": "bool",
          "name": "",
          "type": "bool"
        }
      ],
      "stateMutability": "nonpayable",
      "type": "function"
    },
    {
      "inputs": [
        {
          "internalType": "address",
          "name": "spender",
          "type": "address"
        },
        {
          "internalType": "uint256",
          "name": "addedValue",
          "type": "uint256"
        }
      ],
      "name": "increaseAllowance",
      "outputs": [
        {
          "internalType": "bool",
          "name": "",
          "type": "bool"
        }
      ],
      "stateMutability": "nonpayable",
      "type": "function"
    },
    {
      "inputs": [
        {
          "internalType": "address",
          "name": "_addressBook",
          "type": "address"
        },
        {
          "internalType": "string",
          "name": "_name",
          "type": "string"
        },
        {
          "internalType": "string",
          "name": "_symbol",
          "type": "string"
        },
        {
          "internalType": "uint256",
          "name": "_initialSupply",
          "type": "uint256"
        }
      ],
      "name": "initialize",
      "outputs": [],
      "stateMutability": "nonpayable",
      "type": "function"
    },
    {
      "inputs": [],
      "name": "name",
      "outputs": [
        {
          "internalType": "string",
          "name": "",
          "type": "string"
        }
      ],
      "stateMutability": "view",
      "type": "function"
    },
    {
      "inputs": [],
      "name": "proxiableUUID",
      "outputs": [
        {
          "internalType": "bytes32",
          "name": "",
          "type": "bytes32"
        }
      ],
      "stateMutability": "view",
      "type": "function"
    },
    {
      "inputs": [],
      "name": "symbol",
      "outputs": [
        {
          "internalType": "string",
          "name": "",
          "type": "string"
        }
      ],
      "stateMutability": "view",
      "type": "function"
    },
    {
      "inputs": [],
      "name": "totalSupply",
      "outputs": [
        {
          "internalType": "uint256",
          "name": "",
          "type": "uint256"
        }
      ],
      "stateMutability": "view",
      "type": "function"
    },
    {
      "inputs": [
        {
          "internalType": "address",
          "name": "to",
          "type": "address"
        },
        {
          "internalType": "uint256",
          "name": "amount",
          "type": "uint256"
        }
      ],
      "name": "transfer",
      "outputs": [
        {
          "internalType": "bool",
          "name": "",
          "type": "bool"
        }
      ],
      "stateMutability": "nonpayable",
      "type": "function"
    },
    {
      "inputs": [
        {
          "internalType": "address",
          "name": "from",
          "type": "address"
        },
        {
          "internalType": "address",
          "name": "to",
          "type": "address"
        },
        {
          "internalType": "uint256",
          "name": "amount",
          "type": "uint256"
        }
      ],
      "name": "transferFrom",
      "outputs": [
        {
          "internalType": "bool",
          "name": "",
          "type": "bool"
        }
      ],
      "stateMutability": "nonpayable",
      "type": "function"
    },
    {
      "inputs": [
        {
          "internalType": "address",
          "name": "newImplementation",
          "type": "address"
        }
      ],
      "name": "upgradeTo",
      "outputs": [],
      "stateMutability": "nonpayable",
      "type": "function"
    },
    {
      "inputs": [
        {
          "internalType": "address",
          "name": "newImplementation",
          "type": "address"
        },
        {
          "internalType": "bytes",
          "name": "data",
          "type": "bytes"
        }
      ],
      "name": "upgradeToAndCall",
      "outputs": [],
      "stateMutability": "payable",
      "type": "function"
    }
  ],
  "transactionHash": "0x47aeaf32c722449b5576b6fa7dda35ed52b2a2569992f0379ea9fe6947c88fe9",
  "args": [],
  "numDeployments": 1,
  "solcInputHash": "07629dd1fac3d7b611b0d2c246578a71",
  "bytecode": "0x60a0806040523461003157306080526118259081610037823960805181818161034f015281816104500152610d230152f35b600080fdfe608080604052600436101561001357600080fd5b600090813560e01c90816306fdde031461111c57508063095ea7b3146110f557806318160ddd146110d757806323b872dd1461101d578063313ce567146110015780633659cfe614610cfe5780633950935114610cad5780634d12d4b61461072d5780634f1ef2861461040057806352d1902d1461033c57806370a082311461030357806395d89b4114610222578063a457c2d71461017d578063a9059cbb1461014b578063dd62ed3e146100fc5763f5887cdd146100d157600080fd5b346100f957806003193601126100f95760c9546040516001600160a01b039091168152602090f35b80fd5b50346100f95760403660031901126100f9576101166111f5565b6040610120611210565b9260018060a01b03809316815260986020522091166000526020526020604060002054604051908152f35b50346100f95760403660031901126100f9576101726101686111f5565b60243590336114a8565b602060405160018152f35b50346100f95760403660031901126100f9576101976111f5565b60406024359233815260986020522060018060a01b038216600052602052604060002054918083106101cf5761017292039033611618565b60405162461bcd60e51b815260206004820152602560248201527f45524332303a2064656372656173656420616c6c6f77616e63652062656c6f77604482015264207a65726f60d81b6064820152608490fd5b50346100f957806003193601126100f9576040519080609b546102448161144b565b808552916001918083169081156102d9575060011461027e575b61027a8561026e81870382611284565b604051918291826111ac565b0390f35b9250609b83527fbba9db4cdbea0a37c207bbb83e20f828cd4441c49891101dc94fd20dc8efc3495b8284106102c157505050810160200161026e8261027a61025e565b805460208587018101919091529093019281016102a6565b86955061027a9693506020925061026e94915060ff191682840152151560051b820101929361025e565b50346100f95760203660031901126100f9576020906040906001600160a01b0361032b6111f5565b168152609783522054604051908152f35b50346100f957806003193601126100f9577f00000000000000000000000000000000000000000000000000000000000000006001600160a01b031630036103955760206040516000805160206117d08339815191528152f35b60405162461bcd60e51b815260206004820152603860248201527f555550535570677261646561626c653a206d757374206e6f742062652063616c60448201527f6c6564207468726f7567682064656c656761746563616c6c00000000000000006064820152608490fd5b5060403660031901126100f9576104156111f5565b60243567ffffffffffffffff81116107295736602382011215610729576104469036906024816004013591016112c2565b6001600160a01b037f00000000000000000000000000000000000000000000000000000000000000008116929190610480308514156112f9565b61049d6000805160206117d083398151915294828654161461135a565b848160c95416803b15610725578160249160405192838092630ceb3b9b60e21b82523360048301525afa801561071a57610702575b50507f4910fdfa16fed3260ed0e7147f7cc6da11a60208b5b9406d12a635614ffd91435460ff161561050d57505061050a91506113bb565b80f35b8216604051936352d1902d60e01b85526020948581600481865afa600091816106d3575b506105925760405162461bcd60e51b815260048101879052602e60248201527f45524331393637557067726164653a206e657720696d706c656d656e7461746960448201526d6f6e206973206e6f74205555505360901b6064820152608490fd5b949293940361067c576105a4846113bb565b7fbc7cd75a20ee27fd9adebab32041f755214dbc6bffa90cc0225b39da2e5c2d3b600080a2815115801590610674575b6105df575b50505080f35b61066292600080604051946105f386611268565b602786527f416464726573733a206c6f772d6c6576656c2064656c65676174652063616c6c85870152660819985a5b195960ca1b60408701528481519101845af4903d1561066b573d610645816112a6565b906106536040519283611284565b8152600081943d92013e61171a565b503880806105d9565b6060925061171a565b5060016105d4565b60405162461bcd60e51b815260048101839052602960248201527f45524331393637557067726164653a20756e737570706f727465642070726f786044820152681a58589b195555525160ba1b6064820152608490fd5b90918782813d83116106fb575b6106ea8183611284565b810103126100f95750519038610531565b503d6106e0565b61070b90611254565b6107165784386104d2565b8480fd5b6040513d84823e3d90fd5b5080fd5b8280fd5b50346100f95760803660031901126100f9576107476111f5565b60243567ffffffffffffffff811161072957610767903690600401611226565b60449291923567ffffffffffffffff81116107165761078a903690600401611226565b909160643592865460ff8160081c161596878098610ca0575b8015610c89575b15610c2d5760ff19821660011789556107d7936107cf9289610c1c575b5036916112c2565b9236916112c2565b60ff865460081c1615610bc357815167ffffffffffffffff8111610abf5780610801609a5461144b565b93601f94858111610b4f575b50602090858311600114610ade578992610ad3575b50508160011b916000199060031b1c191617609a555b80519067ffffffffffffffff8211610abf578190610857609b5461144b565b848111610a53575b506020908483116001146109d05788926109c5575b50508160011b916000199060031b1c191617609b555b3315610981575061089d81609954611485565b609955338452609760205260408420818154019055604051908152837fddf252ad1be2c89b69c2b068fc378daa952ba7f163c4a11628f55a4df523b3ef60203393a36001600160a01b03168015610944576bffffffffffffffffffffffff60a01b60c954161760c95561090d5780f35b61ff001981541681557f7f26b83ff96e1f2b6a682f133852f6798a09c465da95921460cefb3847402498602060405160018152a180f35b60405162461bcd60e51b81526020600482015260156024820152745f61646472657373426f6f6b206973207a65726f2160581b6044820152606490fd5b6064906040519062461bcd60e51b82526020600483015260248201527f45524332303a206d696e7420746f20746865207a65726f2061646472657373006044820152fd5b015190503880610874565b609b89527fbba9db4cdbea0a37c207bbb83e20f828cd4441c49891101dc94fd20dc8efc3499250601f198416895b818110610a3b5750908460019594939210610a22575b505050811b01609b5561088a565b015160001960f88460031b161c19169055388080610a14565b929360206001819287860151815501950193016109fe565b909150609b88527fbba9db4cdbea0a37c207bbb83e20f828cd4441c49891101dc94fd20dc8efc3498480850160051c82019260208610610ab6575b9085949392910160051c01905b818110610aa8575061085f565b898155849350600101610a9b565b92508192610a8e565b634e487b7160e01b87526041600452602487fd5b015190503880610822565b609a8a526000805160206117b08339815191529250601f1984168a5b818110610b375750908460019594939210610b1e575b505050811b01609a55610838565b015160001960f88460031b161c19169055388080610b10565b92936020600181928786015181550195019301610afa565b909150609a89528480840160051c6000805160206117b0833981519152019160208510610bad575b90849392910160051c6000805160206117b083398151915201905b818110610b9f575061080d565b8a8155849350600101610b92565b6000805160206117b08339815191529250610b77565b60405162461bcd60e51b815260206004820152602b60248201527f496e697469616c697a61626c653a20636f6e7472616374206973206e6f74206960448201526a6e697469616c697a696e6760a81b6064820152608490fd5b61ffff1916610101178a55386107c7565b60405162461bcd60e51b815260206004820152602e60248201527f496e697469616c697a61626c653a20636f6e747261637420697320616c72656160448201526d191e481a5b9a5d1a585b1a5e995960921b6064820152608490fd5b50303b1580156107aa5750600160ff8316146107aa565b50600160ff8316106107a3565b50346100f95760403660031901126100f957610172906040610ccd6111f5565b9133815260986020522060018060a01b038216600052602052610cf7602435604060002054611485565b9033611618565b50346100f95760208060031936011261072557610d196111f5565b6001600160a01b037f00000000000000000000000000000000000000000000000000000000000000008116610d50308214156112f9565b610d6d6000805160206117d083398151915291838354161461135a565b8160c9541685813b156100f957604051630ceb3b9b60e21b815233600482015291829060249082905afa8015610ff657610fe3575b50604051908482019282841067ffffffffffffffff851117610fcd578360405286835260ff7f4910fdfa16fed3260ed0e7147f7cc6da11a60208b5b9406d12a635614ffd91435416600014610dff575050505061050a91506113bb565b8492939416906040516352d1902d60e01b81528681600481865afa60009181610f9e575b50610e845760405162461bcd60e51b815260048101889052602e60248201527f45524331393637557067726164653a206e657720696d706c656d656e7461746960448201526d6f6e206973206e6f74205555505360901b6064820152608490fd5b9593949503610f4757610e96826113bb565b7fbc7cd75a20ee27fd9adebab32041f755214dbc6bffa90cc0225b39da2e5c2d3b600080a2825115801590610f3f575b610ed2575b5050505080f35b600080610f359560405195610ee687611268565b602787527f416464726573733a206c6f772d6c6576656c2064656c65676174652063616c6c86880152660819985a5b195960ca1b60408801525190845af4903d1561066b573d610645816112a6565b5038808080610ecb565b506000610ec6565b60405162461bcd60e51b815260048101849052602960248201527f45524331393637557067726164653a20756e737570706f727465642070726f786044820152681a58589b195555525160ba1b6064820152608490fd5b90918882813d8311610fc6575b610fb58183611284565b810103126100f95750519038610e23565b503d610fab565b634e487b7160e01b600052604160045260246000fd5b610fef90959195611254565b9338610da2565b6040513d88823e3d90fd5b50346100f957806003193601126100f957602060405160128152f35b50346100f95760603660031901126100f9576110376111f5565b90611040611210565b60406044359260018060a01b038516815260986020528181203382526020522054926000198403611076575b61017293506114a8565b8284106110925761108d8361017295033383611618565b61106c565b60405162461bcd60e51b815260206004820152601d60248201527f45524332303a20696e73756666696369656e7420616c6c6f77616e63650000006044820152606490fd5b50346100f957806003193601126100f9576020609954604051908152f35b50346100f95760403660031901126100f9576101726111126111f5565b6024359033611618565b82346100f957806003193601126100f95780609a5461113a8161144b565b808552916001918083169081156102d957506001146111635761027a8561026e81870382611284565b9250609a83526000805160206117b08339815191525b82841061119457505050810160200161026e8261027a61025e565b80546020858701810191909152909301928101611179565b6020808252825181830181905290939260005b8281106111e157505060409293506000838284010152601f8019910116010190565b8181018601518482016040015285016111bf565b600435906001600160a01b038216820361120b57565b600080fd5b602435906001600160a01b038216820361120b57565b9181601f8401121561120b5782359167ffffffffffffffff831161120b576020838186019501011161120b57565b67ffffffffffffffff8111610fcd57604052565b6060810190811067ffffffffffffffff821117610fcd57604052565b90601f8019910116810190811067ffffffffffffffff821117610fcd57604052565b67ffffffffffffffff8111610fcd57601f01601f191660200190565b9291926112ce826112a6565b916112dc6040519384611284565b82948184528183011161120b578281602093846000960137010152565b1561130057565b60405162461bcd60e51b815260206004820152602c60248201527f46756e6374696f6e206d7573742062652063616c6c6564207468726f7567682060448201526b19195b1959d85d1958d85b1b60a21b6064820152608490fd5b1561136157565b60405162461bcd60e51b815260206004820152602c60248201527f46756e6374696f6e206d7573742062652063616c6c6564207468726f7567682060448201526b6163746976652070726f787960a01b6064820152608490fd5b803b156113f0576000805160206117d083398151915280546001600160a01b0319166001600160a01b03909216919091179055565b60405162461bcd60e51b815260206004820152602d60248201527f455243313936373a206e657720696d706c656d656e746174696f6e206973206e60448201526c1bdd08184818dbdb9d1c9858dd609a1b6064820152608490fd5b90600182811c9216801561147b575b602083101461146557565b634e487b7160e01b600052602260045260246000fd5b91607f169161145a565b9190820180921161149257565b634e487b7160e01b600052601160045260246000fd5b6001600160a01b039081169182156115c55716918215611574576000828152609760205260408120549180831061152057604082827fddf252ad1be2c89b69c2b068fc378daa952ba7f163c4a11628f55a4df523b3ef95876020965260978652038282205586815220818154019055604051908152a3565b60405162461bcd60e51b815260206004820152602660248201527f45524332303a207472616e7366657220616d6f756e7420657863656564732062604482015265616c616e636560d01b6064820152608490fd5b60405162461bcd60e51b815260206004820152602360248201527f45524332303a207472616e7366657220746f20746865207a65726f206164647260448201526265737360e81b6064820152608490fd5b60405162461bcd60e51b815260206004820152602560248201527f45524332303a207472616e736665722066726f6d20746865207a65726f206164604482015264647265737360d81b6064820152608490fd5b6001600160a01b039081169182156116c957169182156116795760207f8c5be1e5ebec7d5bd14f71427d1e84f3dd0314c0f7b2291e5b200ac8c7c3b925918360005260988252604060002085600052825280604060002055604051908152a3565b60405162461bcd60e51b815260206004820152602260248201527f45524332303a20617070726f766520746f20746865207a65726f206164647265604482015261737360f01b6064820152608490fd5b60405162461bcd60e51b8152602060048201526024808201527f45524332303a20617070726f76652066726f6d20746865207a65726f206164646044820152637265737360e01b6064820152608490fd5b9192901561177c575081511561172e575090565b3b156117375790565b60405162461bcd60e51b815260206004820152601d60248201527f416464726573733a2063616c6c20746f206e6f6e2d636f6e74726163740000006044820152606490fd5b82519091501561178f5750805190602001fd5b60405162461bcd60e51b81529081906117ab90600483016111ac565b0390fdfe44da158ba27f9252712a74ff6a55c5d531f69609f1f6e7f17c4443a8e2089be4360894a13ba1a3210667c828492db98dca3e2076cc3735a920a3ca505d382bbca2646970667358221220d16b9b4a8a8fb75f546709131b77f2d9813b6cc30992b3d57e00cfdb9c162dd764736f6c63430008120033",
  "devdoc": {
    "events": {
      "AdminChanged(address,address)": {
        "details": "Emitted when the admin account has changed."
      },
      "Approval(address,address,uint256)": {
        "details": "Emitted when the allowance of a `spender` for an `owner` is set by a call to {approve}. `value` is the new allowance."
      },
      "BeaconUpgraded(address)": {
        "details": "Emitted when the beacon is changed."
      },
      "Initialized(uint8)": {
        "details": "Triggered when the contract has been initialized or reinitialized."
      },
      "Transfer(address,address,uint256)": {
        "details": "Emitted when `value` tokens are moved from one account (`from`) to another (`to`). Note that `value` may be zero."
      },
      "Upgraded(address)": {
        "details": "Emitted when the implementation is upgraded."
      }
    },
    "kind": "dev",
    "methods": {
      "allowance(address,address)": {
        "details": "See {IERC20-allowance}."
      },
      "approve(address,uint256)": {
        "details": "See {IERC20-approve}. NOTE: If `amount` is the maximum `uint256`, the allowance is not updated on `transferFrom`. This is semantically equivalent to an infinite approval. Requirements: - `spender` cannot be the zero address."
      },
      "balanceOf(address)": {
        "details": "See {IERC20-balanceOf}."
      },
      "decimals()": {
        "details": "Returns the number of decimals used to get its user representation. For example, if `decimals` equals `2`, a balance of `505` tokens should be displayed to a user as `5.05` (`505 / 10 ** 2`). Tokens usually opt for a value of 18, imitating the relationship between Ether and Wei. This is the default value returned by this function, unless it's overridden. NOTE: This information is only used for _display_ purposes: it in no way affects any of the arithmetic of the contract, including {IERC20-balanceOf} and {IERC20-transfer}."
      },
      "decreaseAllowance(address,uint256)": {
        "details": "Atomically decreases the allowance granted to `spender` by the caller. This is an alternative to {approve} that can be used as a mitigation for problems described in {IERC20-approve}. Emits an {Approval} event indicating the updated allowance. Requirements: - `spender` cannot be the zero address. - `spender` must have allowance for the caller of at least `subtractedValue`."
      },
      "increaseAllowance(address,uint256)": {
        "details": "Atomically increases the allowance granted to `spender` by the caller. This is an alternative to {approve} that can be used as a mitigation for problems described in {IERC20-approve}. Emits an {Approval} event indicating the updated allowance. Requirements: - `spender` cannot be the zero address."
      },
      "name()": {
        "details": "Returns the name of the token."
      },
      "proxiableUUID()": {
        "details": "Implementation of the ERC1822 {proxiableUUID} function. This returns the storage slot used by the implementation. It is used to validate the implementation's compatibility when performing an upgrade. IMPORTANT: A proxy pointing at a proxiable contract should not be considered proxiable itself, because this risks bricking a proxy that upgrades to it, by delegating to itself until out of gas. Thus it is critical that this function revert if invoked through a proxy. This is guaranteed by the `notDelegated` modifier."
      },
      "symbol()": {
        "details": "Returns the symbol of the token, usually a shorter version of the name."
      },
      "totalSupply()": {
        "details": "See {IERC20-totalSupply}."
      },
      "transfer(address,uint256)": {
        "details": "See {IERC20-transfer}. Requirements: - `to` cannot be the zero address. - the caller must have a balance of at least `amount`."
      },
      "transferFrom(address,address,uint256)": {
        "details": "See {IERC20-transferFrom}. Emits an {Approval} event indicating the updated allowance. This is not required by the EIP. See the note at the beginning of {ERC20}. NOTE: Does not update the allowance if the current allowance is the maximum `uint256`. Requirements: - `from` and `to` cannot be the zero address. - `from` must have a balance of at least `amount`. - the caller must have allowance for ``from``'s tokens of at least `amount`."
      },
      "upgradeTo(address)": {
        "custom:oz-upgrades-unsafe-allow-reachable": "delegatecall",
        "details": "Upgrade the implementation of the proxy to `newImplementation`. Calls {_authorizeUpgrade}. Emits an {Upgraded} event."
      },
      "upgradeToAndCall(address,bytes)": {
        "custom:oz-upgrades-unsafe-allow-reachable": "delegatecall",
        "details": "Upgrade the implementation of the proxy to `newImplementation`, and subsequently execute the function call encoded in `data`. Calls {_authorizeUpgrade}. Emits an {Upgraded} event."
      }
    },
    "version": 1
  },
  "userdoc": {
    "kind": "user",
    "methods": {},
    "version": 1
  },
  "storageLayout": {
    "storage": [
      {
        "astId": 371,
        "contract": "contracts/core/elct/ELCT.sol:ELCT",
        "label": "_initialized",
        "offset": 0,
        "slot": "0",
        "type": "t_uint8"
      },
      {
        "astId": 374,
        "contract": "contracts/core/elct/ELCT.sol:ELCT",
        "label": "_initializing",
        "offset": 1,
        "slot": "0",
        "type": "t_bool"
      },
      {
        "astId": 353,
        "contract": "contracts/core/elct/ELCT.sol:ELCT",
        "label": "__gap",
        "offset": 0,
        "slot": "1",
        "type": "t_array(t_uint256)50_storage"
      },
      {
        "astId": 668,
        "contract": "contracts/core/elct/ELCT.sol:ELCT",
        "label": "__gap",
        "offset": 0,
        "slot": "51",
        "type": "t_array(t_uint256)50_storage"
      },
      {
        "astId": 3357,
        "contract": "contracts/core/elct/ELCT.sol:ELCT",
        "label": "__gap",
        "offset": 0,
        "slot": "101",
        "type": "t_array(t_uint256)50_storage"
      },
      {
        "astId": 772,
        "contract": "contracts/core/elct/ELCT.sol:ELCT",
        "label": "_balances",
        "offset": 0,
        "slot": "151",
        "type": "t_mapping(t_address,t_uint256)"
      },
      {
        "astId": 778,
        "contract": "contracts/core/elct/ELCT.sol:ELCT",
        "label": "_allowances",
        "offset": 0,
        "slot": "152",
        "type": "t_mapping(t_address,t_mapping(t_address,t_uint256))"
      },
      {
        "astId": 780,
        "contract": "contracts/core/elct/ELCT.sol:ELCT",
        "label": "_totalSupply",
        "offset": 0,
        "slot": "153",
        "type": "t_uint256"
      },
      {
        "astId": 782,
        "contract": "contracts/core/elct/ELCT.sol:ELCT",
        "label": "_name",
        "offset": 0,
        "slot": "154",
        "type": "t_string_storage"
      },
      {
        "astId": 784,
        "contract": "contracts/core/elct/ELCT.sol:ELCT",
        "label": "_symbol",
        "offset": 0,
        "slot": "155",
        "type": "t_string_storage"
      },
      {
        "astId": 1364,
        "contract": "contracts/core/elct/ELCT.sol:ELCT",
        "label": "__gap",
        "offset": 0,
        "slot": "156",
        "type": "t_array(t_uint256)45_storage"
      },
      {
        "astId": 7431,
        "contract": "contracts/core/elct/ELCT.sol:ELCT",
        "label": "addressBook",
        "offset": 0,
        "slot": "201",
        "type": "t_address"
      }
    ],
    "types": {
      "t_address": {
        "encoding": "inplace",
        "label": "address",
        "numberOfBytes": "20"
      },
      "t_array(t_uint256)45_storage": {
        "base": "t_uint256",
        "encoding": "inplace",
        "label": "uint256[45]",
        "numberOfBytes": "1440"
      },
      "t_array(t_uint256)50_storage": {
        "base": "t_uint256",
        "encoding": "inplace",
        "label": "uint256[50]",
        "numberOfBytes": "1600"
      },
      "t_bool": {
        "encoding": "inplace",
        "label": "bool",
        "numberOfBytes": "1"
      },
      "t_mapping(t_address,t_mapping(t_address,t_uint256))": {
        "encoding": "mapping",
        "key": "t_address",
        "label": "mapping(address => mapping(address => uint256))",
        "numberOfBytes": "32",
        "value": "t_mapping(t_address,t_uint256)"
      },
      "t_mapping(t_address,t_uint256)": {
        "encoding": "mapping",
        "key": "t_address",
        "label": "mapping(address => uint256)",
        "numberOfBytes": "32",
        "value": "t_uint256"
      },
      "t_string_storage": {
        "encoding": "bytes",
        "label": "string",
        "numberOfBytes": "32"
      },
      "t_uint256": {
        "encoding": "inplace",
        "label": "uint256",
        "numberOfBytes": "32"
      },
      "t_uint8": {
        "encoding": "inplace",
        "label": "uint8",
        "numberOfBytes": "1"
      }
    }
  }
}