{
  "address": "0xae43ca5346C2BBe4514394e6d1561Bb76a06b7B6",
  "abi": [
    {
      "inputs": [],
      "stateMutability": "nonpayable",
      "type": "constructor"
    },
    {
      "anonymous": false,
      "inputs": [
        {
          "indexed": false,
          "internalType": "address",
          "name": "previousAdmin",
          "type": "address"
        },
        {
          "indexed": false,
          "internalType": "address",
          "name": "newAdmin",
          "type": "address"
        }
      ],
      "name": "AdminChanged",
      "type": "event"
    },
    {
      "anonymous": false,
      "inputs": [
        {
          "indexed": true,
          "internalType": "address",
          "name": "beacon",
          "type": "address"
        }
      ],
      "name": "BeaconUpgraded",
      "type": "event"
    },
    {
      "anonymous": false,
      "inputs": [
        {
          "indexed": false,
          "internalType": "uint8",
          "name": "version",
          "type": "uint8"
        }
      ],
      "name": "Initialized",
      "type": "event"
    },
    {
      "anonymous": false,
      "inputs": [
        {
          "indexed": true,
          "internalType": "address",
          "name": "implementation",
          "type": "address"
        }
      ],
      "name": "Upgraded",
      "type": "event"
    },
    {
      "inputs": [],
      "name": "PRICERS_DECIMALS",
      "outputs": [
        {
          "internalType": "uint256",
          "name": "",
          "type": "uint256"
        }
      ],
      "stateMutability": "view",
      "type": "function"
    },
    {
      "inputs": [
        {
          "internalType": "address",
          "name": "_payToken",
          "type": "address"
        },
        {
          "internalType": "address",
          "name": "_payTokenPricer",
          "type": "address"
        }
      ],
      "name": "addPayToken",
      "outputs": [],
      "stateMutability": "nonpayable",
      "type": "function"
    },
    {
      "inputs": [],
      "name": "addressBook",
      "outputs": [
        {
          "internalType": "address",
          "name": "",
          "type": "address"
        }
      ],
      "stateMutability": "view",
      "type": "function"
    },
    {
      "inputs": [
        {
          "internalType": "uint256",
          "name": "_elctAmount",
          "type": "uint256"
        },
        {
          "internalType": "address",
          "name": "_payToken",
          "type": "address"
        },
        {
          "internalType": "uint256",
          "name": "_maxPayTokenAmount",
          "type": "uint256"
        }
      ],
      "name": "buy",
      "outputs": [],
      "stateMutability": "payable",
      "type": "function"
    },
    {
      "inputs": [
        {
          "internalType": "address",
          "name": "_payToken",
          "type": "address"
        }
      ],
      "name": "deletePayToken",
      "outputs": [],
      "stateMutability": "nonpayable",
      "type": "function"
    },
    {
      "inputs": [],
      "name": "elct",
      "outputs": [
        {
          "internalType": "address",
          "name": "",
          "type": "address"
        }
      ],
      "stateMutability": "view",
      "type": "function"
    },
    {
      "inputs": [
        {
          "internalType": "uint256",
          "name": "_elctAmount",
          "type": "uint256"
        },
        {
          "internalType": "address",
          "name": "_token",
          "type": "address"
        }
      ],
      "name": "elctAmountToToken",
      "outputs": [
        {
          "internalType": "uint256",
          "name": "",
          "type": "uint256"
        }
      ],
      "stateMutability": "view",
      "type": "function"
    },
    {
      "inputs": [],
      "name": "elctPricer",
      "outputs": [
        {
          "internalType": "address",
          "name": "",
          "type": "address"
        }
      ],
      "stateMutability": "view",
      "type": "function"
    },
    {
      "inputs": [
        {
          "internalType": "address",
          "name": "_addressBook",
          "type": "address"
        },
        {
          "internalType": "address",
          "name": "_elct",
          "type": "address"
        },
        {
          "internalType": "address",
          "name": "_elctPricer",
          "type": "address"
        },
        {
          "internalType": "address[]",
          "name": "_payTokens",
          "type": "address[]"
        },
        {
          "internalType": "address[]",
          "name": "_payTokensPricers",
          "type": "address[]"
        }
      ],
      "name": "initialize",
      "outputs": [],
      "stateMutability": "nonpayable",
      "type": "function"
    },
    {
      "inputs": [
        {
          "internalType": "address",
          "name": "token",
          "type": "address"
        }
      ],
      "name": "payTokensPricers",
      "outputs": [
        {
          "internalType": "address",
          "name": "pricer",
          "type": "address"
        }
      ],
      "stateMutability": "view",
      "type": "function"
    },
    {
      "inputs": [],
      "name": "proxiableUUID",
      "outputs": [
        {
          "internalType": "bytes32",
          "name": "",
          "type": "bytes32"
        }
      ],
      "stateMutability": "view",
      "type": "function"
    },
    {
      "inputs": [
        {
          "internalType": "address",
          "name": "newImplementation",
          "type": "address"
        }
      ],
      "name": "upgradeTo",
      "outputs": [],
      "stateMutability": "nonpayable",
      "type": "function"
    },
    {
      "inputs": [
        {
          "internalType": "address",
          "name": "newImplementation",
          "type": "address"
        },
        {
          "internalType": "bytes",
          "name": "data",
          "type": "bytes"
        }
      ],
      "name": "upgradeToAndCall",
      "outputs": [],
      "stateMutability": "payable",
      "type": "function"
    },
    {
      "inputs": [
        {
          "internalType": "address",
          "name": "_token",
          "type": "address"
        },
        {
          "internalType": "uint256",
          "name": "_amount",
          "type": "uint256"
        }
      ],
      "name": "withdraw",
      "outputs": [],
      "stateMutability": "nonpayable",
      "type": "function"
    }
  ],
  "transactionHash": "0x083ea58f8d357f2131b67ba35c45d16c9a7231a6177f56158218f430fb683e6c",
  "args": [],
  "numDeployments": 1,
  "solcInputHash": "07629dd1fac3d7b611b0d2c246578a71",
  "bytecode": "0x60a080604052346100dc57306080526000549060ff8260081c1661008a575060ff8082160361004f575b60405161196f90816100e282396080518181816105d90152818161070801526109db0152f35b60ff90811916176000557f7f26b83ff96e1f2b6a682f133852f6798a09c465da95921460cefb3847402498602060405160ff8152a138610029565b62461bcd60e51b815260206004820152602760248201527f496e697469616c697a61626c653a20636f6e747261637420697320696e697469604482015266616c697a696e6760c81b6064820152608490fd5b600080fdfe608080604052600436101561001357600080fd5b600090813560e01c90816314663dac14610f7c5750806324682c0314610f605780632afaca2014610ccd5780632b26274814610c4f5780633659cfe6146109b65780634f1ef2861461068a57806352d1902d146105c65780635d5ce3c21461059d578063790fcf9f146102765780637fe9d0f814610247578063cd41c8f91461021e578063df0ff6be146101e2578063f3fef3a3146100e65763f5887cdd146100bb57600080fd5b346100e357806003193601126100e3576097546040516001600160a01b039091168152602090f35b80fd5b50346100e35760403660031901126100e3578061010161105e565b609754602435916001600160a01b03918216803b156101de578460249160405192838092630ceb3b9b60e21b82523360048301525afa9081156101d35785916101ba575b505016806101ab575081808092335af161015d61127b565b50156101665780f35b60405162461bcd60e51b815260206004820152601960248201527f7769746864726177207472616e73666572206661696c656421000000000000006044820152606490fd5b6101b7925033906113b9565b80f35b6101c39061108a565b6101ce578338610145565b505050fd5b6040513d87823e3d90fd5b8480fd5b50346100e35760203660031901126100e3576020906001600160a01b03906040908261020c61105e565b168152609a8452205416604051908152f35b50346100e357806003193601126100e3576098546040516001600160a01b039091168152602090f35b50346100e35760403660031901126100e357602061026e610266611074565b600435611756565b604051908152f35b50346100e35760a03660031901126100e35761029061105e565b610298611074565b6044356001600160a01b03811681036105985760649081359267ffffffffffffffff93848111610594576102d09036906004016110f8565b919094608435908111610590576102eb9036906004016110f8565b93909488549760ff8960081c16159889809a610583575b801561056c575b156105115760ff1981166001178b5589610500575b506001600160a01b03169283156104c5576001600160a01b0316908115610492576001600160a01b038316156104595785850361042257506bffffffffffffffffffffffff60a01b9283609754161760975582609854161760985560018060a01b0316906099541617609955855b8181106103d357868661039c5780f35b61ff001981541681557f7f26b83ff96e1f2b6a682f133852f6798a09c465da95921460cefb3847402498602060405160018152a180f35b6103fd6103e96103e483858961137f565b6113a5565b6103f76103e484878961137f565b90611572565b600019811461040e5760010161038c565b634e487b7160e01b87526011600452602487fd5b60405162461bcd60e51b81526020600482015260126024820152715f706179546f6b656e732e6c656e6774682160701b6044820152fd5b60405162461bcd60e51b81526020600482015260146024820152735f656c6374507269636572206973207a65726f2160601b6044820152fd5b60405162461bcd60e51b815260206004820152600e60248201526d5f656c6374206973207a65726f2160901b6044820152fd5b5060405162461bcd60e51b81526020600482015260156024820152745f61646472657373426f6f6b206973207a65726f2160581b6044820152fd5b61ffff1916610101178a553861031e565b60405162461bcd60e51b815260206004820152602e60248201527f496e697469616c697a61626c653a20636f6e747261637420697320616c72656160448201526d191e481a5b9a5d1a585b1a5e995960921b81850152608490fd5b50303b1580156103095750600160ff821614610309565b50600160ff821610610302565b8780fd5b8680fd5b600080fd5b50346100e357806003193601126100e3576099546040516001600160a01b039091168152602090f35b50346100e357806003193601126100e3577f00000000000000000000000000000000000000000000000000000000000000006001600160a01b0316300361061f57602060405160008051602061191a8339815191528152f35b60405162461bcd60e51b815260206004820152603860248201527f555550535570677261646561626c653a206d757374206e6f742062652063616c60448201527f6c6564207468726f7567682064656c656761746563616c6c00000000000000006064820152608490fd5b5060403660031901126100e35761069f61105e565b90602491823567ffffffffffffffff81116109b257366023820112156109b2578060040135906106ce826110dc565b906106dc60405192836110ba565b828252602092838301913688838301011161059457818792898793018537840101526001600160a01b037f000000000000000000000000000000000000000000000000000000000000000081169061073630831415611129565b61075360008051602061191a83398151915292828454161461118a565b8060975416803b156105905787899160405192838092630ceb3b9b60e21b82523360048301525afa80156109a757908891610993575b50507f4910fdfa16fed3260ed0e7147f7cc6da11a60208b5b9406d12a635614ffd91435460ff16156107c55750505050506101b79192506111eb565b859394969516906040516352d1902d60e01b81528781600481865afa60009181610964575b5061084a5760405162461bcd60e51b815260048101899052602e818b01527f45524331393637557067726164653a206e657720696d706c656d656e7461746960448201526d6f6e206973206e6f74205555505360901b6064820152608490fd5b97919293949695970361090f5750610861836111eb565b7fbc7cd75a20ee27fd9adebab32041f755214dbc6bffa90cc0225b39da2e5c2d3b600080a2835115801590610907575b61089d575b5050505080f35b600080916108fd957f416464726573733a206c6f772d6c6576656c2064656c65676174652063616c6c604051966108d38861109e565b60278852870152660819985a5b195960ca1b60408701525190845af46108f761127b565b916112ab565b5038808080610896565b506001610891565b8460296084926040519262461bcd60e51b845260048401528201527f45524331393637557067726164653a20756e737570706f727465642070726f786044820152681a58589b195555525160ba1b6064820152fd5b90918982813d831161098c575b61097b81836110ba565b810103126100e357505190386107ea565b503d610971565b61099c9061108a565b610594578638610789565b6040513d8a823e3d90fd5b8280fd5b50346100e357602080600319360112610c4b576109d161105e565b6001600160a01b037f0000000000000000000000000000000000000000000000000000000000000000811690610a0930831415611129565b610a2660008051602061191a83398151915292828454161461118a565b848160975416803b15610c4b578160249160405192838092630ceb3b9b60e21b82523360048301525afa8015610c4057610c2c575b5050604051918483019183831067ffffffffffffffff841117610c16578260405286845260ff7f4910fdfa16fed3260ed0e7147f7cc6da11a60208b5b9406d12a635614ffd91435416600014610ab957505050506101b791506111eb565b84939416906040516352d1902d60e01b81528681600481865afa60009181610be7575b50610b3d5760405162461bcd60e51b815260048101889052602e60248201527f45524331393637557067726164653a206e657720696d706c656d656e7461746960448201526d6f6e206973206e6f74205555505360901b6064820152608490fd5b95949503610b9057610b4e836111eb565b7fbc7cd75a20ee27fd9adebab32041f755214dbc6bffa90cc0225b39da2e5c2d3b600080a2835115801590610b885761089d575050505080f35b506000610891565b60405162461bcd60e51b815260048101859052602960248201527f45524331393637557067726164653a20756e737570706f727465642070726f786044820152681a58589b195555525160ba1b6064820152608490fd5b90918882813d8311610c0f575b610bfe81836110ba565b810103126100e35750519038610adc565b503d610bf4565b634e487b7160e01b600052604160045260246000fd5b610c359061108a565b6101de578438610a5b565b6040513d84823e3d90fd5b5080fd5b50346100e35760403660031901126100e357610c6961105e565b610c71611074565b60975483906001600160a01b0316803b15610c4b578160249160405192838092630ceb3b9b60e21b82523360048301525afa8015610c4057610cb9575b50506101b791611572565b610cc29061108a565b6109b2578238610cae565b5060603660031901126100e357600435610ce5611074565b90600260655414610f1b5760026065558015610edf576098546001600160a01b039081169290610d158284611756565b918215610e9a576044358311610e5f571680610e0a5750803410610dcc5780340390348211610db8579084913403610d5e575b5050610d56915b33906113b9565b600160655580f35b81808092335af1610d6d61127b565b5015610d7a578238610d48565b60405162461bcd60e51b81526020600482015260166024820152756661696c656420746f2073656e64206368616e67652160501b6044820152606490fd5b634e487b7160e01b85526011600452602485fd5b60405162461bcd60e51b81526020600482015260166024820152751d985b1d59480f081c185e551bdad95b905b5bdd5b9d60521b6044820152606490fd5b9290604051906323b872dd60e01b602083015233602483015230604483015260648201526064815260a081019080821067ffffffffffffffff831117610c1657610d5694610e5a9260405261140b565b610d4f565b60405162461bcd60e51b81526020600482015260136024820152725f6d6178506179546f6b656e416d6f756e742160681b6044820152606490fd5b60405162461bcd60e51b815260206004820152601760248201527f706179546f6b656e416d6f756e74206973207a65726f210000000000000000006044820152606490fd5b60405162461bcd60e51b81526020600482015260146024820152735f656c6374416d6f756e74206973207a65726f2160601b6044820152606490fd5b60405162461bcd60e51b815260206004820152601f60248201527f5265656e7472616e637947756172643a207265656e7472616e742063616c6c006044820152606490fd5b50346100e357806003193601126100e357602060405160088152f35b905034610c4b576020366003190112610c4b57610f9761105e565b6097546001600160a01b03929084908416803b15610c4b576024838092630ceb3b9b60e21b82523360048301525afa801561105357611040575b50811690818352609a60205260408320541615611004578152609a6020526040812080546001600160a01b031916905580f35b60405162461bcd60e51b815260206004820152601460248201527370617920746f6b656e206e6f7420666f756e642160601b6044820152606490fd5b9261104c83929461108a565b9290610fd1565b6040513d86823e3d90fd5b600435906001600160a01b038216820361059857565b602435906001600160a01b038216820361059857565b67ffffffffffffffff8111610c1657604052565b6060810190811067ffffffffffffffff821117610c1657604052565b90601f8019910116810190811067ffffffffffffffff821117610c1657604052565b67ffffffffffffffff8111610c1657601f01601f191660200190565b9181601f840112156105985782359167ffffffffffffffff8311610598576020808501948460051b01011161059857565b1561113057565b60405162461bcd60e51b815260206004820152602c60248201527f46756e6374696f6e206d7573742062652063616c6c6564207468726f7567682060448201526b19195b1959d85d1958d85b1b60a21b6064820152608490fd5b1561119157565b60405162461bcd60e51b815260206004820152602c60248201527f46756e6374696f6e206d7573742062652063616c6c6564207468726f7567682060448201526b6163746976652070726f787960a01b6064820152608490fd5b803b156112205760008051602061191a83398151915280546001600160a01b0319166001600160a01b03909216919091179055565b60405162461bcd60e51b815260206004820152602d60248201527f455243313936373a206e657720696d706c656d656e746174696f6e206973206e60448201526c1bdd08184818dbdb9d1c9858dd609a1b6064820152608490fd5b3d156112a6573d9061128c826110dc565b9161129a60405193846110ba565b82523d6000602084013e565b606090565b9192901561130d57508151156112bf575090565b3b156112c85790565b60405162461bcd60e51b815260206004820152601d60248201527f416464726573733a2063616c6c20746f206e6f6e2d636f6e74726163740000006044820152606490fd5b8251909150156113205750805190602001fd5b6040519062461bcd60e51b82528160208060048301528251908160248401526000935b828510611366575050604492506000838284010152601f80199101168101030190fd5b8481018201518686016044015293810193859350611343565b919081101561138f5760051b0190565b634e487b7160e01b600052603260045260246000fd5b356001600160a01b03811681036105985790565b60405163a9059cbb60e01b60208201526001600160a01b039092166024830152604480830193909352918152608081019167ffffffffffffffff831182841017610c16576114099260405261140b565b565b60018060a01b031690604051604081019080821067ffffffffffffffff831117610c1657611477916040526020938482527f5361666545524332303a206c6f772d6c6576656c2063616c6c206661696c6564858301526000808587829751910182855af16108f761127b565b8051918215918483156114e9575b5050509050156114925750565b6084906040519062461bcd60e51b82526004820152602a60248201527f5361666545524332303a204552433230206f7065726174696f6e20646964206e6044820152691bdd081cdd58d8d9595960b21b6064820152fd5b919381809450010312610c4b578201519081151582036100e3575080388084611485565b90816020910312610598575160ff811681036105985790565b519069ffffffffffffffffffff8216820361059857565b908160a09103126105985761155181611526565b9160208201519160408101519161156f608060608401519301611526565b90565b6001600160a01b03918216919082156116e85760409182519163313ce56760e01b83526020928381600481895afa9081156116795760089160ff916000916116bb575b501603611684578351633fabe5a360e21b815260a081600481895afa90811561167957906000918291611646575b50131561160957166000908152609a9091522080546001600160a01b0319169091179055565b835162461bcd60e51b815260048101849052601660248201527570726963657220616e73776572206973207a65726f2160501b6044820152606490fd5b611667915060a03d8111611672575b61165f81836110ba565b81019061153d565b5050509050386115e3565b503d611655565b85513d6000823e3d90fd5b835162461bcd60e51b815260048101849052601060248201526f70726963657220646563696d616c732160801b6044820152606490fd5b6116db9150863d88116116e1575b6116d381836110ba565b81019061150d565b386115b5565b503d6116c9565b60405162461bcd60e51b815260206004820152601860248201527f5f706179546f6b656e507269636572206973207a65726f2100000000000000006044820152606490fd5b8181029291811591840414171561174057565b634e487b7160e01b600052601160045260246000fd5b6001600160a01b039182166000818152609a602052604080822054919594918216939284156118de578151948593633fabe5a360e21b9182865285600460a09788935afa9687156118d45789976118ae575b5084906099541691600485518094819382525afa9384156118a4578894611880575b5050806118255750506117e39060ff60125b169261172d565b90604d8111610db857906117fa91600a0a9061172d565b811561181157670de0b6b3a7640000929350040490565b634e487b7160e01b84526012600452602484fd5b602060049183519283809263313ce56760e01b82525afa91821561187757506117e3929160ff918891611859575b506117dc565b611871915060203d81116116e1576116d381836110ba565b38611853565b513d88823e3d90fd5b611897929450803d106116725761165f81836110ba565b50505090509138806117ca565b83513d8a823e3d90fd5b859197506118c890823d84116116725761165f81836110ba565b505050905096906117a8565b84513d8b823e3d90fd5b815162461bcd60e51b81526020600482015260146024820152736e6f7420737570706f7274656420746f6b656e2160601b6044820152606490fdfe360894a13ba1a3210667c828492db98dca3e2076cc3735a920a3ca505d382bbca26469706673582212207bfed6f9e271397388071fe96255cbac56f8effe7528341594adaa1ef607e75c64736f6c63430008120033",
  "devdoc": {
    "events": {
      "AdminChanged(address,address)": {
        "details": "Emitted when the admin account has changed."
      },
      "BeaconUpgraded(address)": {
        "details": "Emitted when the beacon is changed."
      },
      "Initialized(uint8)": {
        "details": "Triggered when the contract has been initialized or reinitialized."
      },
      "Upgraded(address)": {
        "details": "Emitted when the implementation is upgraded."
      }
    },
    "kind": "dev",
    "methods": {
      "proxiableUUID()": {
        "details": "Implementation of the ERC1822 {proxiableUUID} function. This returns the storage slot used by the implementation. It is used to validate the implementation's compatibility when performing an upgrade. IMPORTANT: A proxy pointing at a proxiable contract should not be considered proxiable itself, because this risks bricking a proxy that upgrades to it, by delegating to itself until out of gas. Thus it is critical that this function revert if invoked through a proxy. This is guaranteed by the `notDelegated` modifier."
      },
      "upgradeTo(address)": {
        "custom:oz-upgrades-unsafe-allow-reachable": "delegatecall",
        "details": "Upgrade the implementation of the proxy to `newImplementation`. Calls {_authorizeUpgrade}. Emits an {Upgraded} event."
      },
      "upgradeToAndCall(address,bytes)": {
        "custom:oz-upgrades-unsafe-allow-reachable": "delegatecall",
        "details": "Upgrade the implementation of the proxy to `newImplementation`, and subsequently execute the function call encoded in `data`. Calls {_authorizeUpgrade}. Emits an {Upgraded} event."
      }
    },
    "version": 1
  },
  "userdoc": {
    "kind": "user",
    "methods": {},
    "version": 1
  },
  "storageLayout": {
    "storage": [
      {
        "astId": 371,
        "contract": "contracts/core/elct/ElctPresale.sol:ElctPresale",
        "label": "_initialized",
        "offset": 0,
        "slot": "0",
        "type": "t_uint8"
      },
      {
        "astId": 374,
        "contract": "contracts/core/elct/ElctPresale.sol:ElctPresale",
        "label": "_initializing",
        "offset": 1,
        "slot": "0",
        "type": "t_bool"
      },
      {
        "astId": 353,
        "contract": "contracts/core/elct/ElctPresale.sol:ElctPresale",
        "label": "__gap",
        "offset": 0,
        "slot": "1",
        "type": "t_array(t_uint256)50_storage"
      },
      {
        "astId": 668,
        "contract": "contracts/core/elct/ElctPresale.sol:ElctPresale",
        "label": "__gap",
        "offset": 0,
        "slot": "51",
        "type": "t_array(t_uint256)50_storage"
      },
      {
        "astId": 683,
        "contract": "contracts/core/elct/ElctPresale.sol:ElctPresale",
        "label": "_status",
        "offset": 0,
        "slot": "101",
        "type": "t_uint256"
      },
      {
        "astId": 752,
        "contract": "contracts/core/elct/ElctPresale.sol:ElctPresale",
        "label": "__gap",
        "offset": 0,
        "slot": "102",
        "type": "t_array(t_uint256)49_storage"
      },
      {
        "astId": 7510,
        "contract": "contracts/core/elct/ElctPresale.sol:ElctPresale",
        "label": "addressBook",
        "offset": 0,
        "slot": "151",
        "type": "t_address"
      },
      {
        "astId": 7512,
        "contract": "contracts/core/elct/ElctPresale.sol:ElctPresale",
        "label": "elct",
        "offset": 0,
        "slot": "152",
        "type": "t_address"
      },
      {
        "astId": 7514,
        "contract": "contracts/core/elct/ElctPresale.sol:ElctPresale",
        "label": "elctPricer",
        "offset": 0,
        "slot": "153",
        "type": "t_address"
      },
      {
        "astId": 7521,
        "contract": "contracts/core/elct/ElctPresale.sol:ElctPresale",
        "label": "payTokensPricers",
        "offset": 0,
        "slot": "154",
        "type": "t_mapping(t_address,t_address)"
      }
    ],
    "types": {
      "t_address": {
        "encoding": "inplace",
        "label": "address",
        "numberOfBytes": "20"
      },
      "t_array(t_uint256)49_storage": {
        "base": "t_uint256",
        "encoding": "inplace",
        "label": "uint256[49]",
        "numberOfBytes": "1568"
      },
      "t_array(t_uint256)50_storage": {
        "base": "t_uint256",
        "encoding": "inplace",
        "label": "uint256[50]",
        "numberOfBytes": "1600"
      },
      "t_bool": {
        "encoding": "inplace",
        "label": "bool",
        "numberOfBytes": "1"
      },
      "t_mapping(t_address,t_address)": {
        "encoding": "mapping",
        "key": "t_address",
        "label": "mapping(address => address)",
        "numberOfBytes": "32",
        "value": "t_address"
      },
      "t_uint256": {
        "encoding": "inplace",
        "label": "uint256",
        "numberOfBytes": "32"
      },
      "t_uint8": {
        "encoding": "inplace",
        "label": "uint8",
        "numberOfBytes": "1"
      }
    }
  }
}