{
  "address": "0x271Be91108f120ab04dee136A94971146e96b59B",
  "abi": [
    {
      "inputs": [],
      "stateMutability": "nonpayable",
      "type": "constructor"
    },
    {
      "anonymous": false,
      "inputs": [
        {
          "indexed": false,
          "internalType": "address",
          "name": "previousAdmin",
          "type": "address"
        },
        {
          "indexed": false,
          "internalType": "address",
          "name": "newAdmin",
          "type": "address"
        }
      ],
      "name": "AdminChanged",
      "type": "event"
    },
    {
      "anonymous": false,
      "inputs": [
        {
          "indexed": true,
          "internalType": "address",
          "name": "beacon",
          "type": "address"
        }
      ],
      "name": "BeaconUpgraded",
      "type": "event"
    },
    {
      "anonymous": false,
      "inputs": [
        {
          "indexed": false,
          "internalType": "address",
          "name": "itemAddress",
          "type": "address"
        },
        {
          "indexed": false,
          "internalType": "uint256",
          "name": "itemId",
          "type": "uint256"
        },
        {
          "indexed": false,
          "internalType": "address",
          "name": "itemOwner",
          "type": "address"
        },
        {
          "indexed": false,
          "internalType": "uint256",
          "name": "rewards",
          "type": "uint256"
        },
        {
          "indexed": false,
          "internalType": "uint256",
          "name": "claimedPeriods",
          "type": "uint256"
        },
        {
          "indexed": false,
          "internalType": "address",
          "name": "withdrawToken",
          "type": "address"
        },
        {
          "indexed": false,
          "internalType": "uint256",
          "name": "withdrawTokenAmount",
          "type": "uint256"
        }
      ],
      "name": "Claim",
      "type": "event"
    },
    {
      "anonymous": false,
      "inputs": [
        {
          "indexed": false,
          "internalType": "uint8",
          "name": "version",
          "type": "uint8"
        }
      ],
      "name": "Initialized",
      "type": "event"
    },
    {
      "anonymous": false,
      "inputs": [
        {
          "indexed": false,
          "internalType": "address",
          "name": "itemAddress",
          "type": "address"
        },
        {
          "indexed": false,
          "internalType": "uint256",
          "name": "itemId",
          "type": "uint256"
        },
        {
          "indexed": false,
          "internalType": "address",
          "name": "itemOwner",
          "type": "address"
        },
        {
          "indexed": false,
          "internalType": "uint256",
          "name": "sellPrice",
          "type": "uint256"
        },
        {
          "indexed": false,
          "internalType": "address",
          "name": "withdrawToken",
          "type": "address"
        },
        {
          "indexed": false,
          "internalType": "uint256",
          "name": "withdrawTokenAmount",
          "type": "uint256"
        }
      ],
      "name": "Sell",
      "type": "event"
    },
    {
      "anonymous": false,
      "inputs": [
        {
          "indexed": false,
          "internalType": "address",
          "name": "itemAddress",
          "type": "address"
        },
        {
          "indexed": false,
          "internalType": "uint256",
          "name": "itemId",
          "type": "uint256"
        },
        {
          "indexed": false,
          "internalType": "address",
          "name": "itemOwner",
          "type": "address"
        },
        {
          "indexed": false,
          "internalType": "uint256",
          "name": "itemsPrice",
          "type": "uint256"
        },
        {
          "indexed": false,
          "internalType": "uint256",
          "name": "initialTimestamp",
          "type": "uint256"
        },
        {
          "indexed": false,
          "internalType": "uint256",
          "name": "finalTimestamp",
          "type": "uint256"
        }
      ],
      "name": "Stake",
      "type": "event"
    },
    {
      "anonymous": false,
      "inputs": [
        {
          "indexed": true,
          "internalType": "address",
          "name": "implementation",
          "type": "address"
        }
      ],
      "name": "Upgraded",
      "type": "event"
    },
    {
      "inputs": [],
      "name": "REWARDS_PERIOD",
      "outputs": [
        {
          "internalType": "uint256",
          "name": "",
          "type": "uint256"
        }
      ],
      "stateMutability": "view",
      "type": "function"
    },
    {
      "inputs": [],
      "name": "addressBook",
      "outputs": [
        {
          "internalType": "address",
          "name": "",
          "type": "address"
        }
      ],
      "stateMutability": "view",
      "type": "function"
    },
    {
      "inputs": [
        {
          "internalType": "address",
          "name": "_itemAddress",
          "type": "address"
        },
        {
          "internalType": "uint256",
          "name": "_itemId",
          "type": "uint256"
        }
      ],
      "name": "canSell",
      "outputs": [
        {
          "internalType": "bool",
          "name": "",
          "type": "bool"
        }
      ],
      "stateMutability": "view",
      "type": "function"
    },
    {
      "inputs": [
        {
          "internalType": "address",
          "name": "_itemAddress",
          "type": "address"
        },
        {
          "internalType": "uint256",
          "name": "_itemId",
          "type": "uint256"
        },
        {
          "internalType": "address",
          "name": "_withdrawToken",
          "type": "address"
        }
      ],
      "name": "claim",
      "outputs": [],
      "stateMutability": "nonpayable",
      "type": "function"
    },
    {
      "inputs": [
        {
          "internalType": "address",
          "name": "_itemAddress",
          "type": "address"
        },
        {
          "internalType": "uint256",
          "name": "_itemId",
          "type": "uint256"
        },
        {
          "internalType": "uint256",
          "name": "_monthsCount",
          "type": "uint256"
        }
      ],
      "name": "claimTimestamp",
      "outputs": [
        {
          "internalType": "uint256",
          "name": "",
          "type": "uint256"
        }
      ],
      "stateMutability": "view",
      "type": "function"
    },
    {
      "inputs": [
        {
          "internalType": "address",
          "name": "item",
          "type": "address"
        },
        {
          "internalType": "uint256",
          "name": "tokenId",
          "type": "uint256"
        }
      ],
      "name": "claimedPeriodsCount",
      "outputs": [
        {
          "internalType": "uint256",
          "name": "",
          "type": "uint256"
        }
      ],
      "stateMutability": "view",
      "type": "function"
    },
    {
      "inputs": [
        {
          "internalType": "address",
          "name": "_itemAddress",
          "type": "address"
        },
        {
          "internalType": "uint256",
          "name": "_itemId",
          "type": "uint256"
        }
      ],
      "name": "estimateRewards",
      "outputs": [
        {
          "internalType": "uint256",
          "name": "rewards_",
          "type": "uint256"
        },
        {
          "internalType": "uint256",
          "name": "claimedPeriods_",
          "type": "uint256"
        }
      ],
      "stateMutability": "view",
      "type": "function"
    },
    {
      "inputs": [
        {
          "internalType": "address",
          "name": "_itemAddress",
          "type": "address"
        },
        {
          "internalType": "uint256",
          "name": "_itemId",
          "type": "uint256"
        }
      ],
      "name": "estimateSell",
      "outputs": [
        {
          "internalType": "uint256",
          "name": "",
          "type": "uint256"
        }
      ],
      "stateMutability": "view",
      "type": "function"
    },
    {
      "inputs": [
        {
          "internalType": "address",
          "name": "item",
          "type": "address"
        },
        {
          "internalType": "uint256",
          "name": "tokenId",
          "type": "uint256"
        }
      ],
      "name": "finalTimestamp",
      "outputs": [
        {
          "internalType": "uint256",
          "name": "",
          "type": "uint256"
        }
      ],
      "stateMutability": "view",
      "type": "function"
    },
    {
      "inputs": [
        {
          "internalType": "address",
          "name": "item",
          "type": "address"
        },
        {
          "internalType": "uint256",
          "name": "tokenId",
          "type": "uint256"
        }
      ],
      "name": "initialTimestamp",
      "outputs": [
        {
          "internalType": "uint256",
          "name": "",
          "type": "uint256"
        }
      ],
      "stateMutability": "view",
      "type": "function"
    },
    {
      "inputs": [
        {
          "internalType": "address",
          "name": "_addressBook",
          "type": "address"
        },
        {
          "internalType": "uint256",
          "name": "_rewardsRate",
          "type": "uint256"
        },
        {
          "internalType": "uint256",
          "name": "_lockYears",
          "type": "uint256"
        },
        {
          "internalType": "uint256",
          "name": "_yearDeprecationRate",
          "type": "uint256"
        }
      ],
      "name": "initialize",
      "outputs": [],
      "stateMutability": "nonpayable",
      "type": "function"
    },
    {
      "inputs": [
        {
          "internalType": "address",
          "name": "item",
          "type": "address"
        },
        {
          "internalType": "uint256",
          "name": "tokenId",
          "type": "uint256"
        }
      ],
      "name": "isStakedToken",
      "outputs": [
        {
          "internalType": "bool",
          "name": "",
          "type": "bool"
        }
      ],
      "stateMutability": "view",
      "type": "function"
    },
    {
      "inputs": [
        {
          "internalType": "address",
          "name": "item",
          "type": "address"
        },
        {
          "internalType": "uint256",
          "name": "tokenId",
          "type": "uint256"
        }
      ],
      "name": "itemsPrice",
      "outputs": [
        {
          "internalType": "uint256",
          "name": "",
          "type": "uint256"
        }
      ],
      "stateMutability": "view",
      "type": "function"
    },
    {
      "inputs": [],
      "name": "lockYears",
      "outputs": [
        {
          "internalType": "uint256",
          "name": "",
          "type": "uint256"
        }
      ],
      "stateMutability": "view",
      "type": "function"
    },
    {
      "inputs": [],
      "name": "maxPeriodsCount",
      "outputs": [
        {
          "internalType": "uint256",
          "name": "",
          "type": "uint256"
        }
      ],
      "stateMutability": "view",
      "type": "function"
    },
    {
      "inputs": [
        {
          "internalType": "bytes[]",
          "name": "data",
          "type": "bytes[]"
        }
      ],
      "name": "multicall",
      "outputs": [
        {
          "internalType": "bytes[]",
          "name": "results",
          "type": "bytes[]"
        }
      ],
      "stateMutability": "nonpayable",
      "type": "function"
    },
    {
      "inputs": [],
      "name": "proxiableUUID",
      "outputs": [
        {
          "internalType": "bytes32",
          "name": "",
          "type": "bytes32"
        }
      ],
      "stateMutability": "view",
      "type": "function"
    },
    {
      "inputs": [],
      "name": "rewardsRate",
      "outputs": [
        {
          "internalType": "uint256",
          "name": "",
          "type": "uint256"
        }
      ],
      "stateMutability": "view",
      "type": "function"
    },
    {
      "inputs": [
        {
          "internalType": "address",
          "name": "_itemAddress",
          "type": "address"
        },
        {
          "internalType": "uint256",
          "name": "_itemId",
          "type": "uint256"
        },
        {
          "internalType": "address",
          "name": "_withdrawToken",
          "type": "address"
        }
      ],
      "name": "sell",
      "outputs": [],
      "stateMutability": "nonpayable",
      "type": "function"
    },
    {
      "inputs": [
        {
          "internalType": "address",
          "name": "_itemAddress",
          "type": "address"
        },
        {
          "internalType": "uint256",
          "name": "_itemId",
          "type": "uint256"
        },
        {
          "internalType": "bytes",
          "name": "",
          "type": "bytes"
        }
      ],
      "name": "stake",
      "outputs": [],
      "stateMutability": "nonpayable",
      "type": "function"
    },
    {
      "inputs": [],
      "name": "stakingType",
      "outputs": [
        {
          "internalType": "string",
          "name": "",
          "type": "string"
        }
      ],
      "stateMutability": "pure",
      "type": "function"
    },
    {
      "inputs": [
        {
          "internalType": "address",
          "name": "item",
          "type": "address"
        },
        {
          "internalType": "uint256",
          "name": "tokenId",
          "type": "uint256"
        }
      ],
      "name": "totalWithdrawn",
      "outputs": [
        {
          "internalType": "uint256",
          "name": "",
          "type": "uint256"
        }
      ],
      "stateMutability": "view",
      "type": "function"
    },
    {
      "inputs": [
        {
          "internalType": "address",
          "name": "newImplementation",
          "type": "address"
        }
      ],
      "name": "upgradeTo",
      "outputs": [],
      "stateMutability": "nonpayable",
      "type": "function"
    },
    {
      "inputs": [
        {
          "internalType": "address",
          "name": "newImplementation",
          "type": "address"
        },
        {
          "internalType": "bytes",
          "name": "data",
          "type": "bytes"
        }
      ],
      "name": "upgradeToAndCall",
      "outputs": [],
      "stateMutability": "payable",
      "type": "function"
    },
    {
      "inputs": [],
      "name": "yearDeprecationRate",
      "outputs": [
        {
          "internalType": "uint256",
          "name": "",
          "type": "uint256"
        }
      ],
      "stateMutability": "view",
      "type": "function"
    }
  ],
  "transactionHash": "0x4896905fcb07d9d2e5bca63ef4f26ed126cd078f4ffd5ad270f44f4651935de0",
  "args": [],
  "numDeployments": 1,
  "solcInputHash": "651dbab8f727aed77f00dddc4300e6b7",
  "bytecode": "0x60a080604052346100dc57306080526000549060ff8260081c1661008a575060ff8082160361004f575b604051611dca90816100e282396080518181816108930152818161099e01526111190152f35b60ff90811916176000557f7f26b83ff96e1f2b6a682f133852f6798a09c465da95921460cefb3847402498602060405160ff8152a138610029565b62461bcd60e51b815260206004820152602760248201527f496e697469616c697a61626c653a20636f6e747261637420697320696e697469604482015266616c697a696e6760c81b6064820152608490fd5b600080fdfe608060408181526004918236101561001657600080fd5b600092833560e01c91826328eac12314611632575081632e6155c7146116025781633540c919146113365781633659cfe6146110f15781633e12170f14610ea15781634d6f382414610e335781634ec81af114610bf75781634f1ef2861461095f578163523bc7d51461094057816352d1902d1461087d5781635c0a1bf81461085f5781637cff250d14610840578163819f8f111461080a5781639a05d060146107c95781639e96a2601461054f578163a26c161314610530578163a3ad309a146104ef578163ac9650d814610344578163b1b0db1314610303578163b99c5a14146102c2578163bec03dd114610281578163c76659a11461024f578163de6c7fd214610208578163f1dfa86714610163575063f5887cdd1461013857600080fd5b3461015f578160031936011261015f5760c95490516001600160a01b039091168152602090f35b5080fd5b83833461015f57606036600319011261015f5761017e61164e565b6001600160a01b031680835260d160209081528284206024358086529082528385205492855260cf8252838520908552905281832054909262278d0060443581810293929181159185041417156101f557602085856101dd8686611a8c565b918083116101ed575b5051908152f35b9150836101e6565b634e487b7160e01b815260118652602490fd5b50503461015f578060031936011261015f5760209160ff9082906001600160a01b0361023261164e565b16815260ce85528181206024358252855220541690519015158152f35b50503461015f578060031936011261015f5760209061027861026f61164e565b60243590611bc2565b90519015158152f35b50503461015f578060031936011261015f5760209181906001600160a01b036102a861164e565b16815260d284528181206024358252845220549051908152f35b50503461015f578060031936011261015f5760209181906001600160a01b036102e961164e565b16815260d384528181206024358252845220549051908152f35b50503461015f578060031936011261015f5760209181906001600160a01b0361032a61164e565b16815260cf84528181206024358252845220549051908152f35b83833461015f57602090816003193601126104eb5783359167ffffffffffffffff948584116104e757366023850112156104e75783810135938685116104e3576024916005973684888b1b850101116104df576103a687939798969598611a21565b966103b3865198896116c2565b838852601f196103c285611a21565b01875b8181106104d0575050368190036042190190875b85811061043e57505050505050508051938080860192818752855180945283818801981b870101940192955b8287106104125785850386f35b90919293828061042e600193603f198a82030186528851611755565b9601920196019592919092610405565b86818d9c999a9c1b83010135838112156104cc57820187810135908582116104c8576044019080360382136104c85761048b9161047c913691611700565b6104846118e7565b9030611941565b610495828c611a39565b526104a0818b611a39565b5060001981146104b657600101999796996103d9565b634e487b7160e01b8b5260118552868bfd5b8c80fd5b8b80fd5b60608a82018c01528a016103c5565b8780fd5b8580fd5b8480fd5b8280fd5b50503461015f578060031936011261015f5760209181906001600160a01b0361051661164e565b16815260d184528181206024358252845220549051908152f35b50503461015f578160031936011261015f5760209060cd549051908152f35b919050346104eb5761056036611664565b61056c94929194611ab8565b6105768583611cd3565b6105808583611c6e565b61058a8583611b1b565b9080156107935760018060a01b0380941695868952602060d08152818a20898b528152818a206105bb858254611a8c565b9055878a5260d28152818a20898b528152818a206105da848254611a8c565b90558987828860c954168551928380926361d027b360e01b82525afa90811561071a579088918391610766575b508451636676fbc560e11b8152808b018781526001600160a01b038a166020820152909a929091169084908b9081906040010381845afa998a1561075c57839a610724575b50803b156104eb578451631a4ca37b60e21b81526001600160a01b038916928101928352602083018b9052336040840152918391839182908490829060600103925af1801561071a576106f2575b5050907f547e9b3e3fc8b51c03d30648b377a2b951e562fabd27fb3e91925c87859e192a9860e09897969594939282519889528801523390870152606086015260808501521660a083015260c0820152a16001805580f35b61070490999897969594939299611698565b6107165790919293949596893861069a565b8980fd5b84513d84823e3d90fd5b8480929b508194503d8311610755575b61073e81836116c2565b81010312610750578b9151983861064c565b600080fd5b503d610734565b85513d85823e3d90fd5b6107869150843d861161078c575b61077e81836116c2565b810190611a99565b38610607565b503d610774565b855162461bcd60e51b8152602081870152601060248201526f6e6f742068617320726577617264732160801b6044820152606490fd5b50503461015f578060031936011261015f5760209181906001600160a01b036107f061164e565b16815260d084528181206024358252845220549051908152f35b82843461083d578160031936011261083d575061083161082861164e565b60243590611b1b565b82519182526020820152f35b80fd5b50503461015f578160031936011261015f5760209060cb549051908152f35b50503461015f578160031936011261015f576020905162278d008152f35b9050823461083d578060031936011261083d57507f00000000000000000000000000000000000000000000000000000000000000006001600160a01b031630036108d85760208251600080516020611d758339815191528152f35b6020608492519162461bcd60e51b8352820152603860248201527f555550535570677261646561626c653a206d757374206e6f742062652063616c60448201527f6c6564207468726f7567682064656c656761746563616c6c00000000000000006064820152fd5b50503461015f578160031936011261015f5760209060ca549051908152f35b9050816003193601126104eb5761097461164e565b9160243567ffffffffffffffff81116104e7576109949036908401611737565b6001600160a01b037f000000000000000000000000000000000000000000000000000000000000000081169291906109ce30851415611795565b6109eb600080516020611d758339815191529482865416146117f6565b868160c95416803b1561015f5781602491865192838092630ceb3b9b60e21b8252338c8301525afa8015610bed57610bd5575b50507f4910fdfa16fed3260ed0e7147f7cc6da11a60208b5b9406d12a635614ffd91435460ff1615610a5b575050505050610a5890611857565b80f35b82516352d1902d60e01b815290861696949560209593949091868189818c5afa60009181610ba6575b50610ae357855162461bcd60e51b8152808901889052602e60248201527f45524331393637557067726164653a206e657720696d706c656d656e7461746960448201526d6f6e206973206e6f74205555505360901b6064820152608490fd5b979491959296939703610b5357505050610afc82611857565b7fbc7cd75a20ee27fd9adebab32041f755214dbc6bffa90cc0225b39da2e5c2d3b600080a2815115801590610b4b575b610b3557505080f35b610b4791610b416118e7565b91611941565b5080f35b506001610b2c565b5162461bcd60e51b815291820152602960248201527f45524331393637557067726164653a20756e737570706f727465642070726f786044820152681a58589b195555525160ba1b606482015260849150fd5b90918882813d8311610bce575b610bbd81836116c2565b8101031261083d5750519038610a84565b503d610bb3565b610bde90611698565b610be9578638610a1e565b8680fd5b85513d84823e3d90fd5b9050346104eb5760803660031901126104eb57610c1261164e565b9060248035916044359286549460ff8660081c161595868097610e26575b8015610e0f575b15610db65760ff198116600117895586610da5575b508115610d63578415610d21576001600160a01b03168015610cef576bffffffffffffffffffffffff60a01b60c954161760c95560ca558260cb5560643560cc55600c8302928304600c03610cde57505060cd55610ca8575080f35b60207f7f26b83ff96e1f2b6a682f133852f6798a09c465da95921460cefb38474024989161ff001984541684555160018152a180f35b634e487b7160e01b86526011905284fd5b865162461bcd60e51b8152602081850152600d818601526c5f61646472657373426f6f6b2160981b6044820152606490fd5b865162461bcd60e51b8152602081850152601a818601527f5f6c6f636b5965617273202063616e6e6f74206265207a65726f0000000000006044820152606490fd5b865162461bcd60e51b8152602081850152601c818601527f5f7265776172647352617465202063616e6e6f74206265207a65726f000000006044820152606490fd5b61ffff191661010117885538610c4c565b875162461bcd60e51b8152602081860152602e818701527f496e697469616c697a61626c653a20636f6e747261637420697320616c72656160448201526d191e481a5b9a5d1a585b1a5e995960921b6064820152608490fd5b50303b158015610c375750600160ff821614610c37565b50600160ff821610610c30565b82843461083d578060031936011261083d575080519080820182811067ffffffffffffffff821117610e8c57610e889350815260038252620ccd2f60eb1b602083015251918291602083526020830190611755565b0390f35b604184634e487b7160e01b6000525260246000fd5b9050346104eb5760603660031901126104eb57610ebc61164e565b906024359060443567ffffffffffffffff81116104e357610ee09036908301611737565b5060c9546001600160a01b03939084169086823b1561083d5780602493885194858092634006035160e11b825233898301525afa9283156110e55786936110cc575b5050169283865260209160ce83528587208488528352858720600160ff1982541617905584875260cf83528587208488528352428688205560cb5462278d009080820291820481036110b9576301da9c000290808204600c14901517156110a657610f8d9042611a8c565b9385885260d184528688208189528452848789205586519363501ad8ff60e11b8552808584818a5afa94851561106d578995611077575b5086895260d38152878920828a52815284888a2055818851936331a9108f60e11b855284015280836024818a5afa92831561106d57917f99c2e66699da715af329bef2570b67ac1cc40e8c412acc8dfab52ec0cff9581e98939160c098979695938b9361104e575b5084519788528701521690840152606083015242608083015260a0820152a180f35b816110669294503d851161078c5761077e81836116c2565b913861102c565b88513d8b823e3d90fd5b9080955081813d831161109f575b61108f81836116c2565b8101031261075057519338610fc4565b503d611085565b634e487b7160e01b885260118252602488fd5b634e487b7160e01b895260118352602489fd5b6110d891929350611698565b6104e35783908638610f22565b508651903d90823e3d90fd5b8391503461015f57602090816003193601126104eb5761110f61164e565b6001600160a01b037f00000000000000000000000000000000000000000000000000000000000000008116959193919061114b30881415611795565b611168600080516020611d758339815191529782895416146117f6565b8060c95416803b15610be95786602491845192838092630ceb3b9b60e21b8252338a8301525afa801561132c57908791611318575b505081519083820182811067ffffffffffffffff8211176113035783528682527f4910fdfa16fed3260ed0e7147f7cc6da11a60208b5b9406d12a635614ffd91435460ff16156111f7575050505050610a58919250611857565b85919294969395169684516352d1902d60e01b8152868189818c5afa600091816112d4575b5061127b57855162461bcd60e51b8152808901889052602e60248201527f45524331393637557067726164653a206e657720696d706c656d656e7461746960448201526d6f6e206973206e6f74205555505360901b6064820152608490fd5b979491959296939703610b535750505061129482611857565b7fbc7cd75a20ee27fd9adebab32041f755214dbc6bffa90cc0225b39da2e5c2d3b600080a28151158015906112cc57610b3557505080f35b506000610b2c565b90918882813d83116112fc575b6112eb81836116c2565b8101031261083d575051908a61121c565b503d6112e1565b604186634e487b7160e01b6000525260246000fd5b61132190611698565b6104e357858861119d565b83513d89823e3d90fd5b9050346104eb5761134636611664565b611351949194611ab8565b61135b8584611cd3565b6113658584611c6e565b61136f8584611bc2565b156115d15760c95482516361d027b360e01b81526001600160a01b03939091602090819084908990829089165afa9283156115c75789936115a8575b50846113b78988611c19565b8351636676fbc560e11b81528981018281526001600160a01b038816602082015295909216989197909483908990819060400103818c5afa97881561159e578b9861156f575b50871561153e57861697888b5260d28352838b208a8c528352838b20611424868254611a8c565b9055883b1561153a578351630852cd8d60e31b81528281018b90528b81602481838e5af180156115305761151b575b5090818b923b156104eb578451631a4ca37b60e21b81526001600160a01b038816928101928352602083018a9052336040840152918391839182908490829060600103925af1801561071a576114f5575b50947f5d431a60d05c2d376ada5a88a66968da29820db1acf8a7ce7b3086c7cc3191cf9460c094848b8a958c97519788528701523390860152606085015216608083015260a0820152a16001805580f35b611506909897969594939298611698565b6115175790919293949588386114a4565b8880fd5b611528909b91929b611698565b999038611453565b85513d8e823e3d90fd5b8a80fd5b50915162461bcd60e51b815291820152600c60248201526b7a65726f20616d6f756e742160a01b6044820152606490fd5b9097508281813d8311611597575b61158781836116c2565b8101031261153a575196386113fd565b503d61157d565b84513d8d823e3d90fd5b816115c09294503d851161078c5761077e81836116c2565b91386113ab565b82513d8b823e3d90fd5b815162461bcd60e51b8152602081860152600b60248201526a63616e27742073656c6c2160a81b6044820152606490fd5b50503461015f578060031936011261015f5760209061162b61162261164e565b60243590611c19565b9051908152f35b84903461015f578160031936011261015f5760209060cc548152f35b600435906001600160a01b038216820361075057565b6060906003190112610750576001600160a01b03600435818116810361075057916024359160443590811681036107505790565b67ffffffffffffffff81116116ac57604052565b634e487b7160e01b600052604160045260246000fd5b90601f8019910116810190811067ffffffffffffffff8211176116ac57604052565b67ffffffffffffffff81116116ac57601f01601f191660200190565b92919261170c826116e4565b9161171a60405193846116c2565b829481845281830111610750578281602093846000960137010152565b9080601f830112156107505781602061175293359101611700565b90565b919082519283825260005b848110611781575050826000602080949584010152601f8019910116010190565b602081830181015184830182015201611760565b1561179c57565b60405162461bcd60e51b815260206004820152602c60248201527f46756e6374696f6e206d7573742062652063616c6c6564207468726f7567682060448201526b19195b1959d85d1958d85b1b60a21b6064820152608490fd5b156117fd57565b60405162461bcd60e51b815260206004820152602c60248201527f46756e6374696f6e206d7573742062652063616c6c6564207468726f7567682060448201526b6163746976652070726f787960a01b6064820152608490fd5b803b1561188c57600080516020611d7583398151915280546001600160a01b0319166001600160a01b03909216919091179055565b60405162461bcd60e51b815260206004820152602d60248201527f455243313936373a206e657720696d706c656d656e746174696f6e206973206e60448201526c1bdd08184818dbdb9d1c9858dd609a1b6064820152608490fd5b604051906060820182811067ffffffffffffffff8211176116ac5760405260278252660819985a5b195960ca1b6040837f416464726573733a206c6f772d6c6576656c2064656c65676174652063616c6c60208201520152565b6000806117529493602081519101845af43d15611980573d91611963836116e4565b9261197160405194856116c2565b83523d6000602085013e611984565b6060915b919290156119e65750815115611998575090565b3b156119a15790565b60405162461bcd60e51b815260206004820152601d60248201527f416464726573733a2063616c6c20746f206e6f6e2d636f6e74726163740000006044820152606490fd5b8251909150156119f95750805190602001fd5b60405162461bcd60e51b815260206004820152908190611a1d906024830190611755565b0390fd5b67ffffffffffffffff81116116ac5760051b60200190565b8051821015611a4d5760209160051b010190565b634e487b7160e01b600052603260045260246000fd5b81810292918115918404141715611a7657565b634e487b7160e01b600052601160045260246000fd5b91908201809211611a7657565b9081602091031261075057516001600160a01b03811681036107505790565b600260015414611ac9576002600155565b60405162461bcd60e51b815260206004820152601f60248201527f5265656e7472616e637947756172643a207265656e7472616e742063616c6c006044820152606490fd5b91908203918211611a7657565b600c611bb5611bac611ba56127109460018060a01b03169560009087825260209160cf8352604091828220818352845282822054938a835260d08152838320828452815262278d00611b8e85852054968d865260d184528686208587528452868620544290808211611bba575b50611b0e565b049a835260d3815283832091835252205496611b0e565b9485611a63565b60ca5490611a63565b040491565b905038611b88565b6001600160a01b0316600081815260d16020908152604080832085845290915281205442101592909183611bf7575b50505090565b60409350825260d0602052828220908252602052205460cd5414388080611bf1565b60018060a01b031660005260d3602052604060002090600052602052604060002054612710611c56611c4d60cb5484611a63565b60cc5490611a63565b04818111611c675761175291611b0e565b5050600090565b60018060a01b031660005260ce60205260406000209060005260205260ff6040600020541615611c9a57565b60405162461bcd60e51b815260206004820152601160248201527037b7363c9039ba30b5b2b2103a37b5b2b760791b6044820152606490fd5b90604051906331a9108f60e11b8252600482015260208160248160018060a01b038096165afa908115611d6857600091611d4a575b50163303611d1257565b60405162461bcd60e51b815260206004820152601060248201526f6f6e6c79206974656d206f776e65722160801b6044820152606490fd5b611d62915060203d811161078c5761077e81836116c2565b38611d08565b6040513d6000823e3d90fdfe360894a13ba1a3210667c828492db98dca3e2076cc3735a920a3ca505d382bbca2646970667358221220a08298d62842d379cbfcb4ebbfbe5ba9f9a4cd9738911de2d49a6c700123062764736f6c63430008120033",
  "devdoc": {
    "events": {
      "AdminChanged(address,address)": {
        "details": "Emitted when the admin account has changed."
      },
      "BeaconUpgraded(address)": {
        "details": "Emitted when the beacon is changed."
      },
      "Initialized(uint8)": {
        "details": "Triggered when the contract has been initialized or reinitialized."
      },
      "Upgraded(address)": {
        "details": "Emitted when the implementation is upgraded."
      }
    },
    "kind": "dev",
    "methods": {
      "estimateSell(address,uint256)": {
        "details": "May return zero in collections where the cost of equipment is not returned"
      },
      "multicall(bytes[])": {
        "custom:oz-upgrades-unsafe-allow-reachable": "delegatecall",
        "details": "Receives and executes a batch of function calls on this contract."
      },
      "proxiableUUID()": {
        "details": "Implementation of the ERC1822 {proxiableUUID} function. This returns the storage slot used by the implementation. It is used to validate the implementation's compatibility when performing an upgrade. IMPORTANT: A proxy pointing at a proxiable contract should not be considered proxiable itself, because this risks bricking a proxy that upgrades to it, by delegating to itself until out of gas. Thus it is critical that this function revert if invoked through a proxy. This is guaranteed by the `notDelegated` modifier."
      },
      "upgradeTo(address)": {
        "custom:oz-upgrades-unsafe-allow-reachable": "delegatecall",
        "details": "Upgrade the implementation of the proxy to `newImplementation`. Calls {_authorizeUpgrade}. Emits an {Upgraded} event."
      },
      "upgradeToAndCall(address,bytes)": {
        "custom:oz-upgrades-unsafe-allow-reachable": "delegatecall",
        "details": "Upgrade the implementation of the proxy to `newImplementation`, and subsequently execute the function call encoded in `data`. Calls {_authorizeUpgrade}. Emits an {Upgraded} event."
      }
    },
    "version": 1
  },
  "userdoc": {
    "kind": "user",
    "methods": {},
    "version": 1
  },
  "storageLayout": {
    "storage": [
      {
        "astId": 371,
        "contract": "contracts/core/stakings/FixStakingStrategy.sol:FixStakingStrategy",
        "label": "_initialized",
        "offset": 0,
        "slot": "0",
        "type": "t_uint8"
      },
      {
        "astId": 374,
        "contract": "contracts/core/stakings/FixStakingStrategy.sol:FixStakingStrategy",
        "label": "_initializing",
        "offset": 1,
        "slot": "0",
        "type": "t_bool"
      },
      {
        "astId": 683,
        "contract": "contracts/core/stakings/FixStakingStrategy.sol:FixStakingStrategy",
        "label": "_status",
        "offset": 0,
        "slot": "1",
        "type": "t_uint256"
      },
      {
        "astId": 752,
        "contract": "contracts/core/stakings/FixStakingStrategy.sol:FixStakingStrategy",
        "label": "__gap",
        "offset": 0,
        "slot": "2",
        "type": "t_array(t_uint256)49_storage"
      },
      {
        "astId": 353,
        "contract": "contracts/core/stakings/FixStakingStrategy.sol:FixStakingStrategy",
        "label": "__gap",
        "offset": 0,
        "slot": "51",
        "type": "t_array(t_uint256)50_storage"
      },
      {
        "astId": 668,
        "contract": "contracts/core/stakings/FixStakingStrategy.sol:FixStakingStrategy",
        "label": "__gap",
        "offset": 0,
        "slot": "101",
        "type": "t_array(t_uint256)50_storage"
      },
      {
        "astId": 2717,
        "contract": "contracts/core/stakings/FixStakingStrategy.sol:FixStakingStrategy",
        "label": "__gap",
        "offset": 0,
        "slot": "151",
        "type": "t_array(t_uint256)50_storage"
      },
      {
        "astId": 6065,
        "contract": "contracts/core/stakings/FixStakingStrategy.sol:FixStakingStrategy",
        "label": "addressBook",
        "offset": 0,
        "slot": "201",
        "type": "t_address"
      },
      {
        "astId": 6067,
        "contract": "contracts/core/stakings/FixStakingStrategy.sol:FixStakingStrategy",
        "label": "rewardsRate",
        "offset": 0,
        "slot": "202",
        "type": "t_uint256"
      },
      {
        "astId": 6069,
        "contract": "contracts/core/stakings/FixStakingStrategy.sol:FixStakingStrategy",
        "label": "lockYears",
        "offset": 0,
        "slot": "203",
        "type": "t_uint256"
      },
      {
        "astId": 6071,
        "contract": "contracts/core/stakings/FixStakingStrategy.sol:FixStakingStrategy",
        "label": "yearDeprecationRate",
        "offset": 0,
        "slot": "204",
        "type": "t_uint256"
      },
      {
        "astId": 6073,
        "contract": "contracts/core/stakings/FixStakingStrategy.sol:FixStakingStrategy",
        "label": "maxPeriodsCount",
        "offset": 0,
        "slot": "205",
        "type": "t_uint256"
      },
      {
        "astId": 6079,
        "contract": "contracts/core/stakings/FixStakingStrategy.sol:FixStakingStrategy",
        "label": "isStakedToken",
        "offset": 0,
        "slot": "206",
        "type": "t_mapping(t_address,t_mapping(t_uint256,t_bool))"
      },
      {
        "astId": 6085,
        "contract": "contracts/core/stakings/FixStakingStrategy.sol:FixStakingStrategy",
        "label": "initialTimestamp",
        "offset": 0,
        "slot": "207",
        "type": "t_mapping(t_address,t_mapping(t_uint256,t_uint256))"
      },
      {
        "astId": 6091,
        "contract": "contracts/core/stakings/FixStakingStrategy.sol:FixStakingStrategy",
        "label": "claimedPeriodsCount",
        "offset": 0,
        "slot": "208",
        "type": "t_mapping(t_address,t_mapping(t_uint256,t_uint256))"
      },
      {
        "astId": 6097,
        "contract": "contracts/core/stakings/FixStakingStrategy.sol:FixStakingStrategy",
        "label": "finalTimestamp",
        "offset": 0,
        "slot": "209",
        "type": "t_mapping(t_address,t_mapping(t_uint256,t_uint256))"
      },
      {
        "astId": 6103,
        "contract": "contracts/core/stakings/FixStakingStrategy.sol:FixStakingStrategy",
        "label": "totalWithdrawn",
        "offset": 0,
        "slot": "210",
        "type": "t_mapping(t_address,t_mapping(t_uint256,t_uint256))"
      },
      {
        "astId": 6109,
        "contract": "contracts/core/stakings/FixStakingStrategy.sol:FixStakingStrategy",
        "label": "itemsPrice",
        "offset": 0,
        "slot": "211",
        "type": "t_mapping(t_address,t_mapping(t_uint256,t_uint256))"
      }
    ],
    "types": {
      "t_address": {
        "encoding": "inplace",
        "label": "address",
        "numberOfBytes": "20"
      },
      "t_array(t_uint256)49_storage": {
        "base": "t_uint256",
        "encoding": "inplace",
        "label": "uint256[49]",
        "numberOfBytes": "1568"
      },
      "t_array(t_uint256)50_storage": {
        "base": "t_uint256",
        "encoding": "inplace",
        "label": "uint256[50]",
        "numberOfBytes": "1600"
      },
      "t_bool": {
        "encoding": "inplace",
        "label": "bool",
        "numberOfBytes": "1"
      },
      "t_mapping(t_address,t_mapping(t_uint256,t_bool))": {
        "encoding": "mapping",
        "key": "t_address",
        "label": "mapping(address => mapping(uint256 => bool))",
        "numberOfBytes": "32",
        "value": "t_mapping(t_uint256,t_bool)"
      },
      "t_mapping(t_address,t_mapping(t_uint256,t_uint256))": {
        "encoding": "mapping",
        "key": "t_address",
        "label": "mapping(address => mapping(uint256 => uint256))",
        "numberOfBytes": "32",
        "value": "t_mapping(t_uint256,t_uint256)"
      },
      "t_mapping(t_uint256,t_bool)": {
        "encoding": "mapping",
        "key": "t_uint256",
        "label": "mapping(uint256 => bool)",
        "numberOfBytes": "32",
        "value": "t_bool"
      },
      "t_mapping(t_uint256,t_uint256)": {
        "encoding": "mapping",
        "key": "t_uint256",
        "label": "mapping(uint256 => uint256)",
        "numberOfBytes": "32",
        "value": "t_uint256"
      },
      "t_uint256": {
        "encoding": "inplace",
        "label": "uint256",
        "numberOfBytes": "32"
      },
      "t_uint8": {
        "encoding": "inplace",
        "label": "uint8",
        "numberOfBytes": "1"
      }
    }
  }
}