{
  "address": "0xb39AEA2E4Bc454091D5E53c840231C2d774B5c1C",
  "abi": [
    {
      "inputs": [],
      "stateMutability": "nonpayable",
      "type": "constructor"
    },
    {
      "anonymous": false,
      "inputs": [
        {
          "indexed": false,
          "internalType": "address",
          "name": "previousAdmin",
          "type": "address"
        },
        {
          "indexed": false,
          "internalType": "address",
          "name": "newAdmin",
          "type": "address"
        }
      ],
      "name": "AdminChanged",
      "type": "event"
    },
    {
      "anonymous": false,
      "inputs": [
        {
          "indexed": true,
          "internalType": "address",
          "name": "beacon",
          "type": "address"
        }
      ],
      "name": "BeaconUpgraded",
      "type": "event"
    },
    {
      "anonymous": false,
      "inputs": [
        {
          "indexed": false,
          "internalType": "address",
          "name": "itemAddress",
          "type": "address"
        },
        {
          "indexed": false,
          "internalType": "uint256",
          "name": "itemId",
          "type": "uint256"
        },
        {
          "indexed": false,
          "internalType": "address",
          "name": "itemOwner",
          "type": "address"
        },
        {
          "indexed": false,
          "internalType": "uint256",
          "name": "rewards",
          "type": "uint256"
        },
        {
          "indexed": false,
          "internalType": "uint256",
          "name": "claimedPeriods",
          "type": "uint256"
        },
        {
          "indexed": false,
          "internalType": "address",
          "name": "withdrawToken",
          "type": "address"
        },
        {
          "indexed": false,
          "internalType": "uint256",
          "name": "withdrawTokenAmount",
          "type": "uint256"
        }
      ],
      "name": "Claim",
      "type": "event"
    },
    {
      "anonymous": false,
      "inputs": [
        {
          "indexed": false,
          "internalType": "uint8",
          "name": "version",
          "type": "uint8"
        }
      ],
      "name": "Initialized",
      "type": "event"
    },
    {
      "anonymous": false,
      "inputs": [
        {
          "indexed": false,
          "internalType": "address",
          "name": "itemAddress",
          "type": "address"
        },
        {
          "indexed": false,
          "internalType": "uint256",
          "name": "itemId",
          "type": "uint256"
        },
        {
          "indexed": false,
          "internalType": "address",
          "name": "itemOwner",
          "type": "address"
        },
        {
          "indexed": false,
          "internalType": "uint256",
          "name": "sellPrice",
          "type": "uint256"
        },
        {
          "indexed": false,
          "internalType": "address",
          "name": "withdrawToken",
          "type": "address"
        },
        {
          "indexed": false,
          "internalType": "uint256",
          "name": "withdrawTokenAmount",
          "type": "uint256"
        }
      ],
      "name": "Sell",
      "type": "event"
    },
    {
      "anonymous": false,
      "inputs": [
        {
          "indexed": false,
          "internalType": "uint256",
          "name": "year",
          "type": "uint256"
        },
        {
          "indexed": false,
          "internalType": "uint256",
          "name": "month",
          "type": "uint256"
        },
        {
          "indexed": false,
          "internalType": "uint256",
          "name": "earnings",
          "type": "uint256"
        }
      ],
      "name": "SetEarnings",
      "type": "event"
    },
    {
      "anonymous": false,
      "inputs": [
        {
          "indexed": false,
          "internalType": "address",
          "name": "itemAddress",
          "type": "address"
        },
        {
          "indexed": false,
          "internalType": "uint256",
          "name": "itemId",
          "type": "uint256"
        },
        {
          "indexed": false,
          "internalType": "address",
          "name": "itemOwner",
          "type": "address"
        },
        {
          "indexed": false,
          "internalType": "uint256",
          "name": "itemsPrice",
          "type": "uint256"
        },
        {
          "indexed": false,
          "internalType": "uint256",
          "name": "initialTimestamp",
          "type": "uint256"
        },
        {
          "indexed": false,
          "internalType": "uint256",
          "name": "startStakingTimetsmap",
          "type": "uint256"
        },
        {
          "indexed": false,
          "internalType": "uint256",
          "name": "finalTimestamp",
          "type": "uint256"
        },
        {
          "indexed": false,
          "internalType": "uint256",
          "name": "remainder",
          "type": "uint256"
        }
      ],
      "name": "Stake",
      "type": "event"
    },
    {
      "anonymous": false,
      "inputs": [
        {
          "indexed": false,
          "internalType": "uint256",
          "name": "year",
          "type": "uint256"
        },
        {
          "indexed": false,
          "internalType": "uint256",
          "name": "month",
          "type": "uint256"
        },
        {
          "indexed": false,
          "internalType": "uint256",
          "name": "deposits",
          "type": "uint256"
        }
      ],
      "name": "UpdateDeposits",
      "type": "event"
    },
    {
      "anonymous": false,
      "inputs": [
        {
          "indexed": true,
          "internalType": "address",
          "name": "implementation",
          "type": "address"
        }
      ],
      "name": "Upgraded",
      "type": "event"
    },
    {
      "inputs": [],
      "name": "addressBook",
      "outputs": [
        {
          "internalType": "address",
          "name": "",
          "type": "address"
        }
      ],
      "stateMutability": "view",
      "type": "function"
    },
    {
      "inputs": [
        {
          "internalType": "address",
          "name": "_itemAddress",
          "type": "address"
        },
        {
          "internalType": "uint256",
          "name": "_itemId",
          "type": "uint256"
        }
      ],
      "name": "canSell",
      "outputs": [
        {
          "internalType": "bool",
          "name": "",
          "type": "bool"
        }
      ],
      "stateMutability": "view",
      "type": "function"
    },
    {
      "inputs": [
        {
          "internalType": "address",
          "name": "_itemAddress",
          "type": "address"
        },
        {
          "internalType": "uint256",
          "name": "_itemId",
          "type": "uint256"
        },
        {
          "internalType": "address",
          "name": "_withdrawToken",
          "type": "address"
        },
        {
          "internalType": "uint256",
          "name": "_minWithdrawTokenAmount",
          "type": "uint256"
        }
      ],
      "name": "claim",
      "outputs": [],
      "stateMutability": "nonpayable",
      "type": "function"
    },
    {
      "inputs": [
        {
          "internalType": "address",
          "name": "_itemAddress",
          "type": "address"
        },
        {
          "internalType": "uint256",
          "name": "_itemId",
          "type": "uint256"
        },
        {
          "internalType": "uint256",
          "name": "_monthsCount",
          "type": "uint256"
        }
      ],
      "name": "claimTimestamp",
      "outputs": [
        {
          "internalType": "uint256",
          "name": "",
          "type": "uint256"
        }
      ],
      "stateMutability": "view",
      "type": "function"
    },
    {
      "inputs": [
        {
          "internalType": "address",
          "name": "item",
          "type": "address"
        },
        {
          "internalType": "uint256",
          "name": "tokenId",
          "type": "uint256"
        }
      ],
      "name": "claimedPeriodsCount",
      "outputs": [
        {
          "internalType": "uint256",
          "name": "",
          "type": "uint256"
        }
      ],
      "stateMutability": "view",
      "type": "function"
    },
    {
      "inputs": [],
      "name": "currentPeriod",
      "outputs": [
        {
          "internalType": "uint256",
          "name": "year_",
          "type": "uint256"
        },
        {
          "internalType": "uint256",
          "name": "month_",
          "type": "uint256"
        },
        {
          "internalType": "uint256",
          "name": "day_",
          "type": "uint256"
        }
      ],
      "stateMutability": "view",
      "type": "function"
    },
    {
      "inputs": [
        {
          "internalType": "uint256",
          "name": "year",
          "type": "uint256"
        },
        {
          "internalType": "uint256",
          "name": "month",
          "type": "uint256"
        }
      ],
      "name": "deposits",
      "outputs": [
        {
          "internalType": "uint256",
          "name": "deposit",
          "type": "uint256"
        }
      ],
      "stateMutability": "view",
      "type": "function"
    },
    {
      "inputs": [
        {
          "internalType": "uint256",
          "name": "year",
          "type": "uint256"
        },
        {
          "internalType": "uint256",
          "name": "month",
          "type": "uint256"
        }
      ],
      "name": "depositsToRemove",
      "outputs": [
        {
          "internalType": "uint256",
          "name": "depositToRemove",
          "type": "uint256"
        }
      ],
      "stateMutability": "view",
      "type": "function"
    },
    {
      "inputs": [
        {
          "internalType": "address",
          "name": "item",
          "type": "address"
        },
        {
          "internalType": "uint256",
          "name": "tokenId",
          "type": "uint256"
        }
      ],
      "name": "depostitsDate",
      "outputs": [
        {
          "internalType": "uint256",
          "name": "finalYear",
          "type": "uint256"
        },
        {
          "internalType": "uint256",
          "name": "finalMonth",
          "type": "uint256"
        },
        {
          "internalType": "uint256",
          "name": "prevFinalYear",
          "type": "uint256"
        },
        {
          "internalType": "uint256",
          "name": "prevFinalMonth",
          "type": "uint256"
        }
      ],
      "stateMutability": "view",
      "type": "function"
    },
    {
      "inputs": [
        {
          "internalType": "uint256",
          "name": "year",
          "type": "uint256"
        },
        {
          "internalType": "uint256",
          "name": "month",
          "type": "uint256"
        }
      ],
      "name": "earnings",
      "outputs": [
        {
          "internalType": "uint256",
          "name": "",
          "type": "uint256"
        }
      ],
      "stateMutability": "view",
      "type": "function"
    },
    {
      "inputs": [
        {
          "internalType": "address",
          "name": "_itemAddress",
          "type": "address"
        },
        {
          "internalType": "uint256",
          "name": "_itemId",
          "type": "uint256"
        }
      ],
      "name": "estimateRewards",
      "outputs": [
        {
          "internalType": "uint256",
          "name": "rewards_",
          "type": "uint256"
        },
        {
          "internalType": "uint256",
          "name": "claimedPeriods_",
          "type": "uint256"
        }
      ],
      "stateMutability": "view",
      "type": "function"
    },
    {
      "inputs": [
        {
          "internalType": "address",
          "name": "_itemAddress",
          "type": "address"
        },
        {
          "internalType": "uint256",
          "name": "_itemId",
          "type": "uint256"
        }
      ],
      "name": "estimateSell",
      "outputs": [
        {
          "internalType": "uint256",
          "name": "",
          "type": "uint256"
        }
      ],
      "stateMutability": "view",
      "type": "function"
    },
    {
      "inputs": [
        {
          "internalType": "address",
          "name": "item",
          "type": "address"
        },
        {
          "internalType": "uint256",
          "name": "tokenId",
          "type": "uint256"
        }
      ],
      "name": "finalTimestamp",
      "outputs": [
        {
          "internalType": "uint256",
          "name": "",
          "type": "uint256"
        }
      ],
      "stateMutability": "view",
      "type": "function"
    },
    {
      "inputs": [
        {
          "internalType": "address",
          "name": "_itemAddress",
          "type": "address"
        },
        {
          "internalType": "uint256",
          "name": "_itemId",
          "type": "uint256"
        }
      ],
      "name": "getAllExpiredMonths",
      "outputs": [
        {
          "internalType": "uint256",
          "name": "",
          "type": "uint256"
        }
      ],
      "stateMutability": "view",
      "type": "function"
    },
    {
      "inputs": [],
      "name": "initialMonths",
      "outputs": [
        {
          "internalType": "uint256",
          "name": "",
          "type": "uint256"
        }
      ],
      "stateMutability": "view",
      "type": "function"
    },
    {
      "inputs": [],
      "name": "initialRewardsRate",
      "outputs": [
        {
          "internalType": "uint256",
          "name": "",
          "type": "uint256"
        }
      ],
      "stateMutability": "view",
      "type": "function"
    },
    {
      "inputs": [
        {
          "internalType": "address",
          "name": "item",
          "type": "address"
        },
        {
          "internalType": "uint256",
          "name": "tokenId",
          "type": "uint256"
        }
      ],
      "name": "initialTimestamp",
      "outputs": [
        {
          "internalType": "uint256",
          "name": "",
          "type": "uint256"
        }
      ],
      "stateMutability": "view",
      "type": "function"
    },
    {
      "inputs": [
        {
          "internalType": "address",
          "name": "_addressBook",
          "type": "address"
        },
        {
          "internalType": "uint256",
          "name": "_minLockYears",
          "type": "uint256"
        },
        {
          "internalType": "uint256",
          "name": "_maxLockYears",
          "type": "uint256"
        },
        {
          "internalType": "uint256",
          "name": "_initialMonths",
          "type": "uint256"
        },
        {
          "internalType": "uint256",
          "name": "_initialRewardsRate",
          "type": "uint256"
        },
        {
          "internalType": "uint256",
          "name": "_yearDeprecationRate",
          "type": "uint256"
        }
      ],
      "name": "initialize",
      "outputs": [],
      "stateMutability": "nonpayable",
      "type": "function"
    },
    {
      "inputs": [
        {
          "internalType": "address",
          "name": "item",
          "type": "address"
        },
        {
          "internalType": "uint256",
          "name": "tokenId",
          "type": "uint256"
        }
      ],
      "name": "isStakedToken",
      "outputs": [
        {
          "internalType": "bool",
          "name": "",
          "type": "bool"
        }
      ],
      "stateMutability": "view",
      "type": "function"
    },
    {
      "inputs": [
        {
          "internalType": "address",
          "name": "item",
          "type": "address"
        },
        {
          "internalType": "uint256",
          "name": "tokenId",
          "type": "uint256"
        }
      ],
      "name": "itemsPrice",
      "outputs": [
        {
          "internalType": "uint256",
          "name": "",
          "type": "uint256"
        }
      ],
      "stateMutability": "view",
      "type": "function"
    },
    {
      "inputs": [],
      "name": "lastUpdatedEarningsMonth",
      "outputs": [
        {
          "internalType": "uint256",
          "name": "",
          "type": "uint256"
        }
      ],
      "stateMutability": "view",
      "type": "function"
    },
    {
      "inputs": [],
      "name": "lastUpdatedEarningsPeriod",
      "outputs": [
        {
          "internalType": "uint256",
          "name": "year_",
          "type": "uint256"
        },
        {
          "internalType": "uint256",
          "name": "month_",
          "type": "uint256"
        }
      ],
      "stateMutability": "view",
      "type": "function"
    },
    {
      "inputs": [],
      "name": "lastUpdatedEarningsYear",
      "outputs": [
        {
          "internalType": "uint256",
          "name": "",
          "type": "uint256"
        }
      ],
      "stateMutability": "view",
      "type": "function"
    },
    {
      "inputs": [],
      "name": "lastUpdatedTimestamp",
      "outputs": [
        {
          "internalType": "uint256",
          "name": "",
          "type": "uint256"
        }
      ],
      "stateMutability": "view",
      "type": "function"
    },
    {
      "inputs": [],
      "name": "maxLockYears",
      "outputs": [
        {
          "internalType": "uint256",
          "name": "",
          "type": "uint256"
        }
      ],
      "stateMutability": "view",
      "type": "function"
    },
    {
      "inputs": [],
      "name": "maxMonthsCount",
      "outputs": [
        {
          "internalType": "uint256",
          "name": "",
          "type": "uint256"
        }
      ],
      "stateMutability": "view",
      "type": "function"
    },
    {
      "inputs": [],
      "name": "minLockYears",
      "outputs": [
        {
          "internalType": "uint256",
          "name": "",
          "type": "uint256"
        }
      ],
      "stateMutability": "view",
      "type": "function"
    },
    {
      "inputs": [],
      "name": "minMonthsCount",
      "outputs": [
        {
          "internalType": "uint256",
          "name": "",
          "type": "uint256"
        }
      ],
      "stateMutability": "view",
      "type": "function"
    },
    {
      "inputs": [
        {
          "internalType": "bytes[]",
          "name": "data",
          "type": "bytes[]"
        }
      ],
      "name": "multicall",
      "outputs": [
        {
          "internalType": "bytes[]",
          "name": "results",
          "type": "bytes[]"
        }
      ],
      "stateMutability": "nonpayable",
      "type": "function"
    },
    {
      "inputs": [],
      "name": "proxiableUUID",
      "outputs": [
        {
          "internalType": "bytes32",
          "name": "",
          "type": "bytes32"
        }
      ],
      "stateMutability": "view",
      "type": "function"
    },
    {
      "inputs": [
        {
          "internalType": "address",
          "name": "item",
          "type": "address"
        },
        {
          "internalType": "uint256",
          "name": "tokenId",
          "type": "uint256"
        }
      ],
      "name": "remainder",
      "outputs": [
        {
          "internalType": "uint256",
          "name": "",
          "type": "uint256"
        }
      ],
      "stateMutability": "view",
      "type": "function"
    },
    {
      "inputs": [
        {
          "internalType": "address",
          "name": "_itemAddress",
          "type": "address"
        },
        {
          "internalType": "uint256",
          "name": "_itemId",
          "type": "uint256"
        },
        {
          "internalType": "address",
          "name": "_withdrawToken",
          "type": "address"
        },
        {
          "internalType": "uint256",
          "name": "_minWithdrawTokenAmount",
          "type": "uint256"
        }
      ],
      "name": "sell",
      "outputs": [],
      "stateMutability": "nonpayable",
      "type": "function"
    },
    {
      "inputs": [
        {
          "internalType": "uint256",
          "name": "_year",
          "type": "uint256"
        },
        {
          "internalType": "uint256",
          "name": "_month",
          "type": "uint256"
        },
        {
          "internalType": "uint256",
          "name": "_formatedEarning",
          "type": "uint256"
        }
      ],
      "name": "setEarnings",
      "outputs": [],
      "stateMutability": "nonpayable",
      "type": "function"
    },
    {
      "inputs": [
        {
          "internalType": "address",
          "name": "_itemAddress",
          "type": "address"
        },
        {
          "internalType": "uint256",
          "name": "_itemId",
          "type": "uint256"
        },
        {
          "internalType": "bytes",
          "name": "",
          "type": "bytes"
        }
      ],
      "name": "stake",
      "outputs": [],
      "stateMutability": "nonpayable",
      "type": "function"
    },
    {
      "inputs": [],
      "name": "stakingType",
      "outputs": [
        {
          "internalType": "string",
          "name": "",
          "type": "string"
        }
      ],
      "stateMutability": "pure",
      "type": "function"
    },
    {
      "inputs": [
        {
          "internalType": "address",
          "name": "item",
          "type": "address"
        },
        {
          "internalType": "uint256",
          "name": "tokenId",
          "type": "uint256"
        }
      ],
      "name": "startStakingTimestamp",
      "outputs": [
        {
          "internalType": "uint256",
          "name": "",
          "type": "uint256"
        }
      ],
      "stateMutability": "view",
      "type": "function"
    },
    {
      "inputs": [
        {
          "internalType": "uint256",
          "name": "_timestamp",
          "type": "uint256"
        }
      ],
      "name": "timestampPeriod",
      "outputs": [
        {
          "internalType": "uint256",
          "name": "year_",
          "type": "uint256"
        },
        {
          "internalType": "uint256",
          "name": "month_",
          "type": "uint256"
        },
        {
          "internalType": "uint256",
          "name": "day_",
          "type": "uint256"
        }
      ],
      "stateMutability": "pure",
      "type": "function"
    },
    {
      "inputs": [
        {
          "internalType": "address",
          "name": "item",
          "type": "address"
        },
        {
          "internalType": "uint256",
          "name": "tokenId",
          "type": "uint256"
        }
      ],
      "name": "totalWithdrawn",
      "outputs": [
        {
          "internalType": "uint256",
          "name": "",
          "type": "uint256"
        }
      ],
      "stateMutability": "view",
      "type": "function"
    },
    {
      "inputs": [],
      "name": "updateDeposits",
      "outputs": [],
      "stateMutability": "nonpayable",
      "type": "function"
    },
    {
      "inputs": [
        {
          "internalType": "address",
          "name": "newImplementation",
          "type": "address"
        }
      ],
      "name": "upgradeTo",
      "outputs": [],
      "stateMutability": "nonpayable",
      "type": "function"
    },
    {
      "inputs": [
        {
          "internalType": "address",
          "name": "newImplementation",
          "type": "address"
        },
        {
          "internalType": "bytes",
          "name": "data",
          "type": "bytes"
        }
      ],
      "name": "upgradeToAndCall",
      "outputs": [],
      "stateMutability": "payable",
      "type": "function"
    },
    {
      "inputs": [],
      "name": "yearDeprecationRate",
      "outputs": [
        {
          "internalType": "uint256",
          "name": "",
          "type": "uint256"
        }
      ],
      "stateMutability": "view",
      "type": "function"
    }
  ],
  "transactionHash": "0x159010f4f54555b03701961acb8f74502cf2895697dc740a2b3cb1a3a99e1f22",
  "args": [],
  "numDeployments": 1,
  "solcInputHash": "07629dd1fac3d7b611b0d2c246578a71",
  "bytecode": "0x60a080604052346100dd57306080526000549060ff8260081c1661008b575060ff80821603610050575b60405161334e9081620000e382396080518181816111ca015281816112b90152611d7b0152f35b60ff90811916176000557f7f26b83ff96e1f2b6a682f133852f6798a09c465da95921460cefb3847402498602060405160ff8152a138610029565b62461bcd60e51b815260206004820152602760248201527f496e697469616c697a61626c653a20636f6e747261637420697320696e697469604482015266616c697a696e6760c81b6064820152608490fd5b600080fdfe608060405260048036101561001357600080fd5b600090813560e01c908163060406181461204f5781631421857414612031578163254d8a121461201357816328d5708e14611ff557816328eac12314611fd75781632bd4978014611faa5781632e6155c714611f825781633659cfe614611d545781633e12170f146119355781633f315ab7146118f257816345ff4c801461158f5781634d29565e1461156a5781634d6f3824146114fe5781634f1ef2861461127a57816352d1902d146111b65781635d34893b14610f4c578163627eb0d414610afa5781636924ac9514610acd5781636c19408a146108315781636e675dbf146107ca57816373112159146107ac57816377c830ee1461077f578163819f8f111461074b5781638a9e55761461072d5781639a05d060146106ea5781639af6bdb3146106cc578163a3ad309a14610689578163ac9650d814610504578163b1b0db13146104c1578163b99c5a141461047e578163bec03dd11461043b578163c175b3d11461041f578163c76659a1146103ed578163d7dad7c3146103cf578163de6c7fd214610386578163e44be58014610356578163e544b2e21461031157508063ec78c4c3146102f3578063f1dfa8671461027b578063f23d30df14610238578063f5887cdd1461020f5763fbaf894c146101ef57600080fd5b3461020c578060031936011261020c57602060d454604051908152f35b80fd5b503461020c578060031936011261020c5760c9546040516001600160a01b039091168152602090f35b503461020c57604036600319011261020c576020906040906001600160a01b03610260612087565b16815260db8352818120602435825283522054604051908152f35b503461020c57606036600319011261020c576020906102d961029b612087565b6001600160a01b031680835260da845260408084206024358086529086528185205492855260d78652818520908552855290922054604435906131ce565b908082116102eb575b50604051908152f35b9050386102e2565b503461020c578060031936011261020c57602060cd54604051908152f35b823461020c57602036600319011261020c5761035261033562015180843504612ea6565b604080519384526020840192909252908201529081906060820190565b0390f35b823461020c57604036600319011261020c57602061037e610375612087565b60243590612779565b604051908152f35b823461020c57604036600319011261020c5760209060ff906040906001600160a01b036103b1612087565b16815260d58452818120602435825284522054166040519015158152f35b823461020c578060031936011261020c57602060df54604051908152f35b823461020c57604036600319011261020c57602061041561040c612087565b602435906129c7565b6040519015158152f35b823461020c578060031936011261020c5761043861252d565b80f35b823461020c57604036600319011261020c576020906040906001600160a01b03610463612087565b16815260dc8352818120602435825283522054604051908152f35b823461020c57604036600319011261020c576020906040906001600160a01b036104a6612087565b16815260d88352818120602435825283522054604051908152f35b823461020c57604036600319011261020c576020906040906001600160a01b036104e9612087565b16815260d68352818120602435825283522054604051908152f35b823461020c576020908160031936011261020c5782359067ffffffffffffffff93848311610685573660238401121561068557820135918483116106855760059460243685881b84018201116106815761055f85939561247a565b9461056d60405196876120e3565b838652601f1961057c8561247a565b0187865b82811061067157505050368190036042190190855b8581106105fc575050505050506040519280840190808552835180925280604083818801981b870101940192955b8287106105d05785850386f35b9091929382806105ec600193603f198a82030186528851612176565b96019201960195929190926105c3565b83818b1b830101358381121561066d5782018481013590868211610669576044019080360382136106695761063a6106649392610649923691612121565b610642612340565b903061239a565b610653828b6124b7565b5261065e818a6124b7565b50612492565b610595565b8880fd5b8780fd5b6060898201830152899101610580565b8380fd5b5080fd5b823461020c57604036600319011261020c576020906040906001600160a01b036106b1612087565b16815260da8352818120602435825283522054604051908152f35b823461020c578060031936011261020c57602060de54604051908152f35b823461020c57604036600319011261020c576020906040906001600160a01b03610712612087565b16815260d98352818120602435825283522054604051908152f35b823461020c578060031936011261020c57602060cb54604051908152f35b823461020c57604036600319011261020c57604061077361076a612087565b602435906127ba565b82519182526020820152f35b823461020c57604060209161079336612071565b90825260d2845282822090825283522054604051908152f35b823461020c578060031936011261020c57602060d054604051908152f35b823461020c57604036600319011261020c576080906040906001600160a01b036107f2612087565b16815260dd6020528181206024358252602052208054906001810154906003600282015491015491604051938452602084015260408301526060820152f35b90503461068557610841366121b6565b9193929061084d6126d7565b6108578583612af5565b6108618583612a90565b61086b85836127ba565b908015610a965760018060a01b03809416958689528860209160dc8352604082208a83528352604082206108a08582546124f4565b905588825260d98352604082208a83528352604082206108c18682546124f4565b905580838860c95416604051928380926361d027b360e01b82525afa8015610a8b5788918491610a5e575b5060408051636676fbc560e11b81528481018881526001600160a01b038b166020820152909b929093169286918c918291010381855afa998a15610a5357849a610a18575b5061093e908a101561272d565b803b15610a145760408051631a4ca37b60e21b81526001600160a01b038916938101938452602084018b90523391840191909152918391839182908490829060600103925af18015610a09576109e7575b50947f547e9b3e3fc8b51c03d30648b377a2b951e562fabd27fb3e91925c87859e192a9460e09489948b8a95604051978852870152336040870152606086015260808501521660a083015260c0820152a16001805580f35b6109f890989796959493929861209d565b61066957909192939495883861098f565b6040513d84823e3d90fd5b8280fd5b8580929b508195503d8311610a4c575b610a3281836120e3565b81010312610a475761093e8c93519990610931565b600080fd5b503d610a28565b6040513d86823e3d90fd5b610a7e9150853d8711610a84575b610a7681836120e3565b810190612501565b386108ec565b503d610a6c565b6040513d85823e3d90fd5b60405162461bcd60e51b8152602081880152601060248201526f6e6f742068617320726577617264732160801b6044820152606490fd5b823461020c576040602091610ae136612071565b90825260d1845282822090825283522054604051908152f35b823461020c57610b09366121b6565b9290610b169592956126d7565b610b208683612af5565b610b2a8683612a90565b610b3486836129c7565b15610f1a57858584610ca460409798996201518096610b54884204612ea6565b509a9098610c4c8760018060a01b039b8c86169e8f9485845260da6020528684208985526020528684205491610b8942613209565b91838311610f12575b610ba0610ba9918404612ea6565b50949093613298565b9387865260db6020528886208b8752602052888620549886898b985260dd6020528181208d825260205281812099600383519b610be58d6120c7565b80548d528c602060018301549101528c856002830154910152015460608c0152815260d86020528181208d82526020522054948015600014610ebe575050508b5260d260205260408b20908b5260205260408a20610c448382546124f4565b90555b612520565b6040820151885260d26020526040882060608301518952602052610c7560408920918254612520565b90558051875260d26020526020604088209101518752602052610c9d60408720918254612520565b9055612a13565b9787835260dc6020526040832084845260205260408320610cc68a82546124f4565b905560208660c95416604051988980926361d027b360e01b82525afa968715610a8b57610d2c9787918591610e9f575b5016906020868b6040519a8b928392636676fbc560e11b84528884019092916020906040830194835260018060a01b0316910152565b0381855afa978815610a53578498610e65575b50610d4c9088101561272d565b873b15610a1457604051630852cd8d60e31b81528281018590528381602481838d5af1908115610a53578491610e51575b505088610dd8575b827f5d431a60d05c2d376ada5a88a66968da29820db1acf8a7ce7b3086c7cc3191cf60c08a8a8a8a8f8b6040519586526020860152336040860152606085015216608083015260a0820152a16001805580f35b803b15610a145760408051631a4ca37b60e21b81526001600160a01b038716938101938452602084018990523391840191909152918391839182908490829060600103925af18015610a0957610e2f575b80610d85565b610e3e9096959493929661209d565b610e4d57909192938688610e29565b8680fd5b610e5a9061209d565b610a1457828b610d7d565b935096506020833d602011610e97575b81610e82602093836120e3565b81010312610a4757610d4c8a93519790610d3f565b3d9150610e75565b610eb8915060203d602011610a8457610a7681836120e3565b8c610cf6565b9193509150600103610ef257505083518a5260d260205260408a2060208501518b5260205260408a20610c448282546124f4565b8b5260d260205260408b20908b5260205260408a20610c448282546124f4565b839250610b92565b60405162461bcd60e51b8152602081850152600b60248201526a63616e27742073656c6c2160a81b6044820152606490fd5b823461020c57606036600319011261020c5760c954602435908335906001600160a01b039081169060443590823b156111b257604051630ceb3b9b60e21b815233888201528681602481875afa80156110f65790879161119e575b5050811561115a57610fb98585612b96565b60d454106111015760405180936361d027b360e01b8252818960209687935afa9081156110f65790849188916110d9575b508860405180948193632f6ee69560e01b8352165afa9081156110ce5786916110a1575b50604d811161108e579161104c611088927fe3bbfa79647df19774fdc8af2dbe30c95db0f1d2bb02678af401cc570495b14a969594600a0a906124e1565b9083875260d181526040872090858852528060408720558260de558360df55604051938493846040919493926060820195825260208201520152565b0390a180f35b634e487b7160e01b865260118752602486fd5b90508281813d83116110c7575b6110b881836120e3565b81010312610a4757518761100e565b503d6110ae565b6040513d88823e3d90fd5b6110f09150823d8411610a8457610a7681836120e3565b89610fea565b6040513d89823e3d90fd5b60405162461bcd60e51b8152602081890152602c60248201527f63616e6e6f7420736574206561726e696e677320666f7220616e20756e65787060448201526b6972656420706572696f642160a01b6064820152608490fd5b60405162461bcd60e51b8152602081890152601860248201527f6561726e696e67732063616e6e6f74206265207a65726f2100000000000000006044820152606490fd5b6111a79061209d565b6111b2578588610fa7565b8580fd5b823461020c578060031936011261020c57507f00000000000000000000000000000000000000000000000000000000000000006001600160a01b031630036112105760206040516000805160206132f98339815191528152f35b60849060206040519162461bcd60e51b8352820152603860248201527f555550535570677261646561626c653a206d757374206e6f742062652063616c60448201527f6c6564207468726f7567682064656c656761746563616c6c00000000000000006064820152fd5b9050604036600319011261068557611290612087565b60243567ffffffffffffffff8111610681576112af9036908401612158565b6001600160a01b037f0000000000000000000000000000000000000000000000000000000000000000811691906112e8308414156121ee565b6113056000805160206132f983398151915293828554161461224f565b858160c95416803b15610685578160249160405192838092630ceb3b9b60e21b8252338c8301525afa8015610a09576114ea575b50507f4910fdfa16fed3260ed0e7147f7cc6da11a60208b5b9406d12a635614ffd91435460ff16156113725750505061043891506122b0565b6040516352d1902d60e01b81526020949293918316919085818881865afa600091816114bb575b506113f95760405162461bcd60e51b8152808801879052602e60248201527f45524331393637557067726164653a206e657720696d706c656d656e7461746960448201526d6f6e206973206e6f74205555505360901b6064820152608490fd5b9592949193950361146657505061140f826122b0565b7fbc7cd75a20ee27fd9adebab32041f755214dbc6bffa90cc0225b39da2e5c2d3b600080a281511580159061145e575b61144857505080f35b61145a91611454612340565b9161239a565b5080f35b50600161143f565b60405162461bcd60e51b815291820152602960248201527f45524331393637557067726164653a20756e737570706f727465642070726f786044820152681a58589b195555525160ba1b606482015260849150fd5b90918782813d83116114e3575b6114d281836120e3565b8101031261020c5750519038611399565b503d6114c8565b6114f39061209d565b6111b2578538611339565b823461020c578060031936011261020c57506040516040810181811067ffffffffffffffff8211176115555791610352926040528152630ccd8caf60e31b6020820152604051918291602083526020830190612176565b604183634e487b7160e01b6000525260246000fd5b823461020c578060031936011261020c57604060de5460df5482519182526020820152f35b9050346106855760c0366003190112610685576115aa612087565b90602480359160448035906064908135906084359289549860ff8a60081c1615998a809b6118e5575b80156118ce575b156118765760ff1981166001178c558a611865575b50881561182557888611156117ca57831561178a57841561173e576001600160a01b031691821561170e5750506bffffffffffffffffffffffff60a01b60c954161760c9558560ca558260cb5560cc5560cd5560a43560ce5561165e6201518061165842613209565b04612ea6565b509061166a8282612b96565b60d45560de5560df5580600c0290600c8204036116fc57600181018091116116fc5760d05582600c0292600c8404036116eb57600183018093116116eb57505060cf556116b45780f35b61ff001981541681557f7f26b83ff96e1f2b6a682f133852f6798a09c465da95921460cefb3847402498602060405160018152a180f35b634e487b7160e01b85526011905283fd5b50634e487b7160e01b85526011905283fd5b6c5f61646472657373426f6f6b2160981b8791600d8a60206040519562461bcd60e51b8752860152840152820152fd5b60405162461bcd60e51b81526020818901526022818a01527f5f696e697469616c52657761726473526174652063616e6e6f74206265207a658185015261726f60f01b81840152608490fd5b5060405162461bcd60e51b8152602081880152601d818901527f5f696e697469616c4d6f6e7468732063616e6e6f74206265207a65726f00000081840152fd5b60405162461bcd60e51b81526020818901526031818a01527f5f6d61784c6f636b5965617273206d75737420626520677265617465722074688185015270616e205f6d696e4c6f636b59656172732160781b81840152608490fd5b5060405162461bcd60e51b8152602081880152601c818901527f5f6d696e4c6f636b59656172732063616e6e6f74206265207a65726f0000000081840152fd5b61ffff1916610101178b55386115ef565b60405162461bcd60e51b81526020818a0152602e818b01527f496e697469616c697a61626c653a20636f6e747261637420697320616c726561818601526d191e481a5b9a5d1a585b1a5e995960921b81850152608490fd5b50303b1580156115da5750600160ff8216146115da565b50600160ff8216106115d3565b823461020c57604036600319011261020c576020906040906001600160a01b0361191a612087565b16815260d78352818120602435825283522054604051908152f35b90503461068557606036600319011261068557611950612087565b906024359160443567ffffffffffffffff8111611d43576119749036908401612158565b5061197d6126d7565b60c9546001600160a01b03919082169085823b1561020c578060249360405194858092634006035160e11b8252338a8301525afa928315611d47578493611d2a575b5050169081855260209360d5855260408620818752855260408620600160ff1982541617905582865260d68552604086208187528552426040872055611a156201518092611a0e844204612ea6565b9391612b96565b9285895260d7885260408920818a5288528360408a20556040519263501ad8ff60e11b8452888489818a5afa938415611cdd578a94611cfb575b50868a5260d8895260408a20828b5289528360408b2055611a7b611a74878704612ea6565b5090613088565b670de0b6b3a7640000918083029083820403611ce85760018201809211611ce85791611aae86959493928d9897936126b7565b611ab890836124e1565b049688875260db8b52604087208388528b528760408820558a888a60d054611ae0908a6131ce565b998a9382825260da815260408220888352815284604083205560cc54611b06908c6131ce565b86611b12818304612ea6565b50919092611b1f90613149565b04611b2990612ea6565b5092909189611b378a613209565b04611b4190612ea6565b509a909904611b4f90612ea6565b5098611b5b919c612520565b91865260d385526040862090865284526040852090815490611b7c916124f4565b9055835260d38252604083209083528152604082208d815490611b9e916124f4565b9055611baa8d8b612520565b85835260d282526040832087845282526040832090815490611bcb916124f4565b905586825260d28152604082208483528152604082208d815490611bee916124f4565b905560405196611bfd886120c7565b8752860192835260408601938452606086019485525260dd8d528d8d604082209087835252604090209351845551600184015551600283015551906003015580604051986331a9108f60e11b8a52890152888888815a91602492fa908115611cdd577f4f3aeb95ef90e269e25a364ec94a5a917cebe0799f3ebb164c9d8a40db32511a99610100998c93611cbe575b50604051988952880152166040860152606085015242608085015260a084015260c083015260e0820152a16001805580f35b81611cd69294503d8511610a8457610a7681836120e3565b9138611c8c565b6040513d8c823e3d90fd5b634e487b7160e01b8c5260118a5260248cfd5b9093508881813d8311611d23575b611d1381836120e3565b81010312610a4757519238611a4f565b503d611d09565b611d369192935061209d565b611d4357819085386119bf565b8480fd5b50604051903d90823e3d90fd5b90503461068557602080600319360112610a1457611d70612087565b906001600160a01b037f00000000000000000000000000000000000000000000000000000000000000008116611da8308214156121ee565b611dc56000805160206132f983398151915291838354161461224f565b8160c9541686813b1561020c57604051630ceb3b9b60e21b8152338882015291829060249082905afa80156110f657611f6f575b506040519183830183811067ffffffffffffffff821117611f5a576040528683527f4910fdfa16fed3260ed0e7147f7cc6da11a60208b5b9406d12a635614ffd91435460ff1615611e52575050505061043891506122b0565b8492939416906040516352d1902d60e01b815285818881865afa60009181611f2b575b50611ed55760405162461bcd60e51b8152808801879052602e60248201527f45524331393637557067726164653a206e657720696d706c656d656e7461746960448201526d6f6e206973206e6f74205555505360901b6064820152608490fd5b95929491939503611466575050611eeb826122b0565b7fbc7cd75a20ee27fd9adebab32041f755214dbc6bffa90cc0225b39da2e5c2d3b600080a2815115801590611f235761144857505080f35b50600061143f565b90918782813d8311611f53575b611f4281836120e3565b8101031261020c5750519038611e75565b503d611f38565b604187634e487b7160e01b6000525260246000fd5b611f7b9096919661209d565b9438611df9565b823461020c57604036600319011261020c57602061037e611fa1612087565b60243590612a13565b823461020c576040602091611fbe36612071565b90825260d3845282822090825283522054604051908152f35b823461020c578060031936011261020c57602060ce54604051908152f35b823461020c578060031936011261020c57602060cc54604051908152f35b823461020c578060031936011261020c57602060ca54604051908152f35b823461020c578060031936011261020c57602060cf54604051908152f35b823461020c578060031936011261020c57610352610335620151804204612ea6565b6040906003190112610a47576004359060243590565b600435906001600160a01b0382168203610a4757565b67ffffffffffffffff81116120b157604052565b634e487b7160e01b600052604160045260246000fd5b6080810190811067ffffffffffffffff8211176120b157604052565b90601f8019910116810190811067ffffffffffffffff8211176120b157604052565b67ffffffffffffffff81116120b157601f01601f191660200190565b92919261212d82612105565b9161213b60405193846120e3565b829481845281830111610a47578281602093846000960137010152565b9080601f83011215610a475781602061217393359101612121565b90565b919082519283825260005b8481106121a2575050826000602080949584010152601f8019910116010190565b602081830181015184830182015201612181565b6080906003190112610a47576001600160a01b036004358181168103610a475791602435916044359081168103610a47579060643590565b156121f557565b60405162461bcd60e51b815260206004820152602c60248201527f46756e6374696f6e206d7573742062652063616c6c6564207468726f7567682060448201526b19195b1959d85d1958d85b1b60a21b6064820152608490fd5b1561225657565b60405162461bcd60e51b815260206004820152602c60248201527f46756e6374696f6e206d7573742062652063616c6c6564207468726f7567682060448201526b6163746976652070726f787960a01b6064820152608490fd5b803b156122e5576000805160206132f983398151915280546001600160a01b0319166001600160a01b03909216919091179055565b60405162461bcd60e51b815260206004820152602d60248201527f455243313936373a206e657720696d706c656d656e746174696f6e206973206e60448201526c1bdd08184818dbdb9d1c9858dd609a1b6064820152608490fd5b604051906060820182811067ffffffffffffffff8211176120b15760405260278252660819985a5b195960ca1b6040837f416464726573733a206c6f772d6c6576656c2064656c65676174652063616c6c60208201520152565b6000806121739493602081519101845af43d156123d9573d916123bc83612105565b926123ca60405194856120e3565b83523d6000602085013e6123dd565b6060915b9192901561243f57508151156123f1575090565b3b156123fa5790565b60405162461bcd60e51b815260206004820152601d60248201527f416464726573733a2063616c6c20746f206e6f6e2d636f6e74726163740000006044820152606490fd5b8251909150156124525750805190602001fd5b60405162461bcd60e51b815260206004820152908190612476906024830190612176565b0390fd5b67ffffffffffffffff81116120b15760051b60200190565b60001981146124a15760010190565b634e487b7160e01b600052601160045260246000fd5b80518210156124cb5760209160051b010190565b634e487b7160e01b600052603260045260246000fd5b818102929181159184041417156124a157565b919082018092116124a157565b90816020910312610a4757516001600160a01b0381168103610a475790565b919082039182116124a157565b60c9546001600160a01b03166000813b1561020c57602481604093845192838092630ceb3b9b60e21b82523360048301525afa80156126ad5761269e575b5060d4549161257a4284613298565b91821561268457600019830192831161268a57821561268457805b8381106125a5575050505060d455565b61267f907fb2f0ca0b2a366734800f5e4bf2608f0b4677deb5fbed86b6d191b22c57196bfb61262f6125eb976126776125f4886126486125fc620151809d8e8704612ea6565b50949096613149565b9d8e04612ea6565b50818c5260d36020818152948d20828e5285528d8d2054978d528085528d8d20958d529484528c8c2054909791966124f4565b858b5260d283528b8b20878c5283528b8b205490612520565b91848a52815289892090858a525280898920558851938493846040919493926060820195825260208201520152565b0390a1612492565b612595565b50505050565b634e487b7160e01b81526011600452602490fd5b6126a79061209d565b3861256b565b83513d84823e3d90fd5b81156126c1570490565b634e487b7160e01b600052601260045260246000fd5b6002600154146126e8576002600155565b60405162461bcd60e51b815260206004820152601f60248201527f5265656e7472616e637947756172643a207265656e7472616e742063616c6c006044820152606490fd5b1561273457565b60405162461bcd60e51b815260206004820152601760248201527f6d696e5769746864726177546f6b656e416d6f756e74210000000000000000006044820152606490fd5b60018060a01b031660005260d76020526040600020906000526020526040600020546127a960d054914290613298565b908082116127b5575090565b905090565b9160009260009260018060a01b038216908160005260d76020526040600020816000526020526040600020548260005260d86020526040600020826000526020526040600020548360005260d96020526040600020836000526020526040600020549360005260db6020526040600020836000526020526040600020549060d0549261284c60cc549560cd5498612779565b95965b868810612861575b5050505050505050565b909192939495969899868a1115612972575b612884620151806116588c866131ce565b508160009392935260d1602052604060002081600052602052604060002054801561294857868a8e036129135750916128f5612907946128fb936128d4612901966128cf8d8d612520565b6124e1565b9160005260d3602052604060002090600052602052604060002054906126b7565b906124f4565b9b612492565b99612492565b9695949392919061284f565b89600094929394198101116124a15761290794612901948f6128fb956128f5946128d4928f60001901036124e157508c6124e1565b50509a995050505050505050508115612969575b3880808080808080612857565b6000925061295c565b6129969082858c6129ab575061298f612710916128cf8989612520565b04906124f4565b868a1015612873579961290161290791612492565b898d146129c0575b6127109161298f916124e1565b50866129b3565b9060018060a01b03821660005260d96020526040600020816000526020526040600020549060cf5482101592836129ff575b50505090565b612a0a929350612779565b143880806129f9565b90612a1e8183612779565b9160cf548310612a885782156124a15760018060a01b031660005260d8602052604060002090600052602052612710600c612a6f612a666040600020549460001901856124e1565b60ce54906124e1565b0404818111612a815761217391612520565b5050600090565b505050600090565b60018060a01b031660005260d560205260406000209060005260205260ff6040600020541615612abc57565b60405162461bcd60e51b815260206004820152601160248201527037b7363c9039ba30b5b2b2103a37b5b2b760791b6044820152606490fd5b90604051906331a9108f60e11b8252600482015260208160248160018060a01b038096165afa908115612b8a57600091612b6c575b50163303612b3457565b60405162461bcd60e51b815260206004820152601060248201526f6f6e6c79206974656d206f776e65722160801b6044820152606490fd5b612b84915060203d8111610a8457610a7681836120e3565b38612b2a565b6040513d6000823e3d90fd5b906107b28210610a47576112c09081830191821292600092838212928315958015851690871617612d275760049586612be4612bdf600c9586612bd887612d3b565b0590612d66565b612d82565b0580617d49190190811215600116612d14576001198301838113600116612cee5784612c0f85612d3b565b059085820291808305871490151715612d015790612c2c91612d4d565b61016f9080820291820503612cee579084612c48920590612d66565b9461132480950194851290811516911617612cdb5791612c6d91612bd8606494612d3b565b0580600302906003820503612cc8579083612c89920590612d4d565b9162253d8b198301928313600116612cb5576201518092838102938185041490151715612cb557505090565b634e487b7160e01b825260119052602490fd5b634e487b7160e01b835260118452602483fd5b634e487b7160e01b855260118652602485fd5b634e487b7160e01b885260118952602488fd5b634e487b7160e01b895260118a52602489fd5b634e487b7160e01b875260118852602487fd5b634e487b7160e01b85526011600452602485fd5b90600d1982019182136001166124a157565b818103929160001380158285131691841216176124a157565b919091600083820193841291129080158216911516176124a157565b906105b591808302928305036124a157565b6107b28110610a4757617d4a1983019283136001166124a1576112c09081810191821291600093848312938415908015861690821617612e9257612de860049788612bd8612bdf600c9788612bd889612d3b565b6001198301838113600116612cee5784612e0185612d3b565b059085820291808305871490151715612d015790612e1e91612d4d565b61016f9080820291820503612cee579084612e3a920590612d66565b9461132480950194851290811516911617612cdb5791612e5f91612bd8606494612d3b565b0580600302906003820503612cc8579083612e7b920590612d4d565b9162253d8b198301928313600116612cb557505090565b634e487b7160e01b86526011600452602486fd5b62010bd99182820192831291600092838212908015821691151617613074576226496501928262253d8c85129112908015821691151617613060578260021b600493848205810361304d5762023ab1809205918281029081058303612cdb57600381019085600383129112908015821691151617612cdb579085612f2b920590612d4d565b6001810160018112858312908015821691151617612cdb57610fa09080820291820503612cdb5762164b09612f6d91059186612f6684612d82565b0590612d4d565b91601f83019285601f85129112908015821691151617612cdb57826050029260508405810361108e5761098f809405938481029081058503612d1457906050612fb7920590612d4d565b94600b84059360028101908260028312911290801582169115161761303a5784600c0290600c820586036130275790612fef91612d4d565b966030198301928313600116612cb55782606402926064840503612cb5575050613022929161301d91612d66565b612d66565b929190565b634e487b7160e01b835260118952602483fd5b634e487b7160e01b825260118852602482fd5b634e487b7160e01b845260118552602484fd5b634e487b7160e01b82526011600452602482fd5b634e487b7160e01b83526011600452602483fd5b9060018114801561313f575b8015613135575b801561312b575b8015613121575b8015613117575b801561310d575b156130c3575050601f90565b6002146130d05750601e90565b60038116159081613100575b81156130f3575b50156130ee57601d90565b601c90565b61019091500615386130e3565b60648106151591506130dc565b50600c81146130b7565b50600a81146130b0565b50600881146130a9565b50600781146130a2565b506005811461309b565b5060038114613094565b9062015180613159818404612ea6565b919082916001820182116124a157613176600c91828404906124f4565b910690600182018092116124a1576131a0936131928383613088565b8091116131c6575b50612d94565b818102908082048314901517156124a1576131bd918406906124f4565b918210610a4757565b92503861319a565b91906131ed62015180916131e3838604612ea6565b93909284936124f4565b6000198101919082116124a157613176600c91828404906124f4565b9062015180613219818404612ea6565b91908291600c810290808204600c14901517156124a157600019918083019081116124a157613247916124f4565b9081019081116124a157600c808204910690600182018092116124a157613272936131928383613088565b818102908082048314901517156124a15761328f918406906124f4565b918211610a4757565b818111610a47576132bb6132b162015180809304612ea6565b5092909304612ea6565b50600c820291808304600c14901517156124a1576132d8916124f4565b600c830292808404600c14901517156124a15761217392610c479161252056fe360894a13ba1a3210667c828492db98dca3e2076cc3735a920a3ca505d382bbca2646970667358221220a5f1925556a5962a34a0e3c120e30a20d357a4ff8c73bc1f02435e3a86f7e73d64736f6c63430008120033",
  "devdoc": {
    "events": {
      "AdminChanged(address,address)": {
        "details": "Emitted when the admin account has changed."
      },
      "BeaconUpgraded(address)": {
        "details": "Emitted when the beacon is changed."
      },
      "Initialized(uint8)": {
        "details": "Triggered when the contract has been initialized or reinitialized."
      },
      "Upgraded(address)": {
        "details": "Emitted when the implementation is upgraded."
      }
    },
    "kind": "dev",
    "methods": {
      "estimateSell(address,uint256)": {
        "details": "May return zero in collections where the cost of equipment is not returned"
      },
      "multicall(bytes[])": {
        "custom:oz-upgrades-unsafe-allow-reachable": "delegatecall",
        "details": "Receives and executes a batch of function calls on this contract."
      },
      "proxiableUUID()": {
        "details": "Implementation of the ERC1822 {proxiableUUID} function. This returns the storage slot used by the implementation. It is used to validate the implementation's compatibility when performing an upgrade. IMPORTANT: A proxy pointing at a proxiable contract should not be considered proxiable itself, because this risks bricking a proxy that upgrades to it, by delegating to itself until out of gas. Thus it is critical that this function revert if invoked through a proxy. This is guaranteed by the `notDelegated` modifier."
      },
      "setEarnings(uint256,uint256,uint256)": {
        "details": "Awards must be stated for each period; if there was no income, you must indicate at least $1."
      },
      "upgradeTo(address)": {
        "custom:oz-upgrades-unsafe-allow-reachable": "delegatecall",
        "details": "Upgrade the implementation of the proxy to `newImplementation`. Calls {_authorizeUpgrade}. Emits an {Upgraded} event."
      },
      "upgradeToAndCall(address,bytes)": {
        "custom:oz-upgrades-unsafe-allow-reachable": "delegatecall",
        "details": "Upgrade the implementation of the proxy to `newImplementation`, and subsequently execute the function call encoded in `data`. Calls {_authorizeUpgrade}. Emits an {Upgraded} event."
      }
    },
    "version": 1
  },
  "userdoc": {
    "kind": "user",
    "methods": {
      "setEarnings(uint256,uint256,uint256)": {
        "notice": "Protocol owner sets the income for the period"
      }
    },
    "version": 1
  },
  "storageLayout": {
    "storage": [
      {
        "astId": 371,
        "contract": "contracts/core/stakings/FlexStakingStrategy.sol:FlexStakingStrategy",
        "label": "_initialized",
        "offset": 0,
        "slot": "0",
        "type": "t_uint8"
      },
      {
        "astId": 374,
        "contract": "contracts/core/stakings/FlexStakingStrategy.sol:FlexStakingStrategy",
        "label": "_initializing",
        "offset": 1,
        "slot": "0",
        "type": "t_bool"
      },
      {
        "astId": 683,
        "contract": "contracts/core/stakings/FlexStakingStrategy.sol:FlexStakingStrategy",
        "label": "_status",
        "offset": 0,
        "slot": "1",
        "type": "t_uint256"
      },
      {
        "astId": 752,
        "contract": "contracts/core/stakings/FlexStakingStrategy.sol:FlexStakingStrategy",
        "label": "__gap",
        "offset": 0,
        "slot": "2",
        "type": "t_array(t_uint256)49_storage"
      },
      {
        "astId": 353,
        "contract": "contracts/core/stakings/FlexStakingStrategy.sol:FlexStakingStrategy",
        "label": "__gap",
        "offset": 0,
        "slot": "51",
        "type": "t_array(t_uint256)50_storage"
      },
      {
        "astId": 668,
        "contract": "contracts/core/stakings/FlexStakingStrategy.sol:FlexStakingStrategy",
        "label": "__gap",
        "offset": 0,
        "slot": "101",
        "type": "t_array(t_uint256)50_storage"
      },
      {
        "astId": 3432,
        "contract": "contracts/core/stakings/FlexStakingStrategy.sol:FlexStakingStrategy",
        "label": "__gap",
        "offset": 0,
        "slot": "151",
        "type": "t_array(t_uint256)50_storage"
      },
      {
        "astId": 8771,
        "contract": "contracts/core/stakings/FlexStakingStrategy.sol:FlexStakingStrategy",
        "label": "addressBook",
        "offset": 0,
        "slot": "201",
        "type": "t_address"
      },
      {
        "astId": 8773,
        "contract": "contracts/core/stakings/FlexStakingStrategy.sol:FlexStakingStrategy",
        "label": "minLockYears",
        "offset": 0,
        "slot": "202",
        "type": "t_uint256"
      },
      {
        "astId": 8775,
        "contract": "contracts/core/stakings/FlexStakingStrategy.sol:FlexStakingStrategy",
        "label": "maxLockYears",
        "offset": 0,
        "slot": "203",
        "type": "t_uint256"
      },
      {
        "astId": 8777,
        "contract": "contracts/core/stakings/FlexStakingStrategy.sol:FlexStakingStrategy",
        "label": "initialMonths",
        "offset": 0,
        "slot": "204",
        "type": "t_uint256"
      },
      {
        "astId": 8779,
        "contract": "contracts/core/stakings/FlexStakingStrategy.sol:FlexStakingStrategy",
        "label": "initialRewardsRate",
        "offset": 0,
        "slot": "205",
        "type": "t_uint256"
      },
      {
        "astId": 8781,
        "contract": "contracts/core/stakings/FlexStakingStrategy.sol:FlexStakingStrategy",
        "label": "yearDeprecationRate",
        "offset": 0,
        "slot": "206",
        "type": "t_uint256"
      },
      {
        "astId": 8783,
        "contract": "contracts/core/stakings/FlexStakingStrategy.sol:FlexStakingStrategy",
        "label": "minMonthsCount",
        "offset": 0,
        "slot": "207",
        "type": "t_uint256"
      },
      {
        "astId": 8785,
        "contract": "contracts/core/stakings/FlexStakingStrategy.sol:FlexStakingStrategy",
        "label": "maxMonthsCount",
        "offset": 0,
        "slot": "208",
        "type": "t_uint256"
      },
      {
        "astId": 8791,
        "contract": "contracts/core/stakings/FlexStakingStrategy.sol:FlexStakingStrategy",
        "label": "earnings",
        "offset": 0,
        "slot": "209",
        "type": "t_mapping(t_uint256,t_mapping(t_uint256,t_uint256))"
      },
      {
        "astId": 8797,
        "contract": "contracts/core/stakings/FlexStakingStrategy.sol:FlexStakingStrategy",
        "label": "depositsToRemove",
        "offset": 0,
        "slot": "210",
        "type": "t_mapping(t_uint256,t_mapping(t_uint256,t_uint256))"
      },
      {
        "astId": 8803,
        "contract": "contracts/core/stakings/FlexStakingStrategy.sol:FlexStakingStrategy",
        "label": "deposits",
        "offset": 0,
        "slot": "211",
        "type": "t_mapping(t_uint256,t_mapping(t_uint256,t_uint256))"
      },
      {
        "astId": 8805,
        "contract": "contracts/core/stakings/FlexStakingStrategy.sol:FlexStakingStrategy",
        "label": "lastUpdatedTimestamp",
        "offset": 0,
        "slot": "212",
        "type": "t_uint256"
      },
      {
        "astId": 8811,
        "contract": "contracts/core/stakings/FlexStakingStrategy.sol:FlexStakingStrategy",
        "label": "isStakedToken",
        "offset": 0,
        "slot": "213",
        "type": "t_mapping(t_address,t_mapping(t_uint256,t_bool))"
      },
      {
        "astId": 8817,
        "contract": "contracts/core/stakings/FlexStakingStrategy.sol:FlexStakingStrategy",
        "label": "initialTimestamp",
        "offset": 0,
        "slot": "214",
        "type": "t_mapping(t_address,t_mapping(t_uint256,t_uint256))"
      },
      {
        "astId": 8823,
        "contract": "contracts/core/stakings/FlexStakingStrategy.sol:FlexStakingStrategy",
        "label": "startStakingTimestamp",
        "offset": 0,
        "slot": "215",
        "type": "t_mapping(t_address,t_mapping(t_uint256,t_uint256))"
      },
      {
        "astId": 8829,
        "contract": "contracts/core/stakings/FlexStakingStrategy.sol:FlexStakingStrategy",
        "label": "itemsPrice",
        "offset": 0,
        "slot": "216",
        "type": "t_mapping(t_address,t_mapping(t_uint256,t_uint256))"
      },
      {
        "astId": 8835,
        "contract": "contracts/core/stakings/FlexStakingStrategy.sol:FlexStakingStrategy",
        "label": "claimedPeriodsCount",
        "offset": 0,
        "slot": "217",
        "type": "t_mapping(t_address,t_mapping(t_uint256,t_uint256))"
      },
      {
        "astId": 8841,
        "contract": "contracts/core/stakings/FlexStakingStrategy.sol:FlexStakingStrategy",
        "label": "finalTimestamp",
        "offset": 0,
        "slot": "218",
        "type": "t_mapping(t_address,t_mapping(t_uint256,t_uint256))"
      },
      {
        "astId": 8847,
        "contract": "contracts/core/stakings/FlexStakingStrategy.sol:FlexStakingStrategy",
        "label": "remainder",
        "offset": 0,
        "slot": "219",
        "type": "t_mapping(t_address,t_mapping(t_uint256,t_uint256))"
      },
      {
        "astId": 8853,
        "contract": "contracts/core/stakings/FlexStakingStrategy.sol:FlexStakingStrategy",
        "label": "totalWithdrawn",
        "offset": 0,
        "slot": "220",
        "type": "t_mapping(t_address,t_mapping(t_uint256,t_uint256))"
      },
      {
        "astId": 8869,
        "contract": "contracts/core/stakings/FlexStakingStrategy.sol:FlexStakingStrategy",
        "label": "depostitsDate",
        "offset": 0,
        "slot": "221",
        "type": "t_mapping(t_address,t_mapping(t_uint256,t_struct(DepositsDate)8862_storage))"
      },
      {
        "astId": 8871,
        "contract": "contracts/core/stakings/FlexStakingStrategy.sol:FlexStakingStrategy",
        "label": "lastUpdatedEarningsYear",
        "offset": 0,
        "slot": "222",
        "type": "t_uint256"
      },
      {
        "astId": 8873,
        "contract": "contracts/core/stakings/FlexStakingStrategy.sol:FlexStakingStrategy",
        "label": "lastUpdatedEarningsMonth",
        "offset": 0,
        "slot": "223",
        "type": "t_uint256"
      }
    ],
    "types": {
      "t_address": {
        "encoding": "inplace",
        "label": "address",
        "numberOfBytes": "20"
      },
      "t_array(t_uint256)49_storage": {
        "base": "t_uint256",
        "encoding": "inplace",
        "label": "uint256[49]",
        "numberOfBytes": "1568"
      },
      "t_array(t_uint256)50_storage": {
        "base": "t_uint256",
        "encoding": "inplace",
        "label": "uint256[50]",
        "numberOfBytes": "1600"
      },
      "t_bool": {
        "encoding": "inplace",
        "label": "bool",
        "numberOfBytes": "1"
      },
      "t_mapping(t_address,t_mapping(t_uint256,t_bool))": {
        "encoding": "mapping",
        "key": "t_address",
        "label": "mapping(address => mapping(uint256 => bool))",
        "numberOfBytes": "32",
        "value": "t_mapping(t_uint256,t_bool)"
      },
      "t_mapping(t_address,t_mapping(t_uint256,t_struct(DepositsDate)8862_storage))": {
        "encoding": "mapping",
        "key": "t_address",
        "label": "mapping(address => mapping(uint256 => struct FlexStakingStrategy.DepositsDate))",
        "numberOfBytes": "32",
        "value": "t_mapping(t_uint256,t_struct(DepositsDate)8862_storage)"
      },
      "t_mapping(t_address,t_mapping(t_uint256,t_uint256))": {
        "encoding": "mapping",
        "key": "t_address",
        "label": "mapping(address => mapping(uint256 => uint256))",
        "numberOfBytes": "32",
        "value": "t_mapping(t_uint256,t_uint256)"
      },
      "t_mapping(t_uint256,t_bool)": {
        "encoding": "mapping",
        "key": "t_uint256",
        "label": "mapping(uint256 => bool)",
        "numberOfBytes": "32",
        "value": "t_bool"
      },
      "t_mapping(t_uint256,t_mapping(t_uint256,t_uint256))": {
        "encoding": "mapping",
        "key": "t_uint256",
        "label": "mapping(uint256 => mapping(uint256 => uint256))",
        "numberOfBytes": "32",
        "value": "t_mapping(t_uint256,t_uint256)"
      },
      "t_mapping(t_uint256,t_struct(DepositsDate)8862_storage)": {
        "encoding": "mapping",
        "key": "t_uint256",
        "label": "mapping(uint256 => struct FlexStakingStrategy.DepositsDate)",
        "numberOfBytes": "32",
        "value": "t_struct(DepositsDate)8862_storage"
      },
      "t_mapping(t_uint256,t_uint256)": {
        "encoding": "mapping",
        "key": "t_uint256",
        "label": "mapping(uint256 => uint256)",
        "numberOfBytes": "32",
        "value": "t_uint256"
      },
      "t_struct(DepositsDate)8862_storage": {
        "encoding": "inplace",
        "label": "struct FlexStakingStrategy.DepositsDate",
        "members": [
          {
            "astId": 8855,
            "contract": "contracts/core/stakings/FlexStakingStrategy.sol:FlexStakingStrategy",
            "label": "finalYear",
            "offset": 0,
            "slot": "0",
            "type": "t_uint256"
          },
          {
            "astId": 8857,
            "contract": "contracts/core/stakings/FlexStakingStrategy.sol:FlexStakingStrategy",
            "label": "finalMonth",
            "offset": 0,
            "slot": "1",
            "type": "t_uint256"
          },
          {
            "astId": 8859,
            "contract": "contracts/core/stakings/FlexStakingStrategy.sol:FlexStakingStrategy",
            "label": "prevFinalYear",
            "offset": 0,
            "slot": "2",
            "type": "t_uint256"
          },
          {
            "astId": 8861,
            "contract": "contracts/core/stakings/FlexStakingStrategy.sol:FlexStakingStrategy",
            "label": "prevFinalMonth",
            "offset": 0,
            "slot": "3",
            "type": "t_uint256"
          }
        ],
        "numberOfBytes": "128"
      },
      "t_uint256": {
        "encoding": "inplace",
        "label": "uint256",
        "numberOfBytes": "32"
      },
      "t_uint8": {
        "encoding": "inplace",
        "label": "uint8",
        "numberOfBytes": "1"
      }
    }
  }
}