{
  "address": "0x7c07d72c9Adb23E1dBF24eAbd2936474CF447507",
  "abi": [
    {
      "inputs": [],
      "stateMutability": "nonpayable",
      "type": "constructor"
    },
    {
      "anonymous": false,
      "inputs": [
        {
          "indexed": false,
          "internalType": "address",
          "name": "previousAdmin",
          "type": "address"
        },
        {
          "indexed": false,
          "internalType": "address",
          "name": "newAdmin",
          "type": "address"
        }
      ],
      "name": "AdminChanged",
      "type": "event"
    },
    {
      "anonymous": false,
      "inputs": [
        {
          "indexed": true,
          "internalType": "address",
          "name": "owner",
          "type": "address"
        },
        {
          "indexed": true,
          "internalType": "address",
          "name": "approved",
          "type": "address"
        },
        {
          "indexed": true,
          "internalType": "uint256",
          "name": "tokenId",
          "type": "uint256"
        }
      ],
      "name": "Approval",
      "type": "event"
    },
    {
      "anonymous": false,
      "inputs": [
        {
          "indexed": true,
          "internalType": "address",
          "name": "owner",
          "type": "address"
        },
        {
          "indexed": true,
          "internalType": "address",
          "name": "operator",
          "type": "address"
        },
        {
          "indexed": false,
          "internalType": "bool",
          "name": "approved",
          "type": "bool"
        }
      ],
      "name": "ApprovalForAll",
      "type": "event"
    },
    {
      "anonymous": false,
      "inputs": [
        {
          "indexed": true,
          "internalType": "address",
          "name": "beacon",
          "type": "address"
        }
      ],
      "name": "BeaconUpgraded",
      "type": "event"
    },
    {
      "anonymous": false,
      "inputs": [
        {
          "indexed": false,
          "internalType": "uint8",
          "name": "version",
          "type": "uint8"
        }
      ],
      "name": "Initialized",
      "type": "event"
    },
    {
      "anonymous": false,
      "inputs": [
        {
          "indexed": true,
          "internalType": "address",
          "name": "owner",
          "type": "address"
        },
        {
          "indexed": true,
          "internalType": "uint256",
          "name": "tokenId",
          "type": "uint256"
        },
        {
          "indexed": true,
          "internalType": "address",
          "name": "stakingStartegy",
          "type": "address"
        },
        {
          "indexed": false,
          "internalType": "address",
          "name": "payToken",
          "type": "address"
        }
      ],
      "name": "Mint",
      "type": "event"
    },
    {
      "anonymous": false,
      "inputs": [
        {
          "indexed": true,
          "internalType": "address",
          "name": "from",
          "type": "address"
        },
        {
          "indexed": true,
          "internalType": "address",
          "name": "to",
          "type": "address"
        },
        {
          "indexed": true,
          "internalType": "uint256",
          "name": "tokenId",
          "type": "uint256"
        }
      ],
      "name": "Transfer",
      "type": "event"
    },
    {
      "anonymous": false,
      "inputs": [
        {
          "indexed": true,
          "internalType": "address",
          "name": "implementation",
          "type": "address"
        }
      ],
      "name": "Upgraded",
      "type": "event"
    },
    {
      "inputs": [],
      "name": "addressBook",
      "outputs": [
        {
          "internalType": "address",
          "name": "",
          "type": "address"
        }
      ],
      "stateMutability": "view",
      "type": "function"
    },
    {
      "inputs": [
        {
          "internalType": "address",
          "name": "to",
          "type": "address"
        },
        {
          "internalType": "uint256",
          "name": "tokenId",
          "type": "uint256"
        }
      ],
      "name": "approve",
      "outputs": [],
      "stateMutability": "nonpayable",
      "type": "function"
    },
    {
      "inputs": [
        {
          "internalType": "address",
          "name": "owner",
          "type": "address"
        }
      ],
      "name": "balanceOf",
      "outputs": [
        {
          "internalType": "uint256",
          "name": "",
          "type": "uint256"
        }
      ],
      "stateMutability": "view",
      "type": "function"
    },
    {
      "inputs": [
        {
          "internalType": "uint256",
          "name": "_tokenId",
          "type": "uint256"
        }
      ],
      "name": "burn",
      "outputs": [],
      "stateMutability": "nonpayable",
      "type": "function"
    },
    {
      "inputs": [
        {
          "internalType": "uint256",
          "name": "tokenId",
          "type": "uint256"
        }
      ],
      "name": "getApproved",
      "outputs": [
        {
          "internalType": "address",
          "name": "",
          "type": "address"
        }
      ],
      "stateMutability": "view",
      "type": "function"
    },
    {
      "inputs": [
        {
          "internalType": "address",
          "name": "_addressBook",
          "type": "address"
        },
        {
          "internalType": "string",
          "name": "_name",
          "type": "string"
        },
        {
          "internalType": "string",
          "name": "_symbol",
          "type": "string"
        },
        {
          "internalType": "uint256",
          "name": "_price",
          "type": "uint256"
        },
        {
          "internalType": "uint256",
          "name": "_maxSupply",
          "type": "uint256"
        },
        {
          "internalType": "string",
          "name": "_uri",
          "type": "string"
        }
      ],
      "name": "initialize",
      "outputs": [],
      "stateMutability": "nonpayable",
      "type": "function"
    },
    {
      "inputs": [
        {
          "internalType": "address",
          "name": "owner",
          "type": "address"
        },
        {
          "internalType": "address",
          "name": "operator",
          "type": "address"
        }
      ],
      "name": "isApprovedForAll",
      "outputs": [
        {
          "internalType": "bool",
          "name": "",
          "type": "bool"
        }
      ],
      "stateMutability": "view",
      "type": "function"
    },
    {
      "inputs": [],
      "name": "maxSupply",
      "outputs": [
        {
          "internalType": "uint256",
          "name": "",
          "type": "uint256"
        }
      ],
      "stateMutability": "view",
      "type": "function"
    },
    {
      "inputs": [
        {
          "internalType": "uint256",
          "name": "_mintAmount",
          "type": "uint256"
        },
        {
          "internalType": "address",
          "name": "_stakingStrategy",
          "type": "address"
        },
        {
          "internalType": "address",
          "name": "_payToken",
          "type": "address"
        },
        {
          "internalType": "uint256",
          "name": "_maxPayTokenAmount",
          "type": "uint256"
        },
        {
          "internalType": "bytes",
          "name": "_payload",
          "type": "bytes"
        }
      ],
      "name": "mint",
      "outputs": [],
      "stateMutability": "payable",
      "type": "function"
    },
    {
      "inputs": [],
      "name": "name",
      "outputs": [
        {
          "internalType": "string",
          "name": "",
          "type": "string"
        }
      ],
      "stateMutability": "view",
      "type": "function"
    },
    {
      "inputs": [],
      "name": "nextTokenId",
      "outputs": [
        {
          "internalType": "uint256",
          "name": "",
          "type": "uint256"
        }
      ],
      "stateMutability": "view",
      "type": "function"
    },
    {
      "inputs": [
        {
          "internalType": "uint256",
          "name": "tokenId",
          "type": "uint256"
        }
      ],
      "name": "ownerOf",
      "outputs": [
        {
          "internalType": "address",
          "name": "",
          "type": "address"
        }
      ],
      "stateMutability": "view",
      "type": "function"
    },
    {
      "inputs": [],
      "name": "price",
      "outputs": [
        {
          "internalType": "uint256",
          "name": "",
          "type": "uint256"
        }
      ],
      "stateMutability": "view",
      "type": "function"
    },
    {
      "inputs": [],
      "name": "proxiableUUID",
      "outputs": [
        {
          "internalType": "bytes32",
          "name": "",
          "type": "bytes32"
        }
      ],
      "stateMutability": "view",
      "type": "function"
    },
    {
      "inputs": [
        {
          "internalType": "address",
          "name": "from",
          "type": "address"
        },
        {
          "internalType": "address",
          "name": "to",
          "type": "address"
        },
        {
          "internalType": "uint256",
          "name": "tokenId",
          "type": "uint256"
        }
      ],
      "name": "safeTransferFrom",
      "outputs": [],
      "stateMutability": "nonpayable",
      "type": "function"
    },
    {
      "inputs": [
        {
          "internalType": "address",
          "name": "from",
          "type": "address"
        },
        {
          "internalType": "address",
          "name": "to",
          "type": "address"
        },
        {
          "internalType": "uint256",
          "name": "tokenId",
          "type": "uint256"
        },
        {
          "internalType": "bytes",
          "name": "data",
          "type": "bytes"
        }
      ],
      "name": "safeTransferFrom",
      "outputs": [],
      "stateMutability": "nonpayable",
      "type": "function"
    },
    {
      "inputs": [
        {
          "internalType": "address",
          "name": "operator",
          "type": "address"
        },
        {
          "internalType": "bool",
          "name": "approved",
          "type": "bool"
        }
      ],
      "name": "setApprovalForAll",
      "outputs": [],
      "stateMutability": "nonpayable",
      "type": "function"
    },
    {
      "inputs": [
        {
          "internalType": "string",
          "name": "_uri",
          "type": "string"
        }
      ],
      "name": "setBaseUri",
      "outputs": [],
      "stateMutability": "nonpayable",
      "type": "function"
    },
    {
      "inputs": [
        {
          "internalType": "uint256",
          "name": "_maxSupply",
          "type": "uint256"
        }
      ],
      "name": "setNewMaxSupply",
      "outputs": [],
      "stateMutability": "nonpayable",
      "type": "function"
    },
    {
      "inputs": [],
      "name": "stopSell",
      "outputs": [],
      "stateMutability": "nonpayable",
      "type": "function"
    },
    {
      "inputs": [
        {
          "internalType": "bytes4",
          "name": "interfaceId",
          "type": "bytes4"
        }
      ],
      "name": "supportsInterface",
      "outputs": [
        {
          "internalType": "bool",
          "name": "",
          "type": "bool"
        }
      ],
      "stateMutability": "view",
      "type": "function"
    },
    {
      "inputs": [],
      "name": "symbol",
      "outputs": [
        {
          "internalType": "string",
          "name": "",
          "type": "string"
        }
      ],
      "stateMutability": "view",
      "type": "function"
    },
    {
      "inputs": [
        {
          "internalType": "uint256",
          "name": "index",
          "type": "uint256"
        }
      ],
      "name": "tokenByIndex",
      "outputs": [
        {
          "internalType": "uint256",
          "name": "",
          "type": "uint256"
        }
      ],
      "stateMutability": "view",
      "type": "function"
    },
    {
      "inputs": [
        {
          "internalType": "address",
          "name": "owner",
          "type": "address"
        },
        {
          "internalType": "uint256",
          "name": "index",
          "type": "uint256"
        }
      ],
      "name": "tokenOfOwnerByIndex",
      "outputs": [
        {
          "internalType": "uint256",
          "name": "",
          "type": "uint256"
        }
      ],
      "stateMutability": "view",
      "type": "function"
    },
    {
      "inputs": [
        {
          "internalType": "uint256",
          "name": "tokenId",
          "type": "uint256"
        }
      ],
      "name": "tokenStakingStrategy",
      "outputs": [
        {
          "internalType": "address",
          "name": "",
          "type": "address"
        }
      ],
      "stateMutability": "view",
      "type": "function"
    },
    {
      "inputs": [
        {
          "internalType": "uint256",
          "name": "tokenId",
          "type": "uint256"
        }
      ],
      "name": "tokenURI",
      "outputs": [
        {
          "internalType": "string",
          "name": "",
          "type": "string"
        }
      ],
      "stateMutability": "view",
      "type": "function"
    },
    {
      "inputs": [],
      "name": "totalMintedAmount",
      "outputs": [
        {
          "internalType": "uint256",
          "name": "",
          "type": "uint256"
        }
      ],
      "stateMutability": "view",
      "type": "function"
    },
    {
      "inputs": [],
      "name": "totalSupply",
      "outputs": [
        {
          "internalType": "uint256",
          "name": "",
          "type": "uint256"
        }
      ],
      "stateMutability": "view",
      "type": "function"
    },
    {
      "inputs": [
        {
          "internalType": "address",
          "name": "from",
          "type": "address"
        },
        {
          "internalType": "address",
          "name": "to",
          "type": "address"
        },
        {
          "internalType": "uint256",
          "name": "tokenId",
          "type": "uint256"
        }
      ],
      "name": "transferFrom",
      "outputs": [],
      "stateMutability": "nonpayable",
      "type": "function"
    },
    {
      "inputs": [
        {
          "internalType": "address",
          "name": "newImplementation",
          "type": "address"
        }
      ],
      "name": "upgradeTo",
      "outputs": [],
      "stateMutability": "nonpayable",
      "type": "function"
    },
    {
      "inputs": [
        {
          "internalType": "address",
          "name": "newImplementation",
          "type": "address"
        },
        {
          "internalType": "bytes",
          "name": "data",
          "type": "bytes"
        }
      ],
      "name": "upgradeToAndCall",
      "outputs": [],
      "stateMutability": "payable",
      "type": "function"
    }
  ],
  "transactionHash": "0xe0f4cc72027dc2b90932788461fdad893695f54e476255ad280f24e7715a1452",
  "args": [],
  "numDeployments": 1,
  "solcInputHash": "07629dd1fac3d7b611b0d2c246578a71",
  "bytecode": "0x60a080604052346100dd57306080526000549060ff8260081c1661008b575060ff80821603610050575b60405161321c9081620000e38239608051818181610a7d015281816111a5015261173f0152f35b60ff90811916176000557f7f26b83ff96e1f2b6a682f133852f6798a09c465da95921460cefb3847402498602060405160ff8152a138610029565b62461bcd60e51b815260206004820152602760248201527f496e697469616c697a61626c653a20636f6e747261637420697320696e697469604482015266616c697a696e6760c81b6064820152608490fd5b600080fdfe608080604052600436101561001357600080fd5b600090813560e01c90816301ffc9a7146124df5750806306fdde031461244b578063081812fc1461242c578063095ea7b3146122b6578063140b39761461228257806318160ddd1461226357806323b872dd1461223e5780632adfefeb146119cf5780632f745c59146119215780633659cfe61461171a57806342842e0e146116e757806342966c68146114405780634f1ef286146111675780634f6ccce7146110d4578063528da69514610b2e57806352d1902d14610a6a57806361aebe59146109f85780636352211e146109c75780636f865e6f146109a857806370a082311461097c57806375794a3c1461095d57806395d89b411461088a578063a035b1fe1461086b578063a0bcfc7f146106f3578063a22cb4651461061c578063b7c7d9a714610559578063b88d4fde146104dd578063c87b56dd14610216578063d5abeb01146101f7578063e985e9c5146101a25763f5887cdd1461017657600080fd5b3461019f578060031936011261019f5761015f546040516001600160a01b039091168152602090f35b80fd5b503461019f57604036600319011261019f576101bc6125ae565b60406101c66125c9565b9260018060a01b038093168152610100602052209116600052602052602060ff604060002054166040519015158152f35b503461019f578060031936011261019f57602061016154604051908152f35b503461019f576020908160031936011261019f57600435600081815260fd6020526040902054839190610253906001600160a01b031615156128e4565b6040519083610165908154908461026983612953565b91828252878201946001948986821691826000146104bf575050600114610476575b506102989250038561265d565b83511561045c5782839187947a184f03e93ff9f4daa797ed6e38ed64bf6a1f010000000000000000908181101561044e575b5050866d04ee2d6d415b85acef810000000080851015610440575b5050662386f26fc1000080841015610431575b506305f5e10080841015610422575b5061271080841015610413575b506064831015610403575b600a809310156103fa575b908160218187019661035461033e8961267e565b9861034c6040519a8b61265d565b808a5261267e565b888b019b90601f1901368d3750870101905b6103c4575b50505050936103aa93929161039e61038f9660405197889551809288880190612566565b84019151809386840190612566565b0103808452018261265d565b905b6103c0604051928284938452830190612589565b0390f35b600019019083906f181899199a1a9b1b9c1cb0b131b232b360811b8282061a8353049182156103f557919082610366565b61036b565b8094019361032a565b939160646002910492019361031f565b60049195930492019338610314565b60089195930492019338610307565b601091959304920193386102f8565b9501949092049186386102e5565b6040965004925038806102ca565b50505050506040519061046e82612627565b8152906103ac565b8952508590508688846000805160206131c78339815191525b8583106104a657505061029893508201013861028b565b80919294505483858b010152019101879084889361048f565b60ff1916885261029895151560051b850101925038915061028b9050565b503461019f57608036600319011261019f576104f76125ae565b6104ff6125c9565b90606435906044356001600160401b038311610555576105529361052a61054d9436906004016126d0565b9261053d6105388433612aa4565b6129cb565b610548838383612b6d565b612ecb565b612a80565b80f35b8480fd5b503461019f57602036600319011261019f5761015f546004359082906001600160a01b0316803b1561060d578160249160405192838092630ceb3b9b60e21b82523360048301525afa8015610611576105f9575b5050610162548111156105c1576101615580f35b60405162461bcd60e51b815260206004820152601060248201526f6d617820737570706c79206c6573732160801b6044820152606490fd5b61060290612614565b61060d5781386105ad565b5080fd5b6040513d84823e3d90fd5b503461019f57604036600319011261019f576106366125ae565b602435908115158092036106ef576001600160a01b0316903382146106aa573383526101006020526040832082600052602052604060002060ff1981541660ff83161790556040519081527f17307eab39ab6107e8899845ad3d59bd9653f200f220920489ca2b5937696c3160203392a380f35b60405162461bcd60e51b815260206004820152601960248201527f4552433732313a20617070726f766520746f2063616c6c6572000000000000006044820152606490fd5b8280fd5b503461019f576020908160031936011261019f576001600160401b036004358181116106ef576107279036906004016126ee565b61015f54919290916001600160a01b0316803b15610555578460249160405192838092630ceb3b9b60e21b82523360048301525afa801561086057908591610848575b505081116108345761016591610789826107848554612953565b61302c565b8394601f83116001146107c55750938394829394926107ba575b50508160011b916000199060031b1c191617905580f35b0135905038806107a3565b838552601f198316956000805160206131c7833981519152929186905b88821061081c57505083600195969710610802575b505050811b01905580f35b0135600019600384901b60f8161c191690553880806107f7565b806001849682949587013581550195019201906107e2565b634e487b7160e01b83526041600452602483fd5b61085190612614565b61085c57833861076a565b8380fd5b6040513d87823e3d90fd5b503461019f578060031936011261019f57602061016054604051908152f35b503461019f578060031936011261019f57604051908060fc546108ac81612953565b8085529160019180831690811561093357506001146108ea575b6103c0856108d68187038261265d565b604051918291602083526020830190612589565b925060fc83526000805160206131878339815191525b82841061091b5750505081016020016108d6826103c06108c6565b80546020858701810191909152909301928101610900565b8695506103c0969350602092506108d694915060ff191682840152151560051b82010192936108c6565b503461019f578060031936011261019f57602061016354604051908152f35b503461019f57602036600319011261019f5760206109a061099b6125ae565b61286d565b604051908152f35b503461019f578060031936011261019f57602061016254604051908152f35b503461019f57602036600319011261019f5760206109e6600435612930565b6040516001600160a01b039091168152f35b503461019f578060031936011261019f5761015f5481906001600160a01b0316803b15610a67578160249160405192838092630ceb3b9b60e21b82523360048301525afa801561061157610a53575b50610162546101615580f35b610a5c90612614565b61019f578038610a47565b50fd5b503461019f578060031936011261019f577f00000000000000000000000000000000000000000000000000000000000000006001600160a01b03163003610ac35760206040516000805160206131678339815191528152f35b60405162461bcd60e51b815260206004820152603860248201527f555550535570677261646561626c653a206d757374206e6f742062652063616c60448201527f6c6564207468726f7567682064656c656761746563616c6c00000000000000006064820152608490fd5b503461019f5760c036600319011261019f57610b486125ae565b906024356001600160401b03811161060d57610b689036906004016126ee565b906044356001600160401b03811161085c57610b889036906004016126ee565b60a4959195356001600160401b0381116110d057610baa9036906004016126ee565b93909686549560ff8760081c1615968780986110c3575b80156110ac575b156110505760ff19811660011789558761103f575b506001600160a01b0385161561100a57610c0492610bfc913691612699565b923691612699565b90610c1e60ff875460081c16610c198161308c565b61308c565b8051906001600160401b038211610ff6578190610c3c60fb54612953565b601f8111610f7f575b50602090601f8311600114610f09578892610efe575b50508160011b916000199060031b1c19161760fb555b8051906001600160401b038211610eea578190610c8f60fc54612953565b601f8111610e73575b50602090601f8311600114610e02578792610df7575b50508160011b916000199060031b1c19161760fc555b61015f80546001600160a01b0319166001600160a01b0390921691909117905560643561016055608435610161556001600160401b0381116108345761016590610d12816107848454612953565b83601f8211600114610d885784958293949592610d7d575b50508160011b916000199060031b1c19161790555b610d465780f35b61ff001981541681557f7f26b83ff96e1f2b6a682f133852f6798a09c465da95921460cefb3847402498602060405160018152a180f35b013590503880610d2a565b828552601f198216956000805160206131c783398151915291865b888110610ddf57508360019596979810610dc5575b505050811b019055610d3f565b0135600019600384901b60f8161c19169055388080610db8565b90926020600181928686013581550194019101610da3565b015190503880610cae565b60fc88526000805160206131878339815191529250601f198416885b818110610e5b5750908460019594939210610e42575b505050811b0160fc55610cc4565b015160001960f88460031b161c19169055388080610e34565b92936020600181928786015181550195019301610e1e565b90915060fc600052601f830160051c600080516020613187833981519152019060208410610ed4575b90601f8493920160051c60008051602061318783398151915201905b818110610ec55750610c98565b60008155849350600101610eb8565b6000805160206131878339815191529150610e9c565b634e487b7160e01b86526041600452602486fd5b015190503880610c5b565b925060fb88526000805160206131a78339815191529088935b601f1984168510610f64576001945083601f19811610610f4b575b505050811b0160fb55610c71565b015160001960f88460031b161c19169055388080610f3d565b81810151835560209485019460019093019290910190610f22565b90915060fb600052601f830160051c6000805160206131a7833981519152019060208410610fe0575b90601f8493920160051c6000805160206131a783398151915201905b818110610fd15750610c45565b60008155849350600101610fc4565b6000805160206131a78339815191529150610fa8565b634e487b7160e01b87526041600452602487fd5b60405162461bcd60e51b815260206004820152600d60248201526c5f61646472657373426f6f6b2160981b6044820152606490fd5b61ffff191661010117885538610bdd565b60405162461bcd60e51b815260206004820152602e60248201527f496e697469616c697a61626c653a20636f6e747261637420697320616c72656160448201526d191e481a5b9a5d1a585b1a5e995960921b6064820152608490fd5b50303b158015610bc85750600160ff821614610bc8565b50600160ff821610610bc1565b8580fd5b503461019f57602036600319011261019f5760043561012f5481101561110d576110ff602091612f46565b90546040519160031b1c8152f35b60405162461bcd60e51b815260206004820152602c60248201527f455243373231456e756d657261626c653a20676c6f62616c20696e646578206f60448201526b7574206f6620626f756e647360a01b6064820152608490fd5b50604036600319011261019f5761117c6125ae565b6024356001600160401b0381116106ef5761119b9036906004016126d0565b6001600160a01b037f000000000000000000000000000000000000000000000000000000000000000081169291906111d53085141561271b565b6111f260008051602061316783398151915294828654161461277c565b848161015f5416803b1561060d578160249160405192838092630ceb3b9b60e21b82523360048301525afa80156106115761142c575b50507f4910fdfa16fed3260ed0e7147f7cc6da11a60208b5b9406d12a635614ffd91435460ff161561126057505061055291506127dd565b82919216604051936352d1902d60e01b85526020948581600481865afa600091816113fd575b506112e75760405162461bcd60e51b815260048101879052602e60248201527f45524331393637557067726164653a206e657720696d706c656d656e7461746960448201526d6f6e206973206e6f74205555505360901b6064820152608490fd5b949394036113a6576112f8826127dd565b7fbc7cd75a20ee27fd9adebab32041f755214dbc6bffa90cc0225b39da2e5c2d3b600080a282511580159061139e575b611333575b50505080f35b600080611395946040519461134786612642565b602786527f416464726573733a206c6f772d6c6576656c2064656c65676174652063616c6c81870152660819985a5b195960ca1b604087015281519101845af461138f612da7565b91612f93565b5038808061132d565b506001611328565b60405162461bcd60e51b815260048101849052602960248201527f45524331393637557067726164653a20756e737570706f727465642070726f786044820152681a58589b195555525160ba1b6064820152608490fd5b90918782813d8311611425575b611414818361265d565b8101031261019f5750519038611286565b503d61140a565b61143590612614565b610555578438611228565b503461019f5760208060031936011261060d576004358083526101648252604083205490916001600160a01b0391821633036116aa5761147f83612930565b808316908161160957505061012f805484600052610130835280604060002055600160401b8110156115f3576114bf816114d89360018894019055612f46565b90919082549060031b91821b91600019901b1916179055565b61012f91825491600019928381019081116115dd578560005261013080835261150660406000205492612f46565b90549060031b1c61151a816114bf85612f46565b6000528252604060002055846000526000604081205583549081156115c75786948460fd93019061154a82612f46565b8782549160031b1b191690555561156086612930565b9286865260ff825260408620936001600160601b0360a01b94858154169055169384865260fe82526040862090815401905585855252604083209081541690557fddf252ad1be2c89b69c2b068fc378daa952ba7f163c4a11628f55a4df523b3ef8280a480f35b634e487b7160e01b600052603160045260246000fd5b634e487b7160e01b600052601160045260246000fd5b634e487b7160e01b600052604160045260246000fd5b6116129061286d565b6000198101919082116115dd578460005261012e80845260406000205490838203611664575b5050846000526000604081205560005261012d82526040600020906000528152600060408120556114d8565b8260005261012d80865260406000208560005286526040600020549084600052865260406000208360005286528060406000205560005284526040600020553880611638565b6064906040519062461bcd60e51b8252600482015260166024820152756f6e6c79207374616b696e672073747261746567792160501b6044820152fd5b503461019f5761055261054d6116fc366125df565b906040519261170a84612627565b86845261053d6105388433612aa4565b503461019f5760208060031936011261060d576117356125ae565b6001600160a01b037f0000000000000000000000000000000000000000000000000000000000000000811661176c3082141561271b565b61178960008051602061316783398151915291838354161461277c565b848261015f5416803b1561060d578160249160405192838092630ceb3b9b60e21b82523360048301525afa80156106115761190d575b5050604051916117ce83612627565b8583527f4910fdfa16fed3260ed0e7147f7cc6da11a60208b5b9406d12a635614ffd91435460ff16156118085750505061055291506127dd565b83929316906040516352d1902d60e01b81528581600481865afa600091816118de575b5061188c5760405162461bcd60e51b815260048101879052602e60248201527f45524331393637557067726164653a206e657720696d706c656d656e7461746960448201526d6f6e206973206e6f74205555505360901b6064820152608490fd5b949394036113a65761189d826127dd565b7fbc7cd75a20ee27fd9adebab32041f755214dbc6bffa90cc0225b39da2e5c2d3b600080a28251158015906118d6576113335750505080f35b506000611328565b90918782813d8311611906575b6118f5818361265d565b8101031261019f575051903861182b565b503d6118eb565b61191690612614565b6105555784386117bf565b503461019f57604036600319011261019f5761193b6125ae565b602435916119488261286d565b8310156119765760209260409260018060a01b0316825261012d845282822090825283522054604051908152f35b60405162461bcd60e51b815260206004820152602b60248201527f455243373231456e756d657261626c653a206f776e657220696e646578206f7560448201526a74206f6620626f756e647360a81b6064820152608490fd5b5060a036600319011261019f576119e46125c9565b6044356001600160a01b03811681036106ef576084356001600160401b03811161085c57611a169036906004016126d0565b916002600154146121f9576002600155600435156121bd5761015f546040516361d027b360e01b81526001600160a01b0390911690602081600481855afa9081156120a957869161219e575b506101615461016290611a75825461310b565b8092551061216c57813b156110d05760405163015bfd3f60e41b81526001600160a01b03841660048201528681602481865afa801561212657612159575b506001600160a01b0381163b156110d05760405163064837f560e51b81526001600160a01b03858116600483015287919082908290602490829087165afa801561061157612145575b5050610160549182600435029260043584040361213157604051636676fbc560e11b815260048101939093526001600160a01b0385811660248501526020908490604490829086165afa9283156121265787936120ee575b5060643583116120b4576001600160a01b038516611efc5750813410611ebe5785808084819460018060a01b03165af1611b8c612da7565b5015611e79578034033481116115dd5785913403611e1f575b5050915b331590845b6004358110611bbf57856001805580f35b610163805490611bce8261310b565b9055808752610164602052604080882080546001600160a01b0319166001600160a01b0389161790555193611c0285612627565b878552611ddb57600081815260fd6020526040902054611c2e906001600160a01b031615155b1561311a565b61012f54908060005261013060205281604060002055600160401b8210156115f357611c66816114bf8460018c960161012f55612f46565b611d2061054d600096611c783361286d565b33895261012d60205260408920818a526020528460408a205584895261012e6020526040892055611cc1611c288560005260fd60205260018060a01b0360406000205416151590565b33855260fe602052604085206001815401905583855260fd60205260408520336001600160601b0360a01b8254161790558333867fddf252ad1be2c89b69c2b068fc378daa952ba7f163c4a11628f55a4df523b3ef8180a48333612dd7565b6040516001600160a01b038781168252881690829033907fe4ce257d7629d184a4c78c6292b7daeb3350abfb0cddf7f5906dec7aa484cf1290602090a46001600160a01b0387163b1561060d5760405190633e12170f60e01b8252306004830152602482015260606044820152818180611d9d6064820188612589565b0381836001600160a01b038c165af1801561061157611dc7575b5050611dc29061310b565b611bae565b611dd090612614565b6110d0578538611db7565b606460405162461bcd60e51b815260206004820152602060248201527f4552433732313a206d696e7420746f20746865207a65726f20616464726573736044820152fd5b81808092335af1611e2e612da7565b5015611e3b578338611ba5565b60405162461bcd60e51b81526020600482015260166024820152756661696c656420746f2073656e64206368616e67652160501b6044820152606490fd5b60405162461bcd60e51b815260206004820152601b60248201527f6661696c656420746f2073656e6420746f2074726561737572792100000000006044820152606490fd5b60405162461bcd60e51b81526020600482015260166024820152751d985b1d59480f081c185e551bdad95b905b5bdd5b9d60521b6044820152606490fd5b6040516361d027b360e01b8152929150602090839060049082905afa9182156120a9578692612078575b506040516323b872dd60e01b602082019081523360248301526001600160a01b03909316604482015260648082019290925290815260a08101906001600160401b038211818310176115f35760e081018281106001600160401b038211176115f357604052602082527f5361666545524332303a206c6f772d6c6576656c2063616c6c206661696c656460c082015251611fe39287918291826001600160a01b0389165af1611fd3612da7565b906001600160a01b038616612f93565b8051908115918215612055575b505015611ffd5791611ba9565b60405162461bcd60e51b815260206004820152602a60248201527f5361666545524332303a204552433230206f7065726174696f6e20646964206e6044820152691bdd081cdd58d8d9595960b21b6064820152608490fd5b819250906020918101031261055557602001518015158103610555573880611ff0565b61209b91925060203d6020116120a2575b612093818361265d565b8101906130ec565b9038611f26565b503d612089565b6040513d88823e3d90fd5b60405162461bcd60e51b81526020600482015260126024820152716d6178506179546f6b656e416d6f756e742160701b6044820152606490fd5b9092506020813d60201161211e575b8161210a6020938361265d565b8101031261211a57519138611b54565b8680fd5b3d91506120fd565b6040513d89823e3d90fd5b634e487b7160e01b87526011600452602487fd5b61214e90612614565b6110d0578538611afc565b61216590969196612614565b9438611ab3565b60405162461bcd60e51b815260206004820152600a6024820152696d6178537570706c792160b01b6044820152606490fd5b6121b7915060203d6020116120a257612093818361265d565b38611a62565b60405162461bcd60e51b81526020600482015260146024820152735f6d696e74416d6f756e7420697a207a65726f2160601b6044820152606490fd5b60405162461bcd60e51b815260206004820152601f60248201527f5265656e7472616e637947756172643a207265656e7472616e742063616c6c006044820152606490fd5b503461019f57610552612250366125df565b9161225e6105388433612aa4565b612b6d565b503461019f578060031936011261019f57602061012f54604051908152f35b503461019f57602036600319011261019f5760209060043581526101648252604060018060a01b0391205416604051908152f35b503461019f57604036600319011261019f576122d06125ae565b602435906001600160a01b0380806122e785612930565b169216918083146123dd578033149081156123bb575b50156123505782845260ff6020526040842080546001600160a01b0319168317905561232883612930565b167f8c5be1e5ebec7d5bd14f71427d1e84f3dd0314c0f7b2291e5b200ac8c7c3b9258480a480f35b60405162461bcd60e51b815260206004820152603d60248201527f4552433732313a20617070726f76652063616c6c6572206973206e6f7420746f60448201527f6b656e206f776e6572206f7220617070726f76656420666f7220616c6c0000006064820152608490fd5b905084526101006020526040842033855260205260ff604085205416386122fd565b60405162461bcd60e51b815260206004820152602160248201527f4552433732313a20617070726f76616c20746f2063757272656e74206f776e656044820152603960f91b6064820152608490fd5b503461019f57602036600319011261019f5760206109e660043561298d565b503461019f578060031936011261019f57604051908060fb5461246d81612953565b808552916001918083169081156109335750600114612496576103c0856108d68187038261265d565b925060fb83526000805160206131a78339815191525b8284106124c75750505081016020016108d6826103c06108c6565b805460208587018101919091529093019281016124ac565b90503461060d57602036600319011261060d5760043563ffffffff60e01b81168091036106ef576020925063780e9d6360e01b8114908115612523575b5015158152f35b6380ac58cd60e01b811491508115612555575b8115612544575b503861251c565b6301ffc9a760e01b1490503861253d565b635b5e139f60e01b81149150612536565b60005b8381106125795750506000910152565b8181015183820152602001612569565b906020916125a281518092818552858086019101612566565b601f01601f1916010190565b600435906001600160a01b03821682036125c457565b600080fd5b602435906001600160a01b03821682036125c457565b60609060031901126125c4576001600160a01b039060043582811681036125c4579160243590811681036125c4579060443590565b6001600160401b0381116115f357604052565b602081019081106001600160401b038211176115f357604052565b606081019081106001600160401b038211176115f357604052565b90601f801991011681019081106001600160401b038211176115f357604052565b6001600160401b0381116115f357601f01601f191660200190565b9291926126a58261267e565b916126b3604051938461265d565b8294818452818301116125c4578281602093846000960137010152565b9080601f830112156125c4578160206126eb93359101612699565b90565b9181601f840112156125c4578235916001600160401b0383116125c457602083818601950101116125c457565b1561272257565b60405162461bcd60e51b815260206004820152602c60248201527f46756e6374696f6e206d7573742062652063616c6c6564207468726f7567682060448201526b19195b1959d85d1958d85b1b60a21b6064820152608490fd5b1561278357565b60405162461bcd60e51b815260206004820152602c60248201527f46756e6374696f6e206d7573742062652063616c6c6564207468726f7567682060448201526b6163746976652070726f787960a01b6064820152608490fd5b803b156128125760008051602061316783398151915280546001600160a01b0319166001600160a01b03909216919091179055565b60405162461bcd60e51b815260206004820152602d60248201527f455243313936373a206e657720696d706c656d656e746174696f6e206973206e60448201526c1bdd08184818dbdb9d1c9858dd609a1b6064820152608490fd5b6001600160a01b0316801561288d5760005260fe60205260406000205490565b60405162461bcd60e51b815260206004820152602960248201527f4552433732313a2061646472657373207a65726f206973206e6f7420612076616044820152683634b21037bbb732b960b91b6064820152608490fd5b156128eb57565b60405162461bcd60e51b815260206004820152601860248201527f4552433732313a20696e76616c696420746f6b656e20494400000000000000006044820152606490fd5b600090815260fd60205260409020546001600160a01b03166126eb8115156128e4565b90600182811c92168015612983575b602083101461296d57565b634e487b7160e01b600052602260045260246000fd5b91607f1691612962565b600081815260fd60205260409020546129b0906001600160a01b031615156128e4565b600090815260ff60205260409020546001600160a01b031690565b156129d257565b60405162461bcd60e51b815260206004820152602d60248201527f4552433732313a2063616c6c6572206973206e6f7420746f6b656e206f776e6560448201526c1c881bdc88185c1c1c9bdd9959609a1b6064820152608490fd5b60809060208152603260208201527f4552433732313a207472616e7366657220746f206e6f6e20455243373231526560408201527131b2b4bb32b91034b6b83632b6b2b73a32b960711b60608201520190565b15612a8757565b60405162461bcd60e51b815280612aa060048201612a2d565b0390fd5b906001600160a01b038080612ab884612930565b16931691838314938415612aeb575b508315612ad5575b50505090565b612ae19192935061298d565b1614388080612acf565b90935060005261010060205260406000208260005260205260ff604060002054169238612ac7565b15612b1a57565b60405162461bcd60e51b815260206004820152602560248201527f4552433732313a207472616e736665722066726f6d20696e636f72726563742060448201526437bbb732b960d91b6064820152608490fd5b90612b9390612b7b84612930565b6001600160a01b038481169390929183168414612b13565b818116938415612d5657839081612cab57505061012f918254918660005261013060205282604060002055600160401b8310156115f357612be2876114bf85612bfb9760018a98019055612f46565b828603612c76575b50612bf486612930565b1614612b13565b7fddf252ad1be2c89b69c2b068fc378daa952ba7f163c4a11628f55a4df523b3ef600084815260ff602052604081206001600160601b0360a01b9081815416905583825260fe602052604082206000198154019055848252604082206001815401905585825260fd60205284604083209182541617905580a4565b612c7f9061286d565b6040600087815261012d602052818120838252602052888282205588815261012e602052205538612bea565b858293949203612cc0575b50612bfb92612be2565b612ccb91925061286d565b6000198101919082116115dd57612bfb92849260009088825261012e9060208281526040928385205490838203612d1f575b50508a8452838381205586845261012d81528284209184525281205592612cb6565b88865261012d808452858720858852845285872054908a885284528587208388528452808688205586528252838520553880612cfd565b60405162461bcd60e51b8152602060048201526024808201527f4552433732313a207472616e7366657220746f20746865207a65726f206164646044820152637265737360e01b6064820152608490fd5b3d15612dd2573d90612db88261267e565b91612dc6604051938461265d565b82523d6000602084013e565b606090565b9091600091803b15612ec257612e226020918493604051948580948193630a85bd0160e11b9a8b84523360048501528460248501526044840152608060648401526084830190612589565b03926001600160a01b03165af190829082612e7a575b5050612e6c57612e46612da7565b80519081612e675760405162461bcd60e51b815280612aa060048201612a2d565b602001fd5b6001600160e01b0319161490565b909192506020813d8211612eba575b81612e966020938361265d565b8101031261060d5751906001600160e01b03198216820361019f5750903880612e38565b3d9150612e89565b50505050600190565b91926000929190813b15612f3c57602091612f219185604051958680958194630a85bd0160e11b9b8c845233600485015260018060a01b0380951660248501526044840152608060648401526084830190612589565b0393165af190829082612e7a575050612e6c57612e46612da7565b5050505050600190565b61012f8054821015612f7d576000527f232da9e50dad2971456a78fb5cd6ff6b75019984d6e918139ce990999420f9790190600090565b634e487b7160e01b600052603260045260246000fd5b91929015612ff55750815115612fa7575090565b3b15612fb05790565b60405162461bcd60e51b815260206004820152601d60248201527f416464726573733a2063616c6c20746f206e6f6e2d636f6e74726163740000006044820152606490fd5b8251909150156130085750805190602001fd5b60405162461bcd60e51b815260206004820152908190612aa0906024830190612589565b601f8111613038575050565b60009061016582526000805160206131c7833981519152906020601f850160051c83019410613082575b601f0160051c01915b82811061307757505050565b81815560010161306b565b9092508290613062565b1561309357565b60405162461bcd60e51b815260206004820152602b60248201527f496e697469616c697a61626c653a20636f6e7472616374206973206e6f74206960448201526a6e697469616c697a696e6760a81b6064820152608490fd5b908160209103126125c457516001600160a01b03811681036125c45790565b60001981146115dd5760010190565b1561312157565b60405162461bcd60e51b815260206004820152601c60248201527f4552433732313a20746f6b656e20616c7265616479206d696e746564000000006044820152606490fdfe360894a13ba1a3210667c828492db98dca3e2076cc3735a920a3ca505d382bbc371f36870d18f32a11fea0f144b021c8b407bb50f8e0267c711123f454b963c03e7257b7272bb46d49cd6019b04ddee20da7c0cb13f7c1ec3391291b2ccebabcd91ca5e44fa96a1732bfaed7fe33fc20ed69a9895cde1f18c7dcabca39d6a78ba2646970667358221220a90d8bad0b412a5b33d82f2336d9ed985d8476790b4a16006162a6295ba7627d64736f6c63430008120033",
  "devdoc": {
    "events": {
      "AdminChanged(address,address)": {
        "details": "Emitted when the admin account has changed."
      },
      "Approval(address,address,uint256)": {
        "details": "Emitted when `owner` enables `approved` to manage the `tokenId` token."
      },
      "ApprovalForAll(address,address,bool)": {
        "details": "Emitted when `owner` enables or disables (`approved`) `operator` to manage all of its assets."
      },
      "BeaconUpgraded(address)": {
        "details": "Emitted when the beacon is changed."
      },
      "Initialized(uint8)": {
        "details": "Triggered when the contract has been initialized or reinitialized."
      },
      "Transfer(address,address,uint256)": {
        "details": "Emitted when `tokenId` token is transferred from `from` to `to`."
      },
      "Upgraded(address)": {
        "details": "Emitted when the implementation is upgraded."
      }
    },
    "kind": "dev",
    "methods": {
      "approve(address,uint256)": {
        "details": "See {IERC721-approve}."
      },
      "balanceOf(address)": {
        "details": "See {IERC721-balanceOf}."
      },
      "getApproved(uint256)": {
        "details": "See {IERC721-getApproved}."
      },
      "isApprovedForAll(address,address)": {
        "details": "See {IERC721-isApprovedForAll}."
      },
      "name()": {
        "details": "See {IERC721Metadata-name}."
      },
      "ownerOf(uint256)": {
        "details": "See {IERC721-ownerOf}."
      },
      "proxiableUUID()": {
        "details": "Implementation of the ERC1822 {proxiableUUID} function. This returns the storage slot used by the implementation. It is used to validate the implementation's compatibility when performing an upgrade. IMPORTANT: A proxy pointing at a proxiable contract should not be considered proxiable itself, because this risks bricking a proxy that upgrades to it, by delegating to itself until out of gas. Thus it is critical that this function revert if invoked through a proxy. This is guaranteed by the `notDelegated` modifier."
      },
      "safeTransferFrom(address,address,uint256)": {
        "details": "See {IERC721-safeTransferFrom}."
      },
      "safeTransferFrom(address,address,uint256,bytes)": {
        "details": "See {IERC721-safeTransferFrom}."
      },
      "setApprovalForAll(address,bool)": {
        "details": "See {IERC721-setApprovalForAll}."
      },
      "supportsInterface(bytes4)": {
        "details": "See {IERC165-supportsInterface}."
      },
      "symbol()": {
        "details": "See {IERC721Metadata-symbol}."
      },
      "tokenByIndex(uint256)": {
        "details": "See {IERC721Enumerable-tokenByIndex}."
      },
      "tokenOfOwnerByIndex(address,uint256)": {
        "details": "See {IERC721Enumerable-tokenOfOwnerByIndex}."
      },
      "tokenURI(uint256)": {
        "details": "See {IERC721Metadata-tokenURI}."
      },
      "totalSupply()": {
        "details": "See {IERC721Enumerable-totalSupply}."
      },
      "transferFrom(address,address,uint256)": {
        "details": "See {IERC721-transferFrom}."
      },
      "upgradeTo(address)": {
        "custom:oz-upgrades-unsafe-allow-reachable": "delegatecall",
        "details": "Upgrade the implementation of the proxy to `newImplementation`. Calls {_authorizeUpgrade}. Emits an {Upgraded} event."
      },
      "upgradeToAndCall(address,bytes)": {
        "custom:oz-upgrades-unsafe-allow-reachable": "delegatecall",
        "details": "Upgrade the implementation of the proxy to `newImplementation`, and subsequently execute the function call encoded in `data`. Calls {_authorizeUpgrade}. Emits an {Upgraded} event."
      }
    },
    "version": 1
  },
  "userdoc": {
    "kind": "user",
    "methods": {},
    "version": 1
  },
  "storageLayout": {
    "storage": [
      {
        "astId": 371,
        "contract": "contracts/core/Item.sol:Item",
        "label": "_initialized",
        "offset": 0,
        "slot": "0",
        "type": "t_uint8"
      },
      {
        "astId": 374,
        "contract": "contracts/core/Item.sol:Item",
        "label": "_initializing",
        "offset": 1,
        "slot": "0",
        "type": "t_bool"
      },
      {
        "astId": 683,
        "contract": "contracts/core/Item.sol:Item",
        "label": "_status",
        "offset": 0,
        "slot": "1",
        "type": "t_uint256"
      },
      {
        "astId": 752,
        "contract": "contracts/core/Item.sol:Item",
        "label": "__gap",
        "offset": 0,
        "slot": "2",
        "type": "t_array(t_uint256)49_storage"
      },
      {
        "astId": 353,
        "contract": "contracts/core/Item.sol:Item",
        "label": "__gap",
        "offset": 0,
        "slot": "51",
        "type": "t_array(t_uint256)50_storage"
      },
      {
        "astId": 668,
        "contract": "contracts/core/Item.sol:Item",
        "label": "__gap",
        "offset": 0,
        "slot": "101",
        "type": "t_array(t_uint256)50_storage"
      },
      {
        "astId": 3357,
        "contract": "contracts/core/Item.sol:Item",
        "label": "__gap",
        "offset": 0,
        "slot": "151",
        "type": "t_array(t_uint256)50_storage"
      },
      {
        "astId": 3815,
        "contract": "contracts/core/Item.sol:Item",
        "label": "__gap",
        "offset": 0,
        "slot": "201",
        "type": "t_array(t_uint256)50_storage"
      },
      {
        "astId": 1497,
        "contract": "contracts/core/Item.sol:Item",
        "label": "_name",
        "offset": 0,
        "slot": "251",
        "type": "t_string_storage"
      },
      {
        "astId": 1499,
        "contract": "contracts/core/Item.sol:Item",
        "label": "_symbol",
        "offset": 0,
        "slot": "252",
        "type": "t_string_storage"
      },
      {
        "astId": 1503,
        "contract": "contracts/core/Item.sol:Item",
        "label": "_owners",
        "offset": 0,
        "slot": "253",
        "type": "t_mapping(t_uint256,t_address)"
      },
      {
        "astId": 1507,
        "contract": "contracts/core/Item.sol:Item",
        "label": "_balances",
        "offset": 0,
        "slot": "254",
        "type": "t_mapping(t_address,t_uint256)"
      },
      {
        "astId": 1511,
        "contract": "contracts/core/Item.sol:Item",
        "label": "_tokenApprovals",
        "offset": 0,
        "slot": "255",
        "type": "t_mapping(t_uint256,t_address)"
      },
      {
        "astId": 1517,
        "contract": "contracts/core/Item.sol:Item",
        "label": "_operatorApprovals",
        "offset": 0,
        "slot": "256",
        "type": "t_mapping(t_address,t_mapping(t_address,t_bool))"
      },
      {
        "astId": 2419,
        "contract": "contracts/core/Item.sol:Item",
        "label": "__gap",
        "offset": 0,
        "slot": "257",
        "type": "t_array(t_uint256)44_storage"
      },
      {
        "astId": 2584,
        "contract": "contracts/core/Item.sol:Item",
        "label": "_ownedTokens",
        "offset": 0,
        "slot": "301",
        "type": "t_mapping(t_address,t_mapping(t_uint256,t_uint256))"
      },
      {
        "astId": 2588,
        "contract": "contracts/core/Item.sol:Item",
        "label": "_ownedTokensIndex",
        "offset": 0,
        "slot": "302",
        "type": "t_mapping(t_uint256,t_uint256)"
      },
      {
        "astId": 2591,
        "contract": "contracts/core/Item.sol:Item",
        "label": "_allTokens",
        "offset": 0,
        "slot": "303",
        "type": "t_array(t_uint256)dyn_storage"
      },
      {
        "astId": 2595,
        "contract": "contracts/core/Item.sol:Item",
        "label": "_allTokensIndex",
        "offset": 0,
        "slot": "304",
        "type": "t_mapping(t_uint256,t_uint256)"
      },
      {
        "astId": 2927,
        "contract": "contracts/core/Item.sol:Item",
        "label": "__gap",
        "offset": 0,
        "slot": "305",
        "type": "t_array(t_uint256)46_storage"
      },
      {
        "astId": 6599,
        "contract": "contracts/core/Item.sol:Item",
        "label": "addressBook",
        "offset": 0,
        "slot": "351",
        "type": "t_address"
      },
      {
        "astId": 6601,
        "contract": "contracts/core/Item.sol:Item",
        "label": "price",
        "offset": 0,
        "slot": "352",
        "type": "t_uint256"
      },
      {
        "astId": 6603,
        "contract": "contracts/core/Item.sol:Item",
        "label": "maxSupply",
        "offset": 0,
        "slot": "353",
        "type": "t_uint256"
      },
      {
        "astId": 6605,
        "contract": "contracts/core/Item.sol:Item",
        "label": "totalMintedAmount",
        "offset": 0,
        "slot": "354",
        "type": "t_uint256"
      },
      {
        "astId": 6607,
        "contract": "contracts/core/Item.sol:Item",
        "label": "nextTokenId",
        "offset": 0,
        "slot": "355",
        "type": "t_uint256"
      },
      {
        "astId": 6611,
        "contract": "contracts/core/Item.sol:Item",
        "label": "tokenStakingStrategy",
        "offset": 0,
        "slot": "356",
        "type": "t_mapping(t_uint256,t_address)"
      },
      {
        "astId": 6613,
        "contract": "contracts/core/Item.sol:Item",
        "label": "uri",
        "offset": 0,
        "slot": "357",
        "type": "t_string_storage"
      }
    ],
    "types": {
      "t_address": {
        "encoding": "inplace",
        "label": "address",
        "numberOfBytes": "20"
      },
      "t_array(t_uint256)44_storage": {
        "base": "t_uint256",
        "encoding": "inplace",
        "label": "uint256[44]",
        "numberOfBytes": "1408"
      },
      "t_array(t_uint256)46_storage": {
        "base": "t_uint256",
        "encoding": "inplace",
        "label": "uint256[46]",
        "numberOfBytes": "1472"
      },
      "t_array(t_uint256)49_storage": {
        "base": "t_uint256",
        "encoding": "inplace",
        "label": "uint256[49]",
        "numberOfBytes": "1568"
      },
      "t_array(t_uint256)50_storage": {
        "base": "t_uint256",
        "encoding": "inplace",
        "label": "uint256[50]",
        "numberOfBytes": "1600"
      },
      "t_array(t_uint256)dyn_storage": {
        "base": "t_uint256",
        "encoding": "dynamic_array",
        "label": "uint256[]",
        "numberOfBytes": "32"
      },
      "t_bool": {
        "encoding": "inplace",
        "label": "bool",
        "numberOfBytes": "1"
      },
      "t_mapping(t_address,t_bool)": {
        "encoding": "mapping",
        "key": "t_address",
        "label": "mapping(address => bool)",
        "numberOfBytes": "32",
        "value": "t_bool"
      },
      "t_mapping(t_address,t_mapping(t_address,t_bool))": {
        "encoding": "mapping",
        "key": "t_address",
        "label": "mapping(address => mapping(address => bool))",
        "numberOfBytes": "32",
        "value": "t_mapping(t_address,t_bool)"
      },
      "t_mapping(t_address,t_mapping(t_uint256,t_uint256))": {
        "encoding": "mapping",
        "key": "t_address",
        "label": "mapping(address => mapping(uint256 => uint256))",
        "numberOfBytes": "32",
        "value": "t_mapping(t_uint256,t_uint256)"
      },
      "t_mapping(t_address,t_uint256)": {
        "encoding": "mapping",
        "key": "t_address",
        "label": "mapping(address => uint256)",
        "numberOfBytes": "32",
        "value": "t_uint256"
      },
      "t_mapping(t_uint256,t_address)": {
        "encoding": "mapping",
        "key": "t_uint256",
        "label": "mapping(uint256 => address)",
        "numberOfBytes": "32",
        "value": "t_address"
      },
      "t_mapping(t_uint256,t_uint256)": {
        "encoding": "mapping",
        "key": "t_uint256",
        "label": "mapping(uint256 => uint256)",
        "numberOfBytes": "32",
        "value": "t_uint256"
      },
      "t_string_storage": {
        "encoding": "bytes",
        "label": "string",
        "numberOfBytes": "32"
      },
      "t_uint256": {
        "encoding": "inplace",
        "label": "uint256",
        "numberOfBytes": "32"
      },
      "t_uint8": {
        "encoding": "inplace",
        "label": "uint8",
        "numberOfBytes": "1"
      }
    }
  }
}