{
  "address": "0x7da43495d1392F03D74674D0A93A64C5e7713a66",
  "abi": [
    {
      "inputs": [],
      "stateMutability": "nonpayable",
      "type": "constructor"
    },
    {
      "anonymous": false,
      "inputs": [
        {
          "indexed": false,
          "internalType": "address",
          "name": "previousAdmin",
          "type": "address"
        },
        {
          "indexed": false,
          "internalType": "address",
          "name": "newAdmin",
          "type": "address"
        }
      ],
      "name": "AdminChanged",
      "type": "event"
    },
    {
      "anonymous": false,
      "inputs": [
        {
          "indexed": true,
          "internalType": "address",
          "name": "beacon",
          "type": "address"
        }
      ],
      "name": "BeaconUpgraded",
      "type": "event"
    },
    {
      "anonymous": false,
      "inputs": [
        {
          "indexed": false,
          "internalType": "uint8",
          "name": "version",
          "type": "uint8"
        }
      ],
      "name": "Initialized",
      "type": "event"
    },
    {
      "anonymous": false,
      "inputs": [
        {
          "indexed": true,
          "internalType": "address",
          "name": "implementation",
          "type": "address"
        }
      ],
      "name": "Upgraded",
      "type": "event"
    },
    {
      "anonymous": false,
      "inputs": [
        {
          "indexed": true,
          "internalType": "address",
          "name": "from",
          "type": "address"
        },
        {
          "indexed": true,
          "internalType": "address",
          "name": "to",
          "type": "address"
        },
        {
          "indexed": true,
          "internalType": "address",
          "name": "token",
          "type": "address"
        },
        {
          "indexed": false,
          "internalType": "uint256",
          "name": "amount",
          "type": "uint256"
        }
      ],
      "name": "Withdraw",
      "type": "event"
    },
    {
      "inputs": [],
      "name": "PRICERS_DECIMALS",
      "outputs": [
        {
          "internalType": "uint256",
          "name": "",
          "type": "uint256"
        }
      ],
      "stateMutability": "view",
      "type": "function"
    },
    {
      "inputs": [],
      "name": "USD_DECIMALS",
      "outputs": [
        {
          "internalType": "uint256",
          "name": "",
          "type": "uint256"
        }
      ],
      "stateMutability": "view",
      "type": "function"
    },
    {
      "inputs": [
        {
          "internalType": "address",
          "name": "_token",
          "type": "address"
        },
        {
          "internalType": "address",
          "name": "_pricer",
          "type": "address"
        }
      ],
      "name": "addToken",
      "outputs": [],
      "stateMutability": "nonpayable",
      "type": "function"
    },
    {
      "inputs": [],
      "name": "addressBook",
      "outputs": [
        {
          "internalType": "address",
          "name": "",
          "type": "address"
        }
      ],
      "stateMutability": "view",
      "type": "function"
    },
    {
      "inputs": [
        {
          "internalType": "address",
          "name": "_token",
          "type": "address"
        }
      ],
      "name": "deleteToken",
      "outputs": [],
      "stateMutability": "nonpayable",
      "type": "function"
    },
    {
      "inputs": [
        {
          "internalType": "address",
          "name": "_token",
          "type": "address"
        }
      ],
      "name": "enforceIsSupportedToken",
      "outputs": [],
      "stateMutability": "view",
      "type": "function"
    },
    {
      "inputs": [
        {
          "internalType": "address",
          "name": "_addressBook",
          "type": "address"
        }
      ],
      "name": "initialize",
      "outputs": [],
      "stateMutability": "nonpayable",
      "type": "function"
    },
    {
      "inputs": [],
      "name": "onlyGovernanceWithdrawn",
      "outputs": [
        {
          "internalType": "bool",
          "name": "",
          "type": "bool"
        }
      ],
      "stateMutability": "view",
      "type": "function"
    },
    {
      "inputs": [
        {
          "internalType": "address",
          "name": "",
          "type": "address"
        }
      ],
      "name": "pricers",
      "outputs": [
        {
          "internalType": "address",
          "name": "",
          "type": "address"
        }
      ],
      "stateMutability": "view",
      "type": "function"
    },
    {
      "inputs": [],
      "name": "proxiableUUID",
      "outputs": [
        {
          "internalType": "bytes32",
          "name": "",
          "type": "bytes32"
        }
      ],
      "stateMutability": "view",
      "type": "function"
    },
    {
      "inputs": [
        {
          "internalType": "bool",
          "name": "_value",
          "type": "bool"
        }
      ],
      "name": "setOnlyProductOwnerWithdrawn",
      "outputs": [],
      "stateMutability": "nonpayable",
      "type": "function"
    },
    {
      "inputs": [
        {
          "internalType": "address",
          "name": "_token",
          "type": "address"
        },
        {
          "internalType": "address",
          "name": "_pricer",
          "type": "address"
        }
      ],
      "name": "updateTokenPricer",
      "outputs": [],
      "stateMutability": "nonpayable",
      "type": "function"
    },
    {
      "inputs": [
        {
          "internalType": "address",
          "name": "newImplementation",
          "type": "address"
        }
      ],
      "name": "upgradeTo",
      "outputs": [],
      "stateMutability": "nonpayable",
      "type": "function"
    },
    {
      "inputs": [
        {
          "internalType": "address",
          "name": "newImplementation",
          "type": "address"
        },
        {
          "internalType": "bytes",
          "name": "data",
          "type": "bytes"
        }
      ],
      "name": "upgradeToAndCall",
      "outputs": [],
      "stateMutability": "payable",
      "type": "function"
    },
    {
      "inputs": [
        {
          "internalType": "uint256",
          "name": "_usdAmount",
          "type": "uint256"
        },
        {
          "internalType": "address",
          "name": "_token",
          "type": "address"
        }
      ],
      "name": "usdAmountToToken",
      "outputs": [
        {
          "internalType": "uint256",
          "name": "",
          "type": "uint256"
        }
      ],
      "stateMutability": "view",
      "type": "function"
    },
    {
      "inputs": [
        {
          "internalType": "address",
          "name": "_token",
          "type": "address"
        },
        {
          "internalType": "uint256",
          "name": "_amount",
          "type": "uint256"
        },
        {
          "internalType": "address",
          "name": "_recipient",
          "type": "address"
        }
      ],
      "name": "withdraw",
      "outputs": [],
      "stateMutability": "nonpayable",
      "type": "function"
    },
    {
      "stateMutability": "payable",
      "type": "receive"
    }
  ],
  "transactionHash": "0x73d36eb2ab346110732adcc74ed6b3be65d10daa0504481d1e263c371eed3041",
  "args": [],
  "numDeployments": 1,
  "solcInputHash": "07629dd1fac3d7b611b0d2c246578a71",
  "bytecode": "0x60a080604052346100dc57306080526000549060ff8260081c1661008a575060ff8082160361004f575b60405161189890816100e28239608051818181610c5901528181610d83015261110f0152f35b60ff90811916176000557f7f26b83ff96e1f2b6a682f133852f6798a09c465da95921460cefb3847402498602060405160ff8152a138610029565b62461bcd60e51b815260206004820152602760248201527f496e697469616c697a61626c653a20636f6e747261637420697320696e697469604482015266616c697a696e6760c81b6064820152608490fd5b600080fdfe6080604081815260049182361015610022575b505050361561002057600080fd5b005b600092833560e01c91826324682c03146113e2575081632f6ee695146113c65781633659cfe6146110e757838263405106471461105b575081634cf4ae82146110375781634f1ef28614610d0657816352d1902d14610c435781635476bd7214610af657816369328dec146106db578163ad878d2e146105bd578163c4d66de814610447578163c906fea01461041f578163ccedf78a146101ee578163f069f7121461014957508063f5887cdd146101215763ff0d54b4146100e45780610012565b3461011d57602036600319011261011d576020916001600160a01b039082908261010c6113fd565b168152609885522054169051908152f35b5080fd5b503461011d578160031936011261011d5760975490516001600160a01b039091168152602090f35b9050346101ea5760203660031901126101ea576101646113fd565b6097546001600160a01b03928591841690813b156101ea5782906024875180948193630ceb3b9b60e21b835233908301525afa80156101e0576101c8575b50506101ad816117db565b1682526098602052812080546001600160a01b031916905580f35b6101d190611429565b6101dc5783386101a2565b8380fd5b85513d84823e3d90fd5b8280fd5b919050346101ea57806003193601126101ea576001600160a01b039282359084610216611413565b1680825260209560988752848320541680156103e5579060a086949392865195868092633fabe5a360e21b82525afa9384156101e057869188918496610393575b5080610332575050505060ff60125b16604d811161031d57600a0a90818102918183041490151715610308576305f5e100908181029181830414901517156103085781156102f35790670de0b6b3a76400009104049182156102ba575051908152f35b83606492519162461bcd60e51b83528201526015602482015274746f6b656e20616d6f756e74206973207a65726f2160581b6044820152fd5b601284634e487b7160e01b6000525260246000fd5b601184634e487b7160e01b6000525260246000fd5b601185634e487b7160e01b6000525260246000fd5b865163313ce56760e01b815292839182905afa918215610388579060ff9261035b575b50610266565b61037b9150873d8911610381575b610373818361146f565b810190611747565b38610355565b503d610369565b8551903d90823e3d90fd5b925094505060a0813d82116103dd575b816103b060a0938361146f565b8101031261011d5786816103c488936117c4565b506103d560808383015192016117c4565b509438610257565b3d91506103a3565b845162461bcd60e51b815280870188905260146024820152736e6f7420737570706f7274656420746f6b656e2160601b6044820152606490fd5b83346104445760203660031901126104445761044161043c6113fd565b6117db565b80f35b80fd5b9050346101ea5760203660031901126101ea576104626113fd565b9083549160ff8360081c1615928380946105b0575b8015610599575b1561053f5760ff19811660011786558361052e575b506001600160a01b03169081156104fb57506bffffffffffffffffffffffff60a01b60975416176097556104c5575080f35b60207f7f26b83ff96e1f2b6a682f133852f6798a09c465da95921460cefb38474024989161ff001984541684555160018152a180f35b606490602085519162461bcd60e51b8352820152600d60248201526c5f61646472657373426f6f6b2160981b6044820152fd5b61ffff191661010117855538610493565b845162461bcd60e51b8152602081850152602e60248201527f496e697469616c697a61626c653a20636f6e747261637420697320616c72656160448201526d191e481a5b9a5d1a585b1a5e995960921b6064820152608490fd5b50303b15801561047e5750600160ff82161461047e565b50600160ff821610610477565b919050346101ea57806003193601126101ea576105d86113fd565b6105e0611413565b6097546001600160a01b0392919086908416803b1561011d5781602491875192838092630ceb3b9b60e21b8252338c8301525afa80156106d15790859392916106b4575b505061062f836117db565b169361063b8515611703565b60208451809263313ce56760e01b825281885afa9081156106aa5760ff61066e92600892899161068c575b501614611760565b1683526098602052822080546001600160a01b031916909117905580f35b6106a4915060203d811161038157610373818361146f565b38610666565b84513d88823e3d90fd5b6106c091929350611429565b6106cd5782908638610624565b8580fd5b86513d84823e3d90fd5b919050346101ea5760603660031901126101ea576106f76113fd565b60448035936001600160a01b0380861694602480359594919392878903610af157600260655414610ab05760026065558615610a63576097548551635ee0531d60e01b8152338682015260209791831688828681845afa918d8315610a5857918a91899394610a29575b5083610a1b575b83156109a6575b5050501561095a5716978990878a61080c578280929181925af16107916115ff565b50156107cd57505050907f3115d1449a7b732c986cba18244e897a450f61e1bb8d589cd2e69e6c8924f9f7915b519283523392a4600160655580f35b6019906064957f7472656173757279207472616e73666572206661696c656421000000000000009495519562461bcd60e51b8752860152840152820152fd5b505050835185810163a9059cbb60e01b815288838301528784830152838252608082019167ffffffffffffffff818410818511176109465760c08201908111848210176109465787528783527f5361666545524332303a206c6f772d6c6576656c2063616c6c206661696c656460a08201525161089b92918c918291828e5af16108946115ff565b908b61162f565b80519086821592831561092e575b505050156108dc57505050907f3115d1449a7b732c986cba18244e897a450f61e1bb8d589cd2e69e6c8924f9f7916107be565b602a906084957f5361666545524332303a204552433230206f7065726174696f6e20646964206e9495519562461bcd60e51b8752860152840152820152691bdd081cdd58d8d9595960b21b6064820152fd5b61093e93508201810191016117ac565b3886816108a9565b84604188634e487b7160e01b600052526000fd5b855162461bcd60e51b81528086018890526022818501527f54726561737572793a207769746864726177206e6f7420617574686f72697a658186015261642160f01b6064820152608490fd5b8951631241377160e31b815293509091839182905afa908115610a11578c916109d7575b508216331485883861076f565b90508781813d8311610a0a575b6109ee818361146f565b81010312610a0657518281168103610a0657386109ca565b8b80fd5b503d6109e4565b87513d8e823e3d90fd5b60995460ff16159350610768565b610a4a919450823d8411610a51575b610a42818361146f565b8101906117ac565b9238610761565b503d610a38565b8951903d90823e3d90fd5b509060237f54726561737572793a2077697468647261776e20616d6f756e74206973207a65926020608496519562461bcd60e51b875286015284015282015262726f2160e81b6064820152fd5b5090601f7f5265656e7472616e637947756172643a207265656e7472616e742063616c6c00926020606496519562461bcd60e51b8752860152840152820152fd5b600080fd5b919050346101ea57806003193601126101ea57610b116113fd565b610b19611413565b60975490916001600160a01b039186908316803b1561011d5781602491875192838092630ceb3b9b60e21b8252338c8301525afa80156106d1579084939291610c2a575b5050169081865260209260988452818588205416610be7571693610b82851515611703565b828451809263313ce56760e01b825281885afa9081156106aa57600860ff6098959493610bb7938a91610bd057501614611760565b855252822080546001600160a01b031916909117905580f35b6106a49150863d881161038157610373818361146f565b845162461bcd60e51b8152808701859052601960248201527f54726561737572793a20616c72656164792065786973747321000000000000006044820152606490fd5b610c3691929350611429565b6106cd5781908638610b5d565b90508234610444578060031936011261044457507f00000000000000000000000000000000000000000000000000000000000000006001600160a01b03163003610c9e57602082516000805160206118438339815191528152f35b6020608492519162461bcd60e51b8352820152603860248201527f555550535570677261646561626c653a206d757374206e6f742062652063616c60448201527f6c6564207468726f7567682064656c656761746563616c6c00000000000000006064820152fd5b8391508260031936011261011d57610d1c6113fd565b9060249384359067ffffffffffffffff82116110335736602383011215611033578183013591610d4b83611491565b610d578351918261146f565b83815260209384820192368a8383010111611021578189928b8893018637830101526001600160a01b037f0000000000000000000000000000000000000000000000000000000000000000811690610db1308314156114ad565b610dce60008051602061184383398151915292828454161461150e565b8060975416803b1561102f57898b91875192838092630ceb3b9b60e21b8252338d8301525afa801561102557908a9161100d575b50507f4910fdfa16fed3260ed0e7147f7cc6da11a60208b5b9406d12a635614ffd91435460ff1615610e40575050505050505061044191925061156f565b87939496989597169086516352d1902d60e01b815288818b81865afa60009181610fde575b50610ec357875162461bcd60e51b8152808b018a9052602e818d01527f45524331393637557067726164653a206e657720696d706c656d656e7461746960448201526d6f6e206973206e6f74205555505360901b6064820152608490fd5b99919396949892959903610f8a575050610edc8461156f565b7fbc7cd75a20ee27fd9adebab32041f755214dbc6bffa90cc0225b39da2e5c2d3b600080a2815115801590610f82575b610f19575b505050505080f35b610f7794600092660819985a5b195960ca1b837f416464726573733a206c6f772d6c6576656c2064656c65676174652063616c6c86955198610f5a8a611453565b60278a528901528701525190845af4610f716115ff565b9161162f565b508180808080610f11565b506001610f0c565b835162461bcd60e51b81529182018790526029908201527f45524331393637557067726164653a20756e737570706f727465642070726f786044820152681a58589b195555525160ba1b6064820152608490fd5b90918a82813d8311611006575b610ff5818361146f565b81010312610444575051908c610e65565b503d610feb565b61101690611429565b61102157888b610e02565b8880fd5b86513d8c823e3d90fd5b8980fd5b8480fd5b50503461011d578160031936011261011d5760209060ff6099541690519015158152f35b91503461011d57602036600319011261011d578035928315158094036101ea576097546001600160a01b031691823b156101dc5783906024835180958193630ceb3b9b60e21b835233908301525afa9081156110de57506110ca575b505060ff80196099541691161760995580f35b6110d390611429565b61011d5781386110b7565b513d84823e3d90fd5b919050346101ea576020806003193601126101dc576111046113fd565b916001600160a01b037f0000000000000000000000000000000000000000000000000000000000000000811661113c308214156114ad565b61115960008051602061184383398151915291838354161461150e565b816097541687813b15610444578451630ceb3b9b60e21b8152338982015291829060249082905afa80156113bc576113a9575b508251908482019282841067ffffffffffffffff851117611394578385528883527f4910fdfa16fed3260ed0e7147f7cc6da11a60208b5b9406d12a635614ffd91435460ff16156111e757505050505050610441915061156f565b8693949596169085516352d1902d60e01b815287818a81865afa60009181611365575b5061126957865162461bcd60e51b8152808a01899052602e60248201527f45524331393637557067726164653a206e657720696d706c656d656e7461746960448201526d6f6e206973206e6f74205555505360901b6064820152608490fd5b97919294979593950361131057506112808461156f565b7fbc7cd75a20ee27fd9adebab32041f755214dbc6bffa90cc0225b39da2e5c2d3b600080a2815115801590611308575b6112bc57505050505080f35b6112fd94600092660819985a5b195960ca1b837f416464726573733a206c6f772d6c6576656c2064656c65676174652063616c6c86955198610f5a8a611453565b503880808080610f11565b5060006112b0565b825162461bcd60e51b8152908101869052602960248201527f45524331393637557067726164653a20756e737570706f727465642070726f786044820152681a58589b195555525160ba1b6064820152608490fd5b90918982813d831161138d575b61137c818361146f565b81010312610444575051903861120a565b503d611372565b604188634e487b7160e01b6000525260246000fd5b6113b590979197611429565b953861118c565b84513d8a823e3d90fd5b50503461011d578160031936011261011d576020905160128152f35b84903461011d578160031936011261011d5780600860209252f35b600435906001600160a01b0382168203610af157565b602435906001600160a01b0382168203610af157565b67ffffffffffffffff811161143d57604052565b634e487b7160e01b600052604160045260246000fd5b6060810190811067ffffffffffffffff82111761143d57604052565b90601f8019910116810190811067ffffffffffffffff82111761143d57604052565b67ffffffffffffffff811161143d57601f01601f191660200190565b156114b457565b60405162461bcd60e51b815260206004820152602c60248201527f46756e6374696f6e206d7573742062652063616c6c6564207468726f7567682060448201526b19195b1959d85d1958d85b1b60a21b6064820152608490fd5b1561151557565b60405162461bcd60e51b815260206004820152602c60248201527f46756e6374696f6e206d7573742062652063616c6c6564207468726f7567682060448201526b6163746976652070726f787960a01b6064820152608490fd5b803b156115a45760008051602061184383398151915280546001600160a01b0319166001600160a01b03909216919091179055565b60405162461bcd60e51b815260206004820152602d60248201527f455243313936373a206e657720696d706c656d656e746174696f6e206973206e60448201526c1bdd08184818dbdb9d1c9858dd609a1b6064820152608490fd5b3d1561162a573d9061161082611491565b9161161e604051938461146f565b82523d6000602084013e565b606090565b919290156116915750815115611643575090565b3b1561164c5790565b60405162461bcd60e51b815260206004820152601d60248201527f416464726573733a2063616c6c20746f206e6f6e2d636f6e74726163740000006044820152606490fd5b8251909150156116a45750805190602001fd5b6040519062461bcd60e51b82528160208060048301528251908160248401526000935b8285106116ea575050604492506000838284010152601f80199101168101030190fd5b84810182015186860160440152938101938593506116c7565b1561170a57565b60405162461bcd60e51b8152602060048201526015602482015274054726561737572793a20707269636572203d3d203605c1b6044820152606490fd5b90816020910312610af1575160ff81168103610af15790565b1561176757565b60405162461bcd60e51b815260206004820152601e60248201527f54726561737572793a2070726963657220646563696d616c7320213d203800006044820152606490fd5b90816020910312610af157518015158103610af15790565b519069ffffffffffffffffffff82168203610af157565b6001600160a01b0390811660009081526098602052604090205416156117fd57565b60405162461bcd60e51b815260206004820152601860248201527f54726561737572793a20756e6b6e6f776e20746f6b656e2100000000000000006044820152606490fdfe360894a13ba1a3210667c828492db98dca3e2076cc3735a920a3ca505d382bbca26469706673582212209e0fc70f5c1da63de11f05e2043c20d9e6d8452a4472b13a26902c935f8f26e364736f6c63430008120033",
  "devdoc": {
    "events": {
      "AdminChanged(address,address)": {
        "details": "Emitted when the admin account has changed."
      },
      "BeaconUpgraded(address)": {
        "details": "Emitted when the beacon is changed."
      },
      "Initialized(uint8)": {
        "details": "Triggered when the contract has been initialized or reinitialized."
      },
      "Upgraded(address)": {
        "details": "Emitted when the implementation is upgraded."
      }
    },
    "kind": "dev",
    "methods": {
      "addToken(address,address)": {
        "details": "Only verified tokens are used without hidden fees Adds a new token to the protocol. If the token already exists, it will throw an exception. To update the pricer use updateTokenPricer"
      },
      "deleteToken(address)": {
        "details": "Removes a token from use of the protocol. If the token is not registered it will throw an exception"
      },
      "enforceIsSupportedToken(address)": {
        "details": "Checks whether the token is registered. Registered tokens have a pricer"
      },
      "proxiableUUID()": {
        "details": "Implementation of the ERC1822 {proxiableUUID} function. This returns the storage slot used by the implementation. It is used to validate the implementation's compatibility when performing an upgrade. IMPORTANT: A proxy pointing at a proxiable contract should not be considered proxiable itself, because this risks bricking a proxy that upgrades to it, by delegating to itself until out of gas. Thus it is critical that this function revert if invoked through a proxy. This is guaranteed by the `notDelegated` modifier."
      },
      "updateTokenPricer(address,address)": {
        "details": "Updates the pricer of an already registered token. If the token is not registered it will throw an exception"
      },
      "upgradeTo(address)": {
        "custom:oz-upgrades-unsafe-allow-reachable": "delegatecall",
        "details": "Upgrade the implementation of the proxy to `newImplementation`. Calls {_authorizeUpgrade}. Emits an {Upgraded} event."
      },
      "upgradeToAndCall(address,bytes)": {
        "custom:oz-upgrades-unsafe-allow-reachable": "delegatecall",
        "details": "Upgrade the implementation of the proxy to `newImplementation`, and subsequently execute the function call encoded in `data`. Calls {_authorizeUpgrade}. Emits an {Upgraded} event."
      }
    },
    "version": 1
  },
  "userdoc": {
    "kind": "user",
    "methods": {},
    "version": 1
  },
  "storageLayout": {
    "storage": [
      {
        "astId": 371,
        "contract": "contracts/core/Treasury.sol:Treasury",
        "label": "_initialized",
        "offset": 0,
        "slot": "0",
        "type": "t_uint8"
      },
      {
        "astId": 374,
        "contract": "contracts/core/Treasury.sol:Treasury",
        "label": "_initializing",
        "offset": 1,
        "slot": "0",
        "type": "t_bool"
      },
      {
        "astId": 353,
        "contract": "contracts/core/Treasury.sol:Treasury",
        "label": "__gap",
        "offset": 0,
        "slot": "1",
        "type": "t_array(t_uint256)50_storage"
      },
      {
        "astId": 668,
        "contract": "contracts/core/Treasury.sol:Treasury",
        "label": "__gap",
        "offset": 0,
        "slot": "51",
        "type": "t_array(t_uint256)50_storage"
      },
      {
        "astId": 683,
        "contract": "contracts/core/Treasury.sol:Treasury",
        "label": "_status",
        "offset": 0,
        "slot": "101",
        "type": "t_uint256"
      },
      {
        "astId": 752,
        "contract": "contracts/core/Treasury.sol:Treasury",
        "label": "__gap",
        "offset": 0,
        "slot": "102",
        "type": "t_array(t_uint256)49_storage"
      },
      {
        "astId": 7014,
        "contract": "contracts/core/Treasury.sol:Treasury",
        "label": "addressBook",
        "offset": 0,
        "slot": "151",
        "type": "t_address"
      },
      {
        "astId": 7018,
        "contract": "contracts/core/Treasury.sol:Treasury",
        "label": "pricers",
        "offset": 0,
        "slot": "152",
        "type": "t_mapping(t_address,t_address)"
      },
      {
        "astId": 7020,
        "contract": "contracts/core/Treasury.sol:Treasury",
        "label": "onlyGovernanceWithdrawn",
        "offset": 0,
        "slot": "153",
        "type": "t_bool"
      }
    ],
    "types": {
      "t_address": {
        "encoding": "inplace",
        "label": "address",
        "numberOfBytes": "20"
      },
      "t_array(t_uint256)49_storage": {
        "base": "t_uint256",
        "encoding": "inplace",
        "label": "uint256[49]",
        "numberOfBytes": "1568"
      },
      "t_array(t_uint256)50_storage": {
        "base": "t_uint256",
        "encoding": "inplace",
        "label": "uint256[50]",
        "numberOfBytes": "1600"
      },
      "t_bool": {
        "encoding": "inplace",
        "label": "bool",
        "numberOfBytes": "1"
      },
      "t_mapping(t_address,t_address)": {
        "encoding": "mapping",
        "key": "t_address",
        "label": "mapping(address => address)",
        "numberOfBytes": "32",
        "value": "t_address"
      },
      "t_uint256": {
        "encoding": "inplace",
        "label": "uint256",
        "numberOfBytes": "32"
      },
      "t_uint8": {
        "encoding": "inplace",
        "label": "uint8",
        "numberOfBytes": "1"
      }
    }
  }
}