{
  "address": "0x02CF0aabEC796bDCd5959633F76c09aCdfdB526f",
  "abi": [
    {
      "inputs": [],
      "stateMutability": "nonpayable",
      "type": "constructor"
    },
    {
      "anonymous": false,
      "inputs": [
        {
          "indexed": false,
          "internalType": "address",
          "name": "previousAdmin",
          "type": "address"
        },
        {
          "indexed": false,
          "internalType": "address",
          "name": "newAdmin",
          "type": "address"
        }
      ],
      "name": "AdminChanged",
      "type": "event"
    },
    {
      "anonymous": false,
      "inputs": [
        {
          "indexed": true,
          "internalType": "address",
          "name": "beacon",
          "type": "address"
        }
      ],
      "name": "BeaconUpgraded",
      "type": "event"
    },
    {
      "anonymous": false,
      "inputs": [
        {
          "indexed": false,
          "internalType": "uint8",
          "name": "version",
          "type": "uint8"
        }
      ],
      "name": "Initialized",
      "type": "event"
    },
    {
      "anonymous": false,
      "inputs": [
        {
          "indexed": true,
          "internalType": "address",
          "name": "implementation",
          "type": "address"
        }
      ],
      "name": "Upgraded",
      "type": "event"
    },
    {
      "anonymous": false,
      "inputs": [
        {
          "indexed": true,
          "internalType": "address",
          "name": "from",
          "type": "address"
        },
        {
          "indexed": true,
          "internalType": "address",
          "name": "to",
          "type": "address"
        },
        {
          "indexed": true,
          "internalType": "address",
          "name": "token",
          "type": "address"
        },
        {
          "indexed": false,
          "internalType": "uint256",
          "name": "amount",
          "type": "uint256"
        }
      ],
      "name": "Withdraw",
      "type": "event"
    },
    {
      "inputs": [],
      "name": "PRICERS_DECIMALS",
      "outputs": [
        {
          "internalType": "uint256",
          "name": "",
          "type": "uint256"
        }
      ],
      "stateMutability": "view",
      "type": "function"
    },
    {
      "inputs": [],
      "name": "USD_DECIMALS",
      "outputs": [
        {
          "internalType": "uint256",
          "name": "",
          "type": "uint256"
        }
      ],
      "stateMutability": "view",
      "type": "function"
    },
    {
      "inputs": [
        {
          "internalType": "address",
          "name": "_token",
          "type": "address"
        },
        {
          "internalType": "address",
          "name": "_pricer",
          "type": "address"
        }
      ],
      "name": "addToken",
      "outputs": [],
      "stateMutability": "nonpayable",
      "type": "function"
    },
    {
      "inputs": [],
      "name": "addressBook",
      "outputs": [
        {
          "internalType": "address",
          "name": "",
          "type": "address"
        }
      ],
      "stateMutability": "view",
      "type": "function"
    },
    {
      "inputs": [
        {
          "internalType": "address",
          "name": "_token",
          "type": "address"
        }
      ],
      "name": "deleteToken",
      "outputs": [],
      "stateMutability": "nonpayable",
      "type": "function"
    },
    {
      "inputs": [
        {
          "internalType": "address",
          "name": "_token",
          "type": "address"
        }
      ],
      "name": "enforceIsSupportedToken",
      "outputs": [],
      "stateMutability": "view",
      "type": "function"
    },
    {
      "inputs": [
        {
          "internalType": "address",
          "name": "_addressBook",
          "type": "address"
        }
      ],
      "name": "initialize",
      "outputs": [],
      "stateMutability": "nonpayable",
      "type": "function"
    },
    {
      "inputs": [
        {
          "internalType": "bytes[]",
          "name": "data",
          "type": "bytes[]"
        }
      ],
      "name": "multicall",
      "outputs": [
        {
          "internalType": "bytes[]",
          "name": "results",
          "type": "bytes[]"
        }
      ],
      "stateMutability": "nonpayable",
      "type": "function"
    },
    {
      "inputs": [],
      "name": "onlyGovernanceWithdrawn",
      "outputs": [
        {
          "internalType": "bool",
          "name": "",
          "type": "bool"
        }
      ],
      "stateMutability": "view",
      "type": "function"
    },
    {
      "inputs": [
        {
          "internalType": "address",
          "name": "",
          "type": "address"
        }
      ],
      "name": "pricers",
      "outputs": [
        {
          "internalType": "address",
          "name": "",
          "type": "address"
        }
      ],
      "stateMutability": "view",
      "type": "function"
    },
    {
      "inputs": [],
      "name": "proxiableUUID",
      "outputs": [
        {
          "internalType": "bytes32",
          "name": "",
          "type": "bytes32"
        }
      ],
      "stateMutability": "view",
      "type": "function"
    },
    {
      "inputs": [
        {
          "internalType": "bool",
          "name": "_value",
          "type": "bool"
        }
      ],
      "name": "setOnlyProductOwnerWithdrawn",
      "outputs": [],
      "stateMutability": "nonpayable",
      "type": "function"
    },
    {
      "inputs": [
        {
          "internalType": "address",
          "name": "_token",
          "type": "address"
        },
        {
          "internalType": "address",
          "name": "_pricer",
          "type": "address"
        }
      ],
      "name": "updateTokenPricer",
      "outputs": [],
      "stateMutability": "nonpayable",
      "type": "function"
    },
    {
      "inputs": [
        {
          "internalType": "address",
          "name": "newImplementation",
          "type": "address"
        }
      ],
      "name": "upgradeTo",
      "outputs": [],
      "stateMutability": "nonpayable",
      "type": "function"
    },
    {
      "inputs": [
        {
          "internalType": "address",
          "name": "newImplementation",
          "type": "address"
        },
        {
          "internalType": "bytes",
          "name": "data",
          "type": "bytes"
        }
      ],
      "name": "upgradeToAndCall",
      "outputs": [],
      "stateMutability": "payable",
      "type": "function"
    },
    {
      "inputs": [
        {
          "internalType": "uint256",
          "name": "_usdAmount",
          "type": "uint256"
        },
        {
          "internalType": "address",
          "name": "_token",
          "type": "address"
        }
      ],
      "name": "usdAmountToToken",
      "outputs": [
        {
          "internalType": "uint256",
          "name": "",
          "type": "uint256"
        }
      ],
      "stateMutability": "view",
      "type": "function"
    },
    {
      "inputs": [
        {
          "internalType": "address",
          "name": "_token",
          "type": "address"
        },
        {
          "internalType": "uint256",
          "name": "_amount",
          "type": "uint256"
        },
        {
          "internalType": "address",
          "name": "_recipient",
          "type": "address"
        }
      ],
      "name": "withdraw",
      "outputs": [],
      "stateMutability": "nonpayable",
      "type": "function"
    }
  ],
  "transactionHash": "0x1001e7c81a4d62de08c1ab5d986206723284648db8f6b33c93e3095a81dbf8a6",
  "args": [],
  "numDeployments": 1,
  "solcInputHash": "651dbab8f727aed77f00dddc4300e6b7",
  "bytecode": "0x60a080604052346100dc57306080526000549060ff8260081c1661008a575060ff8082160361004f575b60405161184c90816100e28239608051818181610c6b01528181610d68015261108c0152f35b60ff90811916176000557f7f26b83ff96e1f2b6a682f133852f6798a09c465da95921460cefb3847402498602060405160ff8152a138610029565b62461bcd60e51b815260206004820152602760248201527f496e697469616c697a61626c653a20636f6e747261637420697320696e697469604482015266616c697a696e6760c81b6064820152608490fd5b600080fdfe608060408181526004918236101561001657600080fd5b600092833560e01c91826324682c03146112c0575081632f6ee695146112a45781633659cfe614611064578382634051064714610fd8575081634cf4ae8214610fb45781634f1ef28614610d1857816352d1902d14610c555781635476bd7214610ad557816369328dec1461082b578163ac9650d814610688578163ad878d2e1461056a578163c4d66de8146103f4578163c906fea0146103cc578163ccedf78a146101ec578163f069f7121461014757508063f5887cdd1461011f5763ff0d54b4146100e257600080fd5b3461011b57602036600319011261011b576020916001600160a01b039082908261010a6112db565b168152609885522054169051908152f35b5080fd5b503461011b578160031936011261011b5760975490516001600160a01b039091168152602090f35b9050346101e85760203660031901126101e8576101626112db565b6097546001600160a01b03928591841690813b156101e85782906024875180948193630ceb3b9b60e21b835233908301525afa80156101de576101c6575b50506101ab8161178f565b1682526098602052812080546001600160a01b031916905580f35b6101cf90611307565b6101da5783386101a0565b8380fd5b85513d84823e3d90fd5b8280fd5b9050346101e857816003193601126101e8576001600160a01b039281359290846102146112f1565b168082526020956098875283832054168015610392579060a0859392855196878092633fabe5a360e21b82525afa948515610336579087918396610340575b50845163313ce56760e01b815291908290859082905afa908115610336579060ff918391610309575b501690604d82116102f65750600a0a938481029481860414901517156102e1576305f5e100938481029481860414901517156102e15782156102cc575090670de0b6b3a764000091519204048152f35b601290634e487b7160e01b6000525260246000fd5b601190634e487b7160e01b6000525260246000fd5b634e487b7160e01b815260118352602490fd5b6103299150883d8a1161032f575b6103218183611331565b8101906116fb565b3861027c565b503d610317565b84513d84823e3d90fd5b9150945060a0813d821161038a575b8161035c60a09383611331565b8101031261011b5786816103708593611778565b506103816080838301519201611778565b50959091610253565b3d915061034f565b835162461bcd60e51b815280860188905260146024820152736e6f7420737570706f7274656420746f6b656e2160601b6044820152606490fd5b83346103f15760203660031901126103f1576103ee6103e96112db565b61178f565b80f35b80fd5b9050346101e85760203660031901126101e85761040f6112db565b9083549160ff8360081c16159283809461055d575b8015610546575b156104ec5760ff1981166001178655836104db575b506001600160a01b03169081156104a857506bffffffffffffffffffffffff60a01b6097541617609755610472575080f35b60207f7f26b83ff96e1f2b6a682f133852f6798a09c465da95921460cefb38474024989161ff001984541684555160018152a180f35b606490602085519162461bcd60e51b8352820152600d60248201526c5f61646472657373426f6f6b2160981b6044820152fd5b61ffff191661010117855538610440565b845162461bcd60e51b8152602081850152602e60248201527f496e697469616c697a61626c653a20636f6e747261637420697320616c72656160448201526d191e481a5b9a5d1a585b1a5e995960921b6064820152608490fd5b50303b15801561042b5750600160ff82161461042b565b50600160ff821610610424565b919050346101e857806003193601126101e8576105856112db565b61058d6112f1565b6097546001600160a01b0392919086908416803b1561011b5781602491875192838092630ceb3b9b60e21b8252338c8301525afa801561067e579085939291610661575b50506105dc8361178f565b16936105e885156116b7565b60208451809263313ce56760e01b825281885afa9081156106575760ff61061b926008928991610639575b501614611714565b1683526098602052822080546001600160a01b031916909117905580f35b610651915060203d811161032f576103218183611331565b38610613565b84513d88823e3d90fd5b61066d91929350611307565b61067a57829086386105d1565b8580fd5b86513d84823e3d90fd5b83833461011b57602090816003193601126101e85783359167ffffffffffffffff94858411610827573660238501121561082757838101359386851161067a576024916005973684888b1b85010111610823576106ea87939798969598611675565b966106f786519889611331565b838852601f1961070685611675565b01875b818110610814575050368190036042190190875b85811061078257505050505050508051938080860192818752855180945283818801981b870101940192955b8287106107565785850386f35b909192938280610772600193603f198a820301865288516113a6565b9601920196019592919092610749565b86818d9c999a9c1b8301013583811215610810578201878101359085821161080c5760440190803603821361080c576107cf916107c091369161136f565b6107c8611538565b9030611592565b6107d9828c61168d565b526107e4818b61168d565b5060001981146107fa576001019997969961071d565b634e487b7160e01b8b5260118552868bfd5b8c80fd5b8b80fd5b60608a82018c01528a01610709565b8780fd5b8480fd5b9050346101e85760603660031901126101e8576108466112db565b6024926001600160a01b036044358181169486359493929091869003610ad0578415610a82576097548351635ee0531d60e01b8152338482015260209591831686828b81845afa918215610a7857859188918d94610a59575b5083610a4b575b83156109d6575b50505015610989571695825163a9059cbb60e01b81528683820152858282015284816044818c8c5af190811561097f578991610952575b5015610919575050907f3115d1449a7b732c986cba18244e897a450f61e1bb8d589cd2e69e6c8924f9f791519283523392a480f35b60649360169293519362461bcd60e51b8552840152820152754552433230207472616e73666572206661696c65642160501b6044820152fd5b6109729150853d8711610978575b61096a8183611331565b810190611760565b386108e4565b503d610960565b84513d8b823e3d90fd5b835162461bcd60e51b81528084018690526022818a01527f54726561737572793a207769746864726177206e6f7420617574686f72697a65604482015261642160f01b6064820152608490fd5b8751631241377160e31b815293509091839182905afa908115610a41578a91610a07575b50821633148386386108ad565b90508581813d8311610a3a575b610a1e8183611331565b81010312610a3657518281168103610a3657386109fa565b8980fd5b503d610a14565b85513d8c823e3d90fd5b60995460ff161593506108a6565b610a71919450823d84116109785761096a8183611331565b923861089f565b86513d8d823e3d90fd5b506023866020608494519362461bcd60e51b85528401528201527f54726561737572793a2077697468647261776e20616d6f756e74206973207a65604482015262726f2160e81b6064820152fd5b600080fd5b919050346101e857806003193601126101e857610af06112db565b610af86112f1565b60975490916001600160a01b039186908316803b1561011b5781602491875192838092630ceb3b9b60e21b8252338c8301525afa801561067e579084939291610c3c575b505016908115610c0f5781865260209260988452818588205416610bcc571693610b678515156116b7565b828451809263313ce56760e01b825281885afa90811561065757600860ff6098959493610b9c938a91610bb557501614611714565b855252822080546001600160a01b031916909117905580f35b6106519150863d881161032f576103218183611331565b845162461bcd60e51b8152808701859052601960248201527f54726561737572793a20616c72656164792065786973747321000000000000006044820152606490fd5b835162461bcd60e51b815260208187015260076024820152665f746f6b656e2160c81b6044820152606490fd5b610c4891929350611307565b61067a5781908638610b3c565b905082346103f157806003193601126103f157507f00000000000000000000000000000000000000000000000000000000000000006001600160a01b03163003610cb057602082516000805160206117f78339815191528152f35b6020608492519162461bcd60e51b8352820152603860248201527f555550535570677261646561626c653a206d757374206e6f742062652063616c60448201527f6c6564207468726f7567682064656c656761746563616c6c00000000000000006064820152fd5b9050816003193601126101e857610d2d6112db565b9160243567ffffffffffffffff8111610827573660238201121561082757610d5e903690602481860135910161136f565b6001600160a01b037f00000000000000000000000000000000000000000000000000000000000000008116929190610d98308514156113e6565b610db56000805160206117f7833981519152948286541614611447565b868160975416803b1561011b5781602491865192838092630ceb3b9b60e21b8252338c8301525afa80156101de57610f9c575b50507f4910fdfa16fed3260ed0e7147f7cc6da11a60208b5b9406d12a635614ffd91435460ff1615610e225750505050506103ee906114a8565b82516352d1902d60e01b815290861696949560209593949091868189818c5afa60009181610f6d575b50610eaa57855162461bcd60e51b8152808901889052602e60248201527f45524331393637557067726164653a206e657720696d706c656d656e7461746960448201526d6f6e206973206e6f74205555505360901b6064820152608490fd5b979491959296939703610f1a57505050610ec3826114a8565b7fbc7cd75a20ee27fd9adebab32041f755214dbc6bffa90cc0225b39da2e5c2d3b600080a2815115801590610f12575b610efc57505080f35b610f0e91610f08611538565b91611592565b5080f35b506001610ef3565b5162461bcd60e51b815291820152602960248201527f45524331393637557067726164653a20756e737570706f727465642070726f786044820152681a58589b195555525160ba1b606482015260849150fd5b90918882813d8311610f95575b610f848183611331565b810103126103f15750519038610e4b565b503d610f7a565b610fa590611307565b610fb0578638610de8565b8680fd5b50503461011b578160031936011261011b5760209060ff6099541690519015158152f35b91503461011b57602036600319011261011b578035928315158094036101e8576097546001600160a01b031691823b156101da5783906024835180958193630ceb3b9b60e21b835233908301525afa90811561105b5750611047575b505060ff80196099541691161760995580f35b61105090611307565b61011b578138611034565b513d84823e3d90fd5b8391503461011b57602090816003193601126101e8576110826112db565b6001600160a01b037f0000000000000000000000000000000000000000000000000000000000000000811695919391906110be308814156113e6565b6110db6000805160206117f7833981519152978289541614611447565b8060975416803b15610fb05786602491845192838092630ceb3b9b60e21b8252338a8301525afa801561129a57611287575b5081519083820182811067ffffffffffffffff8211176112725783528682527f4910fdfa16fed3260ed0e7147f7cc6da11a60208b5b9406d12a635614ffd91435460ff16156111665750505050506103ee9192506114a8565b85919294969395169684516352d1902d60e01b8152868189818c5afa60009181611243575b506111ea57855162461bcd60e51b8152808901889052602e60248201527f45524331393637557067726164653a206e657720696d706c656d656e7461746960448201526d6f6e206973206e6f74205555505360901b6064820152608490fd5b979491959296939703610f1a57505050611203826114a8565b7fbc7cd75a20ee27fd9adebab32041f755214dbc6bffa90cc0225b39da2e5c2d3b600080a281511580159061123b57610efc57505080f35b506000610ef3565b90918882813d831161126b575b61125a8183611331565b810103126103f1575051908a61118b565b503d611250565b604186634e487b7160e01b6000525260246000fd5b61129390969196611307565b948761110d565b83513d89823e3d90fd5b50503461011b578160031936011261011b576020905160128152f35b84903461011b578160031936011261011b5780600860209252f35b600435906001600160a01b0382168203610ad057565b602435906001600160a01b0382168203610ad057565b67ffffffffffffffff811161131b57604052565b634e487b7160e01b600052604160045260246000fd5b90601f8019910116810190811067ffffffffffffffff82111761131b57604052565b67ffffffffffffffff811161131b57601f01601f191660200190565b92919261137b82611353565b916113896040519384611331565b829481845281830111610ad0578281602093846000960137010152565b919082519283825260005b8481106113d2575050826000602080949584010152601f8019910116010190565b6020818301810151848301820152016113b1565b156113ed57565b60405162461bcd60e51b815260206004820152602c60248201527f46756e6374696f6e206d7573742062652063616c6c6564207468726f7567682060448201526b19195b1959d85d1958d85b1b60a21b6064820152608490fd5b1561144e57565b60405162461bcd60e51b815260206004820152602c60248201527f46756e6374696f6e206d7573742062652063616c6c6564207468726f7567682060448201526b6163746976652070726f787960a01b6064820152608490fd5b803b156114dd576000805160206117f783398151915280546001600160a01b0319166001600160a01b03909216919091179055565b60405162461bcd60e51b815260206004820152602d60248201527f455243313936373a206e657720696d706c656d656e746174696f6e206973206e60448201526c1bdd08184818dbdb9d1c9858dd609a1b6064820152608490fd5b604051906060820182811067ffffffffffffffff82111761131b5760405260278252660819985a5b195960ca1b6040837f416464726573733a206c6f772d6c6576656c2064656c65676174652063616c6c60208201520152565b6000806115d19493602081519101845af43d156115d4573d916115b483611353565b926115c26040519485611331565b83523d6000602085013e6115d8565b90565b6060915b9192901561163a57508151156115ec575090565b3b156115f55790565b60405162461bcd60e51b815260206004820152601d60248201527f416464726573733a2063616c6c20746f206e6f6e2d636f6e74726163740000006044820152606490fd5b82519091501561164d5750805190602001fd5b60405162461bcd60e51b8152602060048201529081906116719060248301906113a6565b0390fd5b67ffffffffffffffff811161131b5760051b60200190565b80518210156116a15760209160051b010190565b634e487b7160e01b600052603260045260246000fd5b156116be57565b60405162461bcd60e51b8152602060048201526015602482015274054726561737572793a20707269636572203d3d203605c1b6044820152606490fd5b90816020910312610ad0575160ff81168103610ad05790565b1561171b57565b60405162461bcd60e51b815260206004820152601e60248201527f54726561737572793a2070726963657220646563696d616c7320213d203800006044820152606490fd5b90816020910312610ad057518015158103610ad05790565b519069ffffffffffffffffffff82168203610ad057565b6001600160a01b0390811660009081526098602052604090205416156117b157565b60405162461bcd60e51b815260206004820152601860248201527f54726561737572793a20756e6b6e6f776e20746f6b656e2100000000000000006044820152606490fdfe360894a13ba1a3210667c828492db98dca3e2076cc3735a920a3ca505d382bbca2646970667358221220ca0d166e443560fcb16c098438dc4bc024131aa7d35c0b394e34ad92dcb336bd64736f6c63430008120033",
  "devdoc": {
    "events": {
      "AdminChanged(address,address)": {
        "details": "Emitted when the admin account has changed."
      },
      "BeaconUpgraded(address)": {
        "details": "Emitted when the beacon is changed."
      },
      "Initialized(uint8)": {
        "details": "Triggered when the contract has been initialized or reinitialized."
      },
      "Upgraded(address)": {
        "details": "Emitted when the implementation is upgraded."
      }
    },
    "kind": "dev",
    "methods": {
      "addToken(address,address)": {
        "details": "Only verified tokens are used without hidden fees Adds a new token to the protocol. If the token already exists,  it will throw an exception. To update the pricer use updateTokenPricer"
      },
      "deleteToken(address)": {
        "details": "Removes a token from use of the protocol.  If the token is not registered it will throw an exception"
      },
      "enforceIsSupportedToken(address)": {
        "details": "Checks whether the token is registered. Registered tokens have a pricer"
      },
      "multicall(bytes[])": {
        "custom:oz-upgrades-unsafe-allow-reachable": "delegatecall",
        "details": "Receives and executes a batch of function calls on this contract."
      },
      "proxiableUUID()": {
        "details": "Implementation of the ERC1822 {proxiableUUID} function. This returns the storage slot used by the implementation. It is used to validate the implementation's compatibility when performing an upgrade. IMPORTANT: A proxy pointing at a proxiable contract should not be considered proxiable itself, because this risks bricking a proxy that upgrades to it, by delegating to itself until out of gas. Thus it is critical that this function revert if invoked through a proxy. This is guaranteed by the `notDelegated` modifier."
      },
      "updateTokenPricer(address,address)": {
        "details": "Updates the pricer of an already registered token.  If the token is not registered it will throw an exception"
      },
      "upgradeTo(address)": {
        "custom:oz-upgrades-unsafe-allow-reachable": "delegatecall",
        "details": "Upgrade the implementation of the proxy to `newImplementation`. Calls {_authorizeUpgrade}. Emits an {Upgraded} event."
      },
      "upgradeToAndCall(address,bytes)": {
        "custom:oz-upgrades-unsafe-allow-reachable": "delegatecall",
        "details": "Upgrade the implementation of the proxy to `newImplementation`, and subsequently execute the function call encoded in `data`. Calls {_authorizeUpgrade}. Emits an {Upgraded} event."
      }
    },
    "version": 1
  },
  "userdoc": {
    "kind": "user",
    "methods": {},
    "version": 1
  },
  "storageLayout": {
    "storage": [
      {
        "astId": 371,
        "contract": "contracts/core/Treasury.sol:Treasury",
        "label": "_initialized",
        "offset": 0,
        "slot": "0",
        "type": "t_uint8"
      },
      {
        "astId": 374,
        "contract": "contracts/core/Treasury.sol:Treasury",
        "label": "_initializing",
        "offset": 1,
        "slot": "0",
        "type": "t_bool"
      },
      {
        "astId": 353,
        "contract": "contracts/core/Treasury.sol:Treasury",
        "label": "__gap",
        "offset": 0,
        "slot": "1",
        "type": "t_array(t_uint256)50_storage"
      },
      {
        "astId": 668,
        "contract": "contracts/core/Treasury.sol:Treasury",
        "label": "__gap",
        "offset": 0,
        "slot": "51",
        "type": "t_array(t_uint256)50_storage"
      },
      {
        "astId": 2717,
        "contract": "contracts/core/Treasury.sol:Treasury",
        "label": "__gap",
        "offset": 0,
        "slot": "101",
        "type": "t_array(t_uint256)50_storage"
      },
      {
        "astId": 5666,
        "contract": "contracts/core/Treasury.sol:Treasury",
        "label": "addressBook",
        "offset": 0,
        "slot": "151",
        "type": "t_address"
      },
      {
        "astId": 5670,
        "contract": "contracts/core/Treasury.sol:Treasury",
        "label": "pricers",
        "offset": 0,
        "slot": "152",
        "type": "t_mapping(t_address,t_address)"
      },
      {
        "astId": 5672,
        "contract": "contracts/core/Treasury.sol:Treasury",
        "label": "onlyGovernanceWithdrawn",
        "offset": 0,
        "slot": "153",
        "type": "t_bool"
      }
    ],
    "types": {
      "t_address": {
        "encoding": "inplace",
        "label": "address",
        "numberOfBytes": "20"
      },
      "t_array(t_uint256)50_storage": {
        "base": "t_uint256",
        "encoding": "inplace",
        "label": "uint256[50]",
        "numberOfBytes": "1600"
      },
      "t_bool": {
        "encoding": "inplace",
        "label": "bool",
        "numberOfBytes": "1"
      },
      "t_mapping(t_address,t_address)": {
        "encoding": "mapping",
        "key": "t_address",
        "label": "mapping(address => address)",
        "numberOfBytes": "32",
        "value": "t_address"
      },
      "t_uint256": {
        "encoding": "inplace",
        "label": "uint256",
        "numberOfBytes": "32"
      },
      "t_uint8": {
        "encoding": "inplace",
        "label": "uint8",
        "numberOfBytes": "1"
      }
    }
  }
}